:020000040800F2
:10000000000003205D0600081125000813250008E4
:100010001525000817250008192500080000000014
:100020000000000000000000000000000181000846
:100030001B2500080000000091810008B979000824
:10004000AD060008AD060008AD060008AD060008C4
:10005000AD060008AD060008AD060008AD060008B4
:10006000AD060008AD060008AD060008AD060008A4
:10007000AD060008AD060008AD060008AD06000894
:10008000AD060008AD060008AD060008AD06000884
:10009000AD060008AD060008AD060008AD06000874
:1000A000AD060008AD060008AD060008AD06000864
:1000B000AD060008AD060008AD060008AD06000854
:1000C000AD060008AD060008AD060008AD06000844
:1000D000AD060008AD060008AD060008AD06000834
:1000E000AD060008AD060008AD060008AD06000824
:1000F000AD060008AD060008AD060008AD06000814
:10010000AD060008AD060008AD060008AD06000803
:10011000AD060008AD0600081D250008AD06000864
:10012000AD060008AD060008AD060008AD060008E3
:10013000AD060008AD060008AD060008AD060008D3
:10014000AD060008AD060008AD060008AD060008C3
:10015000AD060008AD060008AD060008AD060008B3
:10016000AD060008AD060008AD060008AD060008A3
:10017000AD060008AD060008AD060008000000004E
:10018000AD060008AD060008AD060008AD06000883
:10019000AD060008AD060008AD060008AD06000873
:0C01A00029250008AD06000835250008E0
:1001B00010B5054C237833B9044B13B10448AFF3A1
:1001C00000800123237010BD800300200000000088
:1001D000B44D020808B5034B1BB103490348AFF304
:1001E000008008BD0000000084030020B44D020818
:1001F00001F0FF01102A2BDB10F0070F08D010F8D8
:10020000013B013A8B422DD010F0070F42B3F6D1DB
:10021000F0B441EA012141EA014122F007047FF0F4
:1002200000070023F0E80256083C85EA010586EA4B
:10023000010685FA47F5A3FA87F586FA47F6A5FA87
:1002400087F68EB9EED1F0BC01F0FF0102F0070293
:1002500032B110F8013B013A83EA010313B1F8D13E
:100260000020704701387047002D06BF354603381F
:10027000073815F0010F07D1013015F4807F02BF58
:10028000013015F4C03F0130F0BC0138704700BFA9
:100290007BB972B90029BEBF00204FF0004106E0D3
:1002A00008BF00281CBF6FF000414FF0FF3000F086
:1002B000D3B9ADF1080C6DE904CE002909DB002BA0
:1002C0001ADB00F04DF8DDF804E0DDE9022304B0AC
:1002D0007047404261EB4101002B1BDB00F040F80E
:1002E000DDF804E0DDE9022304B0404261EB4101A6
:1002F000524263EB43037047524263EB430300F007
:100300002FF8DDF804E0DDE9022304B0404261EBA0
:1003100041017047524263EB430300F021F8DDF8DE
:1003200004E0DDE9022304B0524263EB430370476B
:1003300053B94AB9002908BF00281CBF4FF0FF314C
:100340004FF0FF3000F088B9ADF1080C6DE904CE34
:1003500000F006F8DDF804E0DDE9022304B07047A0
:100360002DE9F047089D8E4604468846002B4AD169
:100370008A42174662D9B2FA82F64EB1C6F120031C
:1003800001FA06F820FA03F3B74043EA0808B4403C
:100390004FEA174E1FFA87FCB8FBFEF1230C0EFB49
:1003A000118843EA084301FB0CF29A4209D9FB1871
:1003B00001F1FF3080F0EA809A4240F2E780023992
:1003C0003B449A1AA3B2B2FBFEF00EFB102243EAA2
:1003D000024300FB0CFC9C4509D9FB1800F1FF32DD
:1003E00080F0D6809C4540F2D3803B44023840EAFE
:1003F0000140A3EB0C0300211DB1F3400022C5E92D
:100400000032BDE8F0878B4205D90DB1C5E9000186
:1004100000210846F5E7B3FA83F1002946D1734578
:1004200002D3824200F20581841A6EEB030201209E
:100430009046002DE5D0C5E90048E2E7002A00F02B
:100440009080B2FA82F6002E40F0A4808A1A030C43
:100450004FEA174E80B2BCB20121B2FBFEFC0EFB8C
:100460001C2243EA024304FB0CF29A4207D9FB1810
:100470000CF1FF3802D29A4200F2E080C4469B1A87
:10048000B3FBFEF20EFB123340EA034302FB04F41B
:100490009C4207D9FB1802F1FF3002D29C4200F2C5
:1004A000CA8002461B1B42EA0C40A5E7C1F12006A8
:1004B0008B4022FA06F71F430EFA01F420FA06F3E6
:1004C0002EFA06FE4FEA1749234300FA01F81FFAF5
:1004D00087FCBEFBF9F01C0C09FB10EE44EA0E444D
:1004E00000FB0CFEA64502FA01F209D93C1900F105
:1004F000FF3A80F09C80A64540F2998002383C4447
:10050000A4EB0E041FFA83FEB4FBF9F309FB1344BA
:100510004EEA044403FB0CFCA44508D93C1903F142
:10052000FF3E80F08280A4457FD9023B3C4443EAF1
:100530000040A4EB0C04A0FB02EC64457346E146CA
:1005400062D35FD05DB1B8EB030264EB090404FA37
:1005500006F622FA01F31E43CC40C5E900640021EF
:100560004FE7B1FBF2FC010C41EA0E4180B240EAD8
:1005700001423B4638463C46B846BE462026B1FBC3
:10058000F7F1A2EB080241EA0C4166E7014618E7E1
:1005900010462CE7C6F120022EFA02F3B740B14014
:1005A00020FA02F24FEA174E0A43B3FBFEF8BCB240
:1005B0000EFB1833110C41EA034108FB04F9B0406B
:1005C00089454FEA104380B23ED9791808F1FF3CC3
:1005D00001D289451FD8A1EB0901B1FBFEF909FB46
:1005E00004F80EFB191192B242EA0142424529D2A7
:1005F000BA1809F1FF31C4D24245C2D2A9F10201B1
:100600003A44BEE7F0459DD2BEEB02036CEB070C0B
:100610000138E14696E7A7EB09094944A8F1020C25
:10062000B1FBFEF909FB04F8DBE773467FE75046B0
:1006300066E70846FDE63B44023A33E7ACF1020CBC
:100640003B441CE749469CE7A1EB0901C446B1FBCA
:10065000FEF909FB04F8C4E7704700BFDFF834D0A7
:10066000002103E00C4B5B58435004310B480C4B0A
:1006700042189A42F6D30B4A02E0002342F8043BA8
:10068000094B9A42F9D304F0BFFC23F025FE01F098
:10069000DDF8704700000320C0C3050800000020FB
:1006A000740100208003002084430120FEE770478E
:1006B00008B500F0B9FDBDE8084000F03DBD00F010
:1006C000B5BD704710B50421044622F007FC204652
:1006D00010BD000038B50C4B0C4C18800C4B822020
:1006E00019806368984740F6110398420AD1094D72
:1006F00023682C60822098472B688220DB6898470B
:10070000002038BD0120FCE7A60300205C0000208B
:10071000A4030020A80300204FF4A071F020FFF7ED
:10072000D9BF0000F7B5394D2B6804461B698220FC
:100730009847208000284ED02B680DF106025B6997
:1007400001A982209847324B1B78002B4BD0BDF873
:10075000062040F674639A423FD9ADF80630BDF8E2
:1007600006209B1A9BB20A2B42D90B22B3FBF2F351
:10077000284A1288934201D9013A93B2BDF8042065
:10078000254840F6B8318A4234D8C2F571620E323B
:10079000016892B20F25B2FBF5F2204D2D88AA42D6
:1007A00084BF05F1FF35AAB28A4215468EB22AD916
:1007B000921B91B21A4E3768BB42BAB28CBF9A1ADA
:1007C000D21A92B211440529C4BF05603360036890
:1007D00063803368A38003B0F0BDB32A9CBFB4220A
:1007E000ADF80620BBE7BDF80630A3F5B473B9E752
:1007F0000023C3E7C2F56D62083292B20E2A016887
:10080000C8D800252A46891A89B2D3E7A803002050
:1008100070200020A4030020A0030020A6030020D5
:100820009C03002037B568460D461446FFF77AFF53
:10083000BDF8000030B1BDF802302B60BDF80430C7
:100840002360012003B030BD032821D8DFE800F089
:10085000020B12190F4B1A68B2FA82F252090421E4
:100860000D4805F097B80B4B5A68B2FA82F252095C
:100870000821F5E7074B9A68B2FA82F25209102173
:10088000EEE7044BDA68B2FA82F252092021E7E778
:10089000704700BFAC03002000100240032821D89D
:1008A000DFE800F0020B12190F4B1A68003A18BF6C
:1008B000012204210D4805F06DB80B4B5A68003A2F
:1008C00018BF01220821F5E7074B9A68003A18BFC4
:1008D00001221021EEE7044BDA68003A18BF01222A
:1008E0002021E7E7704700BFAC0300200010024062
:1008F00003280DD8DFE800F00206080A04210548A5
:1009000005F04DB80821FAE71021F8E72021F6E7B5
:10091000704700BF0010024008B5032811D8DFE877
:1009200000F0020A0C0E0421074805F02DF8431EC2
:100930005842584108BD0821F6E71021F4E720216C
:10094000F2E70020F3E700BF0010024070B5084D49
:1009500000240126E0B2FFF7DFFF18B12B68012B5E
:1009600018BF2E600134052C05F10405F2D170BDCD
:10097000AC030020012380F8781080F879307047AC
:100980007047002070470000034B4164003918BFD6
:1009900001211970704700BF4336012070470020C5
:1009A0007047836B0BB10846184770474FF6FF70CE
:1009B0007047406803689B691847704770477047E5
:1009C0007047704710B5044600F046FD23680349A0
:1009D000D3F890302046BDE810401847000000D002
:1009E00008B503680446D3F8843098472368204646
:1009F000DB6F984700F0ECF8236820465B6F984760
:100A0000292001F03DFA00F0E3F8236820465B6FEF
:100A10009847F8E710B504460AF022FA2368204602
:100A2000D3F8BC30BDE81040184700F0F9BC00F026
:100A3000FDBC00F02FBD00F0CFBC00F03FBD00F0CA
:100A400047BD00F0D3BC09F039BC10B58421044681
:100A500022F044FA204610BD10B590F8341090F8FA
:100A600078400C4B8C421A7809D03AB90A4A0B49A3
:100A70001488088810800C8001221A7010BD002A8A
:100A8000FCD0054A05491488088810800C80002293
:100A9000F3E700BF3C360120383601203A3601200A
:100AA00070B50D46194635B9094B0A4A0A4840F255
:100AB000FF2123F04FF9C0E90F52084B003A18BF4D
:100AC00001221A700368BDE87040D3F890301847CF
:100AD000244E02085C4E0208AA4E0208423601204B
:100AE00008B5094B1B888B4203D8084B1B889342DF
:100AF00005D9074B074A0848A32123F02BF9074BD8
:100B00001980074B1A8008BD383601203A3601207B
:100B1000EF4E0208524F0208AA4E02083E3601204C
:100B200040360120034690F87A0018B158680368EF
:100B30001B68184770470000012108B500220846CD
:100B400006F0DCFF0A4B186028B90A4B0A4A282134
:100B50000A4823F0FFF800220421012007F076F86C
:100B6000074B186018B9074B034A2C21F0E708BD62
:100B7000C0030020954F0208DE4F02080D50020806
:100B8000BC0300204F500208024B4FF0FF311868A1
:100B900006F0FEBFC0030020014B186807F024B820
:100BA000C0030020024B0021186806F0F1BF00BF0F
:100BB000C0030020FFF7F0BF03480449006800238A
:100BC0001A4607F07EB800BFBC03002004000020D6
:100BD00013B5084C00231A4601A9206807F0A2F8B3
:100BE00020684FF0FF33002201A907F09BF802B004
:100BF00010BD00BFBC03002003685B6C18470120D8
:100C0000704703689B6A1847FEE740F2EF30704771
:100C1000054B0360054B4FF08062C3F88820BFF39B
:100C20004F8FBFF36F8F7047985C020800E100E0C0
:100C300010B504464FF45A61FFF7EAFF204622F050
:100C40004DF9204610BD000082B0002301930E4BE9
:100C50001A6B42F400021A631A6B02F4000201924A
:100C6000019A1A6942F400021A611A6922F4000218
:100C70001A61064B064A1A61064A5A61064B4FF042
:100C800080629A6002B0704700380240142200204F
:100C9000E90E0008090C000800E100E008B50A2888
:100CA00009D8DFE800F006100E0808080810101038
:100CB0001000022008BD054B054A0648902123F08C
:100CC00049F80020F6E70120F4E700BF9150020840
:100CD000AC500208F750020838B50C46887FFFF781
:100CE000DDFFA58AE28A164B2169586342EA054274
:100CF0005A64628BD963521B1A642568082D0ED181
:100D00009A611A615862207F0E4A42EA0062DA61F3
:100D1000E2681A620C4A5961D9601A6038BD002233
:100D2000D8611A61E1680A0A480902F4784200F4BD
:100D3000FC600243C1F3C4010A439A63034AECE72F
:100D400000B002400900010001230200012303005A
:100D500008B50B280BD8DFE800F00612100A0A0AC3
:100D60000A0808080808022008BD0520FCE7054B12
:100D7000054A06486F2122F0EDFF0020F4E701202C
:100D8000F2E700BF9150020837510208F7500208FD
:100D90002DE9F04191F81D800C464046FFF7D8FF41
:100DA000A77F05463846FFF7D3FF06463846FFF7CC
:100DB00075FFA18A628B444B521A1A649A61228B86
:100DC000521A1A61E28A586342EA01425A6421695E
:100DD0006268D963DA602068802828D0227F0FD823
:100DE000202867D0402865D004281AD0364B45EA21
:100DF000026545F40035B845DD6161D0334A44E011
:100E0000B0F5807F04D0B0F5007FEFD1304800E02E
:100E1000304840EA0262DA61E2681A625E62596151
:100E200032E045EA026242F40032DA61F6E7A06895
:100E3000021DDA62227F45EA026545F40035DD6174
:100E40005E625961017841B1012921D0224B234AC8
:100E500023484FF48D7122F07DFFDA69418822F436
:100E60007F42013922F0100242EA0122DA610121B7
:100E7000154BDA6942F02002DA61DA699206FCD495
:100E800010229A600029B9D0164A1A60BDE8F08194
:100E9000B2F1FF01DA69408822F47F4200F1FF30AD
:100EA00022F0100242EA002242F0100218BF012193
:100EB000DA61DDE745EA0262034B42F40032B4E74F
:100EC00042F20132E1E700BF00B00240012301001D
:100ED000090002000A000200815102089B51020829
:100EE000F750020801230200024B1B685868036890
:100EF0005B6918474436012070B5044625460A4B05
:100F00000C30002660602672667245F8203B602235
:100F100029460AF0FBF804F55A63EE6024359D4239
:100F2000FBD1204670BD00BF985C0208034B1A68D5
:100F3000D207FCD423229A60704700BF00B0024061
:100F40007047000030B50F4C2568ED07FCD4232511
:100F50000904A56041F001010225FF2B656361646E
:100F6000E0630AD00849656241EA0363E361074B25
:100F700022626061E060236030BDE561039BA36392
:100F8000034BF8E700B00240090001000100020035
:100F90000100030030B50E4C2568ED07FCD4232575
:100FA0001204A56042F001020225FF2B6563626412
:100FB000E063E16008D01B0643F00213E361054BD8
:100FC00065626061236030BD034BE3610123F9E793
:100FD00000B0024001000200020002FF30B50B4CDD
:100FE0002568ED07FCD4232512041B06A56043F4F5
:100FF0000033022542F0010265636264E063E16050
:10100000E361034B65626061236030BD00B0024064
:1010100001000200012070474020704700EB811062
:101020000830704700EB811008307047012070478E
:101030004FF4326070474FF4326303FB0100083015
:1010400070474FF4326303FB010008307047012002
:1010500070471020704700EB01100830704700EB1C
:10106000011008307047084601F0CEBC10B5034BA4
:101070000360044608F079FE204610BD505D02086A
:1010800010B50446FFF7F2FF2046482121F026FF65
:10109000204610BD10B5034B0360044608F065FE02
:1010A000204610BD1C5D020810B50446FFF7F2FF94
:1010B000204640F6283121F011FF204610BD0000E7
:1010C00010B5034B0360044608F04FFE204610BDE8
:1010D000E85C020810B50446FFF7F2FF204618212D
:1010E00021F0FCFE204610BD10B5084B03600446FD
:1010F00000F65430FFF7BAFF04F12C00FFF7CAFFE7
:1011000004F11400FFF7DCFF204610BD845D0208E7
:1011100008B50248FFF7E8FF08BD00BF9C12002099
:1011200010B50446FFF7E0FF204640F6FC4121F0F1
:10113000D5FE204610BD00002DE9F34101F06EFA06
:10114000054601F06FFA0024014623462846224650
:10115000009412F011FE274B274A1A60204602F035
:1011600089FB264D264B274A27489A6012F06CFDD2
:101170002B68BFF35B8FDB0735D4284621F0B0FE28
:1011800088B3224C224B236004F53A6604F1140024
:1011900004F12C0804F654376060C4F80880E76056
:1011A000266108F0E3FD1B4B6361404608F0DEFD5D
:1011B000194BE362384608F0D9FD184BC4F8543B8C
:1011C00004F69C3002F0EEFF224604F69C313046D5
:1011D00002F0CAFB304601F017FC114822F0D8FD9E
:1011E000284621F089FE0F4802B0BDE8F041FFF724
:1011F000E9BB00BFA8360120480400209812002057
:10120000680400204C040020080000209C120020EC
:10121000845D0208E85C02081C5D0208505D02085B
:1012200011110008C4030020704700000148FFF7B7
:10123000D7BB00BFC403002070B5264E264C274DF7
:10124000274B23603046FFF757FE284617F09AFEDB
:10125000244810F06FFA244B2448DC6000224FF43D
:101260008071C3E9121222491A86C3E91A12214970
:1012700083F85820C3E91E011F49C3F880101F4995
:101280001F480B60F021C3E90422C3E90622C3E929
:101290000822C3E90A22C3E90E22C3E91022C3E9E6
:1012A0001422C3E917225A6683F870205A67C3E9EB
:1012B000016501801348018013484FF4A07101803B
:1012C0001248018012490A70012283F83420114A21
:1012D0001A6070BDF40400209412002068040020FD
:1012E000144E02084C040020C40300200000010139
:1012F00001000001000450001A00140044360120CF
:10130000383601203E3601203A3601204036012091
:101310003C360120AC5B02080148FFF779BC00BFF6
:10132000F40400200020704781807047C18070471E
:10133000018170474181704770477047704770471F
:10134000704710B4C4880368121B84885B6D091B46
:1013500012B25DF8044B09B218474FF6FF73838150
:101360004FF0FF3303621368C361106070470020C1
:1013700070478B88838001207047704780F8261063
:10138000704790F82600704710B50022B1F9084068
:10139000B1F90A10028042808480C18010BD002211
:1013A000028042808280C28070470177704780ED62
:1013B000080A704780F82410704780F8251070479D
:1013C00001207047983070478C30704784307047E8
:1013D0007047704770470000034B902283F85A23F0
:1013E00083F85823704700BF00E100E0094A0A492A
:1013F000D3680A48C3F30A03013B9BB20B8011690F
:10140000C1F30A01013901801364536B43F00103F6
:1014100053637047006801409A1F0020981F002006
:10142000014BD3F8AC00704700680140024B012229
:10143000C3F8AC105A6270470068014010B52C2107
:10144000044621F04BFD204610BD10B5BC210446DA
:1014500021F044FD204610BD70B5044608F083FF1E
:1014600023689D6E0EF0B4FE01462046A84723680F
:10147000054AD3F88C502046AC460023BDE87040A6
:10148000A2F51631604700BF00B004D008F052BF8B
:1014900008F05CBF08F018BF09F087B890F8252065
:1014A00012B103685B691847704790F825201AB19C
:1014B00090F8242002B1186070470000034B4FF0F1
:1014C00080629A604FF080729A60704700E100E09D
:1014D000084B4FF08062C3F88820BFF34F8FBFF3F3
:1014E0006F8F4FF08072C3F88820BFF34F8FBFF328
:1014F0006F8F704700E100E070B50023124E8380CB
:10150000124B0360336893F8582005460AB1D86C33
:1015100000B998680368DB6A98473368B0FA80F4CA
:10152000D86C640930B10368DB6A9847002808BFAB
:1015300044F001042CB9064B064A07482C2122F03E
:1015400009FC284670BD00BF44360120985D0208A2
:10155000D9510208375202087052020870B5254E60
:101560003568BFF35B8F15F0010540D1304621F09F
:10157000B7FC00283BD0204C204B256104F13400FF
:10158000C4E90035C4E90255E584A562A58510F0DB
:10159000B6FB04F158000BF06FFA194BA365204617
:1015A000184B40F8843BFFF7A7FF174BC4F8843073
:1015B0002433C4F88C304FF4C803C4E92835002321
:1015C000C4F8AC30C4F8B030C4F8B430C4F8B830A3
:1015D0000E480F4BC4F89050C4F89C50C4F8A85063
:1015E000C4F8983022F0D4FB304621F085FC024844
:1015F00070BD00BF9C1F0020A01F002034660208A1
:10160000B85D0208305E0208E8650208D5130008DC
:10161000C865020838B5184C23685BB3174B184AE5
:101620001B6C11888B4216D1164B198804F09CFF55
:10163000236893F86A200025013283F86A2083F832
:101640007C50FFF7B9FA206809F00AFC2846BDE88B
:101650003840FFF7F9B804F087FF24682368204674
:101660001B6A9847012384F87C300020BDE838408D
:10167000FFF714B938BD00BF4436012000680140AF
:101680009A1F0020981F002007B5064BADF80600F2
:101690001B68054801220DF1060105F051FD03B05C
:1016A0005DF804FB0C000020B020002038B5084C89
:1016B000204603F09DFD0A21204603F032FE20461D
:1016C00003F082FE0546204603F010FE284638BD92
:1016D000A422002038B5084C204603F089FD0A21D9
:1016E000204603F01EFE204603F06EFE054620460F
:1016F00003F0FCFD284638BD5C2200202DE9F341B3
:10170000DFF8A880264E274FFFF7D0FF0546FFF7EA
:10171000E1FF294602460446404622F0DFFC322D16
:101720001AD952238DF80730306800231A460DF17C
:10173000070106F0C6FA642C1AD91B4855238DF808
:101740000730006800231A460DF1070106F0B9FAC8
:10175000642006F0C7F9D7E7072D94BF4C234E232A
:101760008DF80730002330681A460DF10701E0E7D5
:10177000072C08D844238DF80730002338681A4610
:101780000DF10701E2E74E2307488DF807300023EB
:101790001A460DF10701006806F093FAEDE700BF65
:1017A0006C2000206420002068200020D252020813
:1017B00030B595B0102200210AA822F0E4FC1422D2
:1017C000002103A822F0DFFC00241E4B01941A6CB8
:1017D00042F080521A641B6C03F080530193019B0A
:1017E000194B02941A6842F440421A601B6803F4D1
:1017F000404302930122029B4FF48033CDE908233A
:1018000002254FF480030821CDE90E534FF4B47341
:10181000CDE9101308A804231393129504F0FCFEDD
:1018200004F0C0FE0F23CDE903354FF4A0504FF470
:101830008053CDE90603052103A8059405F0C8F8F7
:1018400015B030BD00380240007000402DE98048DE
:101850009BB003F0E7FBFFF7ABFF142200210DA8BC
:1018600022F091FC0024C94B00941A6BC84842F046
:1018700010021A631A6B02F010020092009A01948F
:101880001A6B42F020021A631A6B02F020020192D6
:10189000019A02941A6B42F080021A631A6B02F0EA
:1018A00080020292029A03941A6B42F004021A63B5
:1018B0001A6B02F004020392039A04941A6B42F02A
:1018C00001021A631A6B02F001020492049A059451
:1018D0001A6B42F002021A631A6B02F002020592BE
:1018E000059A06941A6B42F040021A631A6B02F0D2
:1018F00040020692069A07941A6B42F008021A6395
:101900001B6B03F00803224607933C21079B04F05E
:1019100041F8A0480122022104F03CF822469D48EB
:10192000042104F037F822469B484FF4405104F05C
:1019300031F8224699484FF4005104F02BF8012663
:101940003C23032592480F940DA90227CDE90D36BB
:10195000109503F035FF8F480DA9CDE90D764FF0B6
:101960000408CDE90F4403F02BFF8A480DA9CDE907
:101970000D86CDE90F4703F023FF4FF4405386480F
:101980000DA9CDE90D36CDE90F4703F019FF8248C7
:101990000F940DA9CDE90D8503F012FF4FF400530C
:1019A0007E480DA9CDE90D36CDE90F4403F008FFBF
:1019B0000DA906237A480F94CDE90D3503F000FFF9
:1019C0007848794B794D036003F0F0FDDFF8FCC1F6
:1019D000774B2C62C5E900C328464FF48043C5E924
:1019E0000434C5E90244C5E9064404F0E1F91021D4
:1019F000284604F025FC2146284604F040FC6D4DA5
:101A0000DFF8CCE1AC624FF48273C5E900E34FF438
:101A100000781823C5E9068328460A23C5E902444D
:101A2000C5E90444C5E90844EB6205F02DFB8F23AA
:101A30002246394657488DF824308DF8344003F05B
:101A4000A9FF32464FF47A7309A9284605F078FBBE
:101A50004FF47A7332460DA9284605F01DFD324633
:101A600039464C4803F096FF9DF83430D32B04BF21
:101A7000514B1E70514E524B0125C6E900354FF0B7
:101A8000100940230024C6E904934FF4C073C6E94B
:101A900006344FF40063C6E908344FF400534FF0A6
:101AA00002084FF0040A4FF0030BB3620DA907239D
:101AB00030460827CDE90FA3CDE90D83C6E9024AD8
:101AC000CDE911B8CDF84C8005F0C2F94FF6FF72A0
:101AD00009A93046CDE90A75089409950C9405F0DA
:101AE000D7F9284603F0CAFA4FF6FF7209A9304623
:101AF000CDE90987CDE90B5405F0CAF94FF6FF721D
:101B000009A93046CDE909B7CDE90BA405F0C0F924
:101B10004FF40C730893089B0C934FF6FF7209A9BE
:101B20003046CDE909A70B9505F0B2F940F26A51AC
:101B3000304605F0CBF9342221460DEB020022F0AD
:101B400022FB204E204B3461C6E900340923C6E94C
:101B500005351D23C6E9073B40F20D1240F2431341
:101B6000C6E9092340F2171140F247133046C6E98F
:101B70000B13C6E90244B48686F8364004F012FC22
:101B8000FF21F022CDE9121424E000BF003802400A
:101B90000010024000080240000C02400018024001
:101BA000000002405422002000300240C0210020EA
:101BB000A0860100B0200020702000207C200020A2
:101BC000400100A01821002000680140005C004096
:101BD000005001404FF4806005214FF4A073CDE91F
:101BE0001401CDE90E240DA9CDE916423046224656
:101BF0004E4E1893CDE910380D94ADF864408DF831
:101C0000664004F083FC4A4B33601B68DFF87CA11C
:101C100098473368474EDB689847474B3046C6E9DC
:101C20000034C6E90284C6E90A48C6E90C4403F058
:101C3000CDFC2946304603F07FFD404E4A46214602
:101C40000DA822F0A0FA3E4BB4604FF4803B304622
:101C5000C6E9003B3461347686F82040F462C6F869
:101C600028A0F460F56186F83040756103F01AFA37
:101C70000DA93046CDE90D55324E0F9403F0A8FB67
:101C80004A4621460DA822F07EFA2F4BB46030461A
:101C9000C6E9003BC6E90AA43461347686F82040E0
:101CA000F460F56186F83040756103F0FBF90DA929
:101CB0003046CDE90D850F9403F08AFB2348244B71
:101CC000036005F079F8FEF7F3FCFEF7F0FC05F091
:101CD00081FE204A2946384605F0B8FF1E4B1F4AB0
:101CE00018602946384605F0B1FF1D4B1D4A1860A3
:101CF0002946384605F0AAFF1B4B1C4A18602946A6
:101D0000384605F0A3FF1A4B1A4A186021461A48B4
:101D100005F08CFE194B1A4A18602146194805F047
:101D200085FE194B186005F067FEFEE75C20002079
:101D3000240000201422002000B00240A422002031
:101D4000002001405C2200200021014008210020E9
:101D500000080650BC5E02086C200020A45E020849
:101D6000682000208C5E020864200020745E020857
:101D700060200020F85E0208FD1600087820002090
:101D8000D45E0208BF060008742000200100000F86
:101D9000704770477FB5094B8DF817201B68029379
:101DA0000DF117020123009201930A4601460448EF
:101DB00004F0A6F807B05DF804FB00BF1000002097
:101DC000C02100207FB500238DF81730084B1B6819
:101DD00002930A4601230DF1170100910193014678
:101DE000044804F01DF99DF8170007B05DF804FBE6
:101DF00010000020C02100201FB5084C246800926C
:101E0000CDE901340A4601230146054804F008F9EA
:101E1000003818BF012004B010BD00BF1000002022
:101E2000C021002003F02AB910B5064C002220463C
:101E3000042103F0AFFD20460122BDE8104004213B
:101E400003F0A8BD0008024038B50B4D044601223E
:101E50000A484FF4005103F09DFD0022042128465A
:101E600003F098FD2046FFF70FFC28460122BDE84D
:101E70003840042103F08EBD00080240000C0240EF
:101E800038B50B4D044600220A484FF4005103F0C8
:101E900081FD00220421284603F07CFD2046FFF747
:101EA000F3FB28460122BDE83840042103F072BD4F
:101EB00000080240000C0240F7B5144E144F0546CE
:101EC0000C4630460022042103F064FD00224FF44A
:101ED0000051384603F05EFD2846FFF7D5FB0D4B59
:101EE0000D481B68224601A905F0D6FA38460122A2
:101EF0004FF40051019C03F04DFD304601220421B6
:101F000003F048FD204603B0F0BD00BF00080240CA
:101F1000000C02400C000020B020002003F0AEB8FE
:101F20000268034B9A4201D103F096B8704700BF94
:101F3000001000407047000082B00E4B002200925B
:101F4000596C41F480415964596C01F4804100910D
:101F500000990192196C41F0805119641B6C03F0D7
:101F600080530193019B0F216FF0010002B003F039
:101F7000DDBA00BF0038024010B514228AB0044612
:101F800000210DEB020022F0FEF823681E4A934266
:101F90001FD11E4B002101915A6C42F480725A6489
:101FA0005A6C02F480720192019A02911A6B42F00B
:101FB00001021A631B6B03F001030293029B0223CD
:101FC00005931348032305A9069303F0F9FB0AB010
:101FD00010BD104A9342FAD10C4B002103915A6C68
:101FE00042F400725A645A6C02F400720392039A2B
:101FF00004911A6B42F001021A631B6B03F0010398
:102000000493049B0423DBE70020014000380240D6
:1020100000000240002101400268094B9A4282B050
:102020000BD100230193074B1A6B42F480521A63C1
:102030001B6B03F480530193019B02B0704700BFF8
:10204000003002400038024007B50F4B02689A4248
:1020500016D10022A3F5F0430192196B41F400015F
:1020600019631B6B03F40003019305215A20019BA4
:1020700003F05CFA5A2003B05DF804EB03F088BA71
:1020800003B05DF804FB00BF00B002402DE9F0434F
:10209000044689B01422002103A822F074F82268B3
:1020A000244B9A4243D1244C244800250095236BAD
:1020B00043F004032363236B03F004030093009BAA
:1020C0000195236B43F001032363236B03F00103AA
:1020D0000193019B4FF012094FF400734FF0010878
:1020E0000327042603A9CDE90339CDE9058707961F
:1020F00003F066FB4FF480731148079603A9CDE9FE
:102100000339CDE9058703F05BFB0295236C43F4AB
:1021100000032364236C03F400030293029B236AED
:1021200043F400032362236A23F40003236209B00B
:10213000BDE8F083005C0040003802400008024027
:1021400000000240F0B599B004461422002107A80F
:1021500022F019F830220DEB0200002122F013F8D2
:1021600022685E4B9A4240F0B78008230C93C0234C
:102170001093042312930CA84FF40033159304F02A
:10218000EFFC08B1FFF7D6FE554B564800240094EB
:102190005A6C42F080625A645A6C02F0806200927B
:1021A000009A01941A6B42F020021A631A6B02F033
:1021B00020020192019A02941A6B42F001021A6302
:1021C0001A6B02F001020292029A03941A6B42F017
:1021D00002021A631A6B02F002020392039A049439
:1021E0001A6B42F040021A631A6B02F0400204922A
:1021F000049A05941A6B42F004021A631A6B02F0F7
:1022000004020592059A06941A6B42F008021A63BA
:102210001B6B03F00803069302250E26069B0B9604
:102220004FF4806307A9CDE90735CDE9094503F0EF
:10223000C7FA41F658032C480B9607A9CDE9073594
:102240000927CDE9094503F0BBFA032327480B977B
:1022500007A9CDE90735CDE9094503F0B1FA4FF4F7
:10226000706322480B9607A9CDE90735CDE90945EA
:1022700003F0A6FA4FF40C631D480B9607A9CDE9AD
:102280000735CDE9094503F09BFAC02319480B96A1
:1022900007A9CDE90735CDE9094503F091FA0823EF
:1022A00015480B9607A9CDE90735CDE9094503F097
:1022B00087FA4FF4A0530E480B9707A9CDE90735CD
:1022C000CDE9094503F07CFA58202246052103F0A8
:1022D0002DF9582003F05CF919B0F0BD00680140F9
:1022E0000038024000140240000002400004024096
:1022F0000018024000080240000C02400268094B2E
:102300009A4282B00BD100230193074B5A6B42F0E3
:1023100040025A635B6B03F040030193019B02B0E0
:10232000704700BF000806500038024010B5044650
:1023300088B01422002103A821F025FF2268144B45
:102340009A4223D103F56843002101915A6C114848
:1023500042F480125A645A6C02F480120192019A7B
:1023600002911A6B42F020021A631B6B03F02003E8
:102370000293029B4FF4607202230321CDE90323F1
:102380000523CDE9061303A903F01AFA08B010BD1E
:1023900000500140001402402DE9F04186B00023B6
:1023A00003932B4B1C68002C4FD14FF00108C3F84E
:1023B0000080284B00949A6B274842EA08029A63EF
:1023C0009B6B03EA08030093022703260C25009B5E
:1023D00001A94FF63F03CDE90137CDE9046503F0CC
:1023E000EFF91E48059501A9CDE90187CDE903461E
:1023F00003F0E6F948F233131948059501A9CDE930
:102400000137CDE9034603F0DBF94FF68373154836
:10241000059501A9CDE90137CDE9034603F0D0F9CF
:102420004CF203731048059501A9CDE90137CDE9B8
:10243000034603F0C5F960230C48059501A9CDE9D1
:102440000137CDE9034603F0BBF906B0BDE8F081E2
:10245000EC22002000380240001402400008024034
:102460000018024000100240000C0240000402402C
:1024700070B588B000230293204B1A6C42F0100212
:102480001A641B6C03F010030293054601A903A80C
:10249000029B04F047FB069B4BBB04F033FB184E3A
:1024A000184B336040F2E733F360174BB0FBF3F3A4
:1024B000013B7360304600233361B360B36105F0C4
:1024C000B5F9044680B9304605F08AF8044658B993
:1024D000362003F05DF80F2D0DD822462946362010
:1024E00003F024F8094B1D60204608B070BD04F0CD
:1024F00009FB4000D3E70124F6E700BF00380240A3
:10250000F02200200010004040420F008C0000200C
:102510007047FEE7FEE7FEE7FEE77047014805F07B
:102520009DB800BFF0220020014803F092BF00BF19
:1025300018210020014803F075B800BF14220020C4
:102540000120704708B521F0C1FE162303604FF04B
:10255000FF3008BD08B521F0B9FE16230360FEE781
:1025600070B50D4614460E46731B9C4201DC204696
:1025700070BDAFF3008006F8010BF5E770B50D46AE
:1025800014460E46731B9C4201DC204670BD16F8B3
:10259000010BAFF30080F5E74FF0FF3070474FF4C9
:1025A00000534B60002070470120704700207047A7
:1025B0000A4A116808B5034609B90949116010684B
:1025C000694603448B4206D921F080FE0C23036048
:1025D0004FF0FF3008BD1360FCE700BF3823002038
:1025E00088430120704710B50421044620F076FC92
:1025F000204610BD012908B506D0022908D059B9D6
:1026000001F084F9006808BD01F080F94068FAE73C
:1026100001F07CF98068F6E70020F4E70048704795
:10262000305F02081120704713B5002451B10368D0
:1026300001948DF8034001AA9C680DF10303A047A3
:1026400002B010BD0846FBE7C0897047008A70479A
:10265000C088704780887047807A00F07F0070479C
:10266000807AC00970470020704700009FED010A82
:10267000704700BF00000000806A7047704710B5C7
:102680000821044620F02AFC204610BD7047704700
:1026900000F598730868496803C37047704770472E
:1026A0004160704770477047064BC0F84C310023BB
:1026B000C0F8503100F5A273C0F84801C0F84031AD
:1026C000704700BF4128000801230372704770471C
:1026D000704710B4C26841685410034601EB6200B1
:1026E000D20748BF0A599B685DF8044B48BFD358CE
:1026F00018470346406830B19A681AB9D86800F0A4
:10270000010070470120704710B50C21044620F0ED
:10271000E5FB204610BD10B51021044620F0DEFB7D
:10272000204610BD10B54FF4AE71044620F0D6FB24
:10273000204610BD10B54021044620F0CFFB2046B6
:1027400010BD10B50DF044FD0368BDE81040DB6B13
:1027500018470000054B1B7801462BB1406818B1A3
:1027600003680C315B6E1847704700BF4336012089
:10277000037A70B50546BBB940680368DB699847C2
:1027800004463CB96868036805F10C011B6EBDE89E
:1027900070401847A1886B8FC91A236820461B6BAD
:1027A00009B29847A469ECE770BD10B50446D0F8AB
:1027B000400158B10368DB68984738B1D4F840014C
:1027C00003689B6898470023C4F8403110BD70B57A
:1027D000044690F8390094F838300130C0B298427D
:1027E00084F8390005D901232372002384F8393095
:1027F00070BDB4F93A2000210FF0EAFEC30706D5F8
:1028000000284FF6FF73C8BF0123184400B2238A83
:10281000C01AA08760680368DB69984705462DB930
:1028200060680368BDE870405B691847A988A38F9A
:1028300019442B6828461B6B09B29847AD69EEE72F
:102840002DE9F14FD0E9556A0746B06803681B6A65
:102850009847EF2805D8444B444AA321444821F027
:1028600079FA706803681B6A98470F2803D8414BB0
:102870003E4AA421F2E7F06803681B6A98470B28D8
:1028800003D83D4B394AA521E8E70DF0A1FCDFF85C
:10289000F09004300DF0DAFCD9F8000010B10368B4
:1028A000DB689847D9F8000010B103681B689847A7
:1028B000DFF8D080D8F8000010B103685B69984752
:1028C000D7F83C0110B103685B689847D8F800005E
:1028D00010B103681B689847D7F83C0110B1036832
:1028E0009B689847F068036800215B6A98474FF03F
:1028F000000B224BC0F804B0044680F808B0036017
:10290000B068036859465B6A9847054601F03EFC8B
:102910007068036859465B6A98472946064601F085
:1029200015FC331DC7F83C61C9F80040C8F80050D9
:10293000CAF800302B68C6F808A02846DB68EE63AA
:102940009847336830461B689847214628460FF061
:1029500039FE236820461B69984723685B69204637
:1029600001B0BDE8F04F18471D530208AB530208F1
:1029700083540208CA5402086D550208086102080F
:102980008C36012088360120044B1B6893F85820B0
:102990000AB1D86C00B99868704700BF443601206E
:1029A000F8B5174604460E460DF01EFD124B1C608E
:1029B000124B2360124B0025C4E95135114BC4E979
:1029C00053551868036801219B68C4E94F55C4E951
:1029D00055769847284600F04DFFFFF7D5FF18F0D1
:1029E0007AF9FFF7D1FF18F0F1F9FFF7CDFF18F0F2
:1029F000F9F92046F8BD00BF98360120B4600208FE
:102A00009C60020844360120064BC0F84C3100237C
:102A1000C0F8503100F5A273C0F84801C0F8403149
:102A2000704700BF41280008064BC0F84C31002316
:102A3000C0F8503100F5A273C0F84801C0F8403129
:102A4000704700BF192C0008064BC0F84C3100231A
:102A5000C0F8503100F5A273C0F84801C0F8403109
:102A6000704700BFDD2A00082DE9F0410546002629
:102A7000164B4660067245F80C3B044628460F4646
:102A80000AF0A2F8124B84F838701B7884F8396089
:102A9000A68723B9012323722046BDE8F0810D4BA0
:102AA0000D4FB3F90080E368B7F900109B6B266106
:102AB00028469847E3684146DB6B284698472846F6
:102AC00009F0FDFF3B885B426387E5E72C61020864
:102AD000433601203A360120383601202DE9F047EF
:102AE000D0E9556A0746B06803681B6A9847B0F595
:102AF000326F05D2414B424AA321424821F02AF9C4
:102B0000706803681B6A98470F2803D83E4B3C4AFD
:102B1000A421F2E7F06803681B6A98473F2803D8AE
:102B20003A4B374AA521E8E70DF052FBDFF8E09079
:102B300004300DF08BFBD9F8000010B10368DB689E
:102B40009847D9F8000010B103681B689847DFF870
:102B5000C480D8F8000010B103685B699847D7F8C3
:102B60003C0110B103685B689847D8F8000010B1C9
:102B700003681B689847D7F83C0110B103689B684D
:102B80009847F068036800215B6A9847142104465F
:102B9000FFF76AFFB068036800215B6A9847054643
:102BA00000F03CFF7068036800215B6A9847294683
:102BB000064600F0F1FE331DC7F83C61C9F800403D
:102BC000C8F80050CAF800302B68C6F808A028469C
:102BD000DB68EE639847336830461B6898472146A8
:102BE00028460FF0EFFC236820461B6998472368AE
:102BF00020465B69BDE8F047184700BF1D53020837
:102C00001056020883540208CA5402086D5502087F
:102C10008C360120883601202DE9F047D0E9556A2D
:102C20000746B06803681B6A9847EF2805D8414BF0
:102C3000414AA321414821F08DF8706803681B6A5E
:102C400098470F2803D83E4B3B4AA421F2E7F0688F
:102C500003681B6A98473F2803D83A4B364AA52198
:102C6000E8E70DF0B5FADFF8E09004300DF0EEFA89
:102C7000D9F8000010B10368DB689847D9F8000064
:102C800010B103681B689847DFF8C080D8F80000CF
:102C900010B103685B699847D7F83C0110B103682D
:102CA0005B689847D8F8000010B103681B68984724
:102CB000D7F83C0110B103689B689847F068036837
:102CC00000215B6A984714210446FFF7CDFEB068E7
:102CD000036800215B6A9847054601F057FA70685F
:102CE000036800215B6A98472946064601F02EFAE0
:102CF000331DC7F83C61C9F80040C8F80050CAF855
:102D000000302B68C6F808A02846DB68EE639847B9
:102D1000336830461B689847214628460FF052FC1E
:102D2000236820461B699847236820465B69BDE8F5
:102D3000F04718471D530208FB5602088354020847
:102D4000CA5402086D5502088C36012088360120CD
:102D50007047704770477047704730B5036885B05B
:102D60006D460181D3F884300146044628469847D1
:102D700095E807003C3484E8070005B030BD30B565
:102D8000036885B06D464181D3F88430014604461E
:102D90002846984795E807003C3484E8070005B0CA
:102DA00030BD0022028042808280C280704780F85D
:102DB0003610704770B5036804461B6B154698477C
:102DC0002368294620465B6EBDE870401847002006
:102DD0007047806C7047704770477047704730B4D9
:102DE000C26844685510034604EB6200D20748BF2E
:102DF00062599B6830BC48BFD358184703464068A7
:102E000030B19A681AB9D86800F001007047012003
:102E1000704710B54C21044620F060F8204610BDE4
:102E200010B51021044620F059F8204610BD10B509
:102E30004FF43571044620F051F8204610BD08B516
:102E4000FEF72CFB08BD0000036870B55E6B124BEB
:102E50001B6804468DB22BB9104B114A6C211148E6
:102E600020F078FF1049828D0988914203D80F4BDA
:102E70000B4A6D21F3E713F812200D4B1B6853F832
:102E8000220003681B6B9847291A3346204609B273
:102E9000BDE87040184700BF9C360120E657020885
:102EA0002858020863580208A0360120AA580208D0
:102EB000A43601206C30884208B505D10DF088F9A0
:102EC000BDE80840FFF7B0BD08BD00224FF0FF315C
:102ED000C0E900218260704770B5036804461B6B2F
:102EE000154698472368294620465B6BBDE870402D
:102EF000184770B504461D46BDF91060FFF7ECFF9A
:102F00002368294620469B6B984723683146204614
:102F1000DB6BBDE8704018470022C0E90122C0E920
:102F20000322C0E90522C0E907224FF4807282849F
:102F3000014A0260704700BF50610208F8B5194BA2
:102F4000018F1B888B4206462AD9174B1B682BB969
:102F5000164B174A17486C2120F0FCFE13F811207D
:102F6000154B1B6853F82250144B186800F0BEFC38
:102F70002B6807469B6B284698472B6804469B6C3A
:102F80003946284698472B6814FB00F45B6A39469B
:102F900028469847A4B223181BB2A6F84630F8BDBD
:102FA0000023FAE7A03601209C360120E6570208EC
:102FB0002858020863580208A4360120A8360120C8
:102FC00038B5262204460D46002121F0DCF82046C3
:102FD000FFF7A2FF064B23602B88E384FF232046E4
:102FE00084F8283029460AF010FC204638BD00BF7E
:102FF000DC68020810B526220446002121F0C3F83F
:103000002046FFF789FF0A4B23600A4BA3624FF665
:10301000FF73A3854FF47F020023C4E90C3223879A
:103020004FF0FF32C4E91023E363204610BD00BF18
:10303000E46702088C6002082DE9F04F044693B063
:10304000A14600250FF012F9CC4BE56349F8403B4F
:1030500026222946484621F096F84846FFF75CFFAD
:10306000C74B236404F16C0BFF2304F1B40A84F80A
:1030700066305846A5660AF0FFFC50460AF0FCFC94
:1030800004F1FC034FF6FF7610A918460793ADF83C
:103090004060FFF795FF04F5947310A91846089354
:1030A000ADF84060FFF78CFF04F5AA7310A918462D
:1030B0000993ADF84060FFF783FF04F5C07318462D
:1030C000B04F0593FFF796FF04F5E673C4F88071DF
:1030D0001846C4F8C8510693FFF78CFF04F5067331
:1030E000C4F8CC711846C4F814520393FFF782FF5A
:1030F00004F5187310A918460493ADF84060FFF763
:103100005FFFA14BC4F86032A04BC4F88C52C4E9F5
:10311000B1349F4B84F8985201274FF0FF38C4E92F
:10312000B3354FF4A0732A464846C4E9A48729461C
:103130000093F023FFF7DDFE261D4FF07F43A366CB
:103140004946304606F024FE5846BD222321FFF7AB
:10315000C3FE4FF0020910AA0FA95846ADF83C7003
:10316000ADF840900AF01FFA05235846A4F8A430A1
:10317000FFF7E4FE04F53173C4F894305946304645
:10318000C4E92A8806F004FE5046BD222321FFF739
:10319000A3FE10AA0FA95046ADF83C70ADF84090C0
:1031A0000AF001FA5046A4F8EC70FFF7C7FE51464A
:1031B0003046C4E93C8806F0EBFD3A460798CC213E
:1031C000FFF78AFE4FF00C0A0798ADF840A010A94F
:1031D0000AF01BFB0799304606F0DAFD3A460898DC
:1031E000A921FFF779FE0898ADF840A010A90AF0D0
:1031F0000CFB0899304606F0CBFD3A46099886212B
:10320000FFF76AFE0998ADF840A010A90AF0FDFA90
:103210000999304606F0BCFD1D2304220598009351
:1032200007216023FFF765FED4F880310599D3F8B4
:103230008430C4F8B0810DF1280A5046A4F8B45186
:1032400098479AE8070004F5DE7383E80700514BBE
:103250001B6804F5277B2BB94F4B504A602150481F
:1032600020F078FD4F4B1B88022B03D84E4B4B4A66
:103270006121F4E74D4B49461868DFF8389100F0BA
:1032800035FB4B4A03460A21584610F0CFFC042375
:103290000598C4F8C8B110A9ADF844304FF0220B1E
:1032A000CDF840900AF022F90599304606F070FDFD
:1032B0000698CDF800B073222946F023FFF719FED7
:1032C000D4F8CC310699D3F88430C4F8FC81504648
:1032D000A4F8005298479AE8070004F5027383E8BF
:1032E000070004F52C730698C4F8143210A90323C0
:1032F000A4F8B052ADF84430CDF840900AF0F6F89A
:103300000699304606F044FD0398CDF800B0F0234E
:1033100073222946FFF7EDFD0399C4F84882504611
:10332000A4F84C5209F03AFE9AE8070004F5157328
:1033300083E807000398CDF8409010A9ADF84450F9
:103340000AF0D4F80399304606F022FD04983A4674
:10335000D021FFF7C1FD09220498082109F022FDC0
:103360000498394609F031FD3046049984F88852B2
:1033700006F00EFD204613B0BDE8F08F6062020833
:1033800074680208B86102086867020848620208A7
:10339000B52E00089C360120E6570208E8580208BE
:1033A00063580208A0360120AA580208A836012056
:1033B000335902088C600208406A7047806A70477F
:1033C00070478A880B8810B5D20A4C88C1699BB2B5
:1033D00051F8220043EA0443184410BD10B50446D6
:1033E000BAB1107B68B1537BD27A1B0203F4E0635D
:1033F0001A43236A03EB82031A888A4202D193F9A3
:10340000020010BD05D8013880B204330028F3D182
:10341000F7E70020F5E710B52C2104461FF05EFD0C
:10342000204610BD30B58BB00446BDF860500895FD
:10343000BDF85C5007959DF8505006959DF84C508E
:1034400005959DF8485004959DF8445003959DF8C6
:10345000405002959DF83C500195BDF838500095BC
:103460000EF00AFD064B2360159BE361169B236259
:10347000199B63621A9BA36220460BB030BD00BF4C
:103480009462020870477047704730B4C26844685D
:103490005510034604EB6200D20748BF62599B688F
:1034A00030BC48BFD35818470346406830B19A68CB
:1034B0001AB9D86800F0010070470120704710B5B4
:1034C000102104461FF00AFD204610BD10B5F02162
:1034D00004461FF003FD204610BD9830884208B511
:1034E00005D10CF075FEBDE80840FFF7ADBA08BD88
:1034F0002DE9F34104460EF0B9FE444B2360444BE2
:103500000025C4E910354FF48072FF2304F16C07E5
:10351000A4F8642084F86630A4F890204FF6FF7376
:103520003C4AE26604F19806A4F8923084F894309C
:1035300001A9C4E91255C4E91455C4E91655C4E9F2
:103540001C55C4E91E55C4E92055C4E92255E5635C
:103550002566A5663846ADF804300AF056F93046BF
:103560000AF08AFA2C4BC4E938342C4B04F1400899
:10357000C4E93A352A4629464046FFF7ADFC4046A5
:10358000F021FDF7D5FE40464FF4A071FDF7D2FEC5
:10359000251D4FF07F43A3664146284606F0F8FB01
:1035A0001B2238461421FFF797FC102301A9384647
:1035B000ADF804300AF029F93946284606F0E8FB50
:1035C0003046BB222321FFF787FC012301AA69466D
:1035D000ADF8003030460223ADF8043009F0E3FFC7
:1035E0000623A4F8D0303046FFF7A8FC4FF0FF3395
:1035F000C4E9353304F1E0032846C4F8C03031464D
:1036000006F0C6FB204602B0BDE8F0811463020854
:1036100074680208DC680208FC620208DB340008F7
:103620007047000030B5164D2C6814F001048FB0BF
:10363000BFF35B8F20D128461FF052FCE0B13F233F
:103640000993104B0893104B104911480A9401221A
:10365000CDE906430423CDE903320A230093CDE9E3
:103660000B44CDE901440594FFF7DCFE094820F046
:103670008FFB28461FF040FC05480FB030BD00BF4F
:103680003C23002074810208A4810208D87F02082C
:1036900040230020213600087047000030B5164D49
:1036A0002C6814F001048FB0BFF35B8F21D1284642
:1036B0001FF016FCE8B13F230993104B0893104B01
:1036C000104911480A94CDE9064301220423CDE9AB
:1036D0000332182300931B22CDE90B44CDE90144AA
:1036E0000594FFF79FFE094820F052FB28461FF083
:1036F00003FC05480FB030BD6C2300207881020820
:10370000A8810208E87F020870230020993600088B
:103710007047000030B5164D2C6814F001048FB0CE
:10372000BFF35B8F20D128461FF0DAFBE0B13F23C7
:103730000993104B0893104B104911480A94012229
:10374000CDE906430423CDE9033228230093CDE9D4
:103750000B44CDE901440594FFF764FE094820F0CD
:1037600017FB28461FF0C8FB05480FB030BD00BF4F
:103770009C230020A0810208AC8102086481020819
:10378000A023002011370008002070470020704758
:103790000EB403B503AB002153F8042B01930DF0D5
:1037A000E9FD02B05DF804EB03B070470CB407B557
:1037B00004AB53F8042B01930DF0DCFD03B05DF86E
:1037C00004EB02B070470000436C10B5044673B3BD
:1037D000038F2BB9184B194AC521194820F0BAFAA2
:1037E000C38E00EB43035B8C0BB30FF076FC238F8F
:1037F000012B03D8134B144ACB21EEE7E28E531C66
:103800009BB2092B194688BFA3F10A0104EB4101C1
:1038100040F63F10498C814209D10A2B04EB420249
:1038200028BF002304EB4303508C58845184204666
:10383000BDE810400FF054BB365902083F5902084A
:10384000EA590208345A0208425A02080FF00FBB24
:1038500010B586B002AC84E806001A460AAB0593A0
:103860000193099B00932146089B0CF04FF806B08A
:1038700010BD000038B518BB124B13481C68134923
:10388000B4B1226822440260626822440A60A268DD
:1038900014440F4B00221A8000F038F8054600F05F
:1038A00033F80C4B1C600C4B1D600C4B188007E070
:1038B0000B4B03600B4B0B600B4B1C68002CE8D1CF
:1038C00038BD00BFD8230020D0230020CC23002007
:1038D000D42300209C360120A4360120A0360120EC
:1038E000CC810208B081020820820208044B1B68C8
:1038F00053F82100034B1B6803EB4000704700BFE7
:10390000CC230020D02300200720704700487047B8
:10391000DC23002010B5FFF7C1FE044C2060FFF748
:10392000F9FE6060FFF77EFEA06010BDDC23002082
:1039300010B5002404600C6014601C6010BD70475A
:1039400010B54FF4AE7104461FF0C8FA204610BD02
:1039500010B50446D0F8580100F027FC2046BDE819
:1039600010400CF0D1BC000010B50446FFF718F869
:10397000014B2360204610BD48630208704704389D
:103980007047704710B5102104461FF0A7FA204673
:1039900010BDA0F10400F5E700228260024A026037
:1039A00018324260C16070479C6302087047000093
:1039B000134B70B50446036040F6F42540F63C1600
:1039C000B54217D140F28476635960191B682C3DCB
:1039D0009847B542F8D140F27475635960191B6875
:1039E0003C3D9847B5F5317FF7D12046FFF7F5F913
:1039F000204670BD635960191B6898472C3DDFE76E
:103A0000C463020810B50446FFF7D2FF20464FF406
:103A100032611FF063FA204610BD00002DE9F04F1F
:103A200005468DB0FFF708FB05F535796A4B2B602D
:103A30004FF6FF7869464846ADF80080FFF7C0FAB8
:103A400005F54077DFF898B105F5F66A3C460026A3
:103A500020466946ADF80080FFF7B2FA0123C4F8AA
:103A600000B0E662A4F83080A4F8328084F83430E4
:103A700084F8356084F8366084F8376084F83860FC
:103A80003C345445E4D105F6681A26464FF6FF78D3
:103A9000304669462C36ADF80080FFF791FA56455E
:103AA000F6D1564605F532684FF6FF7B304669463B
:103AB0002C36ADF800B0FFF783FA4645F6D1474EF5
:103AC000684600F069FCBDF80430B380BDF91C30D5
:103AD000039AB383089BF2603362049A099B3261B4
:103AE0007362059A0A9B726105F10408069AB36233
:103AF0006846BDF82C30B261B38500F05FFC4046EB
:103B000005F16C0106F085F9404605F5E67106F011
:103B100080F9404605F1B40106F07BF9404605F511
:103B2000067106F076F90E2369464846ADF8003076
:103B300009F06BFEB6F90E20B6F90C104846FFF7F7
:103B4000CBF94046494606F023F94FF0040804F546
:103B5000DC762122304640F24111FFF7BDF9D4F85E
:103B6000B83130461B6EADF8008069469847204654
:103B7000212240F24111FFF7AFF9236800261B6EA6
:103B8000ADF80060204669462C3498475445DED194
:103B900034460326B4FBF6F303EB4303E31A012B8D
:103BA00013D0022B14D007220621384609F0FAF868
:103BB00001343846142109F008F9142C07F13C07A8
:103BC000E8D128460DB0BDE8F08F09220821ECE7C6
:103BD0000B220A21E9E700BFC4630208AC280020D9
:103BE000686702082DE9F04F4A4E8FB004463068EE
:103BF00004F0C8F80546002D40F082809DF8128040
:103C0000454DB8F1010F2BD1DFF8249199F8003020
:103C1000002B4DD1261D04F16C073946304606F0C5
:103C2000B7F804F5E67AAB883C4A0A2104F52C7013
:103C30000FF0FCFF5146304606F0AAF838460DF06A
:103C4000C3FC50460DF0C0FC30460DF0BDFC344BBB
:103C500089F8008083F80080324B186803F02AFF4F
:103C60009DF81230022B23D1DFF8C48098F8003081
:103C7000F3B9261D04F1B4073946304604F5067938
:103C800006F086F84946304606F082F838460DF0D0
:103C90009BFC48460DF098FC30460DF095FC204A00
:103CA0000123137088F800301E4B186803F002FFE0
:103CB0001D4F4FF0000838688DF8138004F062F84B
:103CC00004F53576002843D04FF0FF33386842467C
:103CD0000DF1130104F026F89DF81330522B29D171
:103CE000B5F92810114800F0E9FB0F23304605A96B
:103CF000ADF8143009F089FD386804F045F827E084
:103D0000002330681A460DF1120104F00BF8013D52
:103D100071E700BF60200020AC280020145B02087F
:103D2000F1230020EC2300206C200020B428002088
:103D3000E82300204E2B40F03381BC48414600F080
:103D4000BDFB0E2305A93046ADF8143009F05DFD2A
:103D5000B74FDFF81883386804F014F8A8B14FF0B3
:103D6000FF33386800220DF1130103F0DBFF9DF8EB
:103D70001330552B40F01C81AC48B5F9281000F0E9
:103D80009FFBD8F8000003F0FFFFD8F8000003F015
:103D9000F9FFB0B14FF0FF33D8F8000000220DF169
:103DA000130103F0BFFF9DF81330442B40F008814E
:103DB000A96A9E48494209B200F082FB386803F0C4
:103DC000E3FF3046B5F90E20B5F90C10994FFDF719
:103DD000B8FA04F5F66904F6681B4E4604F10408C7
:103DE000B7F91030022B00F0F380042B00F00181B2
:103DF000012B07D13368B7F906209B6DB7F9041082
:103E0000304698472C365E4507F11C07E8D18A4FAB
:103E10005E4604F5326A04F10408B7F91030022B4B
:103E200000F0ED80042B00F0FB80012B07D13368FC
:103E3000B7F906209B6DB7F90410304698472C3629
:103E4000564507F11C07E8D104F5966304F5407A5E
:103E500003937A4ECDF804A0231DA0460293B6F931
:103E60001030022B00F00481042B00F01C81012B88
:103E700008D1D8F80033B6F906209B6DB6F90410C6
:103E800001989847019B3C330193039B08F13C0840
:103E9000984506F12006E2D1694FB5F92C303A7801
:103EA000934204F1040616D05022DBB23B7084F832
:103EB000242184F8502184F87C21002B00F0FE801E
:103EC000FF22012B84F8242105D0022B84F85021F5
:103ED00018BF84F87C21AB885A4A0A2104F5277060
:103EE0000FF0A4FE30460DF06FFB94F8E030002B8D
:103EF00053D0554B02221A60544A00231370544A7F
:103F00001370544A1370544A137000F02BFD04F5DB
:103F1000F668514630460AF13C0A05F07AFFC24580
:103F2000F7D14946304605F074FF09F5DC7130469B
:103F300009F12C0905F06DFFD945F2D104F1B4085F
:103F4000414604F50674304605F063FF21463046CD
:103F500005F05FFF40460DF037FB20460DF034FBC7
:103F600030460DF031FBAB8D3B7000243B4B8DF8A0
:103F700012402022214606A81C6020F004F9384B8C
:103F800005934FF480421823CDE90A23354805AA4A
:103F9000214603F04BFD344B18600FB0BDE8F08FA5
:103FA000A96A2248494209B200F088FA0D239DE629
:103FB0004E2B7FF4EAAE1D48002100F081FAE4E6C2
:103FC0004E2B7FF4FEAE1948002100F079FAF8E696
:103FD0003368B7F906209B6DB7F90410304698474F
:103FE0003146404605F0D4FE0121384600F0AAF9DA
:103FF00008E73146404605F00CFF0321F5E733683A
:10400000B7F906209B6DB7F9041030469847314642
:10401000404605F0BDFE0121384600F093F90EE759
:104020003146404605F0F5FE0321F5E7B4280020AF
:1040300068200020942700207C260020FC230020FC
:1040400014000020145B02081C000020F92300204B
:10405000F2230020F1230020E8230020200000208C
:10406000175B020895460008EC230020642000201E
:10407000D8F80033B6F906209B6DB6F90410019804
:104080009847D8F8003301985B6E1F4601231A4603
:104090000021B847DDE9011005F07AFE0121304624
:1040A00000F050F9EEE6D8F8003301989B6E98477F
:1040B000DDE9011005F0ADFE0321F0E730460DF01B
:1040C00083FA08E710B5134C8AB0FEF787FE206824
:1040D00003F0F0FC104B186803F056FE202200217C
:1040E00002A820F050F80D4B01934FF480421823A2
:1040F000CDE90623002101AA094803F097FC094AEB
:10410000206000231370084A1370084A13700AB025
:1041100010BD00BFEC23002060200020175B0208C8
:1041200095460008F2230020F1230020E823002018
:10413000704704387047704710B5102104461EF0D0
:10414000CDFE204610BDA0F10400F5E700228260FC
:10415000024A026018324260C1607047F863020888
:104160007047000010B5034B03600446FFF78BF95E
:10417000204610BD2064020810B50446FFF7F2FF88
:104180002046F0211EF0AAFE204610BD10B50446C0
:10419000FFF7AEF9014B2360204610BD20640208F2
:1041A000FFF772B9002202607047704710B5034BE9
:1041B0000360044600F0B1F8204610BD54640208C4
:1041C00010B50446FFF7F2FF20461C211EF086FEC4
:1041D000204610BD10B5044600F0AAF8064B236037
:1041E0004FF4C873A3614FF018110023C4E9021300
:1041F000024B2361204610BD546402080300900165
:10420000B0F9083010B5B0F904405B429C420BDBBA
:10421000F02C09DCB0F90A30B0F906205B429A4272
:1042200002DBB2F5A07F05DD0423038283694382AC
:10423000002010BD438A591A09B200294182F7DCD7
:1042400083891C44C38984801A448369C280438261
:104250000120EEE710B5034B0360044600F05DF863
:10426000204610BD6864020810B50446FFF7F2FF4F
:10427000204620211EF032FE204610BD10B5044617
:1042800000F056F8084B23604FF4167246F2A8135C
:10429000C4E906234FF020110022C4E90212034AA8
:1042A0002261A382204610BD686402080300580200
:1042B000B0F90830B0F904205B429A4210B508DB2F
:1042C000F02A06DCB0F90A30B0F906405B429C42A5
:1042D00007DA04230382C36983828369438200204F
:1042E00010BD438A591A09B200294182F7DC83893B
:1042F0001A44C38982801C448369C480438201209C
:10430000EEE7838A591A09B20029D8BFC3698182AE
:10431000DABF838201200020704770470020704779
:1043200010B5182104461EF0D9FD204610BD00002E
:10433000034A0260032202824FF02012826070471B
:104340007C640208018270478180C280704781814D
:10435000C2817047B0F90420B0F9083010B5B1F946
:1043600004401344A34215DDB1F9083023449A42B6
:1043700010DAB0F90630B0F90A20B1F906401A4453
:10438000A24207DDB1F90A2022449342ACBF0020CB
:10439000012010BD0020FCE710B5054B0360002391
:1043A00004468380083000F033F8204610BD00BF7B
:1043B00090640208838819448180704710B5044BCB
:1043C000044640F8083B00F00FF8204610BD00BF3F
:1043D0009064020810B50446FFF7F0FF2046302134
:1043E0001EF07CFD204610BD10B5034B0360044653
:1043F000FFF793FF204610BDA064020810B50446E5
:10440000FFF7F2FF204628211EF068FD204610BD70
:1044100010B50446FFF78CFF03210A480A4B2162BE
:10442000A1844FF01C11C4E9010142F21072236013
:1044300000214FF4C873C4E90632E160A2826382AE
:10444000204610BD68000401A0640208438A591A7E
:1044500009B2002941821FDC82888389C1891A44FC
:10446000C38812B20B441BB281698280002AC380C8
:10447000418207DA00228280002B07DA0023C38002
:1044800001207047D02AF7DDD022F4E7B3F5907F02
:10449000F6DD4FF49073F2E700207047838A591AD3
:1044A00009B20029D8BFC3698182DABF83820120A3
:1044B00000207047838C5B1A83847047818170472A
:1044C000C18170472DE9F347DFF8A4A0274CDAF843
:1044D0000030DFF8A0901B1A0546CAF800301426F9
:1044E0004FF00008B4F91030032B0AD029462046BB
:1044F000FFF7DEFE013E04F12004F3D102B0BDE877
:10450000F087DAF80030002BF4DC01A94846CDF83A
:10451000048002F069FC08B1CDF80480019B03F02F
:10452000030203F48073002B02F1FF334FF6E071B6
:104530004FF6FF770CBFF0210127022B9DBF013200
:1045400002EB8202D2002A222046FFF7FDFE002263
:1045500039462046FFF7FBFE02212046FFF7F2FE18
:1045600042F21073CAF80030C4E700BFFC230020F9
:1045700020000020082100202DE9F84301460646CE
:104580001348144CDFF85080DFF85090FFF786FF97
:1045900004F58C770546B4F91030032B08D031466A
:1045A0002046FFF72DFE1C34BC42F4D1BDE8F88351
:1045B00065B1B8F80020B9F80010103A204692B260
:1045C000FFF7C2FE02212046FFF7BCFE0025EAE706
:1045D000B428002094270020F4230020F623002094
:1045E0002DE9F843274B284E1A68284B1B68022BED
:1045F00008BF01320C2AA8BF0C2207464FF0000961
:104600004FF01C0895B2B6F91030012B10D1394685
:104610003046FFF776FE58B11D4A00231446B2F922
:10462000101003291BD001330A2B02F11C02F6D112
:1046300009F10109B9F1140F06F12006E3D1144C78
:104640000A25B4F91030012B03D139462046FFF773
:10465000D7FD013D04F11C04F3D1BDE8F883F288D5
:10466000B18808FB03441032204692B2FFF76CFE7B
:1046700020462A460021FFF76AFE02212046FFF766
:1046800061FED5E718000020FC2300201C0000205C
:104690007C2600202DE9F04FA24CDFF8BC920025CB
:1046A00085B0257089F800509F4B4FF6CE72EF18F9
:1046B00011463846FFF748FE9C4B4FF6CE72EE1877
:1046C00011463046FFF740FE4FF6FB720021384698
:1046D000FFF73DFE052200213046FFF738FE03219B
:1046E0003846FFF72FFE1C3503213046FFF72AFE20
:1046F000B5F58C7FD8D1DFF86482002645464FF6A9
:10470000CE7211462846FFF71FFE013628460321C8
:10471000FFF718FE142E05F12005F0D1844D002777
:1047200084484FF4005101F02FF9012807F10107E7
:1047300008D1814A13680B2B04DC0133C8201360B5
:1047400003F0D0F923784BB199F80030002BE7D073
:104750007A4B01221A7005B0BDE8F08F012FD4BF4B
:1047600018461F46764BAA89764E1A80764BEA8900
:104770001A80C8BF01203070FFF7A4FE317873485B
:10478000FFF764FE3078FFF7F7FE3078FFF728FF79
:104790006E4946464FF0140AB6F910B0BBF1010F4E
:1047A0007ED13046FFF7D6FD6849002878D06748AB
:1047B0005946FFF77FFE04213046FFF7C3FD6348EB
:1047C0004FF482726821FFF7BFFD46464FF0140A8E
:1047D000B6F91030012B2AD1DFF84CB10A22BBF90F
:1047E00010300093012B62D1594630460192FFF7F9
:1047F000B1FD019A00285AD004213046FFF7A2FDEE
:1048000004215846FFF79EFD05212846FFF7D2FDFB
:10481000009A48484FF4005101F0BCF8322003F0F0
:1048200061F9444800224FF4005101F0B3F8BAF1A5
:10483000010A06F12006CBD13C4E44494FF00A0A4A
:10484000B6F910B0BBF1010F36D13046FFF782FD4B
:104850003E4988B33D485946FFF72CFE04213046B7
:10486000FFF770FD39484FF482726821FFF76CFD45
:10487000B5F92C30002B25DC01252570344C99F836
:104880000030002B7FF464AF20688DF80F501A467B
:104890000DF10F0103F015FA0A2003F023F9EEE7FA
:1048A000BAF1010A06F120067FF476AF8DE7013AEE
:1048B0000BF11C0B93D1BAE7BAF1010A06F11C0601
:1048C000BED1D5E7224B234E18683368012B1FD188
:1048D000AA88132A1CD9DFF888A023708AF8003030
:1048E00002238DF80F3000231A460DF10F0103F05B
:1048F000E8F9237813B19AF800302BB93368013303
:104900003360002323700BE70A2003F0EBF8F0E795
:1049100030238DF80F3000231A460DF10F0103F0FC
:10492000D0F9FDE6F2230020942700207C26002009
:10493000AC2800200018024018000020F8230020B6
:10494000F6230020F0230020F4230020B4280020C8
:10495000602000201C000020F1230020FC23002008
:10496000F923002070B5214C00254FF6CE72114678
:104970002046FFF7E9FC013520460321FFF7E2FC62
:10498000142D04F12004F0D1194E0024A5194FF67E
:10499000CE7211462846FFF7D7FC2846154D032155
:1049A000FFF7D0FC25444FF6CE7211462846FFF79C
:1049B000CBFC1C3403212846FFF7C4FCB4F58C7FE4
:1049C000E4D10D4C0D4BE360002104F10800FFF72A
:1049D00075FD002104F10800FFF772FD084A00236D
:1049E0001360084A1370084A137070BDFC2300203E
:1049F000942700207C260020AC2800206400C800FA
:104A000020000020F2230020F123002038B50F48B9
:104A10000F4DFFF7C1FC002428191C34FFF7DAFB07
:104A2000B4F58C7FF8D10B4D002428191C34FFF706
:104A3000D1FBB4F58C7FF8D1074D00242819203420
:104A4000FFF71CFCB4F5207FF8D138BDAC2800205E
:104A5000942700207C260020FC230020164838B52F
:104A60001524013CA0F1200512D114480B24013C6F
:104A7000A0F11C0514D112480B24013CA0F11C0527
:104A800015D0D0F8FC30FC305B6898472846F4E736
:104A9000D5F8803200F518705B6898472846E0E743
:104AA000D5F81831FC305B6898472846DFE7BDE849
:104AB00038400448FFF782BCFC2300207C260020FD
:104AC00094270020AC280020F02070474FF4A070FD
:104AD00070472920FDF7D4B92820FDF7D1B908B5D2
:104AE000FDF7A2F9CA20FDF7CBF9C320FDF7ACF919
:104AF0000820FDF7A9F95020FDF7A6F9CF20FDF712
:104B0000BFF90020FDF7A0F9C120FDF79DF9302085
:104B1000FDF79AF9ED20FDF7B3F96420FDF794F95C
:104B20000320FDF791F91220FDF78EF98120FDF7A2
:104B30008BF9E820FDF7A4F98520FDF785F9002021
:104B4000FDF782F97820FDF77FF9CB20FDF798F982
:104B50003920FDF779F92C20FDF776F90020FDF7D3
:104B600073F93420FDF770F90220FDF76DF9F72095
:104B7000FDF786F92020FDF767F9EA20FDF780F9B7
:104B80000020FDF761F90020FDF75EF9B120FDF787
:104B900077F90020FDF758F91B20FDF755F9B620ED
:104BA000FDF76EF90A20FDF74FF9A220FDF74CF949
:104BB000C020FDF765F91020FDF746F9C120FDF78B
:104BC0005FF91020FDF740F9C520FDF759F94520A0
:104BD000FDF73AF91520FDF737F9C720FDF750F931
:104BE0009020FDF731F93620FDF74AF9C820FDF78E
:104BF0002BF9F220FDF744F90020FDF725F9B0204C
:104C0000FDF73EF9C220FDF71FF9B620FDF738F990
:104C10000A20FDF719F9A720FDF716F92720FDF75F
:104C200013F90420FDF710F92A20FDF729F90020D7
:104C3000FDF70AF90020FDF707F90020FDF704F958
:104C4000EF20FDF701F92B20FDF71AF90020FDF701
:104C5000FBF80020FDF7F8F80120FDF7F5F83F20FC
:104C6000FDF7F2F8F620FDF70BF90120FDF7ECF85F
:104C70000020FDF7E9F80620FDF7E6F82C20FDF707
:104C8000FFF8C820FDF74AF92620FDF7F9F80120C2
:104C9000FDF7DAF8E020FDF7F3F80F20FDF7D4F880
:104CA0002920FDF7D1F82420FDF7CEF80C20FDF7E0
:104CB000CBF80E20FDF7C8F80920FDF7C5F84E2007
:104CC000FDF7C2F87820FDF7BFF83C20FDF7BCF8EF
:104CD0000920FDF7B9F81320FDF7B6F80520FDF718
:104CE000B3F81720FDF7B0F81120FDF7ADF800205C
:104CF000FDF7AAF8E120FDF7C3F80020FDF7A4F8BE
:104D00001620FDF7A1F81B20FDF79EF80420FDF703
:104D10009BF81120FDF798F80720FDF795F8312052
:104D2000FDF792F83320FDF78FF84220FDF78CF85D
:104D30000520FDF789F80C20FDF786F80A20FDF71D
:104D400083F82820FDF780F82F20FDF77DF80F204D
:104D5000FDF77AF81120FDF793F8C820FDF7DEF88B
:104D60002920FDF78DF8BDE808402C20FDF788B814
:104D700008B5FDF759F80321D320FDF79DF880B25F
:104D800008BD10B5C4B2022203212046FDF702F887
:104D90000A20FDF747F8204600220321FCF7FAFF1E
:104DA000BDE810400220FDF73DB838B50446E4B236
:104DB000FCF7EEFF00212046FDF704F8012105462F
:104DC0002046FCF7FFFF40EA052080B238BD10B551
:104DD000C4B240212046FCF7F5FF030607D54C215D
:104DE0002046FCF7EFFF003818BF012010BD01225C
:104DF0004B212046FCF7CEFF204600224B21FCF73A
:104E0000C9FF0020F2E773B50423C4B20E4615466D
:104E1000D7210DEB03022046FCF7EEFF019B1BBAE6
:104E20001A0DC3F30B23328020462B8001224B2125
:104E3000FCF7B0FF00224B212046FCF7ABFF02B08D
:104E400070BD000010B50A4A1378984204460DD090
:104E5000517888420AD00BB141B90123D454FCF7F0
:104E600097FF2046BDE81040FFF78BBF10BD00BF85
:104E7000DC28002010B5C4B209212046FCF7A2FFAF
:104E800040F00102D2B220460921BDE81040FCF7F3
:104E900081BF10B5C4B209212046FCF793FF092158
:104EA00000F0FE022046BDE81040FCF773BF38B5A5
:104EB000C4B20D4620460A21FCF784FF40EA0502F1
:104EC000D2B220460A21BDE83840FCF763BF10B5D6
:104ED0000446FCF75EFF20461F21FFF7E8FF20464F
:104EE000BDE81040FFF7C6BF38B5C4B20D46204636
:104EF0000A21FCF767FF20EA0502D2B220460A2108
:104F0000BDE83840FCF746BF10B50446FFF7C1FFC7
:104F100020461F21BDE81040FFF7E6BF10B5C0B224
:104F20000C460B21FCF74EFF204010BD1F21FFF760
:104F3000F5BF0A46C0B20B21FCF72CBF1F21FFF7BB
:104F4000F8BF38B5C4B20D4620461721FCF73AFF2A
:104F500020EA0502D2B220461721BDE83840FCF70E
:104F600019BF70B5C4B2064604212046FCF72AFFDB
:104F7000042100F0FB0205462046FCF70BFF3046FB
:104F8000F021FFF7DEFF05F0F80220460421FCF7D0
:104F900001FF492220212046FCF7FCFE0220FCF7FD
:104FA00041FF204601222121FCF7F4FE20469A22EF
:104FB0004121FCF7EFFE204601224A21FCF7EAFEE0
:104FC000204601224B21FCF7E5FE204600224B2122
:104FD000FCF7E0FE204601225621FCF7DBFE2046CE
:104FE00001225821FCF7D6FE204601224021FCF781
:104FF000D1FE2046FF220B21FCF7CCFEBDE870401D
:105000000220FCF70FBF0000054BD3F8882042F4C4
:105010007002C3F888204FF000629A60704700BFAA
:1050200000ED00E008B50B4B1A6842F400721A60FC
:105030001A6842F480621A601A6842F480721A6038
:10504000032000F061FA0020FDF712FAFCF774FF6C
:10505000002008BD003C0240034A044B11681B7845
:105060000B441360704700BFE02800208800002038
:10507000014B1868704700BFE028002038B504468F
:10508000FFF7F6FF631C1CBF054B1B78054618BFD6
:10509000E418FFF7EDFF431BA342FAD338BD00BF6E
:1050A0008800002038B50446002800F09B80056C7D
:1050B00025B9FCF761FF656484F83C50236CDB067E
:1050C00000F18E80236C23F4885323F0020343F015
:1050D00002032364444B5A6822F440325A605A68EF
:1050E00061680A435A60236821695A6822F4807211
:1050F0005A605A6842EA01225A605A68A16822F04E
:1051000040725A605A680A435A609A68E16822F409
:1051100000629A609A680A439A603449A26A8A4295
:1051200052D0996821F07061996099680A439A6039
:105130009A68E16A22F040529A609A680A439A603B
:105140009A6822F002029A609A68217E42EA41023D
:105150009A6094F82020002A3ED05A68616A42F48E
:1051600000625A605A6822F460425A605A680139F3
:1051700042EA41325A60DA6AE16922F47002DA6284
:10518000DA6A013942EA0152DA629A6822F400725C
:105190009A609A6894F8301042EA41229A609A68BC
:1051A000616922F480629A609A68002042EA812252
:1051B0009A606064236C23F0030343F001032364CB
:1051C000002384F83C3038BD9A6822F070629A60FF
:1051D0009A6822F04052B2E75A6822F40062C9E7A6
:1051E0000120EDE70120EEE7002301400100000F60
:1051F00082B00023019390F83C30012B69D0012349
:1052000080F83C3003689A68D2070BD59A68D107BA
:105210001AD4036C43F010030364436C43F001039E
:1052200043644CE09A682C4942F001029A602B4A90
:105230001268B2FBF1F202EB42020192019A002ADB
:10524000E4D0019A013AF8E7026C22F4E06222F01D
:10525000010242F4807202645A68520541BF026C36
:1052600022F4405242F480520264026C12F48052E2
:105270001CBF426C22F006024264002280F83C20EF
:105280006FF022021A60164A516811F01F0F15497B
:105290001CD18B4207D001F580718B420CD1526832
:1052A00012F01F0F0BD19A6812F0405F07D19A6875
:1052B00042F080429A6002E00B498B4202D000200B
:1052C00002B07047526812F0100FEBE78B42F6D134
:1052D000E9E70220F4E700BF40420F00840000200D
:1052E00000230140002001400022014090F83C30A2
:1052F000012B14D003689A6822F001029A609B681F
:10530000DB0707D4036C23F4885323F0010343F035
:1053100001030364002380F83C30184670470220E4
:10532000704703689A68520570B504460D460BD560
:105330009B68DE0508D5036C43F02003036400235B
:1053400080F83C30012070BDFFF792FE06462368CE
:105350001A6891070CD56FF012021A60226C42F4A1
:10536000007222649A6812F0405F17D00020EAE7CA
:10537000681CEDD065B923681B6813F00203E6D101
:10538000226C84F83C3042F0040222640320DAE705
:10539000FFF76EFE801BA842EDD8D8E7227E002AD8
:1053A000E4D1DA6A12F4700F02D09B685A05DDD49A
:1053B000236C23F480732364236CDB04D6D4236C26
:1053C00043F001032364D1E70368D86C7047000001
:1053D000F7B50023019390F83C30012B054600F00F
:1053E0008680012380F83C3008682B688E68092885
:1053F00084B233D904EB4402DF681E3A4FF0070C45
:105400000CFA02FC27EA0C07DF60DF6806FA02F2FA
:105410003A43DA604968062901EB81022DD8596BBD
:10542000053A1F26964021EA06015963596B04FA92
:1054300002F20A435A632F4A93420AD1122837D103
:105440002D4B5A6822F400025A605A6842F48002D6
:105450005A60002085F83C0003B0F0BD1A6900EBEB
:10546000400C072707FA0CF722EA07021A611A69AB
:1054700006FA0CF616431E61CCE70C294FF01F010B
:105480000BD81E6B233A914026EA01011963196B70
:1054900004FA02F20A431A63CDE7DE6A413A914008
:1054A00026EA0101D962D96A94400C43DC62C2E762
:1054B000124B984201D01128CBD10F4B5A6822F4DD
:1054C00080025A605A6842F400025A600B4B9842BC
:1054D000BFD10B4B0B4A1B68B3FBF2F30A225343B9
:1054E0000193019B002BB4D0019B013BF8E7022004
:1054F000B2E700BF0020014000230140120000106D
:105500008400002040420F000749CA6822F4E0628C
:105510000302120403F4E063120C134343F0BF636D
:1055200043F40033CB60704700ED00E0164B30B51C
:10553000DC68C4F30224C4F10703251D042B28BF33
:105540000423062D4FF0FF358CBF033C002405FAE1
:1055500003F321EA0303A54022EA0502A340002841
:1055600043EA0203ACBF00F16040084A4FEA03136C
:10557000B8BF00F00F00DBB2AABF00F561401354C2
:1055800080F8003330BD00BF00ED00E014ED00E016
:10559000002807DB044A4109012300F01F00834073
:1055A00042F82130704700BF00E100E010B504462A
:1055B00050B1437903F0FF0213B90271FCF72CFDDF
:1055C00001236371002010BD0120FCE710B50446E3
:1055D00020B390F8393003F0FF021BB980F838206F
:1055E000FCF732FD022384F83930236861681A68B9
:1055F00022F440320A431A605A6BA16822F0070273
:105600000A435A631A6CE1686FF30D020A431A6485
:1056100000200123E06384F8393010BD0120FCE74D
:1056200070477047036870B55E681D68F2070446EE
:1056300014D5E90512D51A6822F480721A60C26B7B
:1056400042F00102C26301229A60042380F83930DB
:10565000002380F83830436903B19847B20616D565
:10566000AB0414D523681A6822F400521A60202271
:105670009A60E36B43F00203E363042384F8393058
:10568000002384F8383063690BB12046984730070F
:1056900016D5290514D523681A6822F400621A6009
:1056A00008229A60E36B43F00403E363042384F865
:1056B0003930002384F8383063690BB120469847AD
:1056C00072070BD56B0509D523681A6822F480622E
:1056D0001A6004229A602046FFF7A2FFB00714D593
:1056E000A90512D523681A6822F400721A600222F2
:1056F0009A60E36BE363012384F83930002384F874
:10570000383023690BB120469847F20613D5EB04D5
:1057100011D523681A6822F480521A6010229A6008
:10572000E36BE363012384F83930002384F83830D5
:105730002046FFF776FF70BDF0B590F83820012ABB
:1057400003464FF002002BD0012283F8382083F863
:10575000390003EB0112D2E90740556A174F44EABA
:105760000040093C012C9CBF05F07F4210434FEAEA
:1057700001161A6888BF40EA056091B9516A39403C
:1057800001435162012C9969916103D8596A21F052
:105790007F4191620122002083F8392083F838008C
:1057A000F0BDD16939400143D1619919012C896952
:1057B00011619CBF25F07F451562EBE7F0FFFC000F
:1057C0002DE9F74FDFF8BC916C4A00230D680124E6
:1057D0009C4004EA0506AC4340F0B7804D680327BF
:1057E00005F003044FEA430807FA08FC671E012F7F
:1057F0006FEA0C0C34D8876807EA0C0ECF6807FAFA
:1058000008F747EA0E078760476827EA060EC5F3E0
:1058100000179F4047EA0E074760C76807EA0C0E6B
:105820008F6807FA08F747EA0E07022CC76019D1FC
:105830004FEAD30A00EB8A0A03F0070BDAF820706C
:105840004FEA8B0B4FF00F0E0EFA0BFE27EA0E0EEF
:105850000F6907FA0BF747EA0E07CAF8207001E054
:10586000032CDAD1076804FA08F407EA0C073C4372
:1058700015F4403F046068D000240194D9F84440F6
:1058800044F48044C9F84440D9F8444023F0030765
:1058900007F1804704F4804407F59C37019403F036
:1058A000030C019CD7F808E04FEA8C0C0F2404FA93
:1058B0000CF42EEA040E324CA0424DD004F5806464
:1058C000A0424BD004F58064A04249D004F5806426
:1058D000A04247D004F58064A04245D004F580641E
:1058E000A04243D004F58064A04241D004F5806416
:1058F000A0423FD004F58064A0423DD004F580640E
:10590000A04214BF0A24092404FA0CF444EA0E0449
:10591000BC609468F74315F4801F0CBF3C403443CF
:105920009460D46815F4001F0CBF3C403443D4602D
:10593000546815F4003F0CBF3C4034435460146875
:10594000ED0354BF3C40344314600133102B7FF40B
:105950003DAF03B0BDE8F08F0024D5E70124D3E7C5
:105960000224D1E70324CFE70424CDE70524CBE7C5
:105970000624C9E70724C7E70824C5E7003C01401F
:1059800000000240003802400369194214BF0120A0
:10599000002070470AB1816170470904FBE7436941
:1059A00001EA030221EA030141EA024181617047F1
:1059B00001684B6913F480634FF0000210D06FF45C
:1059C00080634B612023026380F83D3080F83E20E5
:1059D000036C80F83C2043F004030364012070470B
:1059E000184670472DE9F84606460F4691461D4673
:1059F0004FEA114A3368BAF1010F0CBF5C699C6928
:105A000027EA0404A4B2B4FA84F46409A14501D0DD
:105A1000002025E06A1CEED0FFF72AFB089BC01A85
:105A2000A84201D8002DE5D13368BAF1010F0CBFAF
:105A30005B699B6927EA03039BB2B3FA83F35B09B3
:105A40009945D7D100232022336386F83D2086F87C
:105A50003E30326C86F83C3042F020023264012045
:105A6000BDE8F8862DE9F04104460F4616469846F3
:105A70002568686927EA000080B2C0B16B695A05E1
:105A800017D52B6843F400732B606FF480636B6150
:105A900020220023236384F83D2084F83E30236CC9
:105AA00043F004032364002384F83C300120BDE864
:105AB000F081731CDDD0FFF7DBFAA0EB0800B042E9
:105AC00001D8002ED4D123685A6927EA020292B283
:105AD000002ACDD000232022236384F83D2084F8BF
