:020000040800F2
:10000000000003205D0600081125000813250008E4
:100010001525000817250008192500080000000014
:100020000000000000000000000000001182000835
:100030001B25000800000000A1820008D17A0008FA
:10004000AD060008AD060008AD060008AD060008C4
:10005000AD060008AD060008AD060008AD060008B4
:10006000AD060008AD060008AD060008AD060008A4
:10007000AD060008AD060008AD060008AD06000894
:10008000AD060008AD060008AD060008AD06000884
:10009000AD060008AD060008AD060008AD06000874
:1000A000AD060008AD060008AD060008AD06000864
:1000B000AD060008AD060008AD060008AD06000854
:1000C000AD060008AD060008AD060008AD06000844
:1000D000AD060008AD060008AD060008AD06000834
:1000E000AD060008AD060008AD060008AD06000824
:1000F000AD060008AD060008AD060008AD06000814
:10010000AD060008AD060008AD060008AD06000803
:10011000AD060008AD0600081D250008AD06000864
:10012000AD060008AD060008AD060008AD060008E3
:10013000AD060008AD060008AD060008AD060008D3
:10014000AD060008AD060008AD060008AD060008C3
:10015000AD060008AD060008AD060008AD060008B3
:10016000AD060008AD060008AD060008AD060008A3
:10017000AD060008AD060008AD060008000000004E
:10018000AD060008AD060008AD060008AD06000883
:10019000AD060008AD060008AD060008AD06000873
:0C01A00029250008AD06000835250008E0
:1001B00010B5054C237833B9044B13B10448AFF3A1
:1001C00000800123237010BD800300200000000088
:1001D000C44E020808B5034B1BB103490348AFF3F3
:1001E000008008BD0000000084030020C44E020807
:1001F00001F0FF01102A2BDB10F0070F08D010F8D8
:10020000013B013A8B422DD010F0070F42B3F6D1DB
:10021000F0B441EA012141EA014122F007047FF0F4
:1002200000070023F0E80256083C85EA010586EA4B
:10023000010685FA47F5A3FA87F586FA47F6A5FA87
:1002400087F68EB9EED1F0BC01F0FF0102F0070293
:1002500032B110F8013B013A83EA010313B1F8D13E
:100260000020704701387047002D06BF354603381F
:10027000073815F0010F07D1013015F4807F02BF58
:10028000013015F4C03F0130F0BC0138704700BFA9
:100290007BB972B90029BEBF00204FF0004106E0D3
:1002A00008BF00281CBF6FF000414FF0FF3000F086
:1002B000D3B9ADF1080C6DE904CE002909DB002BA0
:1002C0001ADB00F04DF8DDF804E0DDE9022304B0AC
:1002D0007047404261EB4101002B1BDB00F040F80E
:1002E000DDF804E0DDE9022304B0404261EB4101A6
:1002F000524263EB43037047524263EB430300F007
:100300002FF8DDF804E0DDE9022304B0404261EBA0
:1003100041017047524263EB430300F021F8DDF8DE
:1003200004E0DDE9022304B0524263EB430370476B
:1003300053B94AB9002908BF00281CBF4FF0FF314C
:100340004FF0FF3000F088B9ADF1080C6DE904CE34
:1003500000F006F8DDF804E0DDE9022304B07047A0
:100360002DE9F047089D8E4604468846002B4AD169
:100370008A42174662D9B2FA82F64EB1C6F120031C
:1003800001FA06F820FA03F3B74043EA0808B4403C
:100390004FEA174E1FFA87FCB8FBFEF1230C0EFB49
:1003A000118843EA084301FB0CF29A4209D9FB1871
:1003B00001F1FF3080F0EA809A4240F2E780023992
:1003C0003B449A1AA3B2B2FBFEF00EFB102243EAA2
:1003D000024300FB0CFC9C4509D9FB1800F1FF32DD
:1003E00080F0D6809C4540F2D3803B44023840EAFE
:1003F0000140A3EB0C0300211DB1F3400022C5E92D
:100400000032BDE8F0878B4205D90DB1C5E9000186
:1004100000210846F5E7B3FA83F1002946D1734578
:1004200002D3824200F20581841A6EEB030201209E
:100430009046002DE5D0C5E90048E2E7002A00F02B
:100440009080B2FA82F6002E40F0A4808A1A030C43
:100450004FEA174E80B2BCB20121B2FBFEFC0EFB8C
:100460001C2243EA024304FB0CF29A4207D9FB1810
:100470000CF1FF3802D29A4200F2E080C4469B1A87
:10048000B3FBFEF20EFB123340EA034302FB04F41B
:100490009C4207D9FB1802F1FF3002D29C4200F2C5
:1004A000CA8002461B1B42EA0C40A5E7C1F12006A8
:1004B0008B4022FA06F71F430EFA01F420FA06F3E6
:1004C0002EFA06FE4FEA1749234300FA01F81FFAF5
:1004D00087FCBEFBF9F01C0C09FB10EE44EA0E444D
:1004E00000FB0CFEA64502FA01F209D93C1900F105
:1004F000FF3A80F09C80A64540F2998002383C4447
:10050000A4EB0E041FFA83FEB4FBF9F309FB1344BA
:100510004EEA044403FB0CFCA44508D93C1903F142
:10052000FF3E80F08280A4457FD9023B3C4443EAF1
:100530000040A4EB0C04A0FB02EC64457346E146CA
:1005400062D35FD05DB1B8EB030264EB090404FA37
:1005500006F622FA01F31E43CC40C5E900640021EF
:100560004FE7B1FBF2FC010C41EA0E4180B240EAD8
:1005700001423B4638463C46B846BE462026B1FBC3
:10058000F7F1A2EB080241EA0C4166E7014618E7E1
:1005900010462CE7C6F120022EFA02F3B740B14014
:1005A00020FA02F24FEA174E0A43B3FBFEF8BCB240
:1005B0000EFB1833110C41EA034108FB04F9B0406B
:1005C00089454FEA104380B23ED9791808F1FF3CC3
:1005D00001D289451FD8A1EB0901B1FBFEF909FB46
:1005E00004F80EFB191192B242EA0142424529D2A7
:1005F000BA1809F1FF31C4D24245C2D2A9F10201B1
:100600003A44BEE7F0459DD2BEEB02036CEB070C0B
:100610000138E14696E7A7EB09094944A8F1020C25
:10062000B1FBFEF909FB04F8DBE773467FE75046B0
:1006300066E70846FDE63B44023A33E7ACF1020CBC
:100640003B441CE749469CE7A1EB0901C446B1FBCA
:10065000FEF909FB04F8C4E7704700BFDFF834D0A7
:10066000002103E00C4B5B58435004310B480C4B0A
:1006700042189A42F6D30B4A02E0002342F8043BA8
:10068000094B9A42F9D304F04BFD23F0ADFE01F083
:10069000DDF8704700000320E41C0808000000207B
:1006A0007401002080030020DC430120FEE7704736
:1006B00008B500F0B9FDBDE8084000F03DBD00F010
:1006C000B5BD704710B50421044622F08FFC2046CA
:1006D00010BD000038B50C4B0C4C18800C4B822020
:1006E00019806368984740F6110398420AD1094D72
:1006F00023682C60822098472B688220DB6898470B
:10070000002038BD0120FCE7A60300205C0000208B
:10071000A4030020A80300204FF4A071F020FFF7ED
:10072000D9BF0000F7B5394D2B6804461B698220FC
:100730009847208000284ED02B680DF106025B6997
:1007400001A982209847324B1B78002B4BD0BDF873
:10075000062040F674639A423FD9ADF80630BDF8E2
:1007600006209B1A9BB20A2B42D90B22B3FBF2F351
:10077000284A1288934201D9013A93B2BDF8042065
:10078000254840F6B8318A4234D8C2F571620E323B
:10079000016892B20F25B2FBF5F2204D2D88AA42D6
:1007A00084BF05F1FF35AAB28A4215468EB22AD916
:1007B000921B91B21A4E3768BB42BAB28CBF9A1ADA
:1007C000D21A92B211440529C4BF05603360036890
:1007D00063803368A38003B0F0BDB32A9CBFB4220A
:1007E000ADF80620BBE7BDF80630A3F5B473B9E752
:1007F0000023C3E7C2F56D62083292B20E2A016887
:10080000C8D800252A46891A89B2D3E7A803002050
:10081000C8200020A4030020A0030020A60300207D
:100820009C03002037B568460D461446FFF77AFF53
:10083000BDF8000030B1BDF802302B60BDF80430C7
:100840002360012003B030BD032821D8DFE800F089
:10085000020B12190F4B1A68B2FA82F252090421E4
:100860000D4805F023B90B4B5A68B2FA82F25209CF
:100870000821F5E7074B9A68B2FA82F25209102173
:10088000EEE7044BDA68B2FA82F252092021E7E778
:10089000704700BFAC03002000100240032821D89D
:1008A000DFE800F0020B12190F4B1A68003A18BF6C
:1008B000012204210D4805F0F9B80B4B5A68003AA3
:1008C00018BF01220821F5E7074B9A68003A18BFC4
:1008D00001221021EEE7044BDA68003A18BF01222A
:1008E0002021E7E7704700BFAC0300200010024062
:1008F00003280DD8DFE800F00206080A04210548A5
:1009000005F0D9B80821FAE71021F8E72021F6E729
:10091000704700BF0010024008B5032811D8DFE877
:1009200000F0020A0C0E0421074805F0B9F8431E36
:100930005842584108BD0821F6E71021F4E720216C
:10094000F2E70020F3E700BF0010024070B5084D49
:1009500000240126E0B2FFF7DFFF18B12B68012B5E
:1009600018BF2E600134052C05F10405F2D170BDCD
:10097000AC030020012380F8781080F879307047AC
:100980007047002070470000034B4164003918BFD6
:1009900001211970704700BF9B360120704700206D
:1009A0007047836B0BB10846184770474FF6FF70CE
:1009B0007047406803689B691847704770477047E5
:1009C0007047704710B5044600F046FD23680349A0
:1009D000D3F890302046BDE810401847000000D002
:1009E00008B503680446D3F8843098472368204646
:1009F000DB6F984700F0ECF8236820465B6F984760
:100A0000292001F03DFA00F0E3F8236820465B6FEF
:100A10009847F8E710B504460AF0AAFA236820467A
:100A2000D3F8BC30BDE81040184700F0F9BC00F026
:100A3000FDBC00F02FBD00F0CFBC00F03FBD00F0CA
:100A400047BD00F0D3BC09F0C1BC10B584210446F9
:100A500022F0CCFA204610BD10B590F8341090F872
:100A600078400C4B8C421A7809D03AB90A4A0B49A3
:100A70001488088810800C8001221A7010BD002A8A
:100A8000FCD0054A05491488088810800C80002293
:100A9000F3E700BF94360120903601209236012002
:100AA00070B50D46194635B9094B0A4A0A4840F255
:100AB000FF2123F0D7F9C0E90F52084B003A18BFC5
:100AC00001221A700368BDE87040D3F890301847CF
:100AD000344F02086C4F0208BA4F02089A360120C0
:100AE00008B5094B1B888B4203D8084B1B889342DF
:100AF00005D9074B074A0848A32123F0B3F9074B50
:100B00001980074B1A8008BD9036012092360120CB
:100B1000FF4F020862500208BA4F020896360120C1
:100B200098360120034690F87A0018B15868036897
:100B30001B68184770470000012108B500220846CD
:100B400007F068F80A4B186028B90A4B0A4A2821AE
:100B50000A4823F087F900220421012007F002F956
:100B6000074B186018B9074B034A2C21F0E708BD62
:100B7000C0030020A5500208EE5002081D510208D3
:100B8000BC0300205F510208024B4FF0FF31186890
:100B900007F08AB8C0030020014B186807F0B0B80E
:100BA000C0030020024B0021186807F07DB800BF89
:100BB000C0030020FFF7F0BF03480449006800238A
:100BC0001A4607F00AB900BFBC0300200400002049
:100BD00013B5084C00231A4601A9206807F02EF926
:100BE00020684FF0FF33002201A907F027F902B077
:100BF00010BD00BFBC03002003685B6C18470120D8
:100C0000704703689B6A1847FEE740F2EF30704771
:100C1000054B0360054B4FF08062C3F88820BFF39B
:100C20004F8FBFF36F8F7047A85D020800E100E0AF
:100C300010B504464FF45A61FFF7EAFF204622F050
:100C4000D5F9204610BD000082B0002301930E4B61
:100C50001A6B42F400021A631A6B02F4000201924A
:100C6000019A1A6942F400021A611A6922F4000218
:100C70001A61064B064A1A61064A5A61064B4FF042
:100C800080629A6002B07047003802406C220020F7
:100C9000E90E0008090C000800E100E008B50A2888
:100CA00009D8DFE800F006100E0808080810101038
:100CB0001000022008BD054B054A0648902123F08C
:100CC000D1F80020F6E70120F4E700BFA1510208A7
:100CD000BC5102080752020838B50C46887FFFF75E
:100CE000DDFFA58AE28A164B2169586342EA054274
:100CF0005A64628BD963521B1A642568082D0ED181
:100D00009A611A615862207F0E4A42EA0062DA61F3
:100D1000E2681A620C4A5961D9601A6038BD002233
:100D2000D8611A61E1680A0A480902F4784200F4BD
:100D3000FC600243C1F3C4010A439A63034AECE72F
:100D400000B002400900010001230200012303005A
:100D500008B50B280BD8DFE800F00612100A0A0AC3
:100D60000A0808080808022008BD0520FCE7054B12
:100D7000054A06486F2123F075F80020F4E70120AA
:100D8000F2E700BFA15102084752020807520208C9
:100D90002DE9F04191F81D800C464046FFF7D8FF41
:100DA000A77F05463846FFF7D3FF06463846FFF7CC
:100DB00075FFA18A628B444B521A1A649A61228B86
:100DC000521A1A61E28A586342EA01425A6421695E
:100DD0006268D963DA602068802828D0227F0FD823
:100DE000202867D0402865D004281AD0364B45EA21
:100DF000026545F40035B845DD6161D0334A44E011
:100E0000B0F5807F04D0B0F5007FEFD1304800E02E
:100E1000304840EA0262DA61E2681A625E62596151
:100E200032E045EA026242F40032DA61F6E7A06895
:100E3000021DDA62227F45EA026545F40035DD6174
:100E40005E625961017841B1012921D0224B234AC8
:100E500023484FF48D7123F005F8DA69418822F4B4
:100E60007F42013922F0100242EA0122DA610121B7
:100E7000154BDA6942F02002DA61DA699206FCD495
:100E800010229A600029B9D0164A1A60BDE8F08194
:100E9000B2F1FF01DA69408822F47F4200F1FF30AD
:100EA00022F0100242EA002242F0100218BF012193
:100EB000DA61DDE745EA0262034B42F40032B4E74F
:100EC00042F20132E1E700BF00B00240012301001D
:100ED000090002000A00020091520208AB52020807
:100EE0000752020801230200024B1B68586803687E
:100EF0005B6918479C36012070B5044625460A4BAD
:100F00000C30002660602672667245F8203B602235
:100F100029460AF083F904F55A63EE6024359D42B0
:100F2000FBD1204670BD00BFA85D0208034B1A68C4
:100F3000D207FCD423229A60704700BF00B0024061
:100F40007047000030B50F4C2568ED07FCD4232511
:100F50000904A56041F001010225FF2B656361646E
:100F6000E0630AD00849656241EA0363E361074B25
:100F700022626061E060236030BDE561039BA36392
:100F8000034BF8E700B00240090001000100020035
:100F90000100030030B50E4C2568ED07FCD4232575
:100FA0001204A56042F001020225FF2B6563626412
:100FB000E063E16008D01B0643F00213E361054BD8
:100FC00065626061236030BD034BE3610123F9E793
:100FD00000B0024001000200020002FF30B50B4CDD
:100FE0002568ED07FCD4232512041B06A56043F4F5
:100FF0000033022542F0010265636264E063E16050
:10100000E361034B65626061236030BD00B0024064
:1010100001000200012070474020704700EB811062
:101020000830704700EB811008307047012070478E
:1010300040F67830704740F6783303FB0100083003
:10104000704740F6783303FB0100083070470120F9
:1010500070471020704700EB01100830704700EB1C
:10106000011008307047084601F0CEBC10B5034BA4
:101070000360044608F001FF204610BD605E0208D0
:1010800010B50446FFF7F2FF2046482121F0AEFFDD
:10109000204610BD10B5034B0360044608F0EDFE7A
:1010A000204610BD2C5E020810B50446FFF7F2FF83
:1010B00020464FF4386121F099FF204610BD000012
:1010C00010B5034B0360044608F0D7FE204610BD60
:1010D000F85D020810B50446FFF7F2FF204618211C
:1010E00021F084FF204610BD10B5084B0360044674
:1010F00000F6AC30FFF7BAFF04F12C00FFF7CAFF8F
:1011000004F11400FFF7DCFF204610BD945E0208D6
:1011100008B50248FFF7E8FF08BD00BF9C12002099
:1011200010B50446FFF7E0FF204640F6545121F089
:101130005DFF204610BD00002DE9F34101F06EFA7D
:10114000054601F06FFA0024014623462846224650
:10115000009412F099FE274B274A1A60204602F0AD
:10116000A5FB264D264B274A27489A6012F0F4FD2E
:101170002B68BFF35B8FDB0735D4284621F038FF9F
:1011800088B3224C224B236004F6F83604F1140095
:1011900004F12C0804F6AC376060C4F80880E760FE
:1011A000266108F06BFE1B4B6361404608F066FE4B
:1011B000194BE362384608F061FE184BC4F8AC3BAB
:1011C00004F6F43003F07AF8224604F6F43130469F
:1011D00002F0E6FB304601F017FC114822F060FEF9
:1011E000284621F011FF0F4802B0BDE8F041FFF79B
:1011F000E9BB00BF003701204804002098120020FE
:10120000680400204C040020080000209C120020EC
:10121000945E0208F85D02082C5E0208605E020817
:1012200011110008C4030020704700000148FFF7B7
:10123000D7BB00BFC403002070B5264E264C274DF7
:10124000274B23603046FFF757FE284617F022FF52
:10125000244810F0F7FA244B2448DC6000224FF4B5
:101260008071C3E9121222491A86C3E91A12214970
:1012700083F85820C3E91E011F49C3F880101F4995
:101280001F480B60F021C3E90422C3E90622C3E929
:101290000822C3E90A22C3E90E22C3E91022C3E9E6
:1012A0001422C3E917225A6683F870205A67C3E9EB
:1012B000016501801348018013484FF4A07101803B
:1012C0001248018012490A70012283F83420114A21
:1012D0001A6070BDF40400209412002068040020FD
:1012E000244F02084C040020C40300200000010128
:1012F00001000001000450001A0014009C36012077
:101300009036012096360120923601209836012031
:1013100094360120BC5C02080148FFF779BC00BF8D
:10132000F40400200020704781807047C18070471E
:10133000018170474181704770477047704770471F
:10134000704710B4C4880368121B84885B6D091B46
:1013500012B25DF8044B09B218474FF6FF73838150
:101360004FF0FF3303621368C361106070470020C1
:1013700070478B88838001207047704780F8261063
:10138000704790F82600704710B50022B1F9084068
:10139000B1F90A10028042808480C18010BD002211
:1013A000028042808280C28070470177704780ED62
:1013B000080A704780F82410704780F8251070479D
:1013C00001207047983070478C30704784307047E8
:1013D0007047704770470000034B902283F85A23F0
:1013E00083F85823704700BF00E100E0094A0A492A
:1013F000D3680A48C3F30A03013B9BB20B8011690F
:10140000C1F30A01013901801364536B43F00103F6
:101410005363704700680140F21F0020F01F002056
:10142000014BD3F8AC00704700680140024B012229
:10143000C3F8AC105A6270470068014010B52C2107
:10144000044621F0D3FD204610BD10B5BC21044652
:1014500021F0CCFD204610BD70B5044609F00BF814
:1014600023689D6E0EF03CFF01462046A847236886
:10147000054AD3F88C502046AC460023BDE87040A6
:10148000A2F51631604700BF00B004D008F0DABF03
:1014900008F0E4BF08F0A0BF09F00FB990F82520CC
:1014A00012B103685B691847704790F825201AB19C
:1014B00090F8242002B1186070470000034B4FF0F1
:1014C00080629A604FF080729A60704700E100E09D
:1014D000084B4FF08062C3F88820BFF34F8FBFF3F3
:1014E0006F8F4FF08072C3F88820BFF34F8FBFF328
:1014F0006F8F704700E100E070B50023124E8380CB
:10150000124B0360336893F8582005460AB1D86C33
:1015100000B998680368DB6A98473368B0FA80F4CA
:10152000D86C640930B10368DB6A9847002808BFAB
:1015300044F001042CB9064B064A07482C2122F03E
:1015400091FC284670BD00BF9C360120A85E0208B1
:10155000E9520208475302088053020870B5254E2D
:101560003568BFF35B8F15F0010540D1304621F09F
:101570003FFD00283BD0204C204B256104F1340076
:10158000C4E90035C4E90255E584A562A58510F0DB
:101590003EFC04F158000BF0F7FA194BA365204606
:1015A000184B40F8843BFFF7A7FF174BC4F8843073
:1015B0002433C4F88C304FF4C803C4E92835002321
:1015C000C4F8AC30C4F8B030C4F8B430C4F8B830A3
:1015D0000E480F4BC4F89050C4F89C50C4F8A85063
:1015E000C4F8983022F05CFC304621F00DFD024832
:1015F00070BD00BFF41F0020F81F002058670208CC
:10160000C85E0208405F02080C670208D513000894
:10161000EC66020838B5184C23685BB3174B184AC0
:101620001B6C11888B4216D1164B198805F028F8CF
:10163000236893F86A200025013283F86A2083F832
:101640007C50FFF7B9FA206809F092FC2846BDE803
:101650003840FFF7F9B805F013F8246823682046EE
:101660001B6A9847012384F87C300020BDE838408D
:10167000FFF714B938BD00BF9C3601200068014057
:10168000F21F0020F01F002007B5064BADF8060042
:101690001B68054801220DF1060105F0DDFD03B0D0
:1016A0005DF804FB0C0000200821002038B5084C30
:1016B000204603F029FE0A21204603F0BEFE204604
:1016C00003F00EFF0546204603F09CFE284638BD79
:1016D000FC22002038B5084C204603F015FE0A21F4
:1016E000204603F0AAFE204603F0FAFE05462046F7
:1016F00003F088FE284638BDB42200202DE9F341CE
:10170000DFF8A880264E274FFFF7D0FF0546FFF7EA
:10171000E1FF294602460446404622F067FD322D8D
:101720001AD952238DF80730306800231A460DF17C
:10173000070106F052FB642C1AD91B4855238DF87B
:101740000730006800231A460DF1070106F045FB3B
:10175000642006F053FAD7E7072D94BF4C234E239D
:101760008DF80730002330681A460DF10701E0E7D5
:10177000072C08D844238DF80730002338681A4610
:101780000DF10701E2E74E2307488DF807300023EB
:101790001A460DF10701006806F01FFBEDE700BFD8
:1017A000C4200020BC200020C0200020E2530208FA
:1017B00030B595B0102200210AA822F06CFD142249
:1017C000002103A822F067FD00241E4B01941A6C2F
:1017D00042F080521A641B6C03F080530193019B0A
:1017E000194B02941A6842F440421A601B6803F4D1
:1017F000404302930122029B4FF48033CDE908233A
:1018000002254FF480030821CDE90E534FF4B47341
:10181000CDE9101308A804231393129504F088FF50
:1018200004F04CFF0F23CDE903354FF4A0504FF4E3
:101830008053CDE90603052103A8059405F054F96A
:1018400015B030BD00380240007000402DE98048DE
:101850009BB003F073FCFFF7ABFF142200210DA82F
:1018600022F019FD0024C94B00941A6BC84842F0BD
:1018700010021A631A6B02F010020092009A01948F
:101880001A6B42F020021A631A6B02F020020192D6
:10189000019A02941A6B42F080021A631A6B02F0EA
:1018A00080020292029A03941A6B42F004021A63B5
:1018B0001A6B02F004020392039A04941A6B42F02A
:1018C00001021A631A6B02F001020492049A059451
:1018D0001A6B42F002021A631A6B02F002020592BE
:1018E000059A06941A6B42F040021A631A6B02F0D2
:1018F00040020692069A07941A6B42F008021A6395
:101900001B6B03F00803224607933C21079B04F05E
:10191000CDF8A0480122022104F0C8F822469D48D3
:10192000042104F0C3F822469B484FF4405104F0D0
:10193000BDF8224699484FF4005104F0B7F801264B
:101940003C23032592480F940DA90227CDE90D36BB
:10195000109503F0C1FF8F480DA9CDE90D764FF02A
:101960000408CDE90F4403F0B7FF8A480DA9CDE97B
:101970000D86CDE90F4703F0AFFF4FF44053864883
:101980000DA9CDE90D36CDE90F4703F0A5FF82483B
:101990000F940DA9CDE90D8503F09EFF4FF4005380
:1019A0007E480DA9CDE90D36CDE90F4403F094FF33
:1019B0000DA906237A480F94CDE90D3503F08CFF6D
:1019C0007848794B794D036003F07CFEDFF8FCC169
:1019D000774B2C62C5E900C328464FF48043C5E924
:1019E0000434C5E90244C5E9064404F06DFA102147
:1019F000284604F0B1FC2146284604F0CCFC6D4D8D
:101A0000DFF8CCE1AC624FF48273C5E900E34FF438
:101A100000781823C5E9068328460A23C5E902444D
:101A2000C5E90444C5E90844EB6205F0B9FB8F231E
:101A30002246394657488DF824308DF8344004F05A
:101A400035F832464FF47A7309A9284605F004FCAC
:101A50004FF47A7332460DA9284605F0A9FD3246A7
:101A600039464C4804F022F89DF83430D32B04BF9B
:101A7000514B1E70514E524B0125C6E900354FF0B7
:101A8000100940230024C6E904934FF4C073C6E94B
:101A900006344FF40063C6E908344FF400534FF0A6
:101AA00002084FF0040A4FF0030BB3620DA907239D
:101AB00030460827CDE90FA3CDE90D83C6E9024AD8
:101AC000CDE911B8CDF84C8005F04EFA4FF6FF7213
:101AD00009A93046CDE90A75089409950C9405F0DA
:101AE00063FA284603F056FB4FF6FF7209A9304609
:101AF000CDE90987CDE90B5405F056FA4FF6FF7290
:101B000009A93046CDE909B7CDE90BA405F04CFA97
:101B10004FF40C730893089B0C934FF6FF7209A9BE
:101B20003046CDE909A70B9505F03EFA40F26A511F
:101B3000304605F057FA342221460DEB020022F020
:101B4000AAFB204E204B3461C6E900340923C6E9C4
:101B500005351D23C6E9073B40F20D1240F2431341
:101B6000C6E9092340F2171140F247133046C6E98F
:101B70000B13C6E90244B48686F8364004F09EFC96
:101B8000FF21F022CDE9121424E000BF003802400A
:101B90000010024000080240000C02400018024001
:101BA00000000240AC220020003002401822002039
:101BB000A086010008210020C8200020D420002099
:101BC000400100A07021002000680140005C00403E
:101BD000005001404FF4806005214FF4A073CDE91F
:101BE0001401CDE90E240DA9CDE916423046224656
:101BF0004E4E1893CDE910380D94ADF864408DF831
:101C0000664004F00FFD4A4B33601B68DFF87CA18F
:101C100098473368474EDB689847474B3046C6E9DC
:101C20000034C6E90284C6E90A48C6E90C4403F058
:101C300059FD2946304603F00BFE404E4A462146E8
:101C40000DA822F028FB3E4BB4604FF4803B304699
:101C5000C6E9003B3461347686F82040F462C6F869
:101C600028A0F460F56186F83040756103F0A6FAAB
:101C70000DA93046CDE90D55324E0F9403F034FCDA
:101C80004A4621460DA822F006FB2F4BB460304691
:101C9000C6E9003BC6E90AA43461347686F82040E0
:101CA000F460F56186F83040756103F087FA0DA99C
:101CB0003046CDE90D850F9403F016FC2348244BE4
:101CC000036005F005F9FEF7F3FCFEF7F0FC05F004
:101CD0000DFF204A2946384606F044F81E4B1F4A9D
:101CE00018602946384606F03DF81D4B1D4A18601D
:101CF0002946384606F036F81B4B1C4A1860294620
:101D0000384606F02FF81A4B1A4A186021461A482E
:101D100005F018FF194B1A4A18602146194805F0BA
:101D200011FF194B186005F0F3FEFEE7B420002008
:101D3000240000206C22002000B00240FC22002081
:101D400000200140B4220020002101406021002039
:101D500000080650CC5F0208C4200020B45F0208CF
:101D6000C02000209C5F0208BC200020845F020885
:101D7000B820002008600208FD160008D0200020CE
:101D8000E45F0208BF060008CC2000200100000F1D
:101D9000704770477FB5094B8DF817201B68029379
:101DA0000DF117020123009201930A4601460448EF
:101DB00004F032F907B05DF804FB00BF100000200A
:101DC000182200207FB500238DF81730084B1B68C0
:101DD00002930A4601230DF1170100910193014678
:101DE000044804F0A9F99DF8170007B05DF804FB5A
:101DF00010000020182200201FB5084C2468009213
:101E0000CDE901340A4601230146054804F094F95E
:101E1000003818BF012004B010BD00BF1000002022
:101E20001822002003F0B6B910B5064C0022204657
:101E3000042103F03BFE20460122BDE810400421AE
:101E400003F034BE0008024038B50B4D04460122B1
:101E50000A484FF4005103F029FE002204212846CD
:101E600003F024FE2046FFF70FFC28460122BDE8C0
:101E70003840042103F01ABE00080240000C024062
:101E800038B50B4D044600220A484FF4005103F0C8
:101E90000DFE00220421284603F008FE2046FFF72D
:101EA000F3FB28460122BDE83840042103F0FEBDC3
:101EB00000080240000C0240F7B5144E144F0546CE
:101EC0000C4630460022042103F0F0FD00224FF4BE
:101ED0000051384603F0EAFD2846FFF7D5FB0D4BCD
:101EE0000D481B68224601A905F062FB3846012215
:101EF0004FF40051019C03F0D9FD3046012204212A
:101F000003F0D4FD204603B0F0BD00BF000802403E
:101F1000000C02400C0000200821002003F03AB918
:101F20000268034B9A4201D103F022B9704700BF07
:101F3000001000407047000082B00E4B002200925B
:101F4000596C41F480415964596C01F4804100910D
:101F500000990192196C41F0805119641B6C03F0D7
:101F600080530193019B0F216FF0010002B003F039
:101F700069BB00BF0038024010B514228AB0044685
:101F800000210DEB020022F086F923681E4A9342DD
:101F90001FD11E4B002101915A6C42F480725A6489
:101FA0005A6C02F480720192019A02911A6B42F00B
:101FB00001021A631B6B03F001030293029B0223CD
:101FC00005931348032305A9069303F085FC0AB083
:101FD00010BD104A9342FAD10C4B002103915A6C68
:101FE00042F400725A645A6C02F400720392039A2B
:101FF00004911A6B42F001021A631B6B03F0010398
:102000000493049B0423DBE70020014000380240D6
:1020100000000240002101400268094B9A4282B050
:102020000BD100230193074B1A6B42F480521A63C1
:102030001B6B03F480530193019B02B0704700BFF8
:10204000003002400038024007B50F4B02689A4248
:1020500016D10022A3F5F0430192196B41F400015F
:1020600019631B6B03F40003019305215A20019BA4
:1020700003F0E8FA5A2003B05DF804EB03F014BB58
:1020800003B05DF804FB00BF00B002402DE9F0434F
:10209000044689B01422002103A822F0FCF822682B
:1020A000244B9A4243D1244C244800250095236BAD
:1020B00043F004032363236B03F004030093009BAA
:1020C0000195236B43F001032363236B03F00103AA
:1020D0000193019B4FF012094FF400734FF0010878
:1020E0000327042603A9CDE90339CDE9058707961F
:1020F00003F0F2FB4FF480731148079603A9CDE972
:102100000339CDE9058703F0E7FB0295236C43F41F
:1021100000032364236C03F400030293029B236AED
:1021200043F400032362236A23F40003236209B00B
:10213000BDE8F083005C0040003802400008024027
:1021400000000240F0B599B004461422002107A80F
:1021500022F0A1F830220DEB0200002122F09BF8C2
:1021600022685E4B9A4240F0B78008230C93C0234C
:102170001093042312930CA84FF40033159304F02A
:102180007BFD08B1FFF7D6FE554B5648002400945E
:102190005A6C42F080625A645A6C02F0806200927B
:1021A000009A01941A6B42F020021A631A6B02F033
:1021B00020020192019A02941A6B42F001021A6302
:1021C0001A6B02F001020292029A03941A6B42F017
:1021D00002021A631A6B02F002020392039A049439
:1021E0001A6B42F040021A631A6B02F0400204922A
:1021F000049A05941A6B42F004021A631A6B02F0F7
:1022000004020592059A06941A6B42F008021A63BA
:102210001B6B03F00803069302250E26069B0B9604
:102220004FF4806307A9CDE90735CDE9094503F0EF
:1022300053FB41F658032C480B9607A9CDE9073507
:102240000927CDE9094503F047FB032327480B97EE
:1022500007A9CDE90735CDE9094503F03DFB4FF46A
:10226000706322480B9607A9CDE90735CDE90945EA
:1022700003F032FB4FF40C631D480B9607A9CDE920
:102280000735CDE9094503F027FBC02319480B9614
:1022900007A9CDE90735CDE9094503F01DFB082362
:1022A00015480B9607A9CDE90735CDE9094503F097
:1022B00013FB4FF4A0530E480B9707A9CDE9073540
:1022C000CDE9094503F008FB58202246052103F01B
:1022D000B9F9582003F0E8F919B0F0BD00680140E1
:1022E0000038024000140240000002400004024096
:1022F0000018024000080240000C02400268094B2E
:102300009A4282B00BD100230193074B5A6B42F0E3
:1023100040025A635B6B03F040030193019B02B0E0
:10232000704700BF000806500038024010B5044650
:1023300088B01422002103A821F0ADFF2268144BBD
:102340009A4223D103F56843002101915A6C114848
:1023500042F480125A645A6C02F480120192019A7B
:1023600002911A6B42F020021A631B6B03F02003E8
:102370000293029B4FF4607202230321CDE90323F1
:102380000523CDE9061303A903F0A6FA08B010BD92
:1023900000500140001402402DE9F04186B00023B6
:1023A00003932B4B1C68002C4FD14FF00108C3F84E
:1023B0000080284B00949A6B274842EA08029A63EF
:1023C0009B6B03EA08030093022703260C25009B5E
:1023D00001A94FF63F03CDE90137CDE9046503F0CC
:1023E0007BFA1E48059501A9CDE90187CDE9034691
:1023F00003F072FA48F233131948059501A9CDE9A3
:102400000137CDE9034603F067FA4FF683731548A9
:10241000059501A9CDE90137CDE9034603F05CFA42
:102420004CF203731048059501A9CDE90137CDE9B8
:10243000034603F051FA60230C48059501A9CDE944
:102440000137CDE9034603F047FA06B0BDE8F08155
:1024500044230020003802400014024000080240DB
:102460000018024000100240000C0240000402402C
:1024700070B588B000230293204B1A6C42F0100212
:102480001A641B6C03F010030293054601A903A80C
:10249000029B04F0D3FB069B4BBB04F0BFFB184E22
:1024A000184B336040F2E733F360174BB0FBF3F3A4
:1024B000013B7360304600233361B360B36105F0C4
:1024C00041FA044680B9304605F016F9044658B979
:1024D000362003F0E9F80F2D0DD822462946362084
:1024E00003F0B0F8094B1D60204608B070BD04F041
:1024F00095FB4000D3E70124F6E700BF0038024017
:10250000482300200010004040420F008C000020B3
:102510007047FEE7FEE7FEE7FEE77047014805F07B
:1025200029B900BF48230020014804F01EB800BFAD
:1025300070210020014803F001B900BF6C22002087
:102540000120704708B521F049FF162303604FF0C2
:10255000FF3008BD08B521F041FF16230360FEE7F8
:1025600070B50D4614460E46731B9C4201DC204696
:1025700070BDAFF3008006F8010BF5E770B50D46AE
:1025800014460E46731B9C4201DC204670BD16F8B3
:10259000010BAFF30080F5E74FF0FF3070474FF4C9
:1025A00000534B60002070470120704700207047A7
:1025B0000A4A116808B5034609B90949116010684B
:1025C000694603448B4206D921F008FF0C230360BF
:1025D0004FF0FF3008BD1360FCE700BF90230020E0
:1025E000E0430120704710B50421044620F0FEFCB2
:1025F000204610BD012908B506D0022908D059B9D6
:1026000001F0A0F9006808BD01F09CF94068FAE704
:1026100001F098F98068F6E70020F4E70048704779
:10262000406002081220704713B5002451B10368BE
:1026300001948DF8034001AA9C680DF10303A047A3
:1026400002B010BD0846FBE7C0897047008A70479A
:10265000C088704780887047807A00F07F0070479C
:10266000807AC00970470020704700009FED010A82
:10267000704700BF00000000806A7047704710B5C7
:102680000821044620F0B2FC204610BD7047704778
:1026900000F598730868496803C37047704770472E
:1026A0004160704770477047064BC0F84C310023BB
:1026B000C0F8503100F5A273C0F84801C0F84031AD
:1026C000704700BF4128000801230372704770471C
:1026D000704710B4C26841685410034601EB6200B1
:1026E000D20748BF0A599B685DF8044B48BFD358CE
:1026F00018470346406830B19A681AB9D86800F0A4
:10270000010070470120704710B50C21044620F0ED
:102710006DFC204610BD10B51021044620F066FC6B
:10272000204610BD10B54FF4AE71044620F05EFC9B
:10273000204610BD10B54021044620F057FC20462D
:1027400010BD10B50DF0CCFD0368BDE81040DB6B8B
:1027500018470000054B1B7801462BB1406818B1A3
:1027600003680C315B6E1847704700BF9B36012031
:10277000037A70B50546BBB940680368DB699847C2
:1027800004463CB96868036805F10C011B6EBDE89E
:1027900070401847A1886B8FC91A236820461B6BAD
:1027A00009B29847A469ECE770BD10B50446D0F8AB
:1027B000400158B10368DB68984738B1D4F840014C
:1027C00003689B6898470023C4F8403110BD70B57A
:1027D000044690F8390094F838300130C0B298427D
:1027E00084F8390005D901232372002384F8393095
:1027F00070BDB4F93A2000210FF072FFC30706D56F
:1028000000284FF6FF73C8BF0123184400B2238A83
:10281000C01AA08760680368DB69984705462DB930
:1028200060680368BDE870405B691847A988A38F9A
:1028300019442B6828461B6B09B29847AD69EEE72F
:102840002DE9F14FD0E9556A0746B06803681B6A65
:102850009847EF2805D8444B444AA321444821F027
:1028600001FB706803681B6A98470F2803D8414B27
:102870003E4AA421F2E7F06803681B6A98470B28D8
:1028800003D83D4B394AA521E8E70DF029FDDFF8D3
:10289000F09004300DF062FDD9F8000010B103682B
:1028A000DB689847D9F8000010B103681B689847A7
:1028B000DFF8D080D8F8000010B103685B69984752
:1028C000D7F83C0110B103685B689847D8F800005E
:1028D00010B103681B689847D7F83C0110B1036832
:1028E0009B689847F068036800215B6A98474FF03F
:1028F000000B224BC0F804B0044680F808B0036017
:10290000B068036859465B6A9847054601F0CAFCFF
:102910007068036859465B6A98472946064601F085
:10292000A1FC331DC7F83C61C9F80040C8F800504D
:10293000CAF800302B68C6F808A02846DB68EE63AA
:102940009847336830461B689847214628460FF061
:10295000C1FE236820461B69984723685B692046AF
:1029600001B0BDE8F04F18472D540208BB540208CF
:1029700093550208DA5502087D5602082C620208B7
:10298000E4360120E0360120044B1B6893F8582000
:102990000AB1D86C00B99868704700BF9C36012016
:1029A000F8B5174604460E460DF0A6FD124B1C6006
:1029B000124B2360124B0025C4E95135114BC4E979
:1029C00053551868036801219B68C4E94F55C4E951
:1029D00055769847284600F069FFFFF7D5FF18F0B5
:1029E00002FAFFF7D1FF18F079FAFFF7CDFF18F0E0
:1029F00081FA2046F8BD00BFF0360120D8610208F8
:102A0000C06102089C360120064BC0F84C310023FF
:102A1000C0F8503100F5A273C0F84801C0F8403149
:102A2000704700BF41280008064BC0F84C31002316
:102A3000C0F8503100F5A273C0F84801C0F8403129
:102A4000704700BF192C0008064BC0F84C3100231A
:102A5000C0F8503100F5A273C0F84801C0F8403109
:102A6000704700BFDD2A00082DE9F0410546002629
:102A7000164B4660067245F80C3B044628460F4646
:102A80000AF02AF9124B84F838701B7884F8396000
:102A9000A68723B9012323722046BDE8F0810D4BA0
:102AA0000D4FB3F90080E368B7F900109B6B266106
:102AB00028469847E3684146DB6B284698472846F6
:102AC0000AF085F83B885B426387E5E750620208BD
:102AD0009B36012092360120903601202DE9F047E7
:102AE000D0E9556A0746B06803681B6A984740F604
:102AF0007733984205D8414B414AA321414821F000
:102B0000B1F9706803681B6A98470F2803D83E4BD9
:102B10003B4AA421F2E7F06803681B6A98473F2804
:102B200003D83A4B364AA521E8E70DF0D9FBDFF888
:102B3000E09004300DF012FCD9F8000010B10368E9
:102B4000DB689847D9F8000010B103681B68984704
:102B5000DFF8C080D8F8000010B103685B699847BF
:102B6000D7F83C0110B103685B689847D8F80000BB
:102B700010B103681B689847D7F83C0110B103688F
:102B80009B689847F068036800215B6A98471421A6
:102B90000446FFF769FFB068036800215B6A984745
:102BA000054600F057FF7068036800215B6A98478C
:102BB0002946064600F00CFF331DC7F83C61C9F8F2
:102BC0000040C8F80050CAF800302B68C6F808A0CA
:102BD0002846DB68EE639847336830461B689847A1
:102BE000214628460FF076FD236820461B6998474A
:102BF000236820465B69BDE8F04718472D5402085A
:102C00002057020893550208DA5502087D5602083B
:102C1000E4360120E03601202DE9F047D0E9556A7D
:102C20000746B06803681B6A9847EF2805D8414BF0
:102C3000414AA321414821F015F9706803681B6AD5
:102C400098470F2803D83E4B3B4AA421F2E7F0688F
:102C500003681B6A98473F2803D83A4B364AA52198
:102C6000E8E70DF03DFBDFF8E09004300DF076FB77
:102C7000D9F8000010B10368DB689847D9F8000064
:102C800010B103681B689847DFF8C080D8F80000CF
:102C900010B103685B699847D7F83C0110B103682D
:102CA0005B689847D8F8000010B103681B68984724
:102CB000D7F83C0110B103689B689847F068036837
:102CC00000215B6A984714210446FFF7CDFEB068E7
:102CD000036800215B6A9847054601F0E3FA7068D3
:102CE000036800215B6A98472946064601F0BAFA54
:102CF000331DC7F83C61C9F80040C8F80050CAF855
:102D000000302B68C6F808A02846DB68EE639847B9
:102D1000336830461B689847214628460FF0DAFC96
:102D2000236820461B699847236820465B69BDE8F5
:102D3000F04718472D5402080B5802089355020813
:102D4000DA5502087D560208E4360120E0360120FB
:102D50007047704770477047704730B5036885B05B
:102D60006D460181D3F884300146044628469847D1
:102D700095E807003C3484E8070005B030BD30B565
:102D8000036885B06D464181D3F88430014604461E
:102D90002846984795E807003C3484E8070005B0CA
:102DA00030BD0022028042808280C280704780F85D
:102DB0003610704770B5036804461B6B154698477C
:102DC0002368294620465B6EBDE870401847002006
:102DD0007047806C7047704770477047704730B4D9
:102DE000C26844685510034604EB6200D20748BF2E
:102DF00062599B6830BC48BFD358184703464068A7
:102E000030B19A681AB9D86800F001007047012003
:102E1000704710B54C21044620F0E8F8204610BD5C
:102E200010B51021044620F0E1F8204610BD10B581
:102E30004FF44071044620F0D9F8204610BD08B583
:102E4000FEF72CFB08BD0000036870B55E6B124BEB
:102E50001B6804468DB22BB9104B114A6C211148E6
:102E600021F000F81049828D0988914203D80F4B58
:102E70000B4A6D21F3E713F812200D4B1B6853F832
:102E8000220003681B6B9847291A3346204609B273
:102E9000BDE87040184700BFF4360120F65802081C
:102EA0003859020873590208F8360120BA59020845
:102EB000FC3601209830884208B505D10DF010FA93
:102EC000BDE80840FFF7B0BD08BD00224FF0FF315C
:102ED000C0E900218260704770B5036804461B6B2F
:102EE000154698472368294620465B6BBDE870402D
:102EF000184770B504461D46BDF91060FFF7ECFF9A
:102F00002368294620469B6B984723683146204614
:102F1000DB6BBDE8704018470022C0E90122C0E920
:102F20000322C0E90522C0E907224FF4807282849F
:102F3000014A0260704700BF7462020838B5262259
:102F400004460D46002121F0A6F92046FFF7E4FFD4
:102F5000064B23602B88E384FF23204684F8283027
:102F600029460AF0DAFC204638BD00BF006A020894
:102F7000F8B5194B018F1B888B4206462AD9174B8F
:102F80001B682BB9164B174A17486C2120F06AFFB3
:102F900013F81120154B1B6853F82250144B186876
:102FA00000F0C0FC2B6807469B6B284698472B68AF
:102FB00004469B6C3946284698472B6814FB00F45E
:102FC0005B6A394628469847A4B223181BB2A6F874
:102FD0004630F8BD0023FAE7F8360120F436012028
:102FE000F65802083859020873590208FC360120C5
:102FF0000037012010B526220446002121F04BF9AC
:103000002046FFF789FF0A4B23600A4BA3624FF665
:10301000FF73A3854FF47F020023C4E90C3223879A
:103020004FF0FF32C4E91023E363204610BD00BF18
:1030300008690208B06102082DE9F04F044693B018
:10304000A04600250FF09AF9984BE56348F8403BFD
:1030500026222946404621F01EF94046FFF75CFF34
:10306000934B236404F16C0BFF234FF6FF7604F1BE
:10307000980A84F8663010A95846A56604F1E0095C
:10308000ADF84060FFF75AFF50460AF07DFD484614
:103090000AF07AFD04F5947310A918460793ADF869
:1030A0004060FFF74BFF04F5AA7310A91846089378
:1030B000ADF84060FFF742FF04F5C07310A9184651
:1030C0000993ADF84060FFF739FF04F5D673184651
:1030D000784F0593FFF78EFF04F5FC73C4F8AC71CD
:1030E0001846C4F8F4510693FFF784FF04F51173F2
:1030F000C4F8F8711846C4F840520393FFF77AFFFA
:1031000004F5237310A918460493ADF84060FFF747
:1031100015FF694BC4F88C324FF0FF370123C4E927
:10312000AF73664BC4F8B852C4E9BC34644B84F83E
:10313000C452C4E9BE354FF4A0732A4640460093FA
:103140002946F023FFF7D5FE261D4FF07F43A366E7
:103150004146304606F0A4FE2A4658462946FFF767
:10316000BBFE584610A9ADF840500AF0D6FB5946B0
:10317000304606F095FE5046BD222321FFF7ACFEF7
:103180004FF0020810AA0FA950464FF0030BADF8FC
:103190003C80ADF840B00AF08EFA05235046A4F802
:1031A000D030FFF7E5FE04F53C73C4F8C03051465B
:1031B0003046C4E9357706F073FE4846BD22232128
:1031C000FFF78AFE10AA0FA94846ADF83C80ADF87B
:1031D00040B00AF070FA4FF00103A4F818314846E5
:1031E000FFF7C6FE49463046C4E9477706F058FE69
:1031F00001220798CC21FFF76FFE4FF00D090798C9
:10320000ADF8409010A90AF088FB0799304606F007
:1032100047FE01220898A921FFF75EFE0898ADF845
:10322000409010A90AF079FB0899304606F038FE64
:10323000012209988621FFF74FFE0998ADF84090CA
:1032400010A90AF06AFB0999304606F029FE1D23F1
:1032500004220598009307216023FFF74AFED4F863
:10326000AC310599D3F88430C4F8DC710DF128092C
:103270004846A4F8E051984799E8070004F5F4732C
:1032800083E807000F4B1B6804F5327A2BB90E4B0D
:103290000E4A60210E4820F0E5FD0E4B1B88022BE4
:1032A0001CD80D4B094A6121F4E700BF8463020872
:1032B00098690208DC6202088C6802086C630208E4
:1032C000B52E0008F4360120F6580208F859020815
:1032D00073590208F8360120BA590208414B414699
:1032E0001868DFF8088100F01DFB3F4A03460A21F9
:1032F000504610F023FD04230598C4F8F4A110A94A
:10330000ADF844304FF0220ACDF840800AF076F94B
:103310000599304606F0C4FD0698CDF800A073224A
:103320002946F023FFF7E5FDD4F8F8310699D3F8E4
:103330008430C4F828724846A4F82C52984799E87B
:10334000070004F50D7383E8070004F53773C4F82C
:1033500040320698A4F8DC5210A9CDF84080ADF8B0
:1033600044B00AF04BF90699304606F099FD0398EF
:10337000CDF800A0F02373222946FFF7BAFD039988
:10338000C4F874724846A4F8785209F08FFE99E8A0
:10339000070004F5207383E807000398CDF8408008
:1033A00010A9ADF844500AF029F90399304606F007
:1033B00077FD04980122D021FFF78EFD0A220498A0
:1033C000092109F077FD0498012109F086FD3046B6
:1033D000049984F8B45206F063FD204613B0BDE8AA
:1033E000F08F00BF00370120435A0208B061020885
:1033F000406A7047806A704770478A880B8810B5AA
:10340000D20A4C88C1699BB251F8220043EA0443B6
:10341000184410BD10B50446BAB1107B68B1537B97
:10342000D27A1B0203F4E0631A43236A03EB82039C
:103430001A888A4202D193F9020010BD05D80138DA
:1034400080B204330028F3D1F7E70020F5E710B588
:103450002C2104461FF0CAFD204610BD30B58BB0AC
:103460000446BDF860500895BDF85C5007959DF87E
:10347000505006959DF84C5005959DF84850049580
:103480009DF8445003959DF8405002959DF83C509E
:103490000195BDF8385000950EF076FD064B23607F
:1034A000159BE361169B2362199B63621A9BA362BF
:1034B00020460BB030BD00BFB863020870477047AC
:1034C000704730B4C26844685510034604EB62008C
:1034D000D20748BF62599B6830BC48BFD3581847D1
:1034E0000346406830B19A681AB9D86800F0010004
:1034F00070470120704710B5102104461FF076FD7B
:10350000204610BD10B5F02104461FF06FFD204687
:1035100010BD9830884208B505D10CF0E1FEBDE839
:103520000840FFF791BA08BD2DE9F34104460EF0BB
:1035300025FF444B2360444B0025C4E910354FF46C
:103540008072FF2304F16C07A4F8642084F86630CD
:10355000A4F890204FF6FF733C4AE26604F1980607
:10356000A4F8923084F8943001A9C4E91255C4E952
:103570001455C4E91655C4E91C55C4E91E55C4E9DF
:103580002055C4E92255E5632566A5663846ADF8A1
:1035900004300AF0C2F930460AF0F6FA2C4BC4E9BE
:1035A00038342C4B04F14008C4E93A352A46294600
:1035B0004046FFF791FC4046F021FDF7B9FE40463A
:1035C0004FF4A071FDF7B6FE251D4FF07F43A366B3
:1035D0004146284606F064FC1B2238461421FFF7BA
:1035E0007BFC112301A93846ADF804300AF095F9A7
:1035F0003946284606F054FC3046BB222321FFF70B
:103600006BFC022301AA6946ADF800303046032363
:10361000ADF804300AF04FF80623A4F8D030304655
:10362000FFF7A6FC4FF0FF33C4E9353304F1E003A4
:103630002846C4F8C030314606F032FC204602B0BD
:10364000BDE8F0813864020898690208006A02083F
:1036500020640208133500087047000030B5164D8D
:103660002C6814F001048FB0BFF35B8F20D1284683
:103670001FF0BEFCE0B13F230993104B0893104BA1
:10368000104911480A940122CDE906430423CDE9EB
:1036900003320A230093CDE90B44CDE9014405949C
:1036A000FFF7DCFE094820F0FBFB28461FF0ACFCCE
:1036B00005480FB030BD00BF942300209882020857
:1036C000C8820208FC8002089823002059360008AE
:1036D0007047000030B5164D2C6814F001048FB00F
:1036E000BFF35B8F21D128461FF082FCE8B13F2356
:1036F0000993104B0893104B104911480A94CDE9D7
:10370000064301220423CDE90332182300931B2230
:10371000CDE90B44CDE901440594FFF79FFE09482C
:1037200020F0BEFB28461FF06FFC05480FB030BDEF
:10373000C42300209C820208CC8202080C8102086B
:10374000C8230020D13600087047000030B5164D60
:103750002C6814F001048FB0BFF35B8F20D1284692
:103760001FF046FCE0B13F230993104B0893104B28
:10377000104911480A940122CDE906430423CDE9FA
:10378000033228230093CDE90B44CDE9014405948D
:10379000FFF764FE094820F083FB28461FF034FC45
:1037A00005480FB030BD00BFF4230020C4820208DA
:1037B000D082020888820208F823002049370008D6
:1037C00000207047002070470EB403B503AB002102
:1037D00053F8042B01930DF055FE02B05DF804EB95
:1037E00003B070470CB407B504AB53F8042B019336
:1037F0000DF048FE03B05DF804EB02B07047000026
:10380000436C10B5044673B3038F2BB9184B194A98
:10381000C521194820F026FBC38E00EB43035B8CC7
:103820000BB30FF0E2FC238F012B03D8134B144A88
:10383000CB21EEE7E28E531C9BB2092B194688BFC1
:10384000A3F10A0104EB410140F63F10498C81428B
:1038500009D10A2B04EB420228BF002304EB4303E7
:10386000508C588451842046BDE810400FF0C0BBF6
:10387000465A02084F5A0208FA5A0208445B0208E4
:10388000525B02080FF07BBB10B586B002AC84E837
:1038900006001A460AAB05930193099B0093214643
:1038A000089B0CF0BBF806B010BD000038B518BB83
:1038B000124B13481C681349B4B1226822440260B9
:1038C000626822440A60A26814440F4B00221A80E6
:1038D00000F038F8054600F033F80C4B1C600C4B38
:1038E0001D600C4B188007E00B4B03600B4B0B600B
:1038F0000B4B1C68002CE8D138BD00BF30240020E1
:1039000028240020242400202C240020F436012028
:10391000FC360120F8360120F0820208D482020829
:1039200044830208044B1B6853F82100034B1B68B7
:1039300003EB4000704700BF24240020282400200F
:1039400007207047004870473424002010B5FFF767
:10395000C1FE044C2060FFF7F9FE6060FFF77EFEB9
:10396000A06010BD3424002010B5002404600C6059
:1039700014601C6010BD704710B54FF4AE71044662
:103980001FF034FB204610BD10B50446D0F8580196
:1039900000F097FC2046BDE810400CF03DBD000053
:1039A00010B50446FEF7FCFF014B2360204610BD16
:1039B0006C640208704704387047704710B51021D6
:1039C00004461FF013FB204610BDA0F10400F5E7EC
:1039D00000228260024A026018324260C160704771
:1039E000C064020870470000134B70B504460360C2
:1039F0004FF4326540F66816B54205D06359601938
:103A00001B6898472C3DF7E7635960191B682C3DEC
:103A10009847B5F5F66FF7D14FF4F465635960191F
:103A20001B683C3D9847B5F53C7FF7D12046FFF732
:103A3000D4F9204670BD00BFE864020810B5044602
:103A4000FFF7D2FF204640F678311FF0CFFA20462C
:103A500010BD00002DE9F04F05468DB0FFF7ECFAE0
:103A600005F5407A774B2B604FF6FF776946504655
:103A7000ADF80070FFF762FA05F54B79DFF8CCB1CD
:103A800005F2DC784C46002620466946ADF8007009
:103A9000FFF754FA0123C4F800B0E6622786678670
:103AA00084F8343084F8356084F8366084F8376000
:103AB00084F838603C344445E6D105F6941B26462C
:103AC0004FF6FF77304669462C36ADF80070FFF7A9
:103AD00035FA5E45F6D1D84605F64C374FF6FF76F7
:103AE0004046694608F12C08ADF80060FFF726FA59
:103AF000B845F5D169464046ADF80060524EFFF733
:103B00001DFA684600F0D4FCBDF80430B380BDF95E
:103B10001C30039AB383089BF2603362049A099BBA
:103B200032617362059A0A9B72612F1D069AB36215
:103B30006846BDF82C30B385B26100F0CBFC384646
:103B400005F1980106F0EDF9384605F5FC7106F02F
:103B5000E8F9384605F1E00106F0E3F9384605F5E5
:103B6000117106F0DEF9384605F16C0106F0D9F95D
:103B7000002269464046ADF8002009F0CEFE002242
:103B800011464046FFF7A8F9002285F8712B384608
:103B9000414606F085F90F2369465046ADF80030DE
:103BA00009F0BBFEB6F90E20B6F90C105046FFF72F
:103BB00093F93846514606F073F9052704F5DC768B
:103BC000212240F241113046FFF786F9D4F8B8318E
:103BD00069461B6EADF8007030469847204621229A
:103BE00040F24111FFF778F9236801221B6EADF80E
:103BF0000020204669462C3498475C45DED10024DD
:103C00000326B4FBF6F303EB4303E31A012B13D0B3
:103C1000022B14D008220721484609F04BF9013441
:103C20004846142109F059F9142C09F13C09E8D14E
:103C300028460DB0BDE8F08F0A220921ECE70C22DE
:103C40000B21E9E7E8640208042900208C680208D7
:103C50002DE9F041051D00F5D67804464146284679
:103C600004F5C07706F05DF94146284606F018F9DC
:103C70003946284604F5AA7606F053F9394628460F
:103C800006F00EF93146284606F04BF904F5947417
:103C90003146284606F004F92146284606F041F947
:103CA0002146284606F0FCF840460DF015FD384642
:103CB0000DF012FD30460DF00FFD2046BDE8F0413D
:103CC0000DF00ABD2DE9F04F4A4E8FB00446306822
:103CD00004F0E4F80546002D40F082809DF8128043
:103CE000454DB8F1010F2BD1DFF8249199F8003040
:103CF000002B4DD1261D04F198073946304606F0B9
:103D0000CFF804F5FC7AAB883C4A0A2104F53770F9
:103D100010F014F85146304606F0C2F838460DF05F
:103D2000DBFC50460DF0D8FC30460DF0D5FC344B92
:103D300089F8008083F80080324B186803F046FF52
:103D40009DF81230022B23D1DFF8C48098F80030A0
:103D5000F3B9261D04F1E0073946304604F5117920
:103D600006F09EF84946304606F09AF838460DF0BF
:103D7000B3FC48460DF0B0FC30460DF0ADFC204AD7
:103D80000123137088F800301E4B186803F01EFFE3
:103D90001D4F4FF0000838688DF8138004F07EF84E
:103DA00004F54076002843D04FF0FF333868424690
:103DB0000DF1130104F042F89DF81330522B29D174
:103DC000B5F92810114800F005FC1023304605A96C
:103DD000ADF8143009F0A1FD386804F061F827E06F
:103DE000002330681A460DF1120104F027F8013D56
:103DF00071E700BFB820002004290020245C0208DD
:103E00004924002044240020C42000200C29002044
:103E1000402400204E2B40F04E81C748414600F020
:103E2000D9FB0F2305A93046ADF8143009F075FD14
:103E3000C24FDFF84483386804F030F8A8B14FF07F
:103E4000FF33386800220DF1130103F0F7FF9DF8EE
:103E50001330552B40F03781B748B5F9281000F0E2
:103E6000BBFBD8F8000004F01BF8D8F8000004F001
:103E700015F8B0B14FF0FF33D8F8000000220DF173
:103E8000130103F0DBFF9DF81330442B40F0238136
:103E9000A96AA948494209B200F09EFB386803F0BC
:103EA000FFFF3046B5F90E20B5F90C10A44FFDF711
:103EB00048FA04F2DC7904F6941B4E4604F1040837
:103EC000B7F91030022B00F00E81042B00F01C819A
:103ED000012B07D13368B7F906209B6DB7F90410A1
:103EE000304698472C365E4507F11C07E8D1954FC0
:103EF0005E4604F64C3A04F10408B7F91030022B80
:103F000000F00881042B00F03981012B07D13368C0
:103F1000B7F906209B6DB7F90410304698472C3648
:103F2000564507F11C07E8D104F5966304F54B7A72
:103F30000393854ECDF804A0231DA0460293B6F945
:103F40001030022B00F02081042B00F03881012B6F
:103F500008D1D8F82C33B6F906209B6DB6F90410B9
:103F600001989847019B3C330193039B08F13C085F
:103F7000984506F12006E2D1744AB5F92C30117843
:103F80008B4204F1040616D0DBB21370502284F881
:103F9000502184F87C2184F8A821002B00F01A819C
:103FA000FF22012B84F8502105D0022B84F87C21BC
:103FB00018BF84F8A821AB88654A0A2104F532703D
:103FC0000FF0BCFE30460DF087FB94F80C31002B4F
:103FD0006ED0604B02221A605F4A002313705F4A62
:103FE00013705F4A13705F4A1370012384F8713BAA
:103FF00004F64C300DF070FB642003F0FFFD20460A
:10400000FFF726FE00F03AFD04F2DC75514630461B
:104010000AF13C0A05F085FFAA45F7D1494630462A
:1040200005F07FFF09F5DC71304609F12C0905F038
:1040300078FFD945F2D104F1E00704F5117539464E
:10404000304605F06EFF2946304605F06AFF3846D7
:104050000DF042FB28460DF03FFB30460DF03CFBD7
:1040600004F5C0700DF038FB04F5AA700DF034FBB8
:1040700004F594700DF030FB04F5D6700DF02CFBB8
:104080000024394B8DF812402022214606A81C60DE
:1040900020F001F9354B05934FF480421823CDE908
:1040A0000A23334805AA214603F04CFD314B186022
:1040B0000FB0BDE8F08FA96A1F48494209B200F06D
:1040C00089FA0E2382E64E2B7FF4CFAE1A480021E8
:1040D00000F082FAC9E64E2B7FF4E3AE16480021C9
:1040E00000F07AFADDE63368B7F906209B6DB7F980
:1040F0000410304698473146404605F0D1FE012174
:10410000384600F0ABF9EDE63146404605F009FFD0
:104110000321F5E73368B7F906209B6DB7F9041062
:10412000304698473146404605F0BAFE01213846F0
:1041300000F094F9F3E600BF0C290020C020002015
:10414000EC270020D4260020542400201400002056
:10415000245C02081C000020512400204A24002076
:10416000492400204024002020000020275C020871
:10417000AD47000844240020BC20002031464046C2
:1041800005F0CFFE0321D2E7D8F82C33B6F906208C
:104190009B6DB6F9041001989847D8F82C33019814
:1041A0005B6E1F4601231A460021B847DDE9011066
:1041B00005F076FE0121304600F050F9D2E6D8F83D
:1041C0002C3301989B6E9847DDE9011005F0A9FE9C
:1041D0000321F0E730460DF07FFAECE610B5134C02
:1041E0008AB0FEF7FBFD206803F0F0FC104B186866
:1041F00003F056FE2022002102A820F04CF80D4BBF
:1042000001934FF480421823CDE90623002101AA2F
:10421000094803F097FC094A206000231370084AFC
:104220001370084A13700AB010BD00BF4424002068
:10423000B8200020275C0208AD4700084A2400206F
:1042400049240020402400207047043870477047FC
:1042500010B5102104461EF0C9FE204610BDA0F185
:104260000400F5E700228260024A026018324260D0
:10427000C16070471C6502087047000010B5034B11
:1042800003600446FFF71BF9204610BD4465020891
:1042900010B50446FFF7F2FF2046F0211EF0A6FEFF
:1042A000204610BD10B50446FFF73EF9014B2360D0
:1042B000204610BD44650208FFF702B900220260E3
:1042C0007047704710B5034B0360044600F0B1F827
:1042D000204610BD7865020810B50446FFF7F2FFCE
:1042E00020461C211EF082FE204610BD10B504465B
:1042F00000F0AAF8064B23604FF4C873A3614FF097
:1043000018110023C4E90213024B2361204610BD9B
:104310007865020803009001B0F9083010B5B0F9D3
:1043200004405B429C420BDBF02C09DCB0F90A3004
:10433000B0F906205B429A4202DBB2F5A07F05DDB0
:104340000423038283694382002010BD438A591AE3
:1043500009B200294182F7DC83891C44C389848027
:104360001A448369C28043820120EEE710B5034BF3
:104370000360044600F05DF8204610BD8C6502081D
:1043800010B50446FFF7F2FF204620211EF02EFE56
:10439000204610BD10B5044600F056F8084B2360C7
:1043A0004FF4167246F2A813C4E906234FF0201109
:1043B0000022C4E90212034A2261A382204610BDF2
:1043C0008C65020803005802B0F90830B0F90420E7
:1043D0005B429A4210B508DBF02A06DCB0F90A30DD
:1043E000B0F906405B429C4207DA04230382C369AA
:1043F000838283694382002010BD438A591A09B21F
:1044000000294182F7DC83891A44C38982801C44D5
:104410008369C48043820120EEE7838A591A09B276
:104420000029D8BFC3698182DABF838201200020BE
:10443000704770470020704710B5182104461EF0E1
:10444000D5FD204610BD0000034A0260032202820F
:104450004FF0201282607047A06502080182704709
:104460008180C28070478181C2817047B0F9042089
:10447000B0F9083010B5B1F904401344A34215DD7A
:10448000B1F9083023449A4210DAB0F90630B0F995
:104490000A20B1F906401A44A24207DDB1F90A2008
:1044A00022449342ACBF0020012010BD0020FCE755
:1044B00010B5054B0360002304468380083000F0EC
:1044C00033F8204610BD00BFB46502088388194444
:1044D0008180704710B5044B044640F8083B00F05B
:1044E0000FF8204610BD00BFB465020810B50446A1
:1044F000FFF7F0FF204630211EF078FD204610BD6A
:1045000010B5034B03600446FFF793FF204610BD30
:10451000C465020810B50446FFF7F2FF20462821C3
:104520001EF064FD204610BD10B50446FFF78CFF59
:1045300003210A480A4B2162A1844FF01C11C4E9EF
:10454000010142F21072236000214FF4C873C4E9E4
:104550000632E160A2826382204610BD6800040139
:10456000C4650208438A591A09B2002941821FDC36
:1045700082888389C1891A44C38812B20B441BB252
:1045800081698280002AC380418207DA002282800A
:10459000002B07DA0023C38001207047D02AF7DD03
:1045A000D022F4E7B3F5907FF6DD4FF49073F2E795
:1045B00000207047838A591A09B20029D8BFC369FD
:1045C0008182DABF8382012000207047838C5B1ACE
:1045D0008384704781817047C18170472DE9F3471B
:1045E000DFF8A4A0274CDAF80030DFF8A0901B1AFF
:1045F0000546CAF8003014264FF00008B4F9103010
:10460000032B0AD029462046FFF7DEFE013E04F1C7
:104610002004F3D102B0BDE8F087DAF80030002BB7
:10462000F4DC01A94846CDF8048002F069FC08B129
:10463000CDF80480019B03F0030203F48073002B88
:1046400002F1FF334FF6E0714FF6FF770CBFF02118
:104650000127022B9DBF013202EB8202D2002A22E7
:104660002046FFF7FDFE002239462046FFF7FBFEFD
:1046700002212046FFF7F2FE42F21073CAF8003022
:10468000C4E700BF54240020200000206021002047
:104690002DE9F843014606461348144CDFF85080D4
:1046A000DFF85090FFF786FF04F58C770546B4F9E4
:1046B0001030032B08D031462046FFF72DFE1C3466
:1046C000BC42F4D1BDE8F88365B1B8F80020B9F870
:1046D0000010103A204692B2FFF7C2FE0221204697
:1046E000FFF7BCFE0025EAE70C290020EC2700209C
:1046F0004C2400204E2400202DE9F843274B284E5F
:104700001A68284B1B68022B08BF01320C2AA8BF6D
:104710000C2207464FF000094FF01C0895B2B6F97D
:104720001030012B10D139463046FFF776FE58B1D4
:104730001D4A00231446B2F9101003291BD001337F
:104740000A2B02F11C02F6D109F10109B9F1140F8B
:1047500006F12006E3D1144C0A25B4F91030012BE0
:1047600003D139462046FFF7D7FD013D04F11C0473
:10477000F3D1BDE8F883F288B18808FB0344103216
:10478000204692B2FFF76CFE20462A460021FFF732
:104790006AFE02212046FFF761FED5E718000020DF
:1047A000542400201C000020D42600202DE9F04FC6
:1047B000A24CDFF8BC92002585B0257089F8005026
:1047C0009F4B4FF6CE72EF1811463846FFF748FE62
:1047D0009C4B4FF6CE72EE1811463046FFF740FE66
:1047E0004FF6FB7200213846FFF73DFE05220021FF
:1047F0003046FFF738FE03213846FFF72FFE1C3501
:1048000003213046FFF72AFEB5F58C7FD8D1DFF8BB
:104810006482002645464FF6CE7211462846FFF7C1
:104820001FFE013628460321FFF718FE142E05F15E
:104830002005F0D1844D002784484FF4005101F049
:104840002FF9012807F1010708D1814A13680B2BC2
:1048500004DC0133C820136003F0D0F923784BB196
:1048600099F80030002BE7D07A4B01221A7005B07E
:10487000BDE8F08F012FD4BF18461F46764BAA899A
:10488000764E1A80764BEA891A80C8BF01203070B4
:10489000FFF7A4FE31787348FFF764FE3078FFF726
:1048A000F7FE3078FFF728FF6E4946464FF0140AAE
:1048B000B6F910B0BBF1010F7ED13046FFF7D6FD3F
:1048C0006849002878D067485946FFF77FFE0421E1
:1048D0003046FFF7C3FD63484FF482726821FFF74B
:1048E000BFFD46464FF0140AB6F91030012B2AD10D
:1048F000DFF84CB10A22BBF910300093012B62D1D2
:10490000594630460192FFF7B1FD019A00285AD06E
:1049100004213046FFF7A2FD04215846FFF79EFD13
:1049200005212846FFF7D2FD009A48484FF4005170
:1049300001F0BCF8322003F061F9444800224FF442
:10494000005101F0B3F8BAF1010A06F12006CBD10B
:104950003C4E44494FF00A0AB6F910B0BBF1010FC2
:1049600036D13046FFF782FD3E4988B33D4859466F
:10497000FFF72CFE04213046FFF770FD39484FF455
:1049800082726821FFF76CFDB5F92C30002B25DC15
:1049900001252570344C99F80030002B7FF464AF6A
:1049A00020688DF80F501A460DF10F0103F015FA2B
:1049B000322003F023F9EEE7BAF1010A06F12006EE
:1049C0007FF476AF8DE7013A0BF11C0B93D1BAE778
:1049D000BAF1010A06F11C06BED1D5E7224B234EDF
:1049E00018683368012B1ED1AA881D2A1BD9DFF84D
:1049F00088A023708AF8003002238DF80F3000233E
:104A00001A460DF10F0103F0E8F9237813B19AF873
:104A1000003023B902233360002323700CE70A20FF
:104A200003F0ECF8F1E730238DF80F3000231A463D
:104A30000DF10F0103F0D1F9FEE600BF4A2400207A
:104A4000EC270020D4260020042900200018024072
:104A500018000020502400204E240020482400206C
:104A60004C2400200C290020B82000201C0000202D
:104A700049240020542400205124002070B5214CEA
:104A800000254FF6CE7211462046FFF7E9FC0135AE
:104A900020460321FFF7E2FC142D04F12004F0D19D
:104AA000194E0024A5194FF6CE7211462846FFF77D
:104AB000D7FC2846154D0321FFF7D0FC25444FF6BF
:104AC000CE7211462846FFF7CBFC1C340321284642
:104AD000FFF7C4FCB4F58C7FE4D10D4C0D4BE360C3
:104AE000002104F10800FFF775FD002104F1080022
:104AF000FFF772FD084A00231360084A1370084A42
:104B0000137070BD54240020EC270020D426002010
:104B1000042900206400C800200000204A2400204E
:104B20004924002038B50F480F4DFFF7C1FC002481
:104B300028191C34FFF7DAFBB4F58C7FF8D10B4D44
:104B4000002428191C34FFF7D1FBB4F58C7FF8D171
:104B5000074D002428192034FFF71CFCB4F5207FF2
:104B6000F8D138BD04290020EC270020D4260020ED
:104B700054240020164838B51524013CA0F1200526
:104B800012D114480B24013CA0F11C0514D1124889
:104B90000B24013CA0F11C0515D0D0F8FC30FC30F2
:104BA0005B6898472846F4E7D5F8803200F518701E
:104BB0005B6898472846E0E7D5F81831FC305B6819
:104BC00098472846DFE7BDE838400448FFF782BC35
:104BD00054240020D4260020EC27002004290020A3
:104BE000F02070474FF4A07070472920FDF748B9B6
:104BF0002820FDF745B908B5FDF716F9CA20FDF7DD
:104C00003FF9C320FDF720F90820FDF71DF95020DA
:104C1000FDF71AF9CF20FDF733F90020FDF714F95D
:104C2000C120FDF711F93020FDF70EF9ED20FDF759
:104C300027F96420FDF708F90320FDF705F9122094
:104C4000FDF702F98120FDF7FFF8E820FDF718F9DC
:104C50008520FDF7F9F80020FDF7F6F87820FDF73C
:104C6000F3F8CB20FDF70CF93920FDF7EDF82C20F7
:104C7000FDF7EAF80020FDF7E7F83420FDF7E4F847
:104C80000220FDF7E1F8F720FDF7FAF82020FDF704
:104C9000DBF8EA20FDF7F4F80020FDF7D5F8002056
:104CA000FDF7D2F8B120FDF7EBF80020FDF7CCF8C6
:104CB0001B20FDF7C9F8B620FDF7E2F80A20FDF742
:104CC000C3F8A220FDF7C0F8C020FDF7D9F81020E6
:104CD000FDF7BAF8C120FDF7D3F81020FDF7B4F8BE
:104CE000C520FDF7CDF84520FDF7AEF81520FDF7FE
:104CF000ABF8C720FDF7C4F89020FDF7A5F83620E3
:104D0000FDF7BEF8C820FDF79FF8F220FDF7B8F8D0
:104D10000020FDF799F8B020FDF7B2F8C220FDF7AA
:104D200093F8B620FDF7ACF80A20FDF78DF8A72020
:104D3000FDF78AF82720FDF787F80420FDF784F8AF
:104D40002A20FDF79DF80020FDF77EF80020FDF7F2
:104D50007BF80020FDF778F8EF20FDF775F82B20A1
:104D6000FDF78EF80020FDF76FF80020FDF76CF8D6
:104D70000120FDF769F83F20FDF766F8F620FDF702
:104D80007FF80120FDF760F80020FDF75DF80620B0
:104D9000FDF75AF82C20FDF773F8C820FDF7BEF890
:104DA0002620FDF76DF80120FDF74EF8E020FDF715
:104DB00067F80F20FDF748F82920FDF745F8242073
:104DC000FDF742F80C20FDF73FF80E20FDF73CF808
:104DD0000920FDF739F84E20FDF736F87820FDF769
:104DE00033F83C20FDF730F80920FDF72DF81320AB
:104DF000FDF72AF80520FDF727F81720FDF724F81E
:104E00001120FDF721F80020FDF71EF8E120FDF745
:104E100037F80020FDF718F81620FDF715F81B20CD
:104E2000FDF712F80420FDF70FF81120FDF70CF83C
:104E30000720FDF709F83120FDF706F83320FDF7CC
:104E400003F84220FDF700F80520FCF7FDFF0C20D9
:104E5000FCF7FAFF0A20FCF7F7FF2820FCF7F4FF25
:104E60002F20FCF7F1FF0F20FCF7EEFF1120FDF7DC
:104E700007F8C820FDF752F82920FDF701F8BDE832
:104E800008402C20FCF7FCBF08B5FCF7CDFF032140
:104E9000D320FDF711F880B208BD10B5C4B20222CC
:104EA00003212046FCF776FF0A20FCF7BBFF2046D3
:104EB00000220321FCF76EFFBDE810400220FCF742
:104EC000B1BF38B50446E4B2FCF762FF00212046CA
:104ED000FCF778FF012105462046FCF773FF40EA06
:104EE000052080B238BD10B5C4B240212046FCF781
:104EF00069FF030607D54C212046FCF763FF003805
:104F000018BF012010BD01224B212046FCF742FFB3
:104F1000204600224B21FCF73DFF0020F2E773B54D
:104F20000423C4B20E461546D7210DEB03022046DA
:104F3000FCF762FF019B1BBA1A0DC3F30B233280EF
:104F400020462B8001224B21FCF724FF00224B211D
:104F50002046FCF71FFF02B070BD000010B50A4AE2
:104F60001378984204460DD0517888420AD00BB18C
:104F700041B90123D454FCF70BFF2046BDE8104093
:104F8000FFF78BBF10BD00BF3429002010B5C4B29D
:104F900009212046FCF716FF40F00102D2B220465C
:104FA0000921BDE81040FCF7F5BE10B5C4B20921D7
:104FB0002046FCF707FF092100F0FE022046BDE86D
:104FC0001040FCF7E7BE38B5C4B20D4620460A21B2
:104FD000FCF7F8FE40EA0502D2B220460A21BDE8FD
:104FE0003840FCF7D7BE10B50446FCF7D2FE204689
:104FF0001F21FFF7E8FF2046BDE81040FFF7C6BFBE
:1050000038B5C4B20D4620460A21FCF7DBFE20EA83
:105010000502D2B220460A21BDE83840FCF7BABEEC
:1050200010B50446FFF7C1FF20461F21BDE8104020
:10503000FFF7E6BF10B5C0B20C460B21FCF7C2FE6D
:10504000204010BD1F21FFF7F5BF0A46C0B20B215B
:10505000FCF7A0BE1F21FFF7F8BF38B5C4B20D465C
:1050600020461721FCF7AEFE20EA0502D2B2204608
:105070001721BDE83840FCF78DBE70B5C4B20646B6
:1050800004212046FCF79EFE042100F0FB020546A9
:105090002046FCF77FFE3046F021FFF7DEFF05F0EB
:1050A000F80220460421FCF775FE49222021204603
:1050B000FCF770FE0220FCF7B5FE204601222121FC
:1050C000FCF768FE20469A224121FCF763FE204649
:1050D00001224A21FCF75EFE204601224B21FCF70B
:1050E00059FE204600224B21FCF754FE20460122A7
:1050F0005621FCF74FFE204601225821FCF74AFEBC
:10510000204601224021FCF745FE2046FF220B21CC
:10511000FCF740FEBDE870400220FCF783BE0000B3
:10512000054BD3F8882042F47002C3F888204FF072
:1051300000629A60704700BF00ED00E008B50B4BBD
:105140001A6842F400721A601A6842F480621A60A7
:105150001A6842F480721A60032000F061FA00209D
:10516000FDF786F9FCF7E8FE002008BD003C024090
:10517000034A044B11681B780B441360704700BF4F
:105180003829002088000020014B1868704700BFB4
:105190003829002038B50446FFF7F6FF631C1CBF12
:1051A000054B1B78054618BFE418FFF7EDFF431BBE
:1051B000A342FAD338BD00BF8800002038B50446AA
:1051C000002800F09B80056C25B9FCF7D5FE6564CE
:1051D00084F83C50236CDB0600F18E80236C23F4B2
:1051E000885323F0020343F002032364444B5A68BC
:1051F00022F440325A605A6861680A435A60236850
:1052000021695A6822F480725A605A6842EA01227F
:105210005A605A68A16822F040725A605A680A437C
:105220005A609A68E16822F400629A609A680A43B8
:105230009A603449A26A8A4252D0996821F070611A
:10524000996099680A439A609A68E16A22F040522C
:105250009A609A680A439A609A6822F002029A60F9
:105260009A68217E42EA41029A6094F82020002A3E
:105270003ED05A68616A42F400625A605A6822F469
:1052800060425A605A68013942EA41325A60DA6A29
:10529000E16922F47002DA62DA6A013942EA015203
:1052A000DA629A6822F400729A609A6894F8301070
:1052B00042EA41229A609A68616922F480629A60A7
:1052C0009A68002042EA81229A606064236C23F08D
:1052D000030343F001032364002384F83C3038BD0A
:1052E0009A6822F070629A609A6822F04052B2E79F
:1052F0005A6822F40062C9E70120EDE70120EEE7D9
:10530000002301400100000F82B00023019390F8B8
:105310003C30012B69D0012380F83C3003689A6847
:10532000D2070BD59A68D1071AD4036C43F0100347
:105330000364436C43F0010343644CE09A682C49D6
:1053400042F001029A602B4A1268B2FBF1F202EBC2
:1053500042020192019A002AE4D0019A013AF8E748
:10536000026C22F4E06222F0010242F480720264D4
:105370005A68520541BF026C22F4405242F48052F6
:105380000264026C12F480521CBF426C22F00602CE
:105390004264002280F83C206FF022021A60164A14
:1053A000516811F01F0F15491CD18B4207D001F530
:1053B00080718B420CD1526812F01F0F0BD19A688A
:1053C00012F0405F07D19A6842F080429A6002E092
:1053D0000B498B4202D0002002B07047526812F095
:1053E000100FEBE78B42F6D1E9E70220F4E700BFAC
:1053F00040420F00840000200023014000200140B3
:105400000022014090F83C30012B14D003689A68C8
:1054100022F001029A609B68DB0707D4036C23F437
:10542000885323F0010343F001030364002380F851
:105430003C30184670470220704703689A6852054E
:1054400070B504460D460BD59B68DE0508D5036C88
:1054500043F020030364002380F83C30012070BD3A
:10546000FFF792FE064623681A6891070CD56FF085
:1054700012021A60226C42F4007222649A6812F0DE
:10548000405F17D00020EAE7681CEDD065B92368BB
:105490001B6813F00203E6D1226C84F83C3042F022
:1054A000040222640320DAE7FFF76EFE801BA842A5
:1054B000EDD8D8E7227E002AE4D1DA6A12F4700F20
:1054C00002D09B685A05DDD4236C23F480732364D7
:1054D000236CDB04D6D4236C43F001032364D1E7AF
:1054E0000368D86C70470000F7B50023019390F86B
:1054F0003C30012B054600F08680012380F83C30CB
:1055000008682B688E68092884B233D904EB4402FA
:10551000DF681E3A4FF0070C0CFA02FC27EA0C0772
:10552000DF60DF6806FA02F23A43DA60496806296A
:1055300001EB81022DD8596B053A1F26964021EACE
:1055400006015963596B04FA02F20A435A632F4A5F
:1055500093420AD1122837D12D4B5A6822F4000207
:105560005A605A6842F480025A60002085F83C0074
:1055700003B0F0BD1A6900EB400C072707FA0CF7DF
:1055800022EA07021A611A6906FA0CF616431E612E
:10559000CCE70C294FF01F010BD81E6B233A91402A
:1055A00026EA01011963196B04FA02F20A431A632D
:1055B000CDE7DE6A413A914026EA0101D962D96A13
:1055C00094400C43DC62C2E7124B984201D0112890
:1055D000CBD10F4B5A6822F480025A605A6842F4C9
:1055E00000025A600B4B9842BFD10B4B0B4A1B6811
:1055F000B3FBF2F30A2253430193019B002BB4D077
:10560000019B013BF8E70220B2E700BF0020014008
:1056100000230140120000108400002040420F00CF
:105620000749CA6822F4E0620302120403F4E0634B
:10563000120C134343F0BF6343F40033CB60704755
:1056400000ED00E0164B30B5DC68C4F30224C4F171
:105650000703251D042B28BF0423062D4FF0FF351B
:105660008CBF033C002405FA03F321EA0303A540A1
:1056700022EA0502A340002843EA0203ACBF00F17E
:105680006040084A4FEA0313B8BF00F00F00DBB2D6
:10569000AABF00F56140135480F8003330BD00BF4D
:1056A00000ED00E014ED00E0002807DB044A4109AA
:1056B000012300F01F00834042F82130704700BFF3
:1056C00000E100E010B5044650B1437903F0FF0259
:1056D00013B90271FCF7A0FC01236371002010BD17
:1056E0000120FCE710B5044620B390F8393003F0F0
:1056F000FF021BB980F83820FCF7A6FC022384F8CF
:105700003930236861681A6822F440320A431A600B
:105710005A6BA16822F007020A435A631A6CE168C7
:105720006FF30D020A431A6400200123E06384F83A
:10573000393010BD0120FCE770477047036870B531
:105740005E681D68F207044614D5E90512D51A688B
:1057500022F480721A60C26B42F00102C26301221D
:105760009A60042380F83930002380F83830436988
:1057700003B19847B20616D5AB0414D523681A684E
:1057800022F400521A6020229A60E36B43F0020375
:10579000E363042384F83930002384F838306369E4
:1057A0000BB120469847300716D5290514D5236834
:1057B0001A6822F400621A6008229A60E36B43F0D0
:1057C0000403E363042384F83930002384F8383079
:1057D00063690BB12046984772070BD56B0509D555
:1057E00023681A6822F480621A6004229A602046B4
:1057F000FFF7A2FFB00714D5A90512D523681A68D0
:1058000022F400721A6002229A60E36BE3630123C0
:1058100084F83930002384F8383023690BB12046EE
:105820009847F20613D5EB0411D523681A6822F4C1
:1058300080521A6010229A60E36BE363012384F8BC
:105840003930002384F838302046FFF776FF70BDEA
:10585000F0B590F83820012A03464FF002002BD013
:10586000012283F8382083F8390003EB0112D2E9D2
:105870000740556A174F44EA0040093C012C9CBF81
:1058800005F07F4210434FEA01161A6888BF40EACC
:10589000056091B9516A394001435162012C9969FF
:1058A000916103D8596A21F07F4191620122002061
:1058B00083F8392083F83800F0BDD16939400143BD
:1058C000D1619919012C896911619CBF25F07F452F
:1058D0001562EBE7F0FFFC002DE9F74FDFF8BC9114
:1058E0006C4A00230D6801249C4004EA0506AC4381
:1058F00040F0B7804D68032705F003044FEA4308E2
:1059000007FA08FC671E012F6FEA0C0C34D8876871
:1059100007EA0C0ECF6807FA08F747EA0E07876018
:10592000476827EA060EC5F300179F4047EA0E07AF
:105930004760C76807EA0C0E8F6807FA08F747EA5E
:105940000E07022CC76019D14FEAD30A00EB8A0A6E
:1059500003F0070BDAF820704FEA8B0B4FF00F0EB5
:105960000EFA0BFE27EA0E0E0F6907FA0BF747EA4D
:105970000E07CAF8207001E0032CDAD1076804FA98
:1059800008F407EA0C073C4315F4403F046068D074
:1059900000240194D9F8444044F48044C9F84440B8
:1059A000D9F8444023F0030707F1804704F480440A
:1059B00007F59C37019403F0030C019CD7F808E02D
:1059C0004FEA8C0C0F2404FA0CF42EEA040E324C2D
:1059D000A0424DD004F58064A0424BD004F5806411
:1059E000A04249D004F58064A04247D004F5806409
:1059F000A04245D004F58064A04243D004F5806401
:105A0000A04241D004F58064A0423FD004F58064F8
:105A1000A0423DD004F58064A04214BF0A240924AA
:105A200004FA0CF444EA0E04BC609468F74315F4DD
:105A3000801F0CBF3C4034439460D46815F4001FB1
:105A40000CBF3C403443D460546815F4003F0CBF95
:105A50003C40344354601468ED0354BF3C4034432D
:105A600014600133102B7FF43DAF03B0BDE8F08F1D
:105A70000024D5E70124D3E70224D1E70324CFE7AC
:105A80000424CDE70524CBE70624C9E70724C7E7AC
:105A90000824C5E7003C01400000024000380240F5
:105AA0000369194214BF0120002070470AB18161C7
:105AB00070470904FBE7436901EA030221EA030195
:105AC00041EA02418161704701684B6913F48063C8
:105AD0004FF0000210D06FF480634B61202302630B
