:020000040800F2
:10000000000003205D0600081125000813250008E4
:100010001525000817250008192500080000000014
:1000200000000000000000000000000061810008E6
:100030001B25000800000000F1810008197A000863
:10004000AD060008AD060008AD060008AD060008C4
:10005000AD060008AD060008AD060008AD060008B4
:10006000AD060008AD060008AD060008AD060008A4
:10007000AD060008AD060008AD060008AD06000894
:10008000AD060008AD060008AD060008AD06000884
:10009000AD060008AD060008AD060008AD06000874
:1000A000AD060008AD060008AD060008AD06000864
:1000B000AD060008AD060008AD060008AD06000854
:1000C000AD060008AD060008AD060008AD06000844
:1000D000AD060008AD060008AD060008AD06000834
:1000E000AD060008AD060008AD060008AD06000824
:1000F000AD060008AD060008AD060008AD06000814
:10010000AD060008AD060008AD060008AD06000803
:10011000AD060008AD0600081D250008AD06000864
:10012000AD060008AD060008AD060008AD060008E3
:10013000AD060008AD060008AD060008AD060008D3
:10014000AD060008AD060008AD060008AD060008C3
:10015000AD060008AD060008AD060008AD060008B3
:10016000AD060008AD060008AD060008AD060008A3
:10017000AD060008AD060008AD060008000000004E
:10018000AD060008AD060008AD060008AD06000883
:10019000AD060008AD060008AD060008AD06000873
:0C01A00029250008AD06000835250008E0
:1001B00010B5054C237833B9044B13B10448AFF3A1
:1001C00000800123237010BD800300200000000088
:1001D000144E020808B5034B1BB103490348AFF3A3
:1001E000008008BD0000000084030020144E0208B7
:1001F00001F0FF01102A2BDB10F0070F08D010F8D8
:10020000013B013A8B422DD010F0070F42B3F6D1DB
:10021000F0B441EA012141EA014122F007047FF0F4
:1002200000070023F0E80256083C85EA010586EA4B
:10023000010685FA47F5A3FA87F586FA47F6A5FA87
:1002400087F68EB9EED1F0BC01F0FF0102F0070293
:1002500032B110F8013B013A83EA010313B1F8D13E
:100260000020704701387047002D06BF354603381F
:10027000073815F0010F07D1013015F4807F02BF58
:10028000013015F4C03F0130F0BC0138704700BFA9
:100290007BB972B90029BEBF00204FF0004106E0D3
:1002A00008BF00281CBF6FF000414FF0FF3000F086
:1002B000D3B9ADF1080C6DE904CE002909DB002BA0
:1002C0001ADB00F04DF8DDF804E0DDE9022304B0AC
:1002D0007047404261EB4101002B1BDB00F040F80E
:1002E000DDF804E0DDE9022304B0404261EB4101A6
:1002F000524263EB43037047524263EB430300F007
:100300002FF8DDF804E0DDE9022304B0404261EBA0
:1003100041017047524263EB430300F021F8DDF8DE
:1003200004E0DDE9022304B0524263EB430370476B
:1003300053B94AB9002908BF00281CBF4FF0FF314C
:100340004FF0FF3000F088B9ADF1080C6DE904CE34
:1003500000F006F8DDF804E0DDE9022304B07047A0
:100360002DE9F047089D8E4604468846002B4AD169
:100370008A42174662D9B2FA82F64EB1C6F120031C
:1003800001FA06F820FA03F3B74043EA0808B4403C
:100390004FEA174E1FFA87FCB8FBFEF1230C0EFB49
:1003A000118843EA084301FB0CF29A4209D9FB1871
:1003B00001F1FF3080F0EA809A4240F2E780023992
:1003C0003B449A1AA3B2B2FBFEF00EFB102243EAA2
:1003D000024300FB0CFC9C4509D9FB1800F1FF32DD
:1003E00080F0D6809C4540F2D3803B44023840EAFE
:1003F0000140A3EB0C0300211DB1F3400022C5E92D
:100400000032BDE8F0878B4205D90DB1C5E9000186
:1004100000210846F5E7B3FA83F1002946D1734578
:1004200002D3824200F20581841A6EEB030201209E
:100430009046002DE5D0C5E90048E2E7002A00F02B
:100440009080B2FA82F6002E40F0A4808A1A030C43
:100450004FEA174E80B2BCB20121B2FBFEFC0EFB8C
:100460001C2243EA024304FB0CF29A4207D9FB1810
:100470000CF1FF3802D29A4200F2E080C4469B1A87
:10048000B3FBFEF20EFB123340EA034302FB04F41B
:100490009C4207D9FB1802F1FF3002D29C4200F2C5
:1004A000CA8002461B1B42EA0C40A5E7C1F12006A8
:1004B0008B4022FA06F71F430EFA01F420FA06F3E6
:1004C0002EFA06FE4FEA1749234300FA01F81FFAF5
:1004D00087FCBEFBF9F01C0C09FB10EE44EA0E444D
:1004E00000FB0CFEA64502FA01F209D93C1900F105
:1004F000FF3A80F09C80A64540F2998002383C4447
:10050000A4EB0E041FFA83FEB4FBF9F309FB1344BA
:100510004EEA044403FB0CFCA44508D93C1903F142
:10052000FF3E80F08280A4457FD9023B3C4443EAF1
:100530000040A4EB0C04A0FB02EC64457346E146CA
:1005400062D35FD05DB1B8EB030264EB090404FA37
:1005500006F622FA01F31E43CC40C5E900640021EF
:100560004FE7B1FBF2FC010C41EA0E4180B240EAD8
:1005700001423B4638463C46B846BE462026B1FBC3
:10058000F7F1A2EB080241EA0C4166E7014618E7E1
:1005900010462CE7C6F120022EFA02F3B740B14014
:1005A00020FA02F24FEA174E0A43B3FBFEF8BCB240
:1005B0000EFB1833110C41EA034108FB04F9B0406B
:1005C00089454FEA104380B23ED9791808F1FF3CC3
:1005D00001D289451FD8A1EB0901B1FBFEF909FB46
:1005E00004F80EFB191192B242EA0142424529D2A7
:1005F000BA1809F1FF31C4D24245C2D2A9F10201B1
:100600003A44BEE7F0459DD2BEEB02036CEB070C0B
:100610000138E14696E7A7EB09094944A8F1020C25
:10062000B1FBFEF909FB04F8DBE773467FE75046B0
:1006300066E70846FDE63B44023A33E7ACF1020CBC
:100640003B441CE749469CE7A1EB0901C446B1FBCA
:10065000FEF909FB04F8C4E7704700BFDFF834D0A7
:10066000002103E00C4B5B58435004310B480C4B0A
:1006700042189A42F6D30B4A02E0002342F8043BA8
:10068000094B9A42F9D304F0EFFC23F055FE01F038
:10069000DDF870470000032020C40508000000209A
:1006A000740100208003002084430120FEE770478E
:1006B00008B500F0B9FDBDE8084000F03DBD00F010
:1006C000B5BD704710B50421044622F037FC204622
:1006D00010BD000038B50C4B0C4C18800C4B822020
:1006E00019806368984740F6110398420AD1094D72
:1006F00023682C60822098472B688220DB6898470B
:10070000002038BD0120FCE7A60300205C0000208B
:10071000A4030020A80300204FF4A071F020FFF7ED
:10072000D9BF0000F7B5394D2B6804461B698220FC
:100730009847208000284ED02B680DF106025B6997
:1007400001A982209847324B1B78002B4BD0BDF873
:10075000062040F674639A423FD9ADF80630BDF8E2
:1007600006209B1A9BB20A2B42D90B22B3FBF2F351
:10077000284A1288934201D9013A93B2BDF8042065
:10078000254840F6B8318A4234D8C2F571620E323B
:10079000016892B20F25B2FBF5F2204D2D88AA42D6
:1007A00084BF05F1FF35AAB28A4215468EB22AD916
:1007B000921B91B21A4E3768BB42BAB28CBF9A1ADA
:1007C000D21A92B211440529C4BF05603360036890
:1007D00063803368A38003B0F0BDB32A9CBFB4220A
:1007E000ADF80620BBE7BDF80630A3F5B473B9E752
:1007F0000023C3E7C2F56D62083292B20E2A016887
:10080000C8D800252A46891A89B2D3E7A803002050
:1008100070200020A4030020A0030020A6030020D5
:100820009C03002037B568460D461446FFF77AFF53
:10083000BDF8000030B1BDF802302B60BDF80430C7
:100840002360012003B030BD032821D8DFE800F089
:10085000020B12190F4B1A68B2FA82F252090421E4
:100860000D4805F0C7B80B4B5A68B2FA82F252092C
:100870000821F5E7074B9A68B2FA82F25209102173
:10088000EEE7044BDA68B2FA82F252092021E7E778
:10089000704700BFAC03002000100240032821D89D
:1008A000DFE800F0020B12190F4B1A68003A18BF6C
:1008B000012204210D4805F09DB80B4B5A68003AFF
:1008C00018BF01220821F5E7074B9A68003A18BFC4
:1008D00001221021EEE7044BDA68003A18BF01222A
:1008E0002021E7E7704700BFAC0300200010024062
:1008F00003280DD8DFE800F00206080A04210548A5
:1009000005F07DB80821FAE71021F8E72021F6E785
:10091000704700BF0010024008B5032811D8DFE877
:1009200000F0020A0C0E0421074805F05DF8431E92
:100930005842584108BD0821F6E71021F4E720216C
:10094000F2E70020F3E700BF0010024070B5084D49
:1009500000240126E0B2FFF7DFFF18B12B68012B5E
:1009600018BF2E600134052C05F10405F2D170BDCD
:10097000AC030020012380F8781080F879307047AC
:100980007047002070470000034B4164003918BFD6
:1009900001211970704700BF4336012070470020C5
:1009A0007047836B0BB10846184770474FF6FF70CE
:1009B0007047406803689B691847704770477047E5
:1009C0007047704710B5044600F046FD23680349A0
:1009D000D3F890302046BDE810401847000000D002
:1009E00008B503680446D3F8843098472368204646
:1009F000DB6F984700F0ECF8236820465B6F984760
:100A0000292001F03DFA00F0E3F8236820465B6FEF
:100A10009847F8E710B504460AF052FA23682046D2
:100A2000D3F8BC30BDE81040184700F0F9BC00F026
:100A3000FDBC00F02FBD00F0CFBC00F03FBD00F0CA
:100A400047BD00F0D3BC09F069BC10B58421044651
:100A500022F074FA204610BD10B590F8341090F8CA
:100A600078400C4B8C421A7809D03AB90A4A0B49A3
:100A70001488088810800C8001221A7010BD002A8A
:100A8000FCD0054A05491488088810800C80002293
:100A9000F3E700BF3C360120383601203A3601200A
:100AA00070B50D46194635B9094B0A4A0A4840F255
:100AB000FF2123F07FF9C0E90F52084B003A18BF1D
:100AC00001221A700368BDE87040D3F890301847CF
:100AD000844E0208BC4E02080A4F0208423601202A
:100AE00008B5094B1B888B4203D8084B1B889342DF
:100AF00005D9074B074A0848A32123F05BF9074BA8
:100B00001980074B1A8008BD383601203A3601207B
:100B10004F4F0208B24F02080A4F02083E3601202A
:100B200040360120034690F87A0018B158680368EF
:100B30001B68184770470000012108B500220846CD
:100B400007F00CF80A4B186028B90A4B0A4A28210A
:100B50000A4823F02FF900220421012007F0A6F80B
:100B6000074B186018B9074B034A2C21F0E708BD62
:100B7000C0030020F54F02083E5002086D500208E5
:100B8000BC030020AF500208024B4FF0FF31186841
:100B900007F02EB8C0030020014B186807F054B8C6
:100BA000C0030020024B0021186807F021B800BFE5
:100BB000C0030020FFF7F0BF03480449006800238A
:100BC0001A4607F0AEB800BFBC03002004000020A6
:100BD00013B5084C00231A4601A9206807F0D2F883
:100BE00020684FF0FF33002201A907F0CBF802B0D4
:100BF00010BD00BFBC03002003685B6C18470120D8
:100C0000704703689B6A1847FEE740F2EF30704771
:100C1000054B0360054B4FF08062C3F88820BFF39B
:100C20004F8FBFF36F8F7047F85C020800E100E060
:100C300010B504464FF45A61FFF7EAFF204622F050
:100C40007DF9204610BD000082B0002301930E4BB9
:100C50001A6B42F400021A631A6B02F4000201924A
:100C6000019A1A6942F400021A611A6922F4000218
:100C70001A61064B064A1A61064A5A61064B4FF042
:100C800080629A6002B0704700380240142200204F
:100C9000E90E0008090C000800E100E008B50A2888
:100CA00009D8DFE800F006100E0808080810101038
:100CB0001000022008BD054B054A0648902123F08C
:100CC00079F80020F6E70120F4E700BFF1500208B0
:100CD0000C5102085751020838B50C46887FFFF7BF
:100CE000DDFFA58AE28A164B2169586342EA054274
:100CF0005A64628BD963521B1A642568082D0ED181
:100D00009A611A615862207F0E4A42EA0062DA61F3
:100D1000E2681A620C4A5961D9601A6038BD002233
:100D2000D8611A61E1680A0A480902F4784200F4BD
:100D3000FC600243C1F3C4010A439A63034AECE72F
:100D400000B002400900010001230200012303005A
:100D500008B50B280BD8DFE800F00612100A0A0AC3
:100D60000A0808080808022008BD0520FCE7054B12
:100D7000054A06486F2123F01DF80020F4E7012002
:100D8000F2E700BFF15002089751020857510208DC
:100D90002DE9F04191F81D800C464046FFF7D8FF41
:100DA000A77F05463846FFF7D3FF06463846FFF7CC
:100DB00075FFA18A628B444B521A1A649A61228B86
:100DC000521A1A61E28A586342EA01425A6421695E
:100DD0006268D963DA602068802828D0227F0FD823
:100DE000202867D0402865D004281AD0364B45EA21
:100DF000026545F40035B845DD6161D0334A44E011
:100E0000B0F5807F04D0B0F5007FEFD1304800E02E
:100E1000304840EA0262DA61E2681A625E62596151
:100E200032E045EA026242F40032DA61F6E7A06895
:100E3000021DDA62227F45EA026545F40035DD6174
:100E40005E625961017841B1012921D0224B234AC8
:100E500023484FF48D7122F0ADFFDA69418822F406
:100E60007F42013922F0100242EA0122DA610121B7
:100E7000154BDA6942F02002DA61DA699206FCD495
:100E800010229A600029B9D0164A1A60BDE8F08194
:100E9000B2F1FF01DA69408822F47F4200F1FF30AD
:100EA00022F0100242EA002242F0100218BF012193
:100EB000DA61DDE745EA0262034B42F40032B4E74F
:100EC00042F20132E1E700BF00B00240012301001D
:100ED000090002000A000200E1510208FB51020869
:100EE0005751020801230200024B1B68586803682F
:100EF0005B6918474436012070B5044625460A4B05
:100F00000C30002660602672667245F8203B602235
:100F100029460AF02BF904F55A63EE6024359D4208
:100F2000FBD1204670BD00BFF85C0208034B1A6875
:100F3000D207FCD423229A60704700BF00B0024061
:100F40007047000030B50F4C2568ED07FCD4232511
:100F50000904A56041F001010225FF2B656361646E
:100F6000E0630AD00849656241EA0363E361074B25
:100F700022626061E060236030BDE561039BA36392
:100F8000034BF8E700B00240090001000100020035
:100F90000100030030B50E4C2568ED07FCD4232575
:100FA0001204A56042F001020225FF2B6563626412
:100FB000E063E16008D01B0643F00213E361054BD8
:100FC00065626061236030BD034BE3610123F9E793
:100FD00000B0024001000200020002FF30B50B4CDD
:100FE0002568ED07FCD4232512041B06A56043F4F5
:100FF0000033022542F0010265636264E063E16050
:10100000E361034B65626061236030BD00B0024064
:1010100001000200012070474020704700EB811062
:101020000830704700EB811008307047012070478E
:101030004FF4326070474FF4326303FB0100083015
:1010400070474FF4326303FB010008307047012002
:1010500070471020704700EB01100830704700EB1C
:10106000011008307047084601F0CEBC10B5034BA4
:101070000360044608F0A9FE204610BDB05D0208DA
:1010800010B50446FFF7F2FF2046482121F056FF35
:10109000204610BD10B5034B0360044608F095FED2
:1010A000204610BD7C5D020810B50446FFF7F2FF34
:1010B000204640F6283121F041FF204610BD0000B7
:1010C00010B5034B0360044608F07FFE204610BDB8
:1010D000485D020810B50446FFF7F2FF20461821CC
:1010E00021F02CFF204610BD10B5084B03600446CC
:1010F00000F65430FFF7BAFF04F12C00FFF7CAFFE7
:1011000004F11400FFF7DCFF204610BDE45D020887
:1011100008B50248FFF7E8FF08BD00BF9C12002099
:1011200010B50446FFF7E0FF204640F6FC4121F0F1
:1011300005FF204610BD00002DE9F34101F06EFAD5
:10114000054601F06FFA0024014623462846224650
:10115000009412F041FE274B274A1A60204602F005
:1011600089FB264D264B274A27489A6012F09CFDA2
:101170002B68BFF35B8FDB0735D4284621F0E0FEF8
:1011800088B3224C224B236004F53A6604F1140024
:1011900004F12C0804F654376060C4F80880E76056
:1011A000266108F013FE1B4B6361404608F00EFEFB
:1011B000194BE362384608F009FE184BC4F8543B5B
:1011C00004F69C3003F01EF8224604F69C313046AB
:1011D00002F0CAFB304601F017FC114822F008FE6D
:1011E000284621F0B9FE0F4802B0BDE8F041FFF7F4
:1011F000E9BB00BFA8360120480400209812002057
:10120000680400204C040020080000209C120020EC
:10121000E45D0208485D02087C5D0208B05D0208DA
:1012200011110008C4030020704700000148FFF7B7
:10123000D7BB00BFC403002070B5264E264C274DF7
:10124000274B23603046FFF757FE284617F0CAFEAB
:10125000244810F09FFA244B2448DC6000224FF40D
:101260008071C3E9121222491A86C3E91A12214970
:1012700083F85820C3E91E011F49C3F880101F4995
:101280001F480B60F021C3E90422C3E90622C3E929
:101290000822C3E90A22C3E90E22C3E91022C3E9E6
:1012A0001422C3E917225A6683F870205A67C3E9EB
:1012B000016501801348018013484FF4A07101803B
:1012C0001248018012490A70012283F83420114A21
:1012D0001A6070BDF40400209412002068040020FD
:1012E000744E02084C040020C403002000000101D9
:1012F00001000001000450001A00140044360120CF
:10130000383601203E3601203A3601204036012091
:101310003C3601200C5C02080148FFF779BC00BF95
:10132000F40400200020704781807047C18070471E
:10133000018170474181704770477047704770471F
:10134000704710B4C4880368121B84885B6D091B46
:1013500012B25DF8044B09B218474FF6FF73838150
:101360004FF0FF3303621368C361106070470020C1
:1013700070478B88838001207047704780F8261063
:10138000704790F82600704710B50022B1F9084068
:10139000B1F90A10028042808480C18010BD002211
:1013A000028042808280C28070470177704780ED62
:1013B000080A704780F82410704780F8251070479D
:1013C00001207047983070478C30704784307047E8
:1013D0007047704770470000034B902283F85A23F0
:1013E00083F85823704700BF00E100E0094A0A492A
:1013F000D3680A48C3F30A03013B9BB20B8011690F
:10140000C1F30A01013901801364536B43F00103F6
:1014100053637047006801409A1F0020981F002006
:10142000014BD3F8AC00704700680140024B012229
:10143000C3F8AC105A6270470068014010B52C2107
:10144000044621F07BFD204610BD10B5BC210446AA
:1014500021F074FD204610BD70B5044608F0B3FFBE
:1014600023689D6E0EF0E4FE01462046A8472368DF
:10147000054AD3F88C502046AC460023BDE87040A6
:10148000A2F51631604700BF00B004D008F082BF5B
:1014900008F08CBF08F048BF09F0B7B890F82520D5
:1014A00012B103685B691847704790F825201AB19C
:1014B00090F8242002B1186070470000034B4FF0F1
:1014C00080629A604FF080729A60704700E100E09D
:1014D000084B4FF08062C3F88820BFF34F8FBFF3F3
:1014E0006F8F4FF08072C3F88820BFF34F8FBFF328
:1014F0006F8F704700E100E070B50023124E8380CB
:10150000124B0360336893F8582005460AB1D86C33
:1015100000B998680368DB6A98473368B0FA80F4CA
:10152000D86C640930B10368DB6A9847002808BFAB
:1015300044F001042CB9064B064A07482C2122F03E
:1015400039FC284670BD00BF44360120F85D020812
:101550003952020897520208D052020870B5254E3F
:101560003568BFF35B8F15F0010540D1304621F09F
:10157000E7FC00283BD0204C204B256104F13400CF
:10158000C4E90035C4E90255E584A562A58510F0DB
:10159000E6FB04F158000BF09FFA194BA3652046B7
:1015A000184B40F8843BFFF7A7FF174BC4F8843073
:1015B0002433C4F88C304FF4C803C4E92835002321
:1015C000C4F8AC30C4F8B030C4F8B430C4F8B830A3
:1015D0000E480F4BC4F89050C4F89C50C4F8A85063
:1015E000C4F8983022F004FC304621F0B5FC0248E3
:1015F00070BD00BF9C1F0020A01F00209466020841
:10160000185E0208905E020848660208D5130008BA
:101610002866020838B5184C23685BB3174B184A84
:101620001B6C11888B4216D1164B198804F0CCFF25
:10163000236893F86A200025013283F86A2083F832
:101640007C50FFF7B9FA206809F03AFC2846BDE85B
:101650003840FFF7F9B804F0B7FF24682368204644
:101660001B6A9847012384F87C300020BDE838408D
:10167000FFF714B938BD00BF4436012000680140AF
:101680009A1F0020981F002007B5064BADF80600F2
:101690001B68054801220DF1060105F081FD03B02C
:1016A0005DF804FB0C000020B020002038B5084C89
:1016B000204603F0CDFD0A21204603F062FE2046BD
:1016C00003F0B2FE0546204603F040FE284638BD32
:1016D000A422002038B5084C204603F0B9FD0A21A9
:1016E000204603F04EFE204603F09EFE05462046AF
:1016F00003F02CFE284638BD5C2200202DE9F34182
:10170000DFF8A880264E274FFFF7D0FF0546FFF7EA
:10171000E1FF294602460446404622F00FFD322DE5
:101720001AD952238DF80730306800231A460DF17C
:10173000070106F0F6FA642C1AD91B4855238DF8D8
:101740000730006800231A460DF1070106F0E9FA98
:10175000642006F0F7F9D7E7072D94BF4C234E23FA
:101760008DF80730002330681A460DF10701E0E7D5
:10177000072C08D844238DF80730002338681A4610
:101780000DF10701E2E74E2307488DF807300023EB
:101790001A460DF10701006806F0C3FAEDE700BF35
:1017A0006C200020642000206820002032530208B2
:1017B00030B595B0102200210AA822F014FD1422A1
:1017C000002103A822F00FFD00241E4B01941A6C87
:1017D00042F080521A641B6C03F080530193019B0A
:1017E000194B02941A6842F440421A601B6803F4D1
:1017F000404302930122029B4FF48033CDE908233A
:1018000002254FF480030821CDE90E534FF4B47341
:10181000CDE9101308A804231393129504F02CFFAC
:1018200004F0F0FE0F23CDE903354FF4A0504FF440
:101830008053CDE90603052103A8059405F0F8F8C7
:1018400015B030BD00380240007000402DE98048DE
:101850009BB003F017FCFFF7ABFF142200210DA88B
:1018600022F0C1FC0024C94B00941A6BC84842F016
:1018700010021A631A6B02F010020092009A01948F
:101880001A6B42F020021A631A6B02F020020192D6
:10189000019A02941A6B42F080021A631A6B02F0EA
:1018A00080020292029A03941A6B42F004021A63B5
:1018B0001A6B02F004020392039A04941A6B42F02A
:1018C00001021A631A6B02F001020492049A059451
:1018D0001A6B42F002021A631A6B02F002020592BE
:1018E000059A06941A6B42F040021A631A6B02F0D2
:1018F00040020692069A07941A6B42F008021A6395
:101900001B6B03F00803224607933C21079B04F05E
:1019100071F8A0480122022104F06CF822469D488B
:10192000042104F067F822469B484FF4405104F02C
:1019300061F8224699484FF4005104F05BF8012603
:101940003C23032592480F940DA90227CDE90D36BB
:10195000109503F065FF8F480DA9CDE90D764FF086
:101960000408CDE90F4403F05BFF8A480DA9CDE9D7
:101970000D86CDE90F4703F053FF4FF440538648DF
:101980000DA9CDE90D36CDE90F4703F049FF824897
:101990000F940DA9CDE90D8503F042FF4FF40053DC
:1019A0007E480DA9CDE90D36CDE90F4403F038FF8F
:1019B0000DA906237A480F94CDE90D3503F030FFC9
:1019C0007848794B794D036003F020FEDFF8FCC1C5
:1019D000774B2C62C5E900C328464FF48043C5E924
:1019E0000434C5E90244C5E9064404F011FA1021A3
:1019F000284604F055FC2146284604F070FC6D4D45
:101A0000DFF8CCE1AC624FF48273C5E900E34FF438
:101A100000781823C5E9068328460A23C5E902444D
:101A2000C5E90444C5E90844EB6205F05DFB8F237A
:101A30002246394657488DF824308DF8344003F05B
:101A4000D9FF32464FF47A7309A9284605F0A8FB5E
:101A50004FF47A7332460DA9284605F04DFD324603
:101A600039464C4803F0C6FF9DF83430D32B04BFF1
:101A7000514B1E70514E524B0125C6E900354FF0B7
:101A8000100940230024C6E904934FF4C073C6E94B
:101A900006344FF40063C6E908344FF400534FF0A6
:101AA00002084FF0040A4FF0030BB3620DA907239D
:101AB00030460827CDE90FA3CDE90D83C6E9024AD8
:101AC000CDE911B8CDF84C8005F0F2F94FF6FF7270
:101AD00009A93046CDE90A75089409950C9405F0DA
:101AE00007FA284603F0FAFA4FF6FF7209A93046C2
:101AF000CDE90987CDE90B5405F0FAF94FF6FF72ED
:101B000009A93046CDE909B7CDE90BA405F0F0F9F4
:101B10004FF40C730893089B0C934FF6FF7209A9BE
:101B20003046CDE909A70B9505F0E2F940F26A517C
:101B3000304605F0FBF9342221460DEB020022F07D
:101B400052FB204E204B3461C6E900340923C6E91C
:101B500005351D23C6E9073B40F20D1240F2431341
:101B6000C6E9092340F2171140F247133046C6E98F
:101B70000B13C6E90244B48686F8364004F042FCF2
:101B8000FF21F022CDE9121424E000BF003802400A
:101B90000010024000080240000C02400018024001
:101BA000000002405422002000300240C0210020EA
:101BB000A0860100B0200020702000207C200020A2
:101BC000400100A01821002000680140005C004096
:101BD000005001404FF4806005214FF4A073CDE91F
:101BE0001401CDE90E240DA9CDE916423046224656
:101BF0004E4E1893CDE910380D94ADF864408DF831
:101C0000664004F0B3FC4A4B33601B68DFF87CA1EC
:101C100098473368474EDB689847474B3046C6E9DC
:101C20000034C6E90284C6E90A48C6E90C4403F058
:101C3000FDFC2946304603F0AFFD404E4A462146A2
:101C40000DA822F0D0FA3E4BB4604FF4803B3046F2
:101C5000C6E9003B3461347686F82040F462C6F869
:101C600028A0F460F56186F83040756103F04AFA07
:101C70000DA93046CDE90D55324E0F9403F0D8FB37
:101C80004A4621460DA822F0AEFA2F4BB4603046EA
:101C9000C6E9003BC6E90AA43461347686F82040E0
:101CA000F460F56186F83040756103F02BFA0DA9F8
:101CB0003046CDE90D850F9403F0BAFB2348244B41
:101CC000036005F0A9F8FEF7F3FCFEF7F0FC05F061
:101CD000B1FE204A2946384605F0E8FF1E4B1F4A50
:101CE00018602946384605F0E1FF1D4B1D4A186073
:101CF0002946384605F0DAFF1B4B1C4A1860294676
:101D0000384605F0D3FF1A4B1A4A186021461A4884
:101D100005F0BCFE194B1A4A18602146194805F017
:101D2000B5FE194B186005F097FEFEE75C20002019
:101D3000240000201422002000B00240A422002031
:101D4000002001405C2200200021014008210020E9
:101D5000000806501C5F02086C200020045F020887
:101D600068200020EC5E020864200020D45E020897
:101D700060200020585F0208FD160008782000202F
:101D8000345F0208BF060008742000200100000F25
:101D9000704770477FB5094B8DF817201B68029379
:101DA0000DF117020123009201930A4601460448EF
:101DB00004F0D6F807B05DF804FB00BF1000002067
:101DC000C02100207FB500238DF81730084B1B6819
:101DD00002930A4601230DF1170100910193014678
:101DE000044804F04DF99DF8170007B05DF804FBB6
:101DF00010000020C02100201FB5084C246800926C
:101E0000CDE901340A4601230146054804F038F9BA
:101E1000003818BF012004B010BD00BF1000002022
:101E2000C021002003F05AB910B5064C002220460C
:101E3000042103F0DFFD20460122BDE8104004210B
:101E400003F0D8BD0008024038B50B4D044601220E
:101E50000A484FF4005103F0CDFD0022042128462A
:101E600003F0C8FD2046FFF70FFC28460122BDE81D
:101E70003840042103F0BEBD00080240000C0240BF
:101E800038B50B4D044600220A484FF4005103F0C8
:101E9000B1FD00220421284603F0ACFD2046FFF7E7
:101EA000F3FB28460122BDE83840042103F0A2BD1F
:101EB00000080240000C0240F7B5144E144F0546CE
:101EC0000C4630460022042103F094FD00224FF41A
:101ED0000051384603F08EFD2846FFF7D5FB0D4B29
:101EE0000D481B68224601A905F006FB3846012271
:101EF0004FF40051019C03F07DFD30460122042186
:101F000003F078FD204603B0F0BD00BF000802409A
:101F1000000C02400C000020B020002003F0DEB8CE
:101F20000268034B9A4201D103F0C6B8704700BF64
:101F3000001000407047000082B00E4B002200925B
:101F4000596C41F480415964596C01F4804100910D
:101F500000990192196C41F0805119641B6C03F0D7
:101F600080530193019B0F216FF0010002B003F039
:101F70000DBB00BF0038024010B514228AB00446E1
:101F800000210DEB020022F02EF923681E4A934235
:101F90001FD11E4B002101915A6C42F480725A6489
:101FA0005A6C02F480720192019A02911A6B42F00B
:101FB00001021A631B6B03F001030293029B0223CD
:101FC00005931348032305A9069303F029FC0AB0DF
:101FD00010BD104A9342FAD10C4B002103915A6C68
:101FE00042F400725A645A6C02F400720392039A2B
:101FF00004911A6B42F001021A631B6B03F0010398
:102000000493049B0423DBE70020014000380240D6
:1020100000000240002101400268094B9A4282B050
:102020000BD100230193074B1A6B42F480521A63C1
:102030001B6B03F480530193019B02B0704700BFF8
:10204000003002400038024007B50F4B02689A4248
:1020500016D10022A3F5F0430192196B41F400015F
:1020600019631B6B03F40003019305215A20019BA4
:1020700003F08CFA5A2003B05DF804EB03F0B8BA11
:1020800003B05DF804FB00BF00B002402DE9F0434F
:10209000044689B01422002103A822F0A4F8226883
:1020A000244B9A4243D1244C244800250095236BAD
:1020B00043F004032363236B03F004030093009BAA
:1020C0000195236B43F001032363236B03F00103AA
:1020D0000193019B4FF012094FF400734FF0010878
:1020E0000327042603A9CDE90339CDE9058707961F
:1020F00003F096FB4FF480731148079603A9CDE9CE
:102100000339CDE9058703F08BFB0295236C43F47B
:1021100000032364236C03F400030293029B236AED
:1021200043F400032362236A23F40003236209B00B
:10213000BDE8F083005C0040003802400008024027
:1021400000000240F0B599B004461422002107A80F
:1021500022F049F830220DEB0200002122F043F872
:1021600022685E4B9A4240F0B78008230C93C0234C
:102170001093042312930CA84FF40033159304F02A
:102180001FFD08B1FFF7D6FE554B564800240094BA
:102190005A6C42F080625A645A6C02F0806200927B
:1021A000009A01941A6B42F020021A631A6B02F033
:1021B00020020192019A02941A6B42F001021A6302
:1021C0001A6B02F001020292029A03941A6B42F017
:1021D00002021A631A6B02F002020392039A049439
:1021E0001A6B42F040021A631A6B02F0400204922A
:1021F000049A05941A6B42F004021A631A6B02F0F7
:1022000004020592059A06941A6B42F008021A63BA
:102210001B6B03F00803069302250E26069B0B9604
:102220004FF4806307A9CDE90735CDE9094503F0EF
:10223000F7FA41F658032C480B9607A9CDE9073564
:102240000927CDE9094503F0EBFA032327480B974B
:1022500007A9CDE90735CDE9094503F0E1FA4FF4C7
:10226000706322480B9607A9CDE90735CDE90945EA
:1022700003F0D6FA4FF40C631D480B9607A9CDE97D
:102280000735CDE9094503F0CBFAC02319480B9671
:1022900007A9CDE90735CDE9094503F0C1FA0823BF
:1022A00015480B9607A9CDE90735CDE9094503F097
:1022B000B7FA4FF4A0530E480B9707A9CDE907359D
:1022C000CDE9094503F0ACFA58202246052103F078
:1022D0005DF9582003F08CF919B0F0BD0068014099
:1022E0000038024000140240000002400004024096
:1022F0000018024000080240000C02400268094B2E
:102300009A4282B00BD100230193074B5A6B42F0E3
:1023100040025A635B6B03F040030193019B02B0E0
:10232000704700BF000806500038024010B5044650
:1023300088B01422002103A821F055FF2268144B15
:102340009A4223D103F56843002101915A6C114848
:1023500042F480125A645A6C02F480120192019A7B
:1023600002911A6B42F020021A631B6B03F02003E8
:102370000293029B4FF4607202230321CDE90323F1
:102380000523CDE9061303A903F04AFA08B010BDEE
:1023900000500140001402402DE9F04186B00023B6
:1023A00003932B4B1C68002C4FD14FF00108C3F84E
:1023B0000080284B00949A6B274842EA08029A63EF
:1023C0009B6B03EA08030093022703260C25009B5E
:1023D00001A94FF63F03CDE90137CDE9046503F0CC
:1023E0001FFA1E48059501A9CDE90187CDE90346ED
:1023F00003F016FA48F233131948059501A9CDE9FF
:102400000137CDE9034603F00BFA4FF68373154805
:10241000059501A9CDE90137CDE9034603F000FA9E
:102420004CF203731048059501A9CDE90137CDE9B8
:10243000034603F0F5F960230C48059501A9CDE9A1
:102440000137CDE9034603F0EBF906B0BDE8F081B2
:10245000EC22002000380240001402400008024034
:102460000018024000100240000C0240000402402C
:1024700070B588B000230293204B1A6C42F0100212
:102480001A641B6C03F010030293054601A903A80C
:10249000029B04F077FB069B4BBB04F063FB184EDA
:1024A000184B336040F2E733F360174BB0FBF3F3A4
:1024B000013B7360304600233361B360B36105F0C4
:1024C000E5F9044680B9304605F0BAF8044658B933
:1024D000362003F08DF80F2D0DD8224629463620E0
:1024E00003F054F8094B1D60204608B070BD04F09D
:1024F00039FB4000D3E70124F6E700BF0038024073
:10250000F02200200010004040420F008C0000200C
:102510007047FEE7FEE7FEE7FEE77047014805F07B
:10252000CDB800BFF0220020014803F0C2BF00BFB9
:1025300018210020014803F0A5B800BF1422002094
:102540000120704708B521F0F1FE162303604FF01B
:10255000FF3008BD08B521F0E9FE16230360FEE751
:1025600070B50D4614460E46731B9C4201DC204696
:1025700070BDAFF3008006F8010BF5E770B50D46AE
:1025800014460E46731B9C4201DC204670BD16F8B3
:10259000010BAFF30080F5E74FF0FF3070474FF4C9
:1025A00000534B60002070470120704700207047A7
:1025B0000A4A116808B5034609B90949116010684B
:1025C000694603448B4206D921F0B0FE0C23036018
:1025D0004FF0FF3008BD1360FCE700BF3823002038
:1025E00088430120704710B50421044620F0A6FC62
:1025F000204610BD012908B506D0022908D059B9D6
:1026000001F084F9006808BD01F080F94068FAE73C
:1026100001F07CF98068F6E70020F4E70048704795
:10262000905F02081120704713B5002451B1036870
:1026300001948DF8034001AA9C680DF10303A047A3
:1026400002B010BD0846FBE7C0897047008A70479A
:10265000C088704780887047807A00F07F0070479C
:10266000807AC00970470020704700009FED010A82
:10267000704700BF00000000806A7047704710B5C7
:102680000821044620F05AFC204610BD70477047D0
:1026900000F598730868496803C37047704770472E
:1026A0004160704770477047064BC0F84C310023BB
:1026B000C0F8503100F5A273C0F84801C0F84031AD
:1026C000704700BF4128000801230372704770471C
:1026D000704710B4C26841685410034601EB6200B1
:1026E000D20748BF0A599B685DF8044B48BFD358CE
:1026F00018470346406830B19A681AB9D86800F0A4
:10270000010070470120704710B50C21044620F0ED
:1027100015FC204610BD10B51021044620F00EFC1B
:10272000204610BD10B54FF4AE71044620F006FCF3
:10273000204610BD10B54021044620F0FFFB204686
:1027400010BD10B50DF074FD0368BDE81040DB6BE3
:1027500018470000054B1B7801462BB1406818B1A3
:1027600003680C315B6E1847704700BF4336012089
:10277000037A70B50546BBB940680368DB699847C2
:1027800004463CB96868036805F10C011B6EBDE89E
:1027900070401847A1886B8FC91A236820461B6BAD
:1027A00009B29847A469ECE770BD10B50446D0F8AB
:1027B000400158B10368DB68984738B1D4F840014C
:1027C00003689B6898470023C4F8403110BD70B57A
:1027D000044690F8390094F838300130C0B298427D
:1027E00084F8390005D901232372002384F8393095
:1027F00070BDB4F93A2000210FF01AFFC30706D5C7
:1028000000284FF6FF73C8BF0123184400B2238A83
:10281000C01AA08760680368DB69984705462DB930
:1028200060680368BDE870405B691847A988A38F9A
:1028300019442B6828461B6B09B29847AD69EEE72F
:102840002DE9F14FD0E9556A0746B06803681B6A65
:102850009847EF2805D8444B444AA321444821F027
:10286000A9FA706803681B6A98470F2803D8414B80
:102870003E4AA421F2E7F06803681B6A98470B28D8
:1028800003D83D4B394AA521E8E70DF0D1FCDFF82C
:10289000F09004300DF00AFDD9F8000010B1036883
:1028A000DB689847D9F8000010B103681B689847A7
:1028B000DFF8D080D8F8000010B103685B69984752
:1028C000D7F83C0110B103685B689847D8F800005E
:1028D00010B103681B689847D7F83C0110B1036832
:1028E0009B689847F068036800215B6A98474FF03F
:1028F000000B224BC0F804B0044680F808B0036017
:10290000B068036859465B6A9847054601F06EFC5B
:102910007068036859465B6A98472946064601F085
:1029200045FC331DC7F83C61C9F80040C8F80050A9
:10293000CAF800302B68C6F808A02846DB68EE63AA
:102940009847336830461B689847214628460FF061
:1029500069FE236820461B69984723685B69204607
:1029600001B0BDE8F04F18477D5302080B54020830
:10297000E35402082A550208CD550208686102088E
:102980008C36012088360120044B1B6893F85820B0
:102990000AB1D86C00B99868704700BF443601206E
:1029A000F8B5174604460E460DF04EFD124B1C605E
:1029B000124B2360124B0025C4E95135114BC4E979
:1029C00053551868036801219B68C4E94F55C4E951
:1029D00055769847284600F04DFFFFF7D5FF18F0D1
:1029E000AAF9FFF7D1FF18F021FAFFF7CDFF18F091
:1029F00029FA2046F8BD00BF98360120146102086C
:102A0000FC60020844360120064BC0F84C3100231C
:102A1000C0F8503100F5A273C0F84801C0F8403149
:102A2000704700BF41280008064BC0F84C31002316
:102A3000C0F8503100F5A273C0F84801C0F8403129
:102A4000704700BF192C0008064BC0F84C3100231A
:102A5000C0F8503100F5A273C0F84801C0F8403109
:102A6000704700BFDD2A00082DE9F0410546002629
:102A7000164B4660067245F80C3B044628460F4646
:102A80000AF0D2F8124B84F838701B7884F8396059
:102A9000A68723B9012323722046BDE8F0810D4BA0
:102AA0000D4FB3F90080E368B7F900109B6B266106
:102AB00028469847E3684146DB6B284698472846F6
:102AC0000AF02DF83B885B426387E5E78C610208DA
:102AD000433601203A360120383601202DE9F047EF
:102AE000D0E9556A0746B06803681B6A9847B0F595
:102AF000326F05D2414B424AA321424821F05AF994
:102B0000706803681B6A98470F2803D83E4B3C4AFD
:102B1000A421F2E7F06803681B6A98473F2803D8AE
:102B20003A4B374AA521E8E70DF082FBDFF8E09049
:102B300004300DF0BBFBD9F8000010B10368DB686E
:102B40009847D9F8000010B103681B689847DFF870
:102B5000C480D8F8000010B103685B699847D7F8C3
:102B60003C0110B103685B689847D8F8000010B1C9
:102B700003681B689847D7F83C0110B103689B684D
:102B80009847F068036800215B6A9847142104465F
:102B9000FFF76AFFB068036800215B6A9847054643
:102BA00000F03CFF7068036800215B6A9847294683
:102BB000064600F0F1FE331DC7F83C61C9F800403D
:102BC000C8F80050CAF800302B68C6F808A028469C
:102BD000DB68EE639847336830461B6898472146A8
:102BE00028460FF01FFD236820461B69984723687D
:102BF00020465B69BDE8F047184700BF7D530208D7
:102C000070560208E35402082A550208CD550208FE
:102C10008C360120883601202DE9F047D0E9556A2D
:102C20000746B06803681B6A9847EF2805D8414BF0
:102C3000414AA321414821F0BDF8706803681B6A2E
:102C400098470F2803D83E4B3B4AA421F2E7F0688F
:102C500003681B6A98473F2803D83A4B364AA52198
:102C6000E8E70DF0E5FADFF8E09004300DF01EFB28
:102C7000D9F8000010B10368DB689847D9F8000064
:102C800010B103681B689847DFF8C080D8F80000CF
:102C900010B103685B699847D7F83C0110B103682D
:102CA0005B689847D8F8000010B103681B68984724
:102CB000D7F83C0110B103689B689847F068036837
:102CC00000215B6A984714210446FFF7CDFEB068E7
:102CD000036800215B6A9847054601F087FA70682F
:102CE000036800215B6A98472946064601F05EFAB0
:102CF000331DC7F83C61C9F80040C8F80050CAF855
:102D000000302B68C6F808A02846DB68EE639847B9
:102D1000336830461B689847214628460FF082FCEE
:102D2000236820461B699847236820465B69BDE8F5
:102D3000F04718477D5302085B570208E354020826
:102D40002A550208CD5502088C360120883601200C
:102D50007047704770477047704730B5036885B05B
:102D60006D460181D3F884300146044628469847D1
:102D700095E807003C3484E8070005B030BD30B565
:102D8000036885B06D464181D3F88430014604461E
:102D90002846984795E807003C3484E8070005B0CA
:102DA00030BD0022028042808280C280704780F85D
:102DB0003610704770B5036804461B6B154698477C
:102DC0002368294620465B6EBDE870401847002006
:102DD0007047806C7047704770477047704730B4D9
:102DE000C26844685510034604EB6200D20748BF2E
:102DF00062599B6830BC48BFD358184703464068A7
:102E000030B19A681AB9D86800F001007047012003
:102E1000704710B54C21044620F090F8204610BDB4
:102E200010B51021044620F089F8204610BD10B5D9
:102E30004FF43571044620F081F8204610BD08B5E6
:102E4000FEF72CFB08BD0000036870B55E6B124BEB
:102E50001B6804468DB22BB9104B114A6C211148E6
:102E600020F0A8FF1049828D0988914203D80F4BAA
:102E70000B4A6D21F3E713F812200D4B1B6853F832
:102E8000220003681B6B9847291A3346204609B273
:102E9000BDE87040184700BF9C3601204658020824
:102EA00088580208C3580208A03601200A590208AF
:102EB000A43601206C30884208B505D10DF0B8F970
:102EC000BDE80840FFF7B0BD08BD00224FF0FF315C
:102ED000C0E900218260704770B5036804461B6B2F
:102EE000154698472368294620465B6BBDE870402D
:102EF000184770B504461D46BDF91060FFF7ECFF9A
:102F00002368294620469B6B984723683146204614
:102F1000DB6BBDE8704018470022C0E90122C0E920
:102F20000322C0E90522C0E907224FF4807282849F
:102F3000014A0260704700BFB0610208F8B5194B42
:102F4000018F1B888B4206462AD9174B1B682BB969
:102F5000164B174A17486C2120F02CFF13F811204C
:102F6000154B1B6853F82250144B186800F0BEFC38
:102F70002B6807469B6B284698472B6804469B6C3A
:102F80003946284698472B6814FB00F45B6A39469B
:102F900028469847A4B223181BB2A6F84630F8BDBD
:102FA0000023FAE7A03601209C360120465802088B
:102FB00088580208C3580208A4360120A836012008
:102FC00038B5262204460D46002121F00CF9204692
:102FD000FFF7A2FF064B23602B88E384FF232046E4
:102FE00084F8283029460AF040FC204638BD00BF4E
:102FF0003C69020810B526220446002121F0F3F8AE
:103000002046FFF789FF0A4B23600A4BA3624FF665
:10301000FF73A3854FF47F020023C4E90C3223879A
:103020004FF0FF32C4E91023E363204610BD00BF18
:1030300044680208EC6002082DE9F04F044693B0A2
:10304000A14600250FF042F9CC4BE56349F8403B1F
:1030500026222946484621F0C6F84846FFF75CFF7D
:10306000C74B236404F16C0BFF2304F1B40A84F80A
:1030700066305846A5660AF02FFD50460AF02CFD32
:1030800004F1FC034FF6FF7610A918460793ADF83C
:103090004060FFF795FF04F5947310A91846089354
:1030A000ADF84060FFF78CFF04F5AA7310A918462D
:1030B0000993ADF84060FFF783FF04F5C07318462D
:1030C000B04F0593FFF796FF04F5E673C4F88071DF
:1030D0001846C4F8C8510693FFF78CFF04F5067331
:1030E000C4F8CC711846C4F814520393FFF782FF5A
:1030F00004F5187310A918460493ADF84060FFF763
:103100005FFFA14BC4F86032A04BC4F88C52C4E9F5
:10311000B1349F4B84F8985201274FF0FF38C4E92F
:10312000B3354FF4A0732A464846C4E9A48729461C
:103130000093F023FFF7DDFE261D4FF07F43A366CB
:103140004946304606F054FE5846BD222321FFF77B
:10315000C3FE4FF0020910AA0FA95846ADF83C7003
:10316000ADF840900AF04FFA05235846A4F8A43071
:10317000FFF7E4FE04F53173C4F894305946304645
:10318000C4E92A8806F034FE5046BD222321FFF709
:10319000A3FE10AA0FA95046ADF83C70ADF84090C0
:1031A0000AF031FA5046A4F8EC70FFF7C7FE51461A
:1031B0003046C4E93C8806F01BFE3A460798CC210D
:1031C000FFF78AFE4FF00C0A0798ADF840A010A94F
:1031D0000AF04BFB0799304606F00AFE3A4608987B
:1031E000A921FFF779FE0898ADF840A010A90AF0D0
:1031F0003CFB0899304606F0FBFD3A4609988621CB
:10320000FFF76AFE0998ADF840A010A90AF02DFB5F
:103210000999304606F0ECFD1D2304220598009321
:1032200007216023FFF765FED4F880310599D3F8B4
:103230008430C4F8B0810DF1280A5046A4F8B45186
:1032400098479AE8070004F5DE7383E80700514BBE
:103250001B6804F5277B2BB94F4B504A602150481F
:1032600020F0A8FD4F4B1B88022B03D84E4B4B4A36
:103270006121F4E74D4B49461868DFF8389100F0BA
:1032800035FB4B4A03460A21584610F0FFFC042345
:103290000598C4F8C8B110A9ADF844304FF0220B1E
:1032A000CDF840900AF052F90599304606F0A0FD9D
:1032B0000698CDF800B073222946F023FFF719FED7
:1032C000D4F8CC310699D3F88430C4F8FC81504648
:1032D000A4F8005298479AE8070004F5027383E8BF
:1032E000070004F52C730698C4F8143210A90323C0
:1032F000A4F8B052ADF84430CDF840900AF026F969
:103300000699304606F074FD0398CDF800B0F0231E
:1033100073222946FFF7EDFD0399C4F84882504611
:10332000A4F84C5209F06AFE9AE8070004F51573F8
:1033300083E807000398CDF8409010A9ADF84450F9
:103340000AF004F90399304606F052FD04983A4613
:10335000D021FFF7C1FD09220498082109F052FD90
:103360000498394609F061FD3046049984F8885282
:1033700006F03EFD204613B0BDE8F08FC0620208A3
:10338000D468020818620208C8670208A862020826
:10339000B52E00089C3601204658020848590208FC
:1033A000C3580208A03601200A590208A836012095
:1033B00093590208EC600208406A7047806A7047BF
:1033C00070478A880B8810B5D20A4C88C1699BB2B5
:1033D00051F8220043EA0443184410BD10B50446D6
:1033E000BAB1107B68B1537BD27A1B0203F4E0635D
:1033F0001A43236A03EB82031A888A4202D193F9A3
:10340000020010BD05D8013880B204330028F3D182
:10341000F7E70020F5E710B52C2104461FF08EFDDC
:10342000204610BD30B58BB00446BDF860500895FD
:10343000BDF85C5007959DF8505006959DF84C508E
:1034400005959DF8485004959DF8445003959DF8C6
:10345000405002959DF83C500195BDF838500095BC
:103460000EF03AFD064B2360159BE361169B236229
:10347000199B63621A9BA36220460BB030BD00BF4C
:10348000F462020870477047704730B4C2684468FD
:103490005510034604EB6200D20748BF62599B688F
:1034A00030BC48BFD35818470346406830B19A68CB
:1034B0001AB9D86800F0010070470120704710B5B4
:1034C000102104461FF03AFD204610BD10B5F02132
:1034D00004461FF033FD204610BD9830884208B5E1
:1034E00005D10CF0A5FEBDE80840FFF7ADBA08BD58
:1034F0002DE9F34104460EF0E9FE444B2360444BB2
:103500000025C4E910354FF48072FF2304F16C07E5
:10351000A4F8642084F86630A4F890204FF6FF7376
:103520003C4AE26604F19806A4F8923084F894309C
:1035300001A9C4E91255C4E91455C4E91655C4E9F2
:103540001C55C4E91E55C4E92055C4E92255E5635C
:103550002566A5663846ADF804300AF086F930468F
:103560000AF0BAFA2C4BC4E938342C4B04F1400869
:10357000C4E93A352A4629464046FFF7ADFC4046A5
:10358000F021FDF7D5FE40464FF4A071FDF7D2FEC5
:10359000251D4FF07F43A3664146284606F028FCD0
:1035A0001B2238461421FFF797FC102301A9384647
:1035B000ADF804300AF059F93946284606F018FCEF
:1035C0003046BB222321FFF787FC012301AA69466D
:1035D000ADF8003030460223ADF804300AF013F89D
:1035E0000623A4F8D0303046FFF7A8FC4FF0FF3395
:1035F000C4E9353304F1E0032846C4F8C03031464D
:1036000006F0F6FB204602B0BDE8F08174630208C4
:10361000D46802083C6902085C630208DB340008D5
:103620007047000030B5164D2C6814F001048FB0BF
:10363000BFF35B8F20D128461FF082FCE0B13F230F
:103640000993104B0893104B104911480A9401221A
:10365000CDE906430423CDE903320A230093CDE9E3
:103660000B44CDE901440594FFF7DCFE094820F046
:10367000BFFB28461FF070FC05480FB030BD00BFEF
:103680003C230020D481020804820208388002080A
:1036900040230020213600087047000030B5164D49
:1036A0002C6814F001048FB0BFF35B8F21D1284642
:1036B0001FF046FCE8B13F230993104B0893104BD1
:1036C000104911480A94CDE9064301220423CDE9AB
:1036D0000332182300931B22CDE90B44CDE90144AA
:1036E0000594FFF79FFE094820F082FB28461FF053
:1036F00033FC05480FB030BD6C230020D881020890
:1037000008820208488002087023002099360008C9
:103710007047000030B5164D2C6814F001048FB0CE
:10372000BFF35B8F20D128461FF00AFCE0B13F2396
:103730000993104B0893104B104911480A94012229
:10374000CDE906430423CDE9033228230093CDE9D4
:103750000B44CDE901440594FFF764FE094820F0CD
:1037600047FB28461FF0F8FB05480FB030BD00BFEF
:103770009C230020008202080C820208C4810208F7
:10378000A023002011370008002070470020704758
:103790000EB403B503AB002153F8042B01930DF0D5
:1037A00019FE02B05DF804EB03B070470CB407B526
:1037B00004AB53F8042B01930DF00CFE03B05DF83D
:1037C00004EB02B070470000436C10B5044673B3BD
:1037D000038F2BB9184B194AC521194820F0EAFA72
:1037E000C38E00EB43035B8C0BB30FF0A6FC238F5F
:1037F000012B03D8134B144ACB21EEE7E28E531C66
:103800009BB2092B194688BFA3F10A0104EB4101C1
:1038100040F63F10498C814209D10A2B04EB420249
:1038200028BF002304EB4303508C58845184204666
:10383000BDE810400FF084BB965902089F5902085A
:103840004A5A0208945A0208A25A02080FF03FBBD3
:1038500010B586B002AC84E806001A460AAB0593A0
:103860000193099B00932146089B0CF07FF806B05A
:1038700010BD000038B518BB124B13481C68134923
:10388000B4B1226822440260626822440A60A268DD
:1038900014440F4B00221A8000F038F8054600F05F
:1038A00033F80C4B1C600C4B1D600C4B188007E070
:1038B0000B4B03600B4B0B600B4B1C68002CE8D1CF
:1038C00038BD00BFD8230020D0230020CC23002007
:1038D000D42300209C360120A4360120A0360120EC
:1038E0002C8202081082020880820208044B1B68A6
:1038F00053F82100034B1B6803EB4000704700BFE7
:10390000CC230020D02300200720704700487047B8
:10391000DC23002010B5FFF7C1FE044C2060FFF748
:10392000F9FE6060FFF77EFEA06010BDDC23002082
:1039300010B5002404600C6014601C6010BD70475A
:1039400010B54FF4AE7104461FF0F8FA204610BDD2
:1039500010B50446D0F8580100F057FC2046BDE8E9
:1039600010400CF001BD000010B50446FFF718F838
:10397000014B2360204610BDA8630208704704383D
:103980007047704710B5102104461FF0D7FA204643
:1039900010BDA0F10400F5E700228260024A026037
:1039A00018324260C1607047FC6302087047000033
:1039B000134B70B50446036040F6F42540F63C1600
:1039C000B54217D140F28476635960191B682C3DCB
:1039D0009847B542F8D140F27475635960191B6875
:1039E0003C3D9847B5F5317FF7D12046FFF7F5F913
:1039F000204670BD635960191B6898472C3DDFE76E
:103A00002464020810B50446FFF7D2FF20464FF4A5
:103A100032611FF093FA204610BD00002DE9F04FEF
:103A200005468DB0FFF708FB05F535796A4B2B602D
:103A30004FF6FF7869464846ADF80080FFF7C0FAB8
:103A400005F54077DFF898B105F5F66A3C460026A3
:103A500020466946ADF80080FFF7B2FA0123C4F8AA
:103A600000B0E662A4F83080A4F8328084F83430E4
:103A700084F8356084F8366084F8376084F83860FC
:103A80003C345445E4D105F6681A26464FF6FF78D3
:103A9000304669462C36ADF80080FFF791FA56455E
:103AA000F6D1564605F532684FF6FF7B304669463B
:103AB0002C36ADF800B0FFF783FA4645F6D1474EF5
:103AC000684600F099FCBDF80430B380BDF91C30A5
:103AD000039AB383089BF2603362049A099B3261B4
:103AE0007362059A0A9B726105F10408069AB36233
:103AF0006846BDF82C30B261B38500F08FFC4046BB
:103B000005F16C0106F0B5F9404605F5E67106F0E1
:103B1000B0F9404605F1B40106F0ABF9404605F5B1
:103B2000067106F0A6F90E2369464846ADF8003046
:103B300009F09BFEB6F90E20B6F90C104846FFF7C7
:103B4000CBF94046494606F053F94FF0040804F516
:103B5000DC762122304640F24111FFF7BDF9D4F85E
:103B6000B83130461B6EADF8008069469847204654
:103B7000212240F24111FFF7AFF9236800261B6EA6
:103B8000ADF80060204669462C3498475445DED194
:103B900034460326B4FBF6F303EB4303E31A012B8D
:103BA00013D0022B14D007220621384609F02AF937
:103BB00001343846142109F038F9142C07F13C0778
:103BC000E8D128460DB0BDE8F08F09220821ECE7C6
:103BD0000B220A21E9E700BF24640208AC28002078
:103BE000C86702082DE9F04F8DB000238DF80A3028
:103BF0004D4B0446186804F0F5F80546002D40F0DA
:103C000089809DF80A80B8F1010F31D1DFF838A121
:103C10009AF80030002B53D1271D04F16C09494656
:103C2000384606F0E5F8414B414A9B880A2104F5E5
:103C3000E67B04F52C7010F029F85946384606F05A
:103C4000D7F848460DF0F0FC58460DF0EDFC38462C
:103C50000DF0EAFC374B8AF8008083F80080364B81
:103C6000186803F057FF354BC3F80080344B1D70C4
:103C70009DF80A30022B23D1DFF8CC8098F8003071
:103C8000F3B9251D04F1B4073946284604F5067931
:103C900006F0AEF84946284606F0AAF838460DF078
:103CA000C3FC48460DF0C0FC28460DF0BDFC214A7F
:103CB0000123137088F800301F4B186803F02AFFA7
:103CC000204F4FF0000838688DF80B8004F08AF818
:103CD00004F53575002847D04FF0FF333868424669
:103CE0000DF10B0104F04EF89DF80B30522B2DD145
:103CF0000E4BB3F9281003F1080000F00FFC0F235E
:103D0000284603A9ADF80C3009F0AFFD386804F07F
:103D10006BF829E00448002300681A460DF10A01F7
:103D200004F030F8013D69E760200020AC28002055
:103D3000745B0208F1230020EC2300201C0000200B
:103D4000F92300206C200020E82300204E2B40F0B7
:103D50003E81C348414600F0E1FB0E2303A92846FB
:103D6000ADF80C3009F081FDBE4FDFF83C833868B8
:103D700004F038F8B8B14FF0FF33386800220DF185
:103D80000B0103F0FFFF9DF80B30552B40F029810C
:103D9000B54B03F10800B3F9281000F0C1FBD8F8C7
:103DA000000004F021F8D8F8000004F01BF8C0B1BE
:103DB0004FF0FF33D8F8000000220DF10B0103F0A3
:103DC000E1FF9DF80B30442B40F01381A64B996A1C
:103DD000494203F1080009B200F0A2FB386804F080
:103DE00003F8A14BA14FB3F90E20B3F90C102846EC
:103DF000FDF7A7FA04F5F66904F6681B4D4604F1D1
:103E00000408B7F91030022B00F0FB80042B00F0FF
:103E10000981012B07D12B68B7F906209B6DB7F9F3
:103E20000410284698472C355D4507F11C07E8D15A
:103E30008F4F5D4604F5326A04F10408B7F910307B
:103E4000022B00F0F580042B00F00381012B07D139
:103E50002B68B7F906209B6DB7F9041028469847E0
:103E60002C35554507F11C07E8D104F5966304F598
:103E7000407A01937F4D231DA04657460093B5F924
:103E80001030022B00F01281042B00F02A81012B4C
:103E900008D1D8F80033B5F906209B6DB5F90410A8
:103EA00038469847019B08F13C08984505F12005E4
:103EB00007F13C07E3D1DFF8B0816F4FB8F92C3040
:103EC0003A78934204F1040516D05022DBB23B70DD
:103ED00084F8242184F8502184F87C21002B00F000
:103EE0000B81FF22012B84F8242105D0022B84F8BA
:103EF000502118BF84F87C21B8F804305F4A0A21A9
:103F000004F527700FF0C2FE28460DF08DFB94F8E3
:103F1000E030002B58D05A4B02221A60594A002335
:103F20001370594A1370594A1370594A137000F0AC
:103F300049FD04F5F668514628460AF13C0A05F0A9
:103F400098FFC245F7D14946284605F092FF09F58A
:103F5000DC71284609F12C0905F08BFFD945F2D117
:103F600004F1B408414604F50674284605F081FFC3
:103F70002146284605F07DFF40460DF055FB2046C2
:103F80000DF052FB28460DF04FFB374B9B8D3B70DD
:103F9000404B00241C60404B8DF80A40186803F029
:103FA00023FF2022214604A820F01DF93B4B039358
:103FB0004FF480421823CDE90823394803AA21464B
:103FC00003F064FD374B18600DB0BDE8F08F264B51
:103FD000996A494203F1080009B200F09FFA0D23E3
:103FE0008EE64E2B7FF4DFAE1D48002100F098FADC
:103FF000D9E64E2B7FF4F5AE1948002100F090FA77
:10400000EFE62B68B7F906209B6DB7F90410284638
:1040100098472946404605F0EBFE0121384600F05E
:10402000C1F900E72946404605F023FF0321F5E7E3
:104030002B68B7F906209B6DB7F9041028469847FE
:104040002946404605F0D4FE0121384600F0AAF981
:1040500006E72946404605F00CFF0321F5E700BFBF
:10406000B428002068200020AC28002094270020DD
:104070007C260020FC23002014000020745B020832
:104080001C000020F9230020F2230020F12300204F
:10409000E82300202000002060200020775B020839
:1040A000F5460008EC23002064200020D8F80033F7
:1040B000B5F906209B6DB5F9041038469847D8F835
:1040C00000335B6E1E4601231A4600213846B04776
:1040D0003946009805F08CFE0121284600F062F96F
:1040E000E0E6D8F8003338469B6E9847394600988A
:1040F00005F0BFFE0321F0E728460DF095FAFBE638
:1041000010B5184C8AB0FEF769FE206803F002FD76
:10411000154B186803F068FE2022002102A820F049
:1041200062F8124B01934FF480421823CDE9062325
:10413000002101AA0E4803F0A9FC0E4B20600122C9
:104140001A600D4A002313700C4A13700C4A137046
:104150000C4A13700C4A052111600C4A13600AB016
:1041600010BD00BFEC23002060200020775B020818
:10417000F54600081C000020F9230020F22300204F
:10418000F1230020E8230020180000202000002058
:10419000704704387047704710B5102104461EF070
:1041A000CDFE204610BDA0F10400F5E7002282609C
:1041B000024A026018324260C160704758640208C7
:1041C0007047000010B5034B03600446FFF75BF92E
:1041D000204610BD8064020810B50446FFF7F2FFC8
:1041E0002046F0211EF0AAFE204610BD10B5044660
:1041F000FFF77EF9014B2360204610BD8064020862
:10420000FFF742B9002202607047704710B5034BB8
:104210000360044600F0B1F8204610BDB464020803
:1042200010B50446FFF7F2FF20461C211EF086FE63
:10423000204610BD10B5044600F0AAF8064B2360D6
:104240004FF4C873A3614FF018110023C4E902139F
:10425000024B2361204610BDB464020803009001A4
:10426000B0F9083010B5B0F904405B429C420BDB5A
:10427000F02C09DCB0F90A30B0F906205B429A4212
:1042800002DBB2F5A07F05DD04230382836943824C
:10429000002010BD438A591A09B200294182F7DC77
:1042A00083891C44C38984801A448369C280438201
:1042B0000120EEE710B5034B0360044600F05DF803
:1042C000204610BDC864020810B50446FFF7F2FF8F
:1042D000204620211EF032FE204610BD10B50446B7
:1042E00000F056F8084B23604FF4167246F2A813FC
:1042F000C4E906234FF020110022C4E90212034A48
:104300002261A382204610BDC8640208030058023F
:10431000B0F90830B0F904205B429A4210B508DBCE
:10432000F02A06DCB0F90A30B0F906405B429C4244
:1043300007DA04230382C3698382836943820020EE
:1043400010BD438A591A09B200294182F7DC8389DA
:104350001A44C38982801C448369C480438201203B
:10436000EEE7838A591A09B20029D8BFC36981824E
:10437000DABF838201200020704770470020704719
:1043800010B5182104461EF0D9FD204610BD0000CE
:10439000034A0260032202824FF0201282607047BB
:1043A000DC640208018270478180C280704781818D
:1043B000C2817047B0F90420B0F9083010B5B1F9E6
:1043C00004401344A34215DDB1F9083023449A4256
:1043D00010DAB0F90630B0F90A20B1F906401A44F3
:1043E000A24207DDB1F90A2022449342ACBF00206B
:1043F000012010BD0020FCE710B5054B0360002331
:1044000004468380083000F033F8204610BD00BF1A
:10441000F0640208838819448180704710B5044B0A
:10442000044640F8083B00F00FF8204610BD00BFDE
:10443000F064020810B50446FFF7F0FF2046302173
:104440001EF07CFD204610BD10B5034B03600446F2
:10445000FFF793FF204610BD0065020810B5044623
:10446000FFF7F2FF204628211EF068FD204610BD10
:1044700010B50446FFF78CFF03210A480A4B21625E
:10448000A1844FF01C11C4E9010142F210722360B3
:1044900000214FF4C873C4E90632E160A28263824E
:1044A000204610BD6800040100650208438A591ABD
:1044B00009B2002941821FDC82888389C1891A449C
:1044C000C38812B20B441BB281698280002AC38068
:1044D000418207DA00228280002B07DA0023C380A2
:1044E00001207047D02AF7DDD022F4E7B3F5907FA2
:1044F000F6DD4FF49073F2E700207047838A591A73
:1045000009B20029D8BFC3698182DABF8382012042
:1045100000207047838C5B1A8384704781817047C9
:10452000C18170472DE9F347DFF8A4A0274CDAF8E2
:104530000030DFF8A0901B1A0546CAF80030142698
:104540004FF00008B4F91030032B0AD0294620465A
:10455000FFF7DEFE013E04F12004F3D102B0BDE816
:10456000F087DAF80030002BF4DC01A94846CDF8DA
:10457000048002F069FC08B1CDF80480019B03F0CF
:10458000030203F48073002B02F1FF334FF6E07156
:104590004FF6FF770CBFF0210127022B9DBF0132A0
:1045A00002EB8202D2002A222046FFF7FDFE002203
:1045B00039462046FFF7FBFE02212046FFF7F2FEB8
:1045C00042F21073CAF80030C4E700BFFC23002099
:1045D00020000020082100202DE9F843014606466E
:1045E0001348144CDFF85080DFF85090FFF786FF37
:1045F00004F58C770546B4F91030032B08D031460A
:104600002046FFF72DFE1C34BC42F4D1BDE8F883F0
:1046100065B1B8F80020B9F80010103A204692B2FF
:10462000FFF7C2FE02212046FFF7BCFE0025EAE7A5
:10463000B428002094270020F4230020F623002033
:104640002DE9F843274B284E1A68284B1B68022B8C
:1046500008BF01320C2AA8BF0C2207464FF0000900
:104660004FF01C0895B2B6F91030012B10D1394625
:104670003046FFF776FE58B11D4A00231446B2F9C2
:10468000101003291BD001330A2B02F11C02F6D1B2
:1046900009F10109B9F1140F06F12006E3D1144C18
:1046A0000A25B4F91030012B03D139462046FFF713
:1046B000D7FD013D04F11C04F3D1BDE8F883F28875
:1046C000B18808FB03441032204692B2FFF76CFE1B
:1046D00020462A460021FFF76AFE02212046FFF706
:1046E00061FED5E718000020FC2300201C000020FC
:1046F0007C2600202DE9F04FA24CDFF8BC9200256B
:1047000085B0257089F800509F4B4FF6CE72EF1898
:1047100011463846FFF748FE9C4B4FF6CE72EE1816
:1047200011463046FFF740FE4FF6FB720021384637
:10473000FFF73DFE052200213046FFF738FE03213A
:104740003846FFF72FFE1C3503213046FFF72AFEBF
:10475000B5F58C7FD8D1DFF86482002645464FF648
:10476000CE7211462846FFF71FFE01362846032168
:10477000FFF718FE142E05F12005F0D1844D002717
:1047800084484FF4005101F02FF9012807F1010787
:1047900008D1814A13680B2B04DC0133C820136055
:1047A00003F0D0F923784BB199F80030002BE7D013
:1047B0007A4B01221A7005B0BDE8F08F012FD4BFEB
:1047C00018461F46764BAA89764E1A80764BEA89A0
:1047D0001A80C8BF01203070FFF7A4FE31787348FB
:1047E000FFF764FE3078FFF7F7FE3078FFF728FF19
:1047F0006E4946464FF0140AB6F910B0BBF1010FEE
:104800007ED13046FFF7D6FD6849002878D067484A
:104810005946FFF77FFE04213046FFF7C3FD63488A
:104820004FF482726821FFF7BFFD46464FF0140A2D
:10483000B6F91030012B2AD1DFF84CB10A22BBF9AE
:1048400010300093012B62D1594630460192FFF798
:10485000B1FD019A00285AD004213046FFF7A2FD8D
:1048600004215846FFF79EFD05212846FFF7D2FD9B
:10487000009A48484FF4005101F0BCF8322003F090
:1048800061F9444800224FF4005101F0B3F8BAF145
:10489000010A06F12006CBD13C4E44494FF00A0AEA
:1048A000B6F910B0BBF1010F36D13046FFF782FDEB
:1048B0003E4988B33D485946FFF72CFE0421304657
:1048C000FFF770FD39484FF482726821FFF76CFDE5
:1048D000B5F92C30002B25DC01252570344C99F8D6
:1048E0000030002B7FF464AF20688DF80F501A461B
:1048F0000DF10F0103F015FA322003F023F9EEE772
:10490000BAF1010A06F120067FF476AF8DE7013A8D
:104910000BF11C0B93D1BAE7BAF1010A06F11C06A0
:10492000BED1D5E7224B234E18683368012B1FD127
:10493000AA881D2A1CD9DFF888A023708AF80030C5
:1049400002238DF80F3000231A460DF10F0103F0FA
:10495000E8F9237813B19AF800302BB933680133A2
:104960003360002323700BE70A2003F0EBF8F0E735
:1049700030238DF80F3000231A460DF10F0103F09C
:10498000D0F9FDE6F2230020942700207C260020A9
:10499000AC2800200018024018000020F823002056
:1049A000F6230020F0230020F4230020B428002068
:1049B000602000201C000020F1230020FC230020A8
:1049C000F923002070B5214C00254FF6CE72114618
:1049D0002046FFF7E9FC013520460321FFF7E2FC02
:1049E000142D04F12004F0D1194E0024A5194FF61E
:1049F000CE7211462846FFF7D7FC2846154D0321F5
:104A0000FFF7D0FC25444FF6CE7211462846FFF73B
:104A1000CBFC1C3403212846FFF7C4FCB4F58C7F83
:104A2000E4D10D4C0D4BE360002104F10800FFF7C9
:104A300075FD002104F10800FFF772FD084A00230C
:104A40001360084A1370084A137070BDFC230020DD
:104A5000942700207C260020AC2800206400C80099
:104A600020000020F2230020F123002038B50F4859
:104A70000F4DFFF7C1FC002428191C34FFF7DAFBA7
:104A8000B4F58C7FF8D10B4D002428191C34FFF7A6
:104A9000D1FBB4F58C7FF8D1074D002428192034C0
:104AA000FFF71CFCB4F5207FF8D138BDAC280020FE
:104AB000942700207C260020FC230020164838B5CF
:104AC0001524013CA0F1200512D114480B24013C0F
:104AD000A0F11C0514D112480B24013CA0F11C05C7
:104AE00015D0D0F8FC30FC305B6898472846F4E7D6
:104AF000D5F8803200F518705B6898472846E0E7E3
:104B0000D5F81831FC305B6898472846DFE7BDE8E8
:104B100038400448FFF782BCFC2300207C2600209C
:104B200094270020AC280020F02070474FF4A0709C
:104B300070472920FDF7A4B92820FDF7A1B908B5D1
:104B4000FDF772F9CA20FDF79BF9C320FDF77CF948
:104B50000820FDF779F95020FDF776F9CF20FDF711
:104B60008FF90020FDF770F9C120FDF76DF93020B5
:104B7000FDF76AF9ED20FDF783F96420FDF764F98C
:104B80000320FDF761F91220FDF75EF98120FDF7A2
:104B90005BF9E820FDF774F98520FDF755F9002051
:104BA000FDF752F97820FDF74FF9CB20FDF768F9B2
:104BB0003920FDF749F92C20FDF746F90020FDF7D3
:104BC00043F93420FDF740F90220FDF73DF9F720C5
:104BD000FDF756F92020FDF737F9EA20FDF750F9E7
:104BE0000020FDF731F90020FDF72EF9B120FDF787
:104BF00047F90020FDF728F91B20FDF725F9B6201D
:104C0000FDF73EF90A20FDF71FF9A220FDF71CF978
:104C1000C020FDF735F91020FDF716F9C120FDF78A
:104C20002FF91020FDF710F9C520FDF729F94520CF
:104C3000FDF70AF91520FDF707F9C720FDF720F960
:104C40009020FDF701F93620FDF71AF9C820FDF78D
:104C5000FBF8F220FDF714F90020FDF7F5F8B0207D
:104C6000FDF70EF9C220FDF7EFF8B620FDF708F9C1
:104C70000A20FDF7E9F8A720FDF7E6F82720FDF761
:104C8000E3F80420FDF7E0F82A20FDF7F9F800200A
:104C9000FDF7DAF80020FDF7D7F80020FDF7D4F88B
:104CA000EF20FDF7D1F82B20FDF7EAF80020FDF703
:104CB000CBF80020FDF7C8F80120FDF7C5F83F202C
:104CC000FDF7C2F8F620FDF7DBF80120FDF7BCF890
:104CD0000020FDF7B9F80620FDF7B6F82C20FDF707
:104CE000CFF8C820FDF71AF92620FDF7C9F80120F2
:104CF000FDF7AAF8E020FDF7C3F80F20FDF7A4F8B0
:104D00002920FDF7A1F82420FDF79EF80C20FDF7DF
:104D10009BF80E20FDF798F80920FDF795F84E2036
:104D2000FDF792F87820FDF78FF83C20FDF78CF81E
:104D30000920FDF789F81320FDF786F80520FDF717
:104D400083F81720FDF780F81120FDF77DF800208B
:104D5000FDF77AF8E120FDF793F80020FDF774F8ED
:104D60001620FDF771F81B20FDF76EF80420FDF703
:104D70006BF81120FDF768F80720FDF765F8312082
:104D8000FDF762F83320FDF75FF84220FDF75CF88D
:104D90000520FDF759F80C20FDF756F80A20FDF71D
:104DA00053F82820FDF750F82F20FDF74DF80F207D
:104DB000FDF74AF81120FDF763F8C820FDF7AEF8BB
:104DC0002920FDF75DF8BDE808402C20FDF758B814
:104DD00008B5FDF729F80321D320FDF76DF880B25F
:104DE00008BD10B5C4B2022203212046FCF7D2FF51
:104DF0000A20FDF717F8204600220321FCF7CAFF1E
:104E0000BDE810400220FDF70DB838B50446E4B205
:104E1000FCF7BEFF00212046FCF7D4FF0121054628
:104E20002046FCF7CFFF40EA052080B238BD10B520
:104E3000C4B240212046FCF7C5FF030607D54C212C
:104E40002046FCF7BFFF003818BF012010BD01222B
:104E50004B212046FCF79EFF204600224B21FCF709
:104E600099FF0020F2E773B50423C4B20E4615463D
:104E7000D7210DEB03022046FCF7BEFF019B1BBAB6
:104E80001A0DC3F30B23328020462B8001224B21C5
:104E9000FCF780FF00224B212046FCF77BFF02B08D
:104EA00070BD000010B50A4A1378984204460DD030
:104EB000517888420AD00BB141B90123D454FCF790
:104EC00067FF2046BDE81040FFF78BBF10BD00BF55
:104ED000DC28002010B5C4B209212046FCF772FF7F
:104EE00040F00102D2B220460921BDE81040FCF793
:104EF00051BF10B5C4B209212046FCF763FF092158
:104F000000F0FE022046BDE81040FCF743BF38B574
:104F1000C4B20D4620460A21FCF754FF40EA0502C0
:104F2000D2B220460A21BDE83840FCF733BF10B5A5
:104F30000446FCF72EFF20461F21FFF7E8FF20461E
:104F4000BDE81040FFF7C6BF38B5C4B20D462046D5
:104F50000A21FCF737FF20EA0502D2B220460A21D7
:104F6000BDE83840FCF716BF10B50446FFF7C1FF97
:104F700020461F21BDE81040FFF7E6BF10B5C0B2C4
:104F80000C460B21FCF71EFF204010BD1F21FFF730
:104F9000F5BF0A46C0B20B21FCF7FCBE1F21FFF78C
:104FA000F8BF38B5C4B20D4620461721FCF70AFFFA
:104FB00020EA0502D2B220461721BDE83840FCF7AE
:104FC000E9BE70B5C4B2064604212046FCF7FAFEDD
:104FD000042100F0FB0205462046FCF7DBFE3046CC
:104FE000F021FFF7DEFF05F0F80220460421FCF770
:104FF000D1FE492220212046FCF7CCFE0220FCF7FE
:1050000011FF204601222121FCF7C4FE20469A22EE
:105010004121FCF7BFFE204601224A21FCF7BAFEDF
:10502000204601224B21FCF7B5FE204600224B21F1
:10503000FCF7B0FE204601225621FCF7ABFE2046CD
:1050400001225821FCF7A6FE204601224021FCF750
:10505000A1FE2046FF220B21FCF79CFEBDE870401C
:105060000220FCF7DFBE0000054BD3F8882042F495
:105070007002C3F888204FF000629A60704700BF4A
:1050800000ED00E008B50B4B1A6842F400721A609C
:105090001A6842F480621A601A6842F480721A60D8
:1050A000032000F061FA0020FDF7E2F9FCF744FF6D
:1050B000002008BD003C0240034A044B11681B78E5
:1050C0000B441360704700BFE028002088000020D8
:1050D000014B1868704700BFE028002038B504462F
:1050E000FFF7F6FF631C1CBF054B1B78054618BF76
:1050F000E418FFF7EDFF431BA342FAD338BD00BF0E
:105100008800002038B50446002800F09B80056C1C
:1051100025B9FCF731FF656484F83C50236CDB064D
:1051200000F18E80236C23F4885323F0020343F0B4
:1051300002032364444B5A6822F440325A605A688E
:1051400061680A435A60236821695A6822F48072B0
:105150005A605A6842EA01225A605A68A16822F0ED
:1051600040725A605A680A435A609A68E16822F4A9
:1051700000629A609A680A439A603449A26A8A4235
:1051800052D0996821F07061996099680A439A60D9
:105190009A68E16A22F040529A609A680A439A60DB
:1051A0009A6822F002029A609A68217E42EA4102DD
:1051B0009A6094F82020002A3ED05A68616A42F42E
:1051C00000625A605A6822F460425A605A68013993
:1051D00042EA41325A60DA6AE16922F47002DA6224
:1051E000DA6A013942EA0152DA629A6822F40072FC
:1051F0009A609A6894F8301042EA41229A609A685C
:10520000616922F480629A609A68002042EA8122F1
:105210009A606064236C23F0030343F0010323646A
:10522000002384F83C3038BD9A6822F070629A609E
:105230009A6822F04052B2E75A6822F40062C9E745
:105240000120EDE70120EEE7002301400100000FFF
:1052500082B00023019390F83C30012B69D00123E8
:1052600080F83C3003689A68D2070BD59A68D1075A
:105270001AD4036C43F010030364436C43F001033E
:1052800043644CE09A682C4942F001029A602B4A30
:105290001268B2FBF1F202EB42020192019A002A7B
:1052A000E4D0019A013AF8E7026C22F4E06222F0BD
:1052B000010242F4807202645A68520541BF026CD6
:1052C00022F4405242F480520264026C12F4805282
:1052D0001CBF426C22F006024264002280F83C208F
:1052E0006FF022021A60164A516811F01F0F15491B
:1052F0001CD18B4207D001F580718B420CD15268D2
:1053000012F01F0F0BD19A6812F0405F07D19A6814
:1053100042F080429A6002E00B498B4202D00020AA
:1053200002B07047526812F0100FEBE78B42F6D1D3
:10533000E9E70220F4E700BF40420F0084000020AC
:1053400000230140002001400022014090F83C3041
:10535000012B14D003689A6822F001029A609B68BE
:10536000DB0707D4036C23F4885323F0010343F0D5
:1053700001030364002380F83C3018467047022084
:10538000704703689A68520570B504460D460BD500
:105390009B68DE0508D5036C43F0200303640023FB
:1053A00080F83C30012070BDFFF792FE064623686E
:1053B0001A6891070CD56FF012021A60226C42F441
:1053C000007222649A6812F0405F17D00020EAE76A
:1053D000681CEDD065B923681B6813F00203E6D1A1
:1053E000226C84F83C3042F0040222640320DAE7A5
:1053F000FFF76EFE801BA842EDD8D8E7227E002A78
:10540000E4D1DA6A12F4700F02D09B685A05DDD439
:10541000236C23F480732364236CDB04D6D4236CC5
:1054200043F001032364D1E70368D86C70470000A0
:10543000F7B50023019390F83C30012B054600F0AE
:105440008680012380F83C3008682B688E68092824
:1054500084B233D904EB4402DF681E3A4FF0070CE4
:105460000CFA02FC27EA0C07DF60DF6806FA02F29A
:105470003A43DA604968062901EB81022DD8596B5D
:10548000053A1F26964021EA06015963596B04FA32
:1054900002F20A435A632F4A93420AD1122837D1A3
:1054A0002D4B5A6822F400025A605A6842F4800276
:1054B0005A60002085F83C0003B0F0BD1A6900EB8B
:1054C000400C072707FA0CF722EA07021A611A694B
:1054D00006FA0CF616431E61CCE70C294FF01F01AB
:1054E0000BD81E6B233A914026EA01011963196B10
:1054F00004FA02F20A431A63CDE7DE6A413A9140A8
:1055000026EA0101D962D96A94400C43DC62C2E701
:10551000124B984201D01128CBD10F4B5A6822F47C
:1055200080025A605A6842F400025A600B4B98425B
:10553000BFD10B4B0B4A1B68B3FBF2F30A22534358
:105540000193019B002BB4D0019B013BF8E70220A3
:10555000B2E700BF0020014000230140120000100C
:105560008400002040420F000749CA6822F4E0622C
:105570000302120403F4E063120C134343F0BF630D
:1055800043F40033CB60704700ED00E0164B30B5BC
:10559000DC68C4F30224C4F10703251D042B28BFD3
:1055A0000423062D4FF0FF358CBF033C002405FA81
:1055B00003F321EA0303A54022EA0502A3400028E1
:1055C00043EA0203ACBF00F16040084A4FEA03130C
:1055D000B8BF00F00F00DBB2AABF00F56140135462
:1055E00080F8003330BD00BF00ED00E014ED00E0B6
:1055F000002807DB044A4109012300F01F00834013
:1056000042F82130704700BF00E100E010B50446C9
:1056100050B1437903F0FF0213B90271FCF7FCFCAF
:1056200001236371002010BD0120FCE710B5044682
:1056300020B390F8393003F0FF021BB980F838200E
:10564000FCF702FD022384F83930236861681A6888
:1056500022F440320A431A605A6BA16822F0070212
:105660000A435A631A6CE1686FF30D020A431A6425
:1056700000200123E06384F8393010BD0120FCE7ED
:1056800070477047036870B55E681D68F20704468E
:1056900014D5E90512D51A6822F480721A60C26B1B
:1056A00042F00102C26301229A60042380F839307B
:1056B000002380F83830436903B19847B20616D505
:1056C000AB0414D523681A6822F400521A60202211
:1056D0009A60E36B43F00203E363042384F83930F8
:1056E000002384F8383063690BB1204698473007AF
:1056F00016D5290514D523681A6822F400621A60A9
:1057000008229A60E36B43F00403E363042384F804
:105710003930002384F8383063690BB1204698474C
:1057200072070BD56B0509D523681A6822F48062CD
:105730001A6004229A602046FFF7A2FFB00714D532
:10574000A90512D523681A6822F400721A60022291
:105750009A60E36BE363012384F83930002384F813
:10576000383023690BB120469847F20613D5EB0475
:1057700011D523681A6822F480521A6010229A60A8
:10578000E36BE363012384F83930002384F8383075
:105790002046FFF776FF70BDF0B590F83820012A5B
:1057A00003464FF002002BD0012283F8382083F803
:1057B000390003EB0112D2E90740556A174F44EA5A
:1057C0000040093C012C9CBF05F07F4210434FEA8A
:1057D00001161A6888BF40EA056091B9516A3940DC
:1057E00001435162012C9969916103D8596A21F0F2
:1057F0007F4191620122002083F8392083F838002C
:10580000F0BDD16939400143D1619919012C8969F1
:1058100011619CBF25F07F451562EBE7F0FFFC00AE
:105820002DE9F74FDFF8BC916C4A00230D68012485
:105830009C4004EA0506AC4340F0B7804D6803275E
:1058400005F003044FEA430807FA08FC671E012F1E
:105850006FEA0C0C34D8876807EA0C0ECF6807FA99
:1058600008F747EA0E078760476827EA060EC5F380
:1058700000179F4047EA0E074760C76807EA0C0E0B
:105880008F6807FA08F747EA0E07022CC76019D19C
:105890004FEAD30A00EB8A0A03F0070BDAF820700C
:1058A0004FEA8B0B4FF00F0E0EFA0BFE27EA0E0E8F
:1058B0000F6907FA0BF747EA0E07CAF8207001E0F4
:1058C000032CDAD1076804FA08F407EA0C073C4312
:1058D00015F4403F046068D000240194D9F8444096
:1058E00044F48044C9F84440D9F8444023F0030705
:1058F00007F1804704F4804407F59C37019403F0D6
:10590000030C019CD7F808E04FEA8C0C0F2404FA32
:105910000CF42EEA040E324CA0424DD004F5806403
:10592000A0424BD004F58064A04249D004F58064C5
:10593000A04247D004F58064A04245D004F58064BD
:10594000A04243D004F58064A04241D004F58064B5
:10595000A0423FD004F58064A0423DD004F58064AD
:10596000A04214BF0A24092404FA0CF444EA0E04E9
:10597000BC609468F74315F4801F0CBF3C4034436F
:105980009460D46815F4001F0CBF3C403443D460CD
:10599000546815F4003F0CBF3C4034435460146815
:1059A000ED0354BF3C40344314600133102B7FF4AB
:1059B0003DAF03B0BDE8F08F0024D5E70124D3E765
:1059C0000224D1E70324CFE70424CDE70524CBE765
:1059D0000624C9E70724C7E70824C5E7003C0140BF
:1059E00000000240003802400369194214BF012040
:1059F000002070470AB1816170470904FBE74369E1
:105A000001EA030221EA030141EA02418161704790
:105A100001684B6913F480634FF0000210D06FF4FB
:105A200080634B612023026380F83D3080F83E2084
:105A3000036C80F83C2043F00403036401207047AA
:105A4000184670472DE9F84606460F4691461D4612
:105A50004FEA114A3368BAF1010F0CBF5C699C69C7
:105A600027EA0404A4B2B4FA84F46409A14501D07D
:105A7000002025E06A1CEED0FFF72AFB089BC01A25
:105A8000A84201D8002DE5D13368BAF1010F0CBF4F
:105A90005B699B6927EA03039BB2B3FA83F35B0953
:105AA0009945D7D100232022336386F83D2086F81C
:105AB0003E30326C86F83C3042F0200232640120E5
:105AC000BDE8F8862DE9F04104460F461646984693
:105AD0002568686927EA000080B2C0B16B695A0581
