:020000040800F2
:10000000000003205D0600081D2300081F230008D0
:1000100021230008232300082523000800000000F6
:100020000000000000000000000000001177000840
:100030002723000800000000A1770008C96F00080E
:10004000AD060008AD060008AD060008AD060008C4
:10005000AD060008AD060008AD060008AD060008B4
:10006000AD060008AD060008AD060008AD060008A4
:10007000AD060008AD060008AD060008AD06000894
:10008000AD060008AD060008AD060008AD06000884
:10009000AD060008AD060008AD060008AD06000874
:1000A000AD060008AD060008AD060008AD06000864
:1000B000AD060008AD060008AD060008AD06000854
:1000C000AD060008AD060008AD060008AD06000844
:1000D000AD060008AD060008AD060008AD06000834
:1000E000AD060008AD060008AD060008AD06000824
:1000F000AD060008AD060008AD060008AD06000814
:10010000AD060008AD060008AD060008AD06000803
:10011000AD060008AD06000829230008AD0600085A
:10012000AD060008AD060008AD060008AD060008E3
:10013000AD060008AD060008AD060008AD060008D3
:10014000AD060008AD060008AD060008AD060008C3
:10015000AD060008AD060008AD060008AD060008B3
:10016000AD060008AD060008AD060008AD060008A3
:10017000AD060008AD060008AD060008000000004E
:10018000AD060008AD060008AD060008AD06000883
:10019000AD060008AD060008AD060008AD06000873
:0C01A00035230008AD06000841230008CC
:1001B00010B5054C237833B9044B13B10448AFF3A1
:1001C00000800123237010BD800300200000000088
:1001D000743E020808B5034B1BB103490348AFF353
:1001E000008008BD0000000084030020743E020867
:1001F00001F0FF01102A2BDB10F0070F08D010F8D8
:10020000013B013A8B422DD010F0070F42B3F6D1DB
:10021000F0B441EA012141EA014122F007047FF0F4
:1002200000070023F0E80256083C85EA010586EA4B
:10023000010685FA47F5A3FA87F586FA47F6A5FA87
:1002400087F68EB9EED1F0BC01F0FF0102F0070293
:1002500032B110F8013B013A83EA010313B1F8D13E
:100260000020704701387047002D06BF354603381F
:10027000073815F0010F07D1013015F4807F02BF58
:10028000013015F4C03F0130F0BC0138704700BFA9
:100290007BB972B90029BEBF00204FF0004106E0D3
:1002A00008BF00281CBF6FF000414FF0FF3000F086
:1002B000D3B9ADF1080C6DE904CE002909DB002BA0
:1002C0001ADB00F04DF8DDF804E0DDE9022304B0AC
:1002D0007047404261EB4101002B1BDB00F040F80E
:1002E000DDF804E0DDE9022304B0404261EB4101A6
:1002F000524263EB43037047524263EB430300F007
:100300002FF8DDF804E0DDE9022304B0404261EBA0
:1003100041017047524263EB430300F021F8DDF8DE
:1003200004E0DDE9022304B0524263EB430370476B
:1003300053B94AB9002908BF00281CBF4FF0FF314C
:100340004FF0FF3000F088B9ADF1080C6DE904CE34
:1003500000F006F8DDF804E0DDE9022304B07047A0
:100360002DE9F047089D8E4604468846002B4AD169
:100370008A42174662D9B2FA82F64EB1C6F120031C
:1003800001FA06F820FA03F3B74043EA0808B4403C
:100390004FEA174E1FFA87FCB8FBFEF1230C0EFB49
:1003A000118843EA084301FB0CF29A4209D9FB1871
:1003B00001F1FF3080F0EA809A4240F2E780023992
:1003C0003B449A1AA3B2B2FBFEF00EFB102243EAA2
:1003D000024300FB0CFC9C4509D9FB1800F1FF32DD
:1003E00080F0D6809C4540F2D3803B44023840EAFE
:1003F0000140A3EB0C0300211DB1F3400022C5E92D
:100400000032BDE8F0878B4205D90DB1C5E9000186
:1004100000210846F5E7B3FA83F1002946D1734578
:1004200002D3824200F20581841A6EEB030201209E
:100430009046002DE5D0C5E90048E2E7002A00F02B
:100440009080B2FA82F6002E40F0A4808A1A030C43
:100450004FEA174E80B2BCB20121B2FBFEFC0EFB8C
:100460001C2243EA024304FB0CF29A4207D9FB1810
:100470000CF1FF3802D29A4200F2E080C4469B1A87
:10048000B3FBFEF20EFB123340EA034302FB04F41B
:100490009C4207D9FB1802F1FF3002D29C4200F2C5
:1004A000CA8002461B1B42EA0C40A5E7C1F12006A8
:1004B0008B4022FA06F71F430EFA01F420FA06F3E6
:1004C0002EFA06FE4FEA1749234300FA01F81FFAF5
:1004D00087FCBEFBF9F01C0C09FB10EE44EA0E444D
:1004E00000FB0CFEA64502FA01F209D93C1900F105
:1004F000FF3A80F09C80A64540F2998002383C4447
:10050000A4EB0E041FFA83FEB4FBF9F309FB1344BA
:100510004EEA044403FB0CFCA44508D93C1903F142
:10052000FF3E80F08280A4457FD9023B3C4443EAF1
:100530000040A4EB0C04A0FB02EC64457346E146CA
:1005400062D35FD05DB1B8EB030264EB090404FA37
:1005500006F622FA01F31E43CC40C5E900640021EF
:100560004FE7B1FBF2FC010C41EA0E4180B240EAD8
:1005700001423B4638463C46B846BE462026B1FBC3
:10058000F7F1A2EB080241EA0C4166E7014618E7E1
:1005900010462CE7C6F120022EFA02F3B740B14014
:1005A00020FA02F24FEA174E0A43B3FBFEF8BCB240
:1005B0000EFB1833110C41EA034108FB04F9B0406B
:1005C00089454FEA104380B23ED9791808F1FF3CC3
:1005D00001D289451FD8A1EB0901B1FBFEF909FB46
:1005E00004F80EFB191192B242EA0142424529D2A7
:1005F000BA1809F1FF31C4D24245C2D2A9F10201B1
:100600003A44BEE7F0459DD2BEEB02036CEB070C0B
:100610000138E14696E7A7EB09094944A8F1020C25
:10062000B1FBFEF909FB04F8DBE773467FE75046B0
:1006300066E70846FDE63B44023A33E7ACF1020CBC
:100640003B441CE749469CE7A1EB0901C446B1FBCA
:10065000FEF909FB04F8C4E7704700BFDFF834D0A7
:10066000002103E00C4B5B58435004310B480C4B0A
:1006700042189A42F6D30B4A02E0002342F8043BA8
:10068000094B9A42F9D304F045FA22F085FE01F0B5
:10069000C7F870470000032030AD050800000020B7
:1006A0006C0100208003002080420120FEE770479B
:1006B00008B500F0B9FDBDE8084000F03DBD00F010
:1006C000B5BD704710B50421044621F079FC2046E1
:1006D00010BD000038B50C4B0C4C18800C4B822020
:1006E00019806368984740F6110398420AD1094D72
:1006F00023682C60822098472B688220DB6898470B
:10070000002038BD0120FCE7A60300205400002093
:10071000A4030020A80300204FF4A071F020FFF7ED
:10072000D9BF0000F7B5394D2B6804461B698220FC
:100730009847208000284ED02B680DF106025B6997
:1007400001A982209847324B1B78002B4BD0BDF873
:10075000062040F674639A423FD9ADF80630BDF8E2
:1007600006209B1A9BB20A2B42D90B22B3FBF2F351
:10077000284A1288934201D9013A93B2BDF8042065
:10078000254840F6B8318A4234D8C2F571620E323B
:10079000016892B20F25B2FBF5F2204D2D88AA42D6
:1007A00084BF05F1FF35AAB28A4215468EB22AD916
:1007B000921B91B21A4E3768BB42BAB28CBF9A1ADA
:1007C000D21A92B211440529C4BF05603360036890
:1007D00063803368A38003B0F0BDB32A9CBFB4220A
:1007E000ADF80620BBE7BDF80630A3F5B473B9E752
:1007F0000023C3E7C2F56D62083292B20E2A016887
:10080000C8D800252A46891A89B2D3E7A803002050
:10081000D81F0020A4030020A0030020A60300206E
:100820009C03002037B568460D461446FFF77AFF53
:10083000BDF8000030B1BDF802302B60BDF80430C7
:100840002360012003B030BD032821D8DFE800F089
:10085000020B12190F4B1A68B2FA82F252090421E4
:100860000D4804F0EBBB0B4B5A68B2FA82F2520906
:100870000821F5E7074B9A68B2FA82F25209102173
:10088000EEE7044BDA68B2FA82F252092021E7E778
:10089000704700BFAC03002000100240032821D89D
:1008A000DFE800F0020B12190F4B1A68003A18BF6C
:1008B000012204210D4804F0C1BB0B4B5A68003AD9
:1008C00018BF01220821F5E7074B9A68003A18BFC4
:1008D00001221021EEE7044BDA68003A18BF01222A
:1008E0002021E7E7704700BFAC0300200010024062
:1008F00003280DD8DFE800F00206080A04210548A5
:1009000004F0A1BB0821FAE71021F8E72021F6E75F
:10091000704700BF0010024008B5032811D8DFE877
:1009200000F0020A0C0E0421074804F081FB431E6C
:100930005842584108BD0821F6E71021F4E720216C
:10094000F2E70020F3E700BF0010024070B5084D49
:1009500000240126E0B2FFF7DFFF18B12B68012B5E
:1009600018BF2E600134052C05F10405F2D170BDCD
:10097000AC030020012380F8781080F879307047AC
:100980007047002070470000034B4164003918BFD6
:1009900001211970704700BF3F35012070470020CA
:1009A0007047836B0BB10846184770474FF6FF70CE
:1009B0007047406803689B691847704770477047E5
:1009C0007047704710B5044600F046FD23680349A0
:1009D000D3F890302046BDE810401847000000D002
:1009E00008B503680446D3F8843098472368204646
:1009F000DB6F984700F0ECF8236820465B6F984760
:100A0000292001F0ABF900F0E3F8236820465B6F82
:100A10009847F8E710B5044609F02AFD23682046F8
:100A2000D3F8BC30BDE81040184700F0F9BC00F026
:100A3000FDBC00F02FBD00F0CFBC00F03FBD00F0CA
:100A400047BD00F0D3BC08F041BF10B58421044677
:100A500021F0B6FA204610BD10B590F8341090F889
:100A600078400C4B8C421A7809D03AB90A4A0B49A3
:100A70001488088810800C8001221A7010BD002A8A
:100A8000FCD0054A05491488088810800C80002293
:100A9000F3E700BF38350120343501203635012019
:100AA00070B50D46194635B9094B0A4A0A4840F255
:100AB000FF2122F0C1F9C0E90F52084B003A18BFDC
:100AC00001221A700368BDE87040D3F890301847CF
:100AD000E43E02081C3F02086A3F02083E3501203E
:100AE00008B5094B1B888B4203D8084B1B889342DF
:100AF00005D9074B074A0848A32122F09DF9074B67
:100B00001980074B1A8008BD343501203635012085
:100B1000AF3F0208124002086A3F02083A3501203E
:100B20003C350120034690F87A0018B158680368F4
:100B30001B68184770470000012108B500220846CD
:100B400006F0E4FA0A4B186028B90A4B0A4A282131
:100B50000A4822F071F900220421012006F07EFBF0
:100B6000074B186018B9074B034A2C21F0E708BD62
:100B7000C0030020554002089E400208CD400208F4
:100B8000BC0300200F410208024B4FF0FF311868F0
:100B900006F006BBC0030020014B186806F02CBB12
:100BA000C0030020024B0021186806F0F9BA00BF0C
:100BB000C0030020FFF7F0BF03480449006800238A
:100BC0001A4606F086BB00BFBC03002004000020CC
:100BD00013B5084C00231A4601A9206806F0AAFBA9
:100BE00020684FF0FF33002201A906F0A3FB02B0FA
:100BF00010BD00BFBC03002003685B6C18470120D8
:100C0000704703689B6A1847FEE740F2EF30704771
:100C1000054B0360054B4FF08062C3F88820BFF39B
:100C20004F8FBFF36F8F70473C4D020800E100E02B
:100C300010B504464FF45A61FFF7EAFF204621F051
:100C4000BFF9204610BD000082B0002301930E4B77
:100C50001A6B42F400021A631A6B02F4000201924A
:100C6000019A1A6942F400021A611A6922F4000218
:100C70001A61064B064A1A61064A5A61064B4FF042
:100C800080629A6002B07047003802406C210020F8
:100C9000E90E0008090C000800E100E008B50A2888
:100CA00009D8DFE800F006100E0808080810101038
:100CB0001000022008BD054B054A0648902122F08D
:100CC000BBF80020F6E70120F4E700BF514102081D
:100CD0006C410208B741020838B50C46887FFFF71F
:100CE000DDFFA58AE28A164B2169586342EA054274
:100CF0005A64628BD963521B1A642568082D0ED181
:100D00009A611A615862207F0E4A42EA0062DA61F3
:100D1000E2681A620C4A5961D9601A6038BD002233
:100D2000D8611A61E1680A0A480902F4784200F4BD
:100D3000FC600243C1F3C4010A439A63034AECE72F
:100D400000B002400900010001230200012303005A
:100D500008B50B280BD8DFE800F00612100A0A0AC3
:100D60000A0808080808022008BD0520FCE7054B12
:100D7000054A06486F2122F05FF80020F4E70120C1
:100D8000F2E700BF51410208F7410208B7410208EB
:100D90002DE9F04191F81D800C464046FFF7D8FF41
:100DA000A77F05463846FFF7D3FF06463846FFF7CC
:100DB00075FFA18A628B444B521A1A649A61228B86
:100DC000521A1A61E28A586342EA01425A6421695E
:100DD0006268D963DA602068802828D0227F0FD823
:100DE000202867D0402865D004281AD0364B45EA21
:100DF000026545F40035B845DD6161D0334A44E011
:100E0000B0F5807F04D0B0F5007FEFD1304800E02E
:100E1000304840EA0262DA61E2681A625E62596151
:100E200032E045EA026242F40032DA61F6E7A06895
:100E3000021DDA62227F45EA026545F40035DD6174
:100E40005E625961017841B1012921D0224B234AC8
:100E500023484FF48D7121F0EFFFDA69418822F4C5
:100E60007F42013922F0100242EA0122DA610121B7
:100E7000154BDA6942F02002DA61DA699206FCD495
:100E800010229A600029B9D0164A1A60BDE8F08194
:100E9000B2F1FF01DA69408822F47F4200F1FF30AD
:100EA00022F0100242EA002242F0100218BF012193
:100EB000DA61DDE745EA0262034B42F40032B4E74F
:100EC00042F20132E1E700BF00B00240012301001D
:100ED000090002000A000200414202085B420208C7
:100EE000B741020801230200024B1B6858680368DF
:100EF0005B6918474035012070B5044625460A4B0A
:100F00000C30002660602672667245F8203B602235
:100F1000294609F003FC04F55A63EE6024359D422E
:100F2000FBD1204670BD00BF3C4D0208034B1A6840
:100F3000D207FCD423229A60704700BF00B0024061
:100F40007047000030B50F4C2568ED07FCD4232511
:100F50000904A56041F001010225FF2B656361646E
:100F6000E0630AD00849656241EA0363E361074B25
:100F700022626061E060236030BDE561039BA36392
:100F8000034BF8E700B00240090001000100020035
:100F90000100030030B50E4C2568ED07FCD4232575
:100FA0001204A56042F001020225FF2B6563626412
:100FB000E063E16008D01B0643F00213E361054BD8
:100FC00065626061236030BD034BE3610123F9E793
:100FD00000B0024001000200020002FF30B50B4CDD
:100FE0002568ED07FCD4232512041B06A56043F4F5
:100FF0000033022542F0010265636264E063E16050
:10100000E361034B65626061236030BD00B0024064
:1010100001000200012070474020704700EB811062
:101020000830704700EB811008307047012070478E
:1010300040F68820704740F6882303FB0100083003
:10104000704740F6882303FB0100083070470120F9
:1010500070471020704700EB01100830704700EB1C
:10106000011008307047084601F0DABB10B5034B99
:101070000360044608F081F9204610BDF44D0208D3
:1010800010B50446FFF7F2FF2046482120F098FFF4
:10109000204610BD10B5034B0360044608F06DF9FF
:1010A000204610BDC04D020810B50446FFF7F2FF00
:1010B00020464FF4296120F083FF204610BD000038
:1010C00010B5034B0360044608F057F9204610BDE5
:1010D0008C4D020810B50446FFF7F2FF2046182198
:1010E00020F06EFF204610BD10B5084B036004468B
:1010F00000F6BC20FFF7BAFF04F12C00FFF7CAFF8F
:1011000004F11400FFF7DCFF204610BD284E020852
:1011100008B50248FFF7E8FF08BD00BF9C12002099
:1011200010B50446FFF7E0FF204640F6644120F08A
:1011300047FF204610BD00002DE9F34101F07AF988
:10114000054601F07BF90024014623462846224645
:10115000009411F083FE274B274A1A60204602F0C4
:1011600081FA264D264B274A27489A6011F0DEFD6A
:101170002B68BFF35B8FDB0735D4284620F022FFB6
:1011800088B3224C224B236004F6083604F1140085
:1011900004F12C0804F6BC276060C4F80880E760FE
:1011A000266108F0EBF81B4B6361404608F0E6F857
:1011B000194BE362384608F0E1F8184BC4F8BC3A22
:1011C00004F6043002F05AFE224604F6043130469A
:1011D00002F0C6FA304601F023FB114821F04AFE26
:1011E000284620F0FBFE0F4802B0BDE8F041FFF7B3
:1011F000E9BB00BFA435012048040020981200205C
:10120000680400204C040020080000209C120020EC
:10121000284E02088C4D0208C04D0208F44D020809
:1012200011110008C4030020704700000148FFF7B7
:10123000D7BB00BFC403002070B5264E264C274DF7
:10124000274B23603046FFF757FE284616F00CFF69
:1012500024480FF0F9FA244B2448DC6000224FF4B4
:101260008071C3E9121222491A86C3E91A12214970
:1012700083F85820C3E91E011F49C3F880101F4995
:101280001F480B60F021C3E90422C3E90622C3E929
:101290000822C3E90A22C3E90E22C3E91022C3E9E6
:1012A0001422C3E917225A6683F870205A67C3E9EB
:1012B000016501801348018013484FF4A07101803B
:1012C0001248018012490A70012283F83420114A21
:1012D0001A6070BDF40400209412002068040020FD
:1012E000D43E02084C040020C40300200000010189
:1012F00001000001000450001A00140040350120D4
:10130000343501203A350120363501203C350120A5
:1013100038350120504C02080148FFF779BC00BF66
:10132000F40400200020704781807047C18070471E
:10133000018170474181704770477047704770471F
:10134000704710B4C4880368121B84885B6D091B46
:1013500012B25DF8044B09B218474FF6FF73838150
:101360004FF0FF3303621368C361106070470020C1
:1013700070478B88838001207047704780F8261063
:10138000704790F82600704710B50022B1F9084068
:10139000B1F90A10028042808480C18010BD002211
:1013A000028042808280C28070470177704780ED62
:1013B000080A704780F82410704780F8251070479D
:1013C00001207047983070478C30704784307047E8
:1013D0007047704770470000034B902283F85A23F0
:1013E00083F85823704700BF00E100E0094A0A492A
:1013F000D3680A48C3F30A03013B9BB20B8011690F
:10140000C1F30A01013901801364536B43F00103F6
:101410005363704700680140021F0020001F002036
:10142000014BD3F8AC00704700680140024B012229
:10143000C3F8AC105A6270470068014010B52C2107
:10144000044620F0BDFD204610BD10B5BC21044669
:1014500020F0B6FD204610BD70B5044608F08BFAAA
:1014600023689D6E0DF03EFF01462046A847236885
:10147000054AD3F88C502046AC460023BDE87040A6
:10148000A2F51631604700BF00B004D008F05ABA88
:1014900008F064BA08F020BA08F08FBB90F8252055
:1014A00012B103685B691847704790F825201AB19C
:1014B00090F8242002B1186070470000034B4FF0F1
:1014C00080629A604FF080729A60704700E100E09D
:1014D000084B4FF08062C3F88820BFF34F8FBFF3F3
:1014E0006F8F4FF08072C3F88820BFF34F8FBFF328
:1014F0006F8F704700E100E070B50023124E8380CB
:10150000124B0360336893F8582005460AB1D86C33
:1015100000B998680368DB6A98473368B0FA80F4CA
:10152000D86C640930B10368DB6A9847002808BFAB
:1015300044F001042CB9064B064A07482C2121F03F
:101540007BFC284670BD00BF403501203C4E0208A0
:1015500099420208F74202083043020870B5254E4E
:101560003568BFF35B8F15F0010540D1304620F0A0
:1015700029FD00283BD0204C204B256104F134008C
:10158000C4E90035C4E90255E584A562A5850FF0DC
:1015900040FC04F158000AF077FD194BA365204682
:1015A000184B40F8843BFFF7A7FF174BC4F8843073
:1015B0002433C4F88C304FF4C803C4E92835002321
:1015C000C4F8AC30C4F8B030C4F8B430C4F8B830A3
:1015D0000E480F4BC4F89050C4F89C50C4F8A85063
:1015E000C4F8983021F046FC304620F0F7FC024861
:1015F00070BD00BF041F0020081F0020DC56020839
:101600005C4E0208D44E020890560208D51300081A
:101610007056020838B5184C23685BB3174B184A4C
:101620001B6C11888B4216D1164B198804F0F0FA06
:10163000236893F86A200025013283F86A2083F832
:101640007C50FFF7B9FA206808F012FF2846BDE881
:101650003840FFF7F9B804F0DBFA24682368204625
:101660001B6A9847012384F87C300020BDE838408D
:10167000FFF714B938BD00BF4035012000680140B4
:10168000021F0020001F002007B5064BADF8060022
:101690001B68054801220DF1060105F059F803B059
:1016A0005DF804FB0C00002018200020F7B5304E38
:1016B000304C306805F06EFE054678B904212046AE
:1016C00003F0B6FC002814BF4E2352238DF80430DB
:1016D000306864232A4601A905F0FBFD264F3868CF
:1016E00005F058FE08210546204603F0A1FC0246FD
:1016F00058B9002D14BF4E234C238DF8053038689F
:1017000064230DF1050105F0E4FD1C4F386805F078
:1017100041FE054680B91021204603F089FC0028CF
:1017200014BF4E2355238DF80630386864232A46AB
:101730000DF1060105F0CDFD114F386805F02AFEC8
:10174000054680B92021204603F072FC002814BF12
:101750004E2344238DF80730386864232A460DF160
:10176000070105F0B6FD642005F0C4FCA1E700BF49
:10177000D41F002000100240D01F0020CC1F0020EA
:10178000C81F002030B595B0102200210AA821F012
:101790005AFD1422002103A821F055FD00241E4B00
:1017A00001941A6C42F080521A641B6C03F080534F
:1017B0000193019B194B02941A6842F440421A604B
:1017C0001B6803F4404302930122029B4FF48033D1
:1017D000CDE9082302254FF480030821CDE90E53FB
:1017E0004FF4B473CDE9101308A804231393129592
:1017F00004F066FA04F02AFA0F23CDE903354FF41A
:10180000A0504FF48053CDE90603052103A80594A9
:1018100004F032FC15B030BD0038024000700040CA
:1018200080B59AB003F084F9FFF7ACFF14220021D1
:101830000DA821F008FD0024C84B00941A6BC8487D
:10184000C84DDFF85C8342F010021A631A6B02F095
:1018500010020092009A01941A6B42F020021A635F
:101860001A6B02F020020192019A02941A6B42F064
:1018700080021A631A6B02F080020292029A0394A9
:101880001A6B42F004021A631A6B02F0040203920C
:10189000039A04941A6B42F001021A631A6B02F065
:1018A00001020492049A05941A6B42F002021A6330
:1018B0001A6B02F002020592059A06941A6B42F026
:1018C00040021A631A6B02F040020692069A0794CD
:1018D0001A6B42F008021A631B6B03F008032246DE
:1018E00007933C21079B03F0A9FB9F48012202219B
:1018F00003F0A4FB22469C48042103F09FFB2246F0
:101900009A484FF4405103F099FB01263C23CDE95E
:101910000D3693480F9403230DA90227109303F06B
:10192000A3FA91480DA9CDE90D76CDE90F4403F056
:101930009BFA04238C480DA9CDE90D36CDE90F475C
:1019400003F092FA0DA94FF440538848CDE90D36C3
:10195000CDE90F4703F088FA8548864B036003F012
:1019600079F9DFF840E2844B2C62C5E900E32846B0
:101970004FF48043C5E90434C5E90244C5E906448F
:1019800003F06AFD1021284603F0AEFF21462846E9
:101990007A4D03F0C8FF4FF48273C5E900834FF41A
:1019A00000791823C5E9069328460A23C5E90244AD
:1019B000C5E90444C5E90844AC62EB6204F06CFE7E
:1019C0008F232246394668488DF824308DF83440FC
:1019D00003F034FB32464FF47A7309A9284604F029
:1019E000B7FE4FF47A7332460DA9284605F05CF82D
:1019F000324639465C48624D03F020FB9DF8343096
:101A0000D32B04BF5F4B1E705F4B0126C5E9003628
:101A1000102240230024C5E904234FF4C073C5E914
:101A200006344FF40063C5E908344FF400534FF017
:101A300002084FF00409AB624FF0030A07230DA917
:101A400028460827CDE90D83CDE90F93C5E9024962
:101A5000CDE911A8CDF84C8004F002FD4FF6FF72DD
:101A600009A92846CDE90A76089409960C9404F051
:101A700017FD304603F088F84FF6FF7209A9284693
:101A8000CDE90987CDE90B6404F00AFD4FF6FF723A
:101A900009A92846CDE909A7CDE90B9404F000FD7A
:101AA0004FF40C730893089B0C934FF6FF7209A92F
:101AB0002846CDE909970B9604F0F2FC40F26A51F2
:101AC000284604F00BFD34220DEB0200214621F0E4
:101AD000BAFB2E4D2E4B2C61C5E900340923C5E914
:101AE00005361D23C5E9073A40F20D1140F24313B4
:101AF000C5E9091340F2171040F24713C5E90B037B
:101B00002846C5E90244AC8685F8364003F09EFFBE
:101B1000FF214FF4806CF022CDE912140521CDE9AC
:101B200014C14FF4A0730DA9CDE90E24CDE91642DE
:101B300028462246174D1893CDE910380D94ADF87C
:101B400064408DF8664004F035F8134B2B601B6839
:101B500098472B68114DDB6826E000BF0038024033
:101B6000001002401821002000080240000C024032
:101B7000AC21002000300240A08601001820002087
:101B8000E41F0020D81F0020400100A0702000208A
:101B900000680140C41F00201C0000206C210020B0
:101BA00000500140005C00409847214B2846C5E9A1
:101BB0000034C5E90284C5E90A48C5E90C4403F0CC
:101BC00059F83146284603F00BF9FEF771FDFEF790
:101BD0006EFD05F007FA174A3146384605F03EFB20
:101BE000154B164A18603146384605F037FB144B42
:101BF000144A18603146384605F030FB124B134A40
:101C000018603146384605F029FB114B114A18601F
:101C10002146114805F012FA104B114A186021466E
:101C2000104805F00BFA104B186005F0EDF9FEE7CF
:101C300000B00240604F0208D41F0020484F020845
:101C4000D01F0020304F0208CC1F0020184F020880
:101C5000C81F00209C4F0208AD160008E01F00209E
:101C6000784F0208BF060008DC1F0020704770474D
:101C70007FB5094B8DF817201B6802930DF11702F1
:101C80000123009201930A460146044803F08CFCAC
:101C900007B05DF804FB00BF1000002018210020F1
:101CA0007FB500238DF81730084B1B6802930A4656
:101CB00001230DF11701009101930146044803F03F
:101CC00003FD9DF8170007B05DF804FB100000202D
:101CD000182100201FB5084C24680092CDE901347A
:101CE0000A4601230146054803F0EEFC003818BF00
:101CF000012004B010BD00BF1000002018210020FA
:101D000002F042BF10B5064C00222046042103F029
:101D100095F920460122BDE81040042103F08EB958
:101D20000008024038B50B4D044601220A484FF422
:101D3000005103F083F900220421284603F07EF9C4
:101D40002046FFF7A1FC28460122BDE838400421C7
:101D500003F074B900080240000C024038B50B4D86
:101D6000044600220A484FF4005103F067F90022AC
:101D70000421284603F062F92046FFF785FC284637
:101D80000122BDE83840042103F058B900080240A0
:101D9000000C0240F7B5144E144F05460C46304671
:101DA0000022042103F04AF900224FF40051384682
:101DB00003F044F92846FFF767FC0D4B0D481B68FC
:101DC000224601A904F070FE384601224FF400516A
:101DD000019C03F033F930460122042103F02EF96F
:101DE000204603B0F0BD00BF00080240000C0240D6
:101DF0000C0000201820002002F0C6BE0268034B31
:101E00009A4201D102F0AEBE704700BF0010004000
:101E10007047000082B00E4B00220092596C41F4D2
:101E200080415964596C01F48041009100990192FC
:101E3000196C41F0805119641B6C03F080530193BD
:101E4000019B0F216FF0010002B002F0C3BE00BF82
:101E5000003802400268094B9A4282B00BD100233D
:101E60000193074B1A6B42F480521A631B6B03F405
:101E700080530193019B02B0704700BF00300240C5
:101E80000038024007B50F4B02689A4216D1002273
:101E9000A3F5F0430192196B41F4000119631B6B28
:101EA00003F40003019305215A20019B02F092FEE6
:101EB0005A2003B05DF804EB02F0BEBE03B05DF83B
:101EC00004FB00BF00B002402DE9F043044689B096
:101ED0001422002103A821F0B6F92268244B9A426B
:101EE00043D1244C244800250095236B43F0040380
:101EF0002363236B03F004030093009B0195236B82
:101F000043F001032363236B03F001030193019B5F
:101F10004FF012094FF400734FF001080327042615
:101F200003A9CDE90339CDE90587079602F09CFFA7
:101F30004FF480731148079603A9CDE90339CDE921
:101F4000058702F091FF0295236C43F4000323649C
:101F5000236C03F400030293029B236A43F40003FF
:101F60002362236A23F40003236209B0BDE8F083EF
:101F7000005C0040003802400008024000000240BF
:101F8000F0B599B004461422002107A821F05BF9AE
:101F900030220DEB0200002121F055F922685E4B42
:101FA0009A4240F0B78008230C93C0231093042377
:101FB00012930CA84FF40033159304F025F908B1DF
:101FC000FFF726FF554B5648002400945A6C42F008
:101FD00080625A645A6C02F080620092009A019406
:101FE0001A6B42F020021A631A6B02F0200201926F
:101FF000019A02941A6B42F001021A631A6B02F002
:1020000001020292029A03941A6B42F002021A63CE
:102010001A6B02F002020392039A04941A6B42F0C4
:1020200040021A631A6B02F040020492049A05946B
:102030001A6B42F004021A631A6B02F00402059252
:10204000059A06941A6B42F008021A631B6B03F0A0
:102050000803069302250E26069B0B964FF4806319
:1020600007A9CDE90735CDE9094502F0FDFE41F6A6
:1020700058032C480B9607A9CDE907350927CDE968
:10208000094502F0F1FE032327480B9707A9CDE984
:102090000735CDE9094502F0E7FE4FF470632248A9
:1020A0000B9607A9CDE90735CDE9094502F0DCFE1D
:1020B0004FF40C631D480B9607A9CDE90735CDE910
:1020C000094502F0D1FEC02319480B9607A9CDE9B6
:1020D0000735CDE9094502F0C7FE082315480B96E0
:1020E00007A9CDE90735CDE9094502F0BDFE4FF45A
:1020F000A0530E480B9707A9CDE90735CDE909454F
:1021000002F0B2FE58202246052102F063FD58205D
:1021100002F092FD19B0F0BD0068014000380240A5
:102120000014024000000240000402400018024077
:1021300000080240000C024010B5044688B014228A
:10214000002103A821F07FF82268144B9A4223D182
:1021500003F56843002101915A6C114842F4801242
:102160005A645A6C02F480120192019A02911A6B1D
:1021700042F020021A631B6B03F020030293029BC0
:102180004FF4607202230321CDE903230523CDE937
:10219000061303A902F068FE08B010BD005001400C
:1021A000001402402DE9F04186B0002303932B4B2D
:1021B0001C68002C4FD14FF00108C3F80080284B59
:1021C00000949A6B274842EA08029A639B6B03EAE1
:1021D00008030093022703260C25009B01A94FF654
:1021E0003F03CDE90137CDE9046502F03DFE1E480D
:1021F000059501A9CDE90187CDE9034602F034FE3A
:1022000048F233131948059501A9CDE90137CDE905
:10221000034602F029FE4FF683731548059501A980
:10222000CDE90137CDE9034602F01EFE4CF20373FF
:102230001048059501A9CDE90137CDE9034602F023
:1022400013FE60230C48059501A9CDE90137CDE9BE
:10225000034602F009FE06B0BDE8F081B42100207B
:1022600000380240001402400008024000180240FA
:1022700000100240000C02400004024070B588B01B
:1022800000230293204B1A6C42F010021A641B6C5C
:1022900003F010030293054601A903A8029B03F073
:1022A00095FF069B4BBB03F081FF184E184B336024
:1022B00040F2E733F360174BB0FBF3F3013B73607D
:1022C000304600233361B360B36104F0B7FD0446C8
:1022D00080B9304604F08CFC044658B9362002F030
:1022E000ABFC0F2D0DD822462946362002F072FC99
:1022F000094B1D60204608B070BD03F057FF400039
:10230000D3E70124F6E700BF00380240B8210020DF
:102310000010004040420F00840000207047FEE79C
:10232000FEE7FEE7FEE77047014804F09FBC00BFF0
:10233000B8210020014803F0E0BB00BF702000205E
:10234000014802F0C3BC00BF6C210020012070478F
:1023500008B521F01BF8162303604FF0FF3008BDCD
:1023600008B521F013F816230360FEE770B50D469B
:1023700014460E46731B9C4201DC204670BDAFF331
:10238000008006F8010BF5E770B50D4614460E46C1
:10239000731B9C4201DC204670BD16F8010BAFF3A5
:1023A0000080F5E74FF0FF3070474FF400534B606B
:1023B0000020704701207047002070470A4A1168CA
:1023C00008B5034609B90949116010686946034414
:1023D0008B4206D920F0DAFF0C2303604FF0FF3068
:1023E00008BD1360FCE700BF0022002080420120EE
:1023F000704710B5042104461FF0E2FD204610BDD1
:1024000008B5032913D8DFE801F002060A0E01F02F
:1024100075F9006808BD01F071F94068FAE701F04C
:102420006DF98068F6E701F069F9C068F2E700200D
:10243000F0E7000000487047D44F020811207047B1
:1024400013B5002451B1036801948DF8034001AA2B
:102450009C680DF10303A04702B010BD0846FBE7DE
:10246000C0897047008A7047C0887047808870476D
:10247000807A00F07F007047807AC00970470020A2
:10248000704700009FED010A704700BF0000000088
:10249000806A7047704710B5082104461FF090FD10
:1024A000204610BD7047704700F59873086849686A
:1024B00003C370477047704741607047704770476B
:1024C000064BC0F84C310023C0F8503100F5A27320
:1024D000C0F84801C0F84031704700BF59260008D5
:1024E0000123037270477047704710B4C268416897
:1024F0005410034601EB6200D20748BF0A599B689B
:102500005DF8044B48BFD35818470346406830B1C4
:102510009A681AB9D86800F0010070470120704726
:1025200010B50C2104461FF04BFD204610BD10B520
:10253000102104461FF044FD204610BD10B54FF495
:10254000AE7104461FF03CFD204610BD10B5402181
:1025500004461FF035FD204610BD10B50CF0C2FE3C
:102560000368BDE81040DB6B18470000054B1B7883
:1025700001462BB1406818B103680C315B6E1847F7
:10258000704700BF3F350120037A70B50546BBB9DF
:1025900040680368DB69984704463CB9686803688B
:1025A00005F10C011B6EBDE870401847A1886B8FC8
:1025B000C91A236820461B6B09B29847A469ECE747
:1025C00070BD10B50446D0F8400158B10368DB680F
:1025D000984738B1D4F8400103689B6898470023B6
:1025E000C4F8403110BD70B5044690F8390094F835
:1025F00038300130C0B2984284F8390005D901233F
:102600002372002384F8393070BDB4F93A200021D8
:102610000FF068F8C30706D500284FF6FF73C8BF50
:102620000123184400B2238AC01AA0876068036897
:10263000DB69984705462DB960680368BDE87040BE
:102640005B691847A988A38F19442B6828461B6B20
:1026500009B29847AD69EEE72DE9F14FD0E9556A27
:102660000746B06803681B6A9847EF2805D8444BB3
:10267000444AA321444820F0DFFB706803681B6ACA
:1026800098470F2803D8414B3E4AA421F2E7F0684F
:1026900003681B6A98470B2803D83D4B394AA5218C
:1026A000E8E70CF01FFEDFF8F09004300CF058FE65
:1026B000D9F8000010B10368DB689847D9F800002A
:1026C00010B103681B689847DFF8D080D8F8000085
:1026D00010B103685B699847D7F83C0110B10368F3
:1026E0005B689847D8F8000010B103681B689847EA
:1026F000D7F83C0110B103689B689847F0680368FD
:1027000000215B6A98474FF0000B224BC0F804B0E1
:10271000044680F808B00360B068036859465B6AF5
:102720009847054601F09EFB7068036859465B6A4E
:1027300098472946064601F075FB331DC7F83C61F2
:10274000C9F80040C8F80050CAF800302B68C6F835
:1027500008A02846DB68EE639847336830461B685C
:102760009847214628460EF0B7FF236820461B698C
:10277000984723685B69204601B0BDE8F04F1847D1
:10278000C343020851440208294502087045020863
:1027900013460208AC510208883501208435012017
:1027A000044B1B6893F858200AB1D86C00B998689C
:1027B000704700BF40350120F8B5174604460E4665
:1027C0000CF09CFE124B1C60124B2360124B002538
:1027D000C4E95135114BC4E9535518680368012108
:1027E0009B68C4E94F55C4E955769847284600F0E0
:1027F00039FFFFF7D5FF17F0E0FAFFF7D1FF17F029
:1028000057FBFFF7CDFF17F05FFB2046F8BD00BF79
:1028100094350120585102084051020840350120EA
:10282000064BC0F84C310023C0F8503100F5A273BC
:10283000C0F84801C0F84031704700BF5926000871
:10284000064BC0F84C310023C0F8503100F5A2739C
:10285000C0F84801C0F84031704700BF312A000875
:10286000064BC0F84C310023C0F8503100F5A2737C
:10287000C0F84801C0F84031704700BFF528000893
:102880002DE9F04105460026164B4660067245F8D4
:102890000C3B044628460F4609F09EFC124B84F878
:1028A00038701B7884F83960A68723B90123237216
:1028B0002046BDE8F0810D4B0D4FB3F90080E36871
:1028C000B7F900109B6B266128469847E36841469C
:1028D000DB6B28469847284609F0F9FB3B885B42AA
:1028E0006387E5E7D05102083F35012036350120E6
:1028F000343501202DE9F047D0E9556A0746B06824
:1029000003681B6A984740F68723984205D8414BD5
:10291000414AA321414820F08FFA706803681B6A7E
:1029200098470F2803D83E4B3B4AA421F2E7F068B2
:1029300003681B6A98473F2803D83A4B364AA521BB
:10294000E8E70CF0CFFCDFF8E09004300CF008FD75
:10295000D9F8000010B10368DB689847D9F8000087
:1029600010B103681B689847DFF8C080D8F80000F2
:1029700010B103685B699847D7F83C0110B1036850
:102980005B689847D8F8000010B103681B68984747
:10299000D7F83C0110B103689B689847F06803685A
:1029A00000215B6A984714210446FFF769FFB0686D
:1029B000036800215B6A9847054600F02BFF7068AA
:1029C000036800215B6A98472946064600F0E0FE4E
:1029D000331DC7F83C61C9F80040C8F80050CAF878
:1029E00000302B68C6F808A02846DB68EE639847DD
:1029F000336830461B689847214628460EF06CFE27
:102A0000236820461B699847236820465B69BDE818
:102A1000F0471847C3430208B64602082945020892
:102A200070450208134602088835012084350120CC
:102A30002DE9F047D0E9556A0746B06803681B6A7C
:102A40009847EF2805D8414B414AA321414820F03F
:102A5000F3F9706803681B6A98470F2803D83E4B48
:102A60003B4AA421F2E7F06803681B6A98473F28B5
:102A700003D83A4B364AA521E8E70CF033FCDFF8DF
:102A8000E09004300CF06CFCD9F8000010B1036841
:102A9000DB689847D9F8000010B103681B689847B5
:102AA000DFF8C080D8F8000010B103685B69984770
:102AB000D7F83C0110B103685B689847D8F800006C
:102AC00010B103681B689847D7F83C0110B1036840
:102AD0009B689847F068036800215B6A9847142157
:102AE0000446FFF7CDFEB068036800215B6A984793
:102AF000054601F0B7F97068036800215B6A9847E2
:102B00002946064601F08EF9331DC7F83C61C9F825
:102B10000040C8F80050CAF800302B68C6F808A07A
:102B20002846DB68EE639847336830461B68984751
:102B3000214628460EF0D0FD236820461B699847A1
:102B4000236820465B69BDE8F0471847C343020885
:102B5000A1470208294502087045020813460208E9
:102B600088350120843501207047704770477047D1
:102B7000704730B5036885B06D460181D3F8843065
:102B8000014604462846984795E807003C3484E807
:102B9000070005B030BD30B5036885B06D46418192
:102BA000D3F88430014604462846984795E8070044
:102BB0003C3484E8070005B030BD0022028042802A
:102BC0008280C280704780F83610704770B5036805
:102BD00004461B6B154698472368294620465B6EC2
:102BE000BDE87040184700207047806C7047704700
:102BF00070477047704730B4C26844685510034648
:102C000004EB6200D20748BF62599B6830BC48BFE2
:102C1000D35818470346406830B19A681AB9D86843
:102C200000F0010070470120704710B54C210446A8
:102C30001FF0C6F9204610BD10B5102104461FF044
:102C4000BFF9204610BD10B54FF40F7104461FF0B8
:102C5000B7F9204610BD08B5FEF720FC08BD0000FE
:102C6000036870B55E6B124B1B6804468DB22BB9BE
:102C7000104B114A6C21114820F0DEF81049828D6A
:102C80000988914203D80F4B0B4A6D21F3E713F8E3
:102C900012200D4B1B6853F8220003681B6B9847EA
:102CA000291A3346204609B2BDE87040184700BFD4
:102CB000983501208C480208CE48020809490208CC
:102CC0009C35012050490208A03501206C30884213
:102CD00008B505D10CF006FBBDE80840FFF7B0BD14
:102CE00008BD00224FF0FF31C0E90021826070472B
:102CF00070B5036804461B6B154698472368294640
:102D000020465B6BBDE87040184770B504461D4611
:102D1000BDF91060FFF7ECFF2368294620469B6B46
:102D20009847236831462046DB6BBDE87040184762
:102D30000022C0E90122C0E90322C0E90522C0E95E
:102D400007224FF480728284014A0260704700BFFC
:102D5000F4510208F8B5194B018F1B888B420646C7
:102D60002AD9174B1B682BB9164B174A17486C21E9
:102D700020F062F813F81120154B1B6853F822500D
:102D8000144B186800F0AAFC2B6807469B6B28467A
:102D900098472B6804469B6C3946284698472B6811
:102DA00014FB00F45B6A394628469847A4B22318FE
:102DB0001BB2A6F84630F8BD0023FAE79C35012087
:102DC000983501208C480208CE48020809490208BB
:102DD000A0350120A435012038B5262204460D4631
:102DE000002120F030FA2046FFF7A2FF064B2360B7
:102DF0002B88E384FF23204684F82830294609F0F5
:102E00008EFD204638BD00BFF458020810B52622BA
:102E10000446002120F017FA2046FFF789FF0A4BED
:102E2000A3624FF6FF73A3854FF47F020023C4E92A
:102E30000C32064A226023874FF0FF32C4E9102388
:102E4000E363A364204610BD305102085C520208BF
:102E50002DE9F04F04468FB0A04600250EF090FA01
:102E6000A54BE56348F8403B26222946404620F022
:102E7000EAF94046FFF75CFFA04B236404F16C09BC
:102E8000FF2384F866304846A56609F07FFE04F10A
:102E9000B4034FF6FF760CA918460393ADF83060E3
:102EA000FFF79AFF04F1E0030CA918460493ADF86C
:102EB0003060FFF791FF04F586730CA9184605935F
:102EC000ADF83060FFF788FF04F59C73184604F5F1
:102ED000C27B029304F5E87AFFF798FF5846FFF7A4
:102EE00095FF0CA95046ADF83060FFF775FF844B95
:102EF000C4F8D03101274FF0FF33C4E98037814B4C
:102F0000C4F8FC51C4E98B347F4B84F80852C4E9FF
:102F10008D354FF4A0732A46404600932946F0238E
:102F2000FFF7F3FE261D4FF07F43A3664146304670
:102F300006F036FA4846BD222321FFF7D9FE0CAA37
:102F40004FF002030BA94846ADF83030ADF82C70B5
:102F500009F0B3FB03234846A4F8A430FFF7FAFEB8
:102F60004FF0FF33C4E92A3304F50B73C4F89430EF
:102F70004946304606F014FA3A460398CC21FFF74A
:102F8000B7FE4FF00C080398ADF830800CA909F09B
:102F9000C6FC0399304606F003FA3A460498A92184
:102FA000FFF7A6FE0498ADF830800CA909F0B7FC35
:102FB0000499304606F0F4F93A4605988621FFF761
:102FC00097FE0598ADF830800CA909F0A8FC05998A
:102FD000304606F0E5F91D230422029800930721EC
:102FE0006023FFF792FE4FF0FF33C4F86831D4F846
:102FF00038310299D3F88430A4F86C510DF11808D7
:103000004046984798E8070004F5BA7383E807003C
:103010003E4B1B6804F503792BB93D4B3D4A6021BB
:103020003D481FF009FF3D4B1B881BB93C4B394AFB
:103030006121F5E73B4B2946186800F04FFB3A4AFF
:103040000346052148460FF063FE4FF00203029845
:10305000C4F880910CA9DFF8D490ADF83430CDF8E5
:10306000309009F0CDFA0299304606F099F9222302
:103070000093732229465846F023FFF746FE4FF08F
:10308000FF33C4F8B431D4F88431A4F8B8515946A8
:103090004046D3F88430984798E8070004F5E07379
:1030A00083E8070004F21623C4F8CC310CA9584673
:1030B000A4F81652CDF83090ADF8347009F0A0FAAB
:1030C0005946304606F06CF93A465046D021FFF793
:1030D0000FFE09225046082109F06CF93946504686
:1030E00009F07BF9304684F8F851514606F058F95A
:1030F00020460FB0BDE8F08F045302088C58020838
:1031000010580208EC520208CD2C00089835012016
:103110008C4802088E490208094902089C350120A2
:1031200050490208A4350120D9490208305102084B
:10313000406A7047806A704770478A880B8810B56C
:10314000D20A4C88C1699BB251F8220043EA044379
:10315000184410BD10B50446BAB1107B68B1537B5A
:10316000D27A1B0203F4E0631A43236A03EB82035F
:103170001A888A4202D193F9020010BD05D801389D
:1031800080B204330028F3D1F7E70020F5E710B54B
:103190002C2104461EF014FF204610BD30B58BB024
:1031A0000446BDF860500895BDF85C5007959DF841
:1031B000505006959DF84C5005959DF84850049543
:1031C0009DF8445003959DF8405002959DF83C5061
:1031D0000195BDF8385000950DF0D8FE064B2360E0
:1031E000159BE361169B2362199B63621A9BA36282
:1031F00020460BB030BD00BF3853020870477047FF
:10320000704730B4C26844685510034604EB62004E
:10321000D20748BF62599B6830BC48BFD358184793
:103220000346406830B19A681AB9D86800F00100C6
:1032300070470120704710B5102104461EF0C0FEF3
:10324000204610BD10B5F02104461EF0B9FE204600
:1032500010BD9830884208B505D10CF043F8BDE8A0
:103260000840FFF7FDBA08BD2DE9F34104460EF012
:1032700087F8444B2360444B0025C4E910354FF4D4
:103280008072FF2304F16C07A4F8642084F8663090
:10329000A4F890204FF6FF733C4AE26604F19806CA
:1032A000A4F8923084F8943001A9C4E91255C4E915
:1032B0001455C4E91655C4E91C55C4E91E55C4E9A2
:1032C0002055C4E92255E5632566A5663846ADF864
:1032D000043009F024FB304609F058FC2C4BC4E9BB
:1032E00038342C4B04F14008C4E93A352A462946C3
:1032F0004046FFF7FDFC4046F021FEF719F8404636
:103300004FF4A071FEF716F8251D4FF07F43A3661A
:103310004146284606F044F81B2238461421FFF7A0
:10332000E7FC102301A93846ADF8043009F0F7FA9C
:103330003946284606F034F83046BB222321FFF7F1
:10334000D7FC012301AA6946ADF8003030460223BC
:10335000ADF8043009F0B1F90423A4F8D0303046B8
:10336000FFF7F8FC4FF0FF33C4E9353304F1E00315
:103370002846C4F8C030314606F012F8204602B0A4
:10338000BDE8F081B85302088C580208F4580208CE
:10339000A0530208533200087047000030B5164DA4
:1033A0002C6814F001048FB0BFF35B8F20D1284646
:1033B0001EF008FEE0B13F230993104B0893104B19
:1033C000104911480A940122CDE906430423CDE9AE
:1033D00003320A230093CDE90B44CDE9014405945F
:1033E000FFF7DCFE09481FF045FD28461EF0F6FDFC
:1033F00005480FB030BD00BF042200200C6B02084E
:103400003C6B0208186A0208082200209933000861
:103410007047000030B5164D2C6814F001048FB0D1
:10342000BFF35B8F20D128461EF0CCFDE0B13F23D7
:103430000993104B0893104B104911480A9401222C
:10344000CDE906430423CDE9033214230093CDE9EB
:103450000B44CDE901440594FFF7A0FE09481FF095
:1034600009FD28461EF0BAFD05480FB030BD00BF6B
:1034700034220020106B0208406B0208286A020800
:1034800038220020113400087047000030B5164D76
:103490002C6814F001048FB0BFF35B8F21D1284654
:1034A0001EF090FDE8B13F230993104B0893104B99
:1034B000104911480A94CDE9064301220423CDE9BD
:1034C0000332182300930E22CDE90B44CDE90144C9
:1034D0000594FFF763FE09481FF0CCFC28461EF058
:1034E0007DFD05480FB030BD64220020146B02083A
:1034F000446B0208386A02086822002089340008F8
:103500007047000030B5164D2C6814F001048FB0E0
:10351000BFF35B8F20D128461EF054FDE0B13F235E
:103520000993104B0893104B104911480A9401223B
:10353000CDE906430423CDE9033228230093CDE9E6
:103540000B44CDE901440594FFF728FE09481FF01C
:1035500091FC28461EF042FD05480FB030BD00BF6B
:1035600094220020386B0208486B0208FC6A0208AB
:103570009822002001350008002070470020704785
:103580000EB403B503AB002153F8042B01930CF0E8
:103590007BFF02B05DF804EB03B070470CB407B5D5
:1035A00004AB53F8042B01930CF06EFF03B05DF8ED
:1035B00004EB02B070470000436C10B5044673B3CF
:1035C000038F2BB9184B194AC52119481FF034FC39
:1035D000C38E00EB43035B8C0BB30EF0F0FD238F27
:1035E000012B03D8134B144ACB21EEE7E28E531C78
:1035F0009BB2092B194688BFA3F10A0104EB4101D4
:1036000040F63F10498C814209D10A2B04EB42025B
:1036100028BF002304EB4303508C58845184204678
:10362000BDE810400EF0CEBCDC490208E5490208B6
:10363000904A0208DA4A0208E84A02080EF089BCF9
:1036400010B586B002AC84E806001A460AAB0593B2
:103650000193099B00932146089B0BF0E1F906B00A
:1036600010BD000038B518BB124B13481C68134935
:10367000B4B1226822440260626822440A60A268EF
:1036800014440F4B00221A8000F038F8054600F071
:1036900033F80C4B1C600C4B1D600C4B188007E082
:1036A0000B4B03600B4B0B600B4B1C68002CE8D1E1
:1036B00038BD00BFD0220020C8220020C422002034
:1036C000CC22002098350120A03501209C35012016
:1036D000606B02084C6B0208946B0208044B1B6879
:1036E00053F82100034B1B6803EB4000704700BFF9
:1036F000C4220020C82200200520704700487047DF
:10370000D422002010B5FFF7C1FE064C2060FFF761
:10371000F9FE6060FFF742FEA060FFF77BFEE0600D
:1037200010BD00BFD422002010B5002404600C603E
:1037300014601C6010BD704710B54FF4AE710446A4
:103740001EF03EFC204610BD10B50446D0F85801CE
:1037500000F097FB2046BDE810400BF05FBE000074
:1037600010B50446FFF728F8014B2360204610BD32
:10377000EC530208704704387047704710B51021A9
:1037800004461EF01DFC204610BDA0F10400F5E724
:1037900000228260024A026018324260C1607047B3
:1037A0004054020870470000134B70B50446036094
:1037B00040F65C2540F6A406B54217D140F2EC660F
:1037C000635960191B682C3D9847B542F8D140F207
:1037D000DC65635960191B683C3D9847B5F50B7F64
:1037E000F7D12046FFF705FA204670BD63596019EE
:1037F0001B6898472C3DDFE76854020810B5044663
:10380000FFF7D2FF204640F688211EF0D9FB204664
:1038100010BD00002DE9F04F05468DB0FFF718FBF5
:1038200005F50F79654B2B604FF6FF7869464846E2
:10383000ADF80080FFF7D0FA05F51A77DFF884B10C
:1038400005F5E36A3C46002620466946ADF800804F
:10385000FFF7C2FA0123C4F800B0E662A4F8308092
:10386000A4F8328084F8343084F8356084F8366007
:1038700084F8376084F838603C345445E4D105F569
:103880000D6A26464FF6FF78304669462C36ADF86D
:103890000080FFF7A1FA5645F6D1564605F688286E
:1038A0004FF6FF7B304669462C36ADF800B0FFF787
:1038B00093FA4645F6D1424E684600F0D9FBBDF872
:1038C0000430B380BDF91C30039AB383089BF260C7
:1038D0003362049A099B32617362059A0A9B726192
:1038E00005F10408069AB3626846BDF82C30B2614F
:1038F000B38500F0CFFB404605F16C0105F091FD6A
:10390000404605F5C27105F08CFD0E236946484618
:10391000ADF8003009F003F8B6F90E20B6F90C1036
:103920004846FFF7E5F94046494605F039FD4FF0B6
:10393000040804F5DC762122304640F24111FFF7FD
:10394000D7F9D4F8B83130461B6EADF8008069461F
:1039500098472046212240F24111FFF7C9F9236818
:1039600000261B6EADF80060204669462C3498474F
:103970005445DED134460326B4FBF6F303EB430390
:10398000E31A012B13D0022B14D00722062138464C
:1039900008F010FD01343846142108F01EFD142CE7
:1039A00007F13C07E8D128460DB0BDE8F08F0922A9
:1039B0000821ECE70B220A21E9E700BF685402085E
:1039C000A827002010580208C54B1B782DE9F74F97
:1039D000C44E044643B3C44B1B782BB3DFF830838B
:1039E00098F8003003BB00F16C05071D29463846E6
:1039F00005F0D6FC04F5C279B388BC4A0A2104F26A
:103A000016200FF085F94946384605F0C9FC2846CE
:103A10000CF064FE48460CF061FE012388F800308B
:103A2000B34B186803F04EFBB24FDFF8E8823868FA
:103A30004FF000098DF8039003F0ACFC04F50F750E
:103A4000E0B14FF0FF3338684A460DF1030103F04F
:103A500071FC9DF80330522B40F0FC80B6F9281021
:103A6000A54800F097FB0F23284601A9ADF80430C4
:103A700008F055FFD8F8000003F08EFCD8F80000DD
:103A800003F088FCE8B14FF0FF33D8F800000022C3
:103A90000DF1030103F04EFC9DF803304C2B40F078
:103AA000E880B16A9448494209B200F073FB0D23E3
:103AB000284601A9ADF8043008F031FF386803F05A
:103AC0006BFC8E4FDFF85082386803F063FCA8B1BE
:103AD0004FF0FF33386800220DF1030103F02AFC98
:103AE0009DF80330552B40F0D3808348B6F9281059
:103AF00000F052FBD8F8000003F04EFCD8F80000AC
:103B000003F048FCB0B14FF0FF33D8F800000022BA
:103B10000DF1030103F00EFC9DF80330442B40F03F
:103B2000BF80B16A7448494209B200F035FB386879
:103B300003F032FC2846B6F90E20B6F90C10704F8F
:103B4000FDF7FFFB04F5E365A04604F50D6A04F1FB
:103B50000409B7F91030022B00F0AA80042B00F002
:103B6000B880012B07D12B68B7F906209B6DB7F9F8
:103B70000410284698472C35554507F11C07E8D115
:103B8000604F04F6882A04F10409B7F91030022BBB
:103B900000F0C480042B00F0D280012B07D12B68E9
:103BA000B7F906209B6DB7F90410284698472C35C5
:103BB000554507F11C07E8D1534D04F51A7704F574
:103BC000966A04F10409B5F91030022B00F0BD80AB
:103BD000042B00F0D580012B08D1D8F86832B5F954
:103BE00006209B6DB5F904103846984708F13C084B
:103BF000D04505F1200507F13C07E4D1434AB6F969
:103C00002C3011788B4204F1040516D0DBB213700E
:103C1000502284F8DC2084F8082184F83421002B19
:103C200000F0B980FF22012B84F8DC2005D0022BA4
:103C300084F8082118BF84F83421B3882B4A052161
:103C400004F503700FF064F828460CF047FD03B04C
:103C5000BDE8F08F4E2B7FF411AF4946264800F0A7
:103C600099FA0E2301A92846ADF8043008F057FE52
:103C700004E74E2B7FF425AF1F48002100F08AFA9D
:103C80000E2301A92846ADF8043008F048FE18E7D5
:103C90004E2B7FF433AF1848002100F07DFA2DE75A
:103CA0004E2B7FF447AF1448002100F075FA41E72E
:103CB0002B68B7F906209B6DB7F904102846984782
:103CC0002946484605F06CFB0121384600F0A6F96C
:103CD00051E72946484605F0A4FB0321F5E700BF5C
:103CE000EE220020A8270020ED220020BA4B020877
:103CF000E8220020D41F0020B0270020CC1F002085
:103D00009026002078250020F822002014000020B2
:103D1000E4220020D01F0020C81F00202B68B7F924
:103D200006209B6DB7F90410284698472946484657
:103D300005F036FB0121384600F070F937E72946D7
:103D4000484605F06EFB0321F5E7D8F86832B5F96F
:103D500006209B6DB5F9041038469847D8F86832AC
:103D6000D3F864B001231A4600213846D8473946B3
:103D7000484605F015FB0121284600F04FF935E7CC
:103D8000D8F8683238469B6E98473946484605F061
:103D900048FB0321F0E7034B012228461A700CF080
:103DA0009DFC4AE7ED22002010B5114C8AB0FEF7C9
:103DB00021FF206803F086F92022002102A81FF0CD
:103DC00042FA0C4B01934FF480421823CDE90623AD
:103DD000002101AA084803F031F9084A20600023B5
:103DE0001370074A1370074A13700AB010BD00BF62
:103DF000E8220020BD4B020831430008EE220020DB
:103E0000ED220020E42200207047043870477047FC
:103E100010B5102104461EF0D3F8204610BDA0F1C5
:103E20000400F5E700228260024A02601832426014
:103E3000C16070479C5402087047000010B5034BE6
:103E400003600446FFF7DBF9204610BDC4540208A6
:103E500010B50446FFF7F2FF2046F0211EF0B0F83F
:103E6000204610BD10B50446FFF7FEF9014B236054
:103E7000204610BDC4540208FFF7C2B900220260F8
:103E80007047704710B5034B0360044600F0B1F86B
:103E9000204610BDF854020810B50446FFF7F2FFA3
:103EA00020461C211EF08CF8204610BD10B504469B
:103EB00000F0AAF8064B23604FF4C873A3614FF0DB
:103EC00018110023C4E90213024B2361204610BDE0
:103ED000F854020803009001B0F9083010B5B0F9A9
:103EE00004405B429C420BDBF02C09DCB0F90A3049
:103EF000B0F906205B429A4202DBB2F5A07F05DDF5
:103F00000423038283694382002010BD438A591A27
:103F100009B200294182F7DC83891C44C38984806B
:103F20001A448369C28043820120EEE710B5034B37
:103F30000360044600F05DF8204610BD0C550208F1
:103F400010B50446FFF7F2FF204620211EF038F896
:103F5000204610BD10B5044600F056F8084B23600B
:103F60004FF4167246F2A813C4E906234FF020114D
:103F70000022C4E90212034A2261A382204610BD36
:103F80000C55020803005802B0F90830B0F90420BB
:103F90005B429A4210B508DBF02A06DCB0F90A3021
:103FA000B0F906405B429C4207DA04230382C369EE
:103FB000838283694382002010BD438A591A09B263
:103FC00000294182F7DC83891A44C38982801C441A
:103FD0008369C48043820120EEE7838A591A09B2BB
:103FE0000029D8BFC3698182DABF83820120002003
:103FF000704770470020704710B5182104461DF027
:10400000DFFF204610BD0000034A02600322028247
:104010004FF02012826070472055020801827047DD
:104020008180C28070478181C2817047B0F90420CD
:10403000B0F9083010B5B1F904401344A34215DDBE
:10404000B1F9083023449A4210DAB0F90630B0F9D9
:104050000A20B1F906401A44A24207DDB1F90A204C
:1040600022449342ACBF0020012010BD0020FCE799
:1040700010B5054B0360002304468380083000F030
:1040800033F8204610BD00BF345502088388194418
:104090008180704710B5044B044640F8083B00F09F
:1040A0000FF8204610BD00BF3455020810B5044675
:1040B000FFF7F0FF204630211DF082FF204610BDA3
:1040C00010B5034B03600446FFF793FF204610BD75
:1040D0004455020810B50446FFF7F2FF2046282198
:1040E0001DF06EFF204610BD10B50446FFF78CFF93
:1040F00003210A480A4B2162A1844FF01C11C4E934
:10410000010142F21072236000214FF4C873C4E928
:104110000632E160A2826382204610BD680004017D
:1041200044550208438A591A09B2002941821FDC0A
:1041300082888389C1891A44C38812B20B441BB296
:1041400081698280002AC380418207DA002282804E
:10415000002B07DA0023C38001207047D02AF7DD47
:10416000D022F4E7B3F5907FF6DD4FF49073F2E7D9
:1041700000207047838A591A09B20029D8BFC36941
:104180008182DABF8382012000207047838C19442A
:104190008184704781817047C18170472DE9F04764
:1041A000DFF890A0224CDAF80030DFF88C80DFF8DE
:1041B0008C901B1A0546CAF800301426B4F910304A
:1041C000032B09D029462046FFF7DEFE013E04F10D
:1041D0002004F3D1BDE8F087DAF80030002BF5DCDD
:1041E000D8F8003003F00102002A4FF6E0714FF6D4
:1041F000FF770CBFF0210127032B94BF19F8032090
:104200000022022BD4BF013300232046C8F800301F
:10421000FFF706FF002239462046FFF704FF022180
:104220002046FFF7FBFE42F21073CAF80030CDE7DC
:10423000F822002018000020F42200205055020827
:104240002DE9F843014606461348144CDFF8508028
:10425000DFF85090FFF78EFF04F58C770546B4F930
:104260001030032B08D031462046FFF735FE1C34B2
:10427000BC42F4D1BDE8F88365B1B8F80020B9F8C4
:104280000010103A204692B2FFF7CAFE02212046E3
:10429000FFF7C4FE0025EAE7B027002090260020A3
:1042A000F0220020F22200202DE9F0411E4C0546AC
:1042B00000274FF01C08B4F91030012B10D129460B
:1042C0002046FFF78AFE58B1184A00231646B2F975
:1042D0001010032919D001330A2B02F11C02F6D168
:1042E0000137142F04F12004E5D1104C0A26B4F94B
:1042F0001030012B03D129462046FFF7EDFD013E8A
:1043000004F11C04F3D1BDE8F081E288A18808FB28
:1043100003661032304692B2FFF782FE0221304629
:10432000FFF77CFEDCE700BFF822002078250020A4
:104330002DE9F74FDFF8D8B100246E4B4FF6CE725F
:10434000E61811463046FFF76BFE04EB0B054FF6FF
:10435000CE7211462846FFF763FE4FF6FB7200212E
:104360003046FFF760FE052200212846FFF75BFE7E
:1043700003213046FFF752FE1C3403212846FFF785
:104380004DFEB4F58C7FD8D1DFF8888100254446F6
:104390004FF6CE7211462046FFF742FE0135204609
:1043A0000321FFF73BFE142D04F12004F0D1524FFE
:1043B0000026524B1B780136002B40F09880022ECD
:1043C0004F4C14BF18461E464E4BA2891A804E4BC6
:1043D000E2891A8008BF01203870FFF7DFFE3978C4
:1043E00004F10800FFF79EFE3878FFF729FF3878C0
:1043F000FFF75AFF45464FF0000904F1080AB5F9E6
:104400001030012B60D151462846FFF70FFE0028DF
:104410005AD03E484FF0FF31FFF7B8FE042128463E
:10442000FFF7FCFD39484FF482726821FFF7F8FD71
:1044300045464FF01409B5F91030012B1AD1DFF8B9
:10444000B4A00A22BAF91010012945D151462846D4
:104450000192FFF7EBFD019A00283DD00421284688
:10446000FFF7DCFD04215046FFF7D8FD2448052165
:10447000FFF70CFEB9F1010905F12005DBD1234955
:104480005D464FF00A09B5F91030012B29D12846B5
:10449000FFF7CCFD1D4920B31C484FF0FF31FFF75B
:1044A00075FE04212846FFF7B9FD18484FF48272C3
:1044B0006821FFF7B5FDB4F92C30002B3FF779AF39
:1044C0000E4A0123137074E709F10109B9F1140FC1
:1044D00005F1200593D1ABE7013A0AF11C0AB1D1ED
:1044E000C8E7B9F1010905F11C05CCD1E3E703B038
:1044F000BDE8F08F90260020EC220020EE22002064
:10450000A8270020F2220020F0220020B02700205F
:1045100078250020F822002038B50F480F4DFFF70E
:10452000A7FD002428191C34FFF7C0FCB4F58C7FCC
:10453000F8D10B4D002428191C34FFF7B7FCB4F553
:104540008C7FF8D1074D002428192034FFF702FD95
:10455000B4F5207FF8D138BDA82700209026002090
:1045600078250020F8220020164838B51524013C93
:10457000A0F1200512D114480B24013CA0F11C0528
:1045800014D112480B24013CA0F11C0515D0D0F821
:10459000FC30FC305B6898472846F4E7D5F8803259
:1045A00000F518705B6898472846E0E7D5F81831A1
:1045B000FC305B6898472846DFE7BDE83840044890
:1045C000FFF768BDF8220020782500209026002003
:1045D000A8270020F02070474FF4A07070472920D2
:1045E000FDF7BCBB2820FDF7B9BB08B5FDF78AFB7A
:1045F000CA20FDF7B3FBC320FDF794FB0820FDF7AD
:1046000091FB5020FDF78EFBCF20FDF7A7FB00208C
:10461000FDF788FBC120FDF785FB3020FDF782FB0D
:10462000ED20FDF79BFB6420FDF77CFB0320FDF7ED
:1046300079FB1220FDF776FB8120FDF773FBE82064
:10464000FDF78CFB8520FDF76DFB0020FDF76AFB75
:104650007820FDF767FBCB20FDF780FB3920FDF7C5
:1046600061FB2C20FDF75EFB0020FDF75BFB342097
:10467000FDF758FB0220FDF755FBF720FDF76EFB19
:104680002020FDF74FFBEA20FDF768FB0020FDF737
:1046900049FB0020FDF746FBB120FDF75FFB002042
:1046A000FDF740FB1B20FDF73DFBB620FDF756FB59
:1046B0000A20FDF737FBA220FDF734FBC020FDF7F1
:1046C0004DFB1020FDF72EFBC120FDF747FB10200E
:1046D000FDF728FBC520FDF741FB4520FDF722FB38
:1046E0001520FDF71FFBC720FDF738FB9020FDF7D5
:1046F00019FB3620FDF732FBC820FDF713FBF22033
:10470000FDF72CFB0020FDF70DFBB020FDF726FB8D
:10471000C220FDF707FBB620FDF720FB0A20FDF7BE
:1047200001FBA720FDF7FEFA2720FDF7FBFA042086
:10473000FDF7F8FA2A20FDF711FB0020FDF7F2FA49
:104740000020FDF7EFFA0020FDF7ECFAEF20FDF76F
:10475000E9FA2B20FDF702FB0020FDF7E3FA002029
:10476000FDF7E0FA0120FDF7DDFA3F20FDF7DAFA68
:10477000F620FDF7F3FA0120FDF7D4FA0020FDF74B
:10478000D1FA0620FDF7CEFA2C20FDF7E7FAC82073
:10479000FDF732FB2620FDF7E1FA0120FDF7C2FA12
:1047A000E020FDF7DBFA0F20FDF7BCFA2920FDF72A
:1047B000B9FA2420FDF7B6FA0C20FDF7B3FA0E2063
:1047C000FDF7B0FA0920FDF7ADFA4E20FDF7AAFA81
:1047D0007820FDF7A7FA3C20FDF7A4FA0920FDF7A1
:1047E000A1FA1320FDF79EFA0520FDF79BFA17208A
:1047F000FDF798FA1120FDF795FA0020FDF792FADF
:10480000E120FDF7ABFA0020FDF78CFA1620FDF74A
:1048100089FA1B20FDF786FA0420FDF783FA1120A0
:10482000FDF780FA0720FDF77DFA3120FDF77AFACF
:104830003320FDF777FA4220FDF774FA0520FDF7E3
:1048400071FA0C20FDF76EFA0A20FDF76BFA2820AA
:10485000FDF768FA2F20FDF765FA0F20FDF762FAE1
:104860001120FDF77BFAC820FDF7C6FA2920FDF7D5
:1048700075FABDE808402C20FDF770BA08B5FDF7C1
:1048800041FA0321D320FDF785FA80B208BD10B5A7
:10489000C4B2022203212046FDF7EAF90A20FDF7FF
:1048A0002FFA204600220321FDF7E2F9BDE810406F
:1048B0000220FDF725BA38B50446E4B2FDF7D6F973
:1048C00000212046FDF7ECF9012105462046FDF7C1
:1048D000E7F940EA052080B238BD10B5C4B24021E6
:1048E0002046FDF7DDF9030607D54C212046FDF7EC
:1048F000D7F9003818BF012010BD01224B212046F6
:10490000FDF7B6F9204600224B21FDF7B1F9002052
:10491000F2E773B50423C4B20E461546D7210DEB5A
:1049200003022046FDF7D6F9019B1BBA1A0DC3F30B
:104930000B23328020462B8001224B21FDF798F972
:1049400000224B212046FDF793F902B070BD000014
:1049500010B50A4A1378984204460DD0517888421F
:104960000AD00BB141B90123D454FDF77FF9204699
:10497000BDE81040FFF78BBF10BD00BFD827002057
:1049800010B5C4B209212046FDF78AF940F00102B2
:10499000D2B220460921BDE81040FDF769B910B533
:1049A000C4B209212046FDF77BF9092100F0FE027F
:1049B0002046BDE81040FDF75BB938B5C4B20D46DE
:1049C00020460A21FDF76CF940EA0502D2B22046E2
:1049D0000A21BDE83840FDF74BB910B50446FDF794
:1049E00046F920461F21FFF7E8FF2046BDE81040AA
:1049F000FFF7C6BF38B5C4B20D4620460A21FDF701
:104A00004FF920EA0502D2B220460A21BDE838401B
:104A1000FDF72EB910B50446FFF7C1FF20461F2150
:104A2000BDE81040FFF7E6BF10B5C0B20C460B2141
:104A3000FDF736F9204010BD1F21FFF7F5BF0A46EC
:104A4000C0B20B21FDF714B91F21FFF7F8BF38B52D
:104A5000C4B20D4620461721FDF722F920EA0502CF
:104A6000D2B220461721BDE83840FDF701B970B534
:104A7000C4B2064604212046FDF712F9042100F0D5
:104A8000FB0205462046FDF7F3F83046F021FFF71C
:104A9000DEFF05F0F80220460421FDF7E9F849227F
:104AA00020212046FDF7E4F80220FDF729F92046F1
:104AB00001222121FDF7DCF820469A224121FDF751
:104AC000D7F8204601224A21FDF7D2F820460122DC
:104AD0004B21FDF7CDF8204600224B21FDF7C8F809
:104AE000204601225621FDF7C3F820460122582115
:104AF000FDF7BEF8204601224021FDF7B9F8204617
:104B0000FF220B21FDF7B4F8BDE870400220FDF74D
:104B1000F7B80000054BD3F8882042F47002C3F8C0
:104B200088204FF000629A60704700BF00ED00E0FF
:104B300008B50B4B1A6842F400721A601A6842F406
:104B400080621A601A6842F480721A60032000F0D2
:104B50002FF80020FDF792FBFDF75CF9002008BD5F
:104B6000003C0240034A044B11681B780B4413605D
:104B7000704700BFDC27002080000020014B186830
:104B8000704700BFDC27002038B50446FFF7F6FF6A
:104B9000631C1CBF054B1B78054618BFE418FFF7C4
:104BA000EDFF431BA342FAD338BD00BF80000020B5
:104BB0000749CA6822F4E0620302120403F4E063C6
:104BC000120C134343F0BF6343F40033CB607047D0
:104BD00000ED00E0164B30B5DC68C4F30224C4F1EC
:104BE0000703251D042B28BF0423062D4FF0FF3596
:104BF0008CBF033C002405FA03F321EA0303A5401C
:104C000022EA0502A340002843EA0203ACBF00F1F8
:104C10006040084A4FEA0313B8BF00F00F00DBB250
:104C2000AABF00F56140135480F8003330BD00BFC7
:104C300000ED00E014ED00E0002807DB044A410924
:104C4000012300F01F00834042F82130704700BF6D
:104C500000E100E010B5044650B1437903F0FF02D3
:104C600013B90271FDF7F6F801236371002010BD3E
:104C70000120FCE710B5044620B390F8393003F06A
:104C8000FF021BB980F83820FDF7FCF8022384F8F6
:104C90003930236861681A6822F440320A431A6086
:104CA0005A6BA16822F007020A435A631A6CE16842
:104CB0006FF30D020A431A6400200123E06384F8B5
:104CC000393010BD0120FCE770477047036870B5AC
:104CD0005E681D68F207044614D5E90512D51A6806
:104CE00022F480721A60C26B42F00102C263012298
:104CF0009A60042380F83930002380F83830436903
:104D000003B19847B20616D5AB0414D523681A68C8
:104D100022F400521A6020229A60E36B43F00203EF
:104D2000E363042384F83930002384F8383063695E
:104D30000BB120469847300716D5290514D52368AE
:104D40001A6822F400621A6008229A60E36B43F04A
:104D50000403E363042384F83930002384F83830F3
:104D600063690BB12046984772070BD56B0509D5CF
:104D700023681A6822F480621A6004229A6020462E
:104D8000FFF7A2FFB00714D5A90512D523681A684A
:104D900022F400721A6002229A60E36BE36301233B
:104DA00084F83930002384F8383023690BB1204669
:104DB0009847F20613D5EB0411D523681A6822F43C
:104DC00080521A6010229A60E36BE363012384F837
:104DD0003930002384F838302046FFF776FF70BD65
:104DE000F0B590F83820012A03464FF002002BD08E
:104DF000012283F8382083F8390003EB0112D2E94D
:104E00000740556A174F44EA0040093C012C9CBFFB
:104E100005F07F4210434FEA01161A6888BF40EA46
:104E2000056091B9516A394001435162012C996979
:104E3000916103D8596A21F07F41916201220020DB
:104E400083F8392083F83800F0BDD1693940014337
:104E5000D1619919012C896911619CBF25F07F45A9
:104E60001562EBE7F0FFFC002DE9F74FDFF8BC918E
:104E70006C4A00230D6801249C4004EA0506AC43FB
:104E800040F0B7804D68032705F003044FEA43085C
:104E900007FA08FC671E012F6FEA0C0C34D88768EC
:104EA00007EA0C0ECF6807FA08F747EA0E07876093
:104EB000476827EA060EC5F300179F4047EA0E072A
:104EC0004760C76807EA0C0E8F6807FA08F747EAD9
:104ED0000E07022CC76019D14FEAD30A00EB8A0AE9
:104EE00003F0070BDAF820704FEA8B0B4FF00F0E30
:104EF0000EFA0BFE27EA0E0E0F6907FA0BF747EAC8
:104F00000E07CAF8207001E0032CDAD1076804FA12
:104F100008F407EA0C073C4315F4403F046068D0EE
:104F200000240194D9F8444044F48044C9F8444032
:104F3000D9F8444023F0030707F1804704F4804484
:104F400007F59C37019403F0030C019CD7F808E0A7
:104F50004FEA8C0C0F2404FA0CF42EEA040E324CA7
:104F6000A0424DD004F58064A0424BD004F580648B
:104F7000A04249D004F58064A04247D004F5806483
:104F8000A04245D004F58064A04243D004F580647B
:104F9000A04241D004F58064A0423FD004F5806473
:104FA000A0423DD004F58064A04214BF0A24092425
:104FB00004FA0CF444EA0E04BC609468F74315F458
:104FC000801F0CBF3C4034439460D46815F4001F2C
:104FD0000CBF3C403443D460546815F4003F0CBF10
:104FE0003C40344354601468ED0354BF3C403443A8
:104FF00014600133102B7FF43DAF03B0BDE8F08F98
:105000000024D5E70124D3E70224D1E70324CFE726
:105010000424CDE70524CBE70624C9E70724C7E726
:105020000824C5E7003C014000000240003802406F
:105030000369194214BF0120002070470AB1816141
:1050400070470904FBE7436901EA030221EA03010F
:1050500041EA02418161704701684B6913F4806342
:105060004FF0000210D06FF480634B612023026385
:1050700080F83D3080F83E20036C80F83C2043F0FF
:105080000403036401207047184670472DE9F84671
:1050900006460F4691461D464FEA114A3368BAF15B
:1050A000010F0CBF5C699C6927EA0404A4B2B4FA3E
:1050B00084F46409A14501D0002025E06A1CEED0EB
:1050C000FFF75CFD089BC01AA84201D8002DE5D16E
:1050D0003368BAF1010F0CBF5B699B6927EA0303D0
:1050E0009BB2B3FA83F35B099945D7D10023202201
:1050F000336386F83D2086F83E30326C86F83C30CB
:1051000042F0200232640120BDE8F8862DE9F0412A
:1051100004460F46164698462568686927EA000047
:1051200080B2C0B16B695A0517D52B6843F4007380
:105130002B606FF480636B6120220023236384F86B
:105140003D2084F83E30236C43F0040323640023A5
:1051500084F83C300120BDE8F081731CDDD0FFF7FE
:105160000DFDA0EB0800B04201D8002ED4D1236879
:105170005A6927EA020292B2002ACDD000232022E7
:10518000236384F83D2084F83E30236C1343DDE72D
:1051900070B504460D46164623685B691B0601D5AB
:1051A00000201EE02046FFF757FFC8B96A1CF3D065
:1051B000FFF7E4FC801BA84201D8002DECD1236846
:1051C0005B6913F08003E7D12022236384F83D203C
:1051D00084F83E30226C84F83C3042F02002226495
:1051E000012070BD2DE9F0431546026885B0DDE968
:1051F0000C789946136843F4807313600E463B465F
:10520000CDF8008000224FF001110446FFF73EFF69
:10521000236838B11B68DB0502D54FF400732364A3
:10522000032620E006F0FE061E611A4943463A4670
:105230002046FFF76BFFA8B9236803905A690392D1
:105240009B690393424639462046039BFFF7A0FF24
:10525000064660B1236C042B01BF2268136843F437
:10526000007313600126304605B0BDE8F083B9F144
:10527000010F236802D1EDB21D61F4E72A0A1A6119
:10528000394642462046FFF783FF0028E2D12368D3
:10529000F1E700BF020001002DE9FF479A460368CD
:1052A00015461A6842F480621A601A68DDE90C78C3
:1052B00042F480721A600E463B46CDF80080002210
:1052C0004FF001110446FFF7E1FE236838B11B6877
:1052D000DB0544BF4FF400732364032021E05FFA31
:1052E00086F906F0FE061E612B4943463A462046E3
:1052F000FFF70CFFA0B9236803905A6903929B69DA
:105300000393424639462046039BFFF741FF58B1BD
:10531000236C042B01BF2268136843F400731360ED
:10532000012004B0BDE8F087BAF1010F23681AD15B
:10533000EDB242461D6139462046FFF729FF02467D
:105340000028E5D121680B6843F480730B60204688
:10535000CDF800803B464FF00111FFF797FE226821
:1053600060B11368B4E72A0A1A61394642462046FA
:10537000FFF70EFF0028CBD12368D9E749F00103DE
:105380001361054943463A462046FFF7BFFE003801
:1053900018BF0120C5E700BF0200010070B5044638
:1053A0000D46164623685B695B0701D500201EE0A9
:1053B0002046FFF751FEC8B96A1CF3D0FFF7DEFBA9
:1053C000801BA84201D8002DECD123685B6913F043
:1053D0000403E7D12022236384F83D2084F83E3083
:1053E000226C84F83C3042F020022264012070BD1F
:1053F00070B504460D46164621684B6913F040030C
:1054000001D0002011E04A69D2060FD56FF01002DA
:105410004A612022236384F83D2084F83E30236CC7
:105420002364002384F83C30012070BDFFF7A6FB05
:10543000801BA84201D8002DDED123685B6913F0E0
:105440004003D9D12022236384F83D2084F83E30E4
:10545000236C1343E4E7000070B5044608B901204B
:1054600070BD90F83D3003F0FF021BB980F83C207E
:10547000FCF72AFD242384F83D3023681A6822F0C3
:1054800001021A601A6842F400421A601A6822F493
:1054900000421A6000F08AFE3F4B65689D4294BF4F
:1054A0003E4B3F4B98428CBF00230123002BD6D1AB
:1054B0002268394E51683B4BB0FBF3F321F03F01BA
:1054C0001943B542516088BF4FF49676116A88BF80
:1054D000734321F03F0184BF4FF47A76B3FBF6F3B8
:1054E00001330B431362D169431E2B4821F44F4112
:1054F000854221F0FF0132D86D0040F6FC70B3FB0D
:10550000F5F30133034242D0C3F30B031943D161D6
:10551000D4E907301168034321F0C0010B43136045
:105520009168D4E9030321F40341034321F0FF010F
:105530000B439360D4E90530D168034321F0FF01A8
:105540000B43D360136843F0010313600020202352
:10555000206484F83D30206384F83E0080E7A06832
:1055600050B905EB4505B3FBF5F30133C3F30B036A
:105570007BB143F40043C9E719206843B3FBF0F360
:105580000133C3F30B0323B143F44043BEE70423C9
:10559000BCE70123BAE700BFA08601007F841E009C
:1055A000FF083D0040420F002DE9F74304469946AD
:1055B0000C9E0F469046FFF7E1FA94F83D30202B01
:1055C000054603D0022003B0BDE8F08300903C49BB
:1055D000192301222046FFF759FD0028F2D194F843
:1055E0003C30012BEED02068012384F83C30036866
:1055F000D9075EBF036843F001030360036823F427
:1056000000630360212384F83D30402384F83E305A
:10561000002323640A9B6362BDF82C306385638D8D
:105620002385284BE3624246CDE900654B46394667
:105630002046FFF7D7FD00282AD00120C3E7FFF757
:10564000A7FD40B1236C042B01BF2268136843F40B
:1056500000731360F1E7636A27681A4612F8011BAA
:1056600039616262628D218D013A92B262857A69F6
:10567000481E80B2520720850AD548B15A783A614F
:1056800002336362638D013B02399BB221856385DE
:10569000238D2A4631462046002BD0D1FFF77EFECF
:1056A0000028CFD12268136843F4007313602023CD
:1056B00084F83D3084F83C0084F83E0083E700BF66
:1056C000020010000000FFFF2DE9F043044687B000
:1056D0009946109F0D469046FFF750FA94F83D30DA
:1056E000202B064604D00225284607B0BDE8F083EB
:1056F00000907A49192301222046FFF7C7FC0028B1
:10570000F1D194F83C30012BEDD02068012384F8CE
:105710003C300368DB075EBF036843F001030360AE
:10572000036823F400630360222384F83D304023A0
:1057300084F83E30002323640E9B6362BDF83C3046
:105740006385638D2385664BE3622946CDE9007648
:105750004B4642462046FFF79FFD054608B101250E
:10576000C2E7228D2368B2B902905A6902929A69FF
:105770000292029A1A6842F400721A60DFF8648199
:10578000238D002B2CD1202284F83D2084F83C303E
:1057900084F83E30A8E7012A0AD11A6822F4806210
:1057A0001A6003905A6903929A690392039AE1E797
:1057B000022A0ED11A6822F480621A601A6842F432
:1057C00000621A6004905A6904929B690493049BD6
:1057D000D4E705905A6905929B690593059BCDE72F
:1057E000032B56D8012B15D1324639462046FFF7F8
:1057F000FFFD0028B3D123681A69636A1A70636ACF
:1058000001336362238D013B2385638D013B9BB292
:105810006385B5E7022B00963B464FF000024146F8
:10582000204619D1FFF732FC002898D123681A6866
:1058300042F400721A601A69636A1A70626A531C31
:105840006362238D013B2385638D013B9BB263859E
:1058500023681B695370D2E7FFF718FC0246002843
:105860007FF47DAF2368196821F48061196019699C
:10587000636A1970636A01336362238D013B238578
:10588000638D013B9BB26385414600963B462046B3
:10589000C8E7324639462046FFF7AAFD00287FF4C4
:1058A0005EAF23681A69636A1A70628D616A013A91
:1058B00092B24B1C628522686362238D5069013B62
:1058C0009BB2400723857FF55BAF032B02BF1368B4
:1058D00023F48063136013694B7090E7020010009B
:1058E0000000FFFF0400010010B590F83D30202BB0
:1058F000DCB216D1242380F83D3003681A6822F008
:1059000001021A605A6A22F010025A625A6A11435E
:1059100059621A6842F001021A6080F83D40002086
:1059200010BD0220FCE730B590F83D30202BDCB2F2
:1059300016D10268242380F83D30136823F0010358
:105940001360556A4FF6F0732B400B439BB25362C2
:10595000136843F00103136080F83D40002030BD20
:105960000220FCE70068D20184328318F0B5C768D2
:105970005D684C680E6805F470455D60C56806F1A9
:10598000010CC5F30B45C7F30B472744654445EAB3
:1059900007455D60C768CD68C7F30A072F449D6857
:1059A00005F470459D60D0F80CC08D68CCF30A0CEE
:1059B0000135654445EA07459D601D69D1F810C071
:1059C0008F6925F007051D61C3F810C091F83050AC
:1059D00045EA076591F8317045EA072591F832707C
:1059E00045EA07459D615D6925F0FF055D614D69EB
:1059F0005D61DD6925F4E06525F00705DD61D1E92C
:105A000007573D43DD61BCF1070F4D6A9D629CBFA6
:105A10000D4D15F80C70DD6A05F0E025DD6288BFDC
:105A200001278D6AC96AA41B7C437D43033444EA81
:105A30000544DC621C6B6FF30A041C631963835812
:105A400043F001038350F0BD6C55020838B504469D
:105A500000284ED090F8A13003F0FF021BB980F867
:105A6000A020FCF78DFA022384F8A13023689A69FC
:105A700022F070429A61D4E901200243E0689969FA
:105A80000243206902430A439A61D4E9051242EABB
:105A900001429A60D4E9071242EA0142DA60D4E98D
:105AA000091242EA01421A61D4E90B1242EA0142A8
:105AB0005A61DA6A94F8350094F8361002F07F42A1
:105AC000DA62DD6A94F834202A4342EA002242EA8C
:105AD0000142DA625A6B42F006025A639A6942F056
