:020000040800F2
:10000000000003205D060008F1230008F323000828
:10001000F5230008F7230008F9230008000000007A
:10002000000000000000000000000000617A0008ED
:10003000FB23000800000000F17A00081573000897
:10004000AD060008AD060008AD060008AD060008C4
:10005000AD060008AD060008AD060008AD060008B4
:10006000AD060008AD060008AD060008AD060008A4
:10007000AD060008AD060008AD060008AD06000894
:10008000AD060008AD060008AD060008AD06000884
:10009000AD060008AD060008AD060008AD06000874
:1000A000AD060008AD060008AD060008AD06000864
:1000B000AD060008AD060008AD060008AD06000854
:1000C000AD060008AD060008AD060008AD06000844
:1000D000AD060008AD060008AD060008AD06000834
:1000E000AD060008AD060008AD060008AD06000824
:1000F000AD060008AD060008AD060008AD06000814
:10010000AD060008AD060008AD060008AD06000803
:10011000AD060008AD060008FD230008AD06000886
:10012000AD060008AD060008AD060008AD060008E3
:10013000AD060008AD060008AD060008AD060008D3
:10014000AD060008AD060008AD060008AD060008C3
:10015000AD060008AD060008AD060008AD060008B3
:10016000AD060008AD060008AD060008AD060008A3
:10017000AD060008AD060008AD060008000000004E
:10018000AD060008AD060008AD060008AD06000883
:10019000AD060008AD060008AD060008AD06000873
:0C01A00009240008AD0600081524000822
:1001B00010B5054C237833B9044B13B10448AFF3A1
:1001C00000800123237010BD800300200000000088
:1001D000C441020808B5034B1BB103490348AFF300
:1001E000008008BD0000000084030020C441020814
:1001F00001F0FF01102A2BDB10F0070F08D010F8D8
:10020000013B013A8B422DD010F0070F42B3F6D1DB
:10021000F0B441EA012141EA014122F007047FF0F4
:1002200000070023F0E80256083C85EA010586EA4B
:10023000010685FA47F5A3FA87F586FA47F6A5FA87
:1002400087F68EB9EED1F0BC01F0FF0102F0070293
:1002500032B110F8013B013A83EA010313B1F8D13E
:100260000020704701387047002D06BF354603381F
:10027000073815F0010F07D1013015F4807F02BF58
:10028000013015F4C03F0130F0BC0138704700BFA9
:100290007BB972B90029BEBF00204FF0004106E0D3
:1002A00008BF00281CBF6FF000414FF0FF3000F086
:1002B000D3B9ADF1080C6DE904CE002909DB002BA0
:1002C0001ADB00F04DF8DDF804E0DDE9022304B0AC
:1002D0007047404261EB4101002B1BDB00F040F80E
:1002E000DDF804E0DDE9022304B0404261EB4101A6
:1002F000524263EB43037047524263EB430300F007
:100300002FF8DDF804E0DDE9022304B0404261EBA0
:1003100041017047524263EB430300F021F8DDF8DE
:1003200004E0DDE9022304B0524263EB430370476B
:1003300053B94AB9002908BF00281CBF4FF0FF314C
:100340004FF0FF3000F088B9ADF1080C6DE904CE34
:1003500000F006F8DDF804E0DDE9022304B07047A0
:100360002DE9F047089D8E4604468846002B4AD169
:100370008A42174662D9B2FA82F64EB1C6F120031C
:1003800001FA06F820FA03F3B74043EA0808B4403C
:100390004FEA174E1FFA87FCB8FBFEF1230C0EFB49
:1003A000118843EA084301FB0CF29A4209D9FB1871
:1003B00001F1FF3080F0EA809A4240F2E780023992
:1003C0003B449A1AA3B2B2FBFEF00EFB102243EAA2
:1003D000024300FB0CFC9C4509D9FB1800F1FF32DD
:1003E00080F0D6809C4540F2D3803B44023840EAFE
:1003F0000140A3EB0C0300211DB1F3400022C5E92D
:100400000032BDE8F0878B4205D90DB1C5E9000186
:1004100000210846F5E7B3FA83F1002946D1734578
:1004200002D3824200F20581841A6EEB030201209E
:100430009046002DE5D0C5E90048E2E7002A00F02B
:100440009080B2FA82F6002E40F0A4808A1A030C43
:100450004FEA174E80B2BCB20121B2FBFEFC0EFB8C
:100460001C2243EA024304FB0CF29A4207D9FB1810
:100470000CF1FF3802D29A4200F2E080C4469B1A87
:10048000B3FBFEF20EFB123340EA034302FB04F41B
:100490009C4207D9FB1802F1FF3002D29C4200F2C5
:1004A000CA8002461B1B42EA0C40A5E7C1F12006A8
:1004B0008B4022FA06F71F430EFA01F420FA06F3E6
:1004C0002EFA06FE4FEA1749234300FA01F81FFAF5
:1004D00087FCBEFBF9F01C0C09FB10EE44EA0E444D
:1004E00000FB0CFEA64502FA01F209D93C1900F105
:1004F000FF3A80F09C80A64540F2998002383C4447
:10050000A4EB0E041FFA83FEB4FBF9F309FB1344BA
:100510004EEA044403FB0CFCA44508D93C1903F142
:10052000FF3E80F08280A4457FD9023B3C4443EAF1
:100530000040A4EB0C04A0FB02EC64457346E146CA
:1005400062D35FD05DB1B8EB030264EB090404FA37
:1005500006F622FA01F31E43CC40C5E900640021EF
:100560004FE7B1FBF2FC010C41EA0E4180B240EAD8
:1005700001423B4638463C46B846BE462026B1FBC3
:10058000F7F1A2EB080241EA0C4166E7014618E7E1
:1005900010462CE7C6F120022EFA02F3B740B14014
:1005A00020FA02F24FEA174E0A43B3FBFEF8BCB240
:1005B0000EFB1833110C41EA034108FB04F9B0406B
:1005C00089454FEA104380B23ED9791808F1FF3CC3
:1005D00001D289451FD8A1EB0901B1FBFEF909FB46
:1005E00004F80EFB191192B242EA0142424529D2A7
:1005F000BA1809F1FF31C4D24245C2D2A9F10201B1
:100600003A44BEE7F0459DD2BEEB02036CEB070C0B
:100610000138E14696E7A7EB09094944A8F1020C25
:10062000B1FBFEF909FB04F8DBE773467FE75046B0
:1006300066E70846FDE63B44023A33E7ACF1020CBC
:100640003B441CE749469CE7A1EB0901C446B1FBCA
:10065000FEF909FB04F8C4E7704700BFDFF834D0A7
:10066000002103E00C4B5B58435004310B480C4B0A
:1006700042189A42F6D30B4A02E0002342F8043BA8
:10068000094B9A42F9D304F0A5FA23F02DF801F0B2
:10069000C1F870470000032084B005080000002066
:1006A0006C01002080030020C8420120FEE7704753
:1006B00008B500F0B9FDBDE8084000F03DBD00F010
:1006C000B5BD704710B50421044621F021FE204637
:1006D00010BD000038B50C4B0C4C18800C4B822020
:1006E00019806368984740F6110398420AD1094D72
:1006F00023682C60822098472B688220DB6898470B
:10070000002038BD0120FCE7A60300205400002093
:10071000A4030020A80300204FF4A071F020FFF7ED
:10072000D9BF0000F7B5394D2B6804461B698220FC
:100730009847208000284ED02B680DF106025B6997
:1007400001A982209847324B1B78002B4BD0BDF873
:10075000062040F674639A423FD9ADF80630BDF8E2
:1007600006209B1A9BB20A2B42D90B22B3FBF2F351
:10077000284A1288934201D9013A93B2BDF8042065
:10078000254840F6B8318A4234D8C2F571620E323B
:10079000016892B20F25B2FBF5F2204D2D88AA42D6
:1007A00084BF05F1FF35AAB28A4215468EB22AD916
:1007B000921B91B21A4E3768BB42BAB28CBF9A1ADA
:1007C000D21A92B211440529C4BF05603360036890
:1007D00063803368A38003B0F0BDB32A9CBFB4220A
:1007E000ADF80620BBE7BDF80630A3F5B473B9E752
:1007F0000023C3E7C2F56D62083292B20E2A016887
:10080000C8D800252A46891A89B2D3E7A803002050
:10081000D81F0020A4030020A0030020A60300206E
:100820009C03002037B568460D461446FFF77AFF53
:10083000BDF8000030B1BDF802302B60BDF80430C7
:100840002360012003B030BD032821D8DFE800F089
:10085000020B12190F4B1A68B2FA82F252090421E4
:100860000D4804F091BD0B4B5A68B2FA82F252095E
:100870000821F5E7074B9A68B2FA82F25209102173
:10088000EEE7044BDA68B2FA82F252092021E7E778
:10089000704700BFAC03002000100240032821D89D
:1008A000DFE800F0020B12190F4B1A68003A18BF6C
:1008B000012204210D4804F067BD0B4B5A68003A31
:1008C00018BF01220821F5E7074B9A68003A18BFC4
:1008D00001221021EEE7044BDA68003A18BF01222A
:1008E0002021E7E7704700BFAC0300200010024062
:1008F00003280DD8DFE800F00206080A04210548A5
:1009000004F047BD0821FAE71021F8E72021F6E7B7
:10091000704700BF0010024008B5032811D8DFE877
:1009200000F0020A0C0E0421074804F027FD431EC4
:100930005842584108BD0821F6E71021F4E720216C
:10094000F2E70020F3E700BF0010024070B5084D49
:1009500000240126E0B2FFF7DFFF18B12B68012B5E
:1009600018BF2E600134052C05F10405F2D170BDCD
:10097000AC030020012380F8781080F879307047AC
:100980007047002070470000034B4164003918BFD6
:1009900001211970704700BF873501207047002082
:1009A0007047836B0BB10846184770474FF6FF70CE
:1009B0007047406803689B691847704770477047E5
:1009C0007047704710B5044600F046FD23680349A0
:1009D000D3F890302046BDE810401847000000D002
:1009E00008B503680446D3F8843098472368204646
:1009F000DB6F984700F0ECF8236820465B6F984760
:100A0000292001F0E3F900F0E3F8236820465B6F4A
:100A10009847F8E710B5044609F0D2FE236820464F
:100A2000D3F8BC30BDE81040184700F0F9BC00F026
:100A3000FDBC00F02FBD00F0CFBC00F03FBD00F0CA
:100A400047BD00F0D3BC09F0E9B810B584210446D5
:100A500021F05EFC204610BD10B590F8341090F8DF
:100A600078400C4B8C421A7809D03AB90A4A0B49A3
:100A70001488088810800C8001221A7010BD002A8A
:100A8000FCD0054A05491488088810800C80002293
:100A9000F3E700BF803501207C3501207E35012041
:100AA00070B50D46194635B9094B0A4A0A4840F255
:100AB000FF2122F069FBC0E90F52084B003A18BF32
:100AC00001221A700368BDE87040D3F890301847CF
:100AD000344202086C420208BA42020886350120FC
:100AE00008B5094B1B888B4203D8084B1B889342DF
:100AF00005D9074B074A0848A32122F045FB074BBD
:100B00001980074B1A8008BD7C3501207E350120F5
:100B1000FF42020862430208BA42020882350120FD
:100B200084350120034690F87A0018B158680368AC
:100B30001B68184770470000012108B500220846CD
:100B400006F08AFC0A4B186028B90A4B0A4A282189
:100B50000A4822F019FB00220421012006F024FD9E
:100B6000074B186018B9074B034A2C21F0E708BD62
:100B7000C0030020A5430208EE4302081D440208FA
:100B8000BC0300205F440208024B4FF0FF3118689D
:100B900006F0ACBCC0030020014B186806F0D2BCC4
:100BA000C0030020024B0021186806F09FBC00BF64
:100BB000C0030020FFF7F0BF03480449006800238A
:100BC0001A4606F02CBD00BFBC0300200400002024
:100BD00013B5084C00231A4601A9206806F050FD01
:100BE00020684FF0FF33002201A906F049FD02B052
:100BF00010BD00BFBC03002003685B6C18470120D8
:100C0000704703689B6A1847FEE740F2EF30704771
:100C1000054B0360054B4FF08062C3F88820BFF39B
:100C20004F8FBFF36F8F70478C50020800E100E0D8
:100C300010B504464FF45A61FFF7EAFF204621F051
:100C400067FB204610BD000082B0002301930E4BCD
:100C50001A6B42F400021A631A6B02F4000201924A
:100C6000019A1A6942F400021A611A6922F4000218
:100C70001A61064B064A1A61064A5A61064B4FF042
:100C800080629A6002B07047003802406C210020F8
:100C9000E90E0008090C000800E100E008B50A2888
:100CA00009D8DFE800F006100E0808080810101038
:100CB0001000022008BD054B054A0648902122F08D
:100CC00063FA0020F6E70120F4E700BFA144020820
:100CD000BC4402080745020838B50C46887FFFF778
:100CE000DDFFA58AE28A164B2169586342EA054274
:100CF0005A64628BD963521B1A642568082D0ED181
:100D00009A611A615862207F0E4A42EA0062DA61F3
:100D1000E2681A620C4A5961D9601A6038BD002233
:100D2000D8611A61E1680A0A480902F4784200F4BD
:100D3000FC600243C1F3C4010A439A63034AECE72F
:100D400000B002400900010001230200012303005A
:100D500008B50B280BD8DFE800F00612100A0A0AC3
:100D60000A0808080808022008BD0520FCE7054B12
:100D7000054A06486F2122F007FA0020F4E7012017
:100D8000F2E700BFA14402084745020807450208F0
:100D90002DE9F04191F81D800C464046FFF7D8FF41
:100DA000A77F05463846FFF7D3FF06463846FFF7CC
:100DB00075FFA18A628B444B521A1A649A61228B86
:100DC000521A1A61E28A586342EA01425A6421695E
:100DD0006268D963DA602068802828D0227F0FD823
:100DE000202867D0402865D004281AD0364B45EA21
:100DF000026545F40035B845DD6161D0334A44E011
:100E0000B0F5807F04D0B0F5007FEFD1304800E02E
:100E1000304840EA0262DA61E2681A625E62596151
:100E200032E045EA026242F40032DA61F6E7A06895
:100E3000021DDA62227F45EA026545F40035DD6174
:100E40005E625961017841B1012921D0224B234AC8
:100E500023484FF48D7122F097F9DA69418822F422
:100E60007F42013922F0100242EA0122DA610121B7
:100E7000154BDA6942F02002DA61DA699206FCD495
:100E800010229A600029B9D0164A1A60BDE8F08194
:100E9000B2F1FF01DA69408822F47F4200F1FF30AD
:100EA00022F0100242EA002242F0100218BF012193
:100EB000DA61DDE745EA0262034B42F40032B4E74F
:100EC00042F20132E1E700BF00B00240012301001D
:100ED000090002000A00020091450208AB45020821
:100EE0000745020801230200024B1B68586803688B
:100EF0005B6918478835012070B5044625460A4BC2
:100F00000C30002660602672667245F8203B602235
:100F1000294609F0ABFD04F55A63EE6024359D4285
:100F2000FBD1204670BD00BF8C500208034B1A68ED
:100F3000D207FCD423229A60704700BF00B0024061
:100F40007047000030B50F4C2568ED07FCD4232511
:100F50000904A56041F001010225FF2B656361646E
:100F6000E0630AD00849656241EA0363E361074B25
:100F700022626061E060236030BDE561039BA36392
:100F8000034BF8E700B00240090001000100020035
:100F90000100030030B50E4C2568ED07FCD4232575
:100FA0001204A56042F001020225FF2B6563626412
:100FB000E063E16008D01B0643F00213E361054BD8
:100FC00065626061236030BD034BE3610123F9E793
:100FD00000B0024001000200020002FF30B50B4CDD
:100FE0002568ED07FCD4232512041B06A56043F4F5
:100FF0000033022542F0010265636264E063E16050
:10100000E361034B65626061236030BD00B0024064
:1010100001000200012070474020704700EB811062
:101020000830704700EB811008307047012070478E
:1010300040F68820704740F6882303FB0100083003
:10104000704740F6882303FB0100083070470120F9
:1010500070471020704700EB01100830704700EB1C
:10106000011008307047084601F044BC10B5034B2E
:101070000360044608F029FB204610BD44510208D5
:1010800010B50446FFF7F2FF2046482121F040F951
:10109000204610BD10B5034B0360044608F015FB55
:1010A000204610BD1051020810B50446FFF7F2FFAC
:1010B00020464FF4296121F02BF9204610BD000095
:1010C00010B5034B0360044608F0FFFA204610BD3C
:1010D000DC50020810B50446FFF7F2FF2046182145
:1010E00021F016F9204610BD10B5084B03600446E8
:1010F00000F6BC20FFF7BAFF04F12C00FFF7CAFF8F
:1011000004F11400FFF7DCFF204610BD78510208FF
:1011100008B50248FFF7E8FF08BD00BF9C12002099
:1011200010B50446FFF7E0FF204640F6644121F089
:10113000EFF8204610BD00002DE9F34101F0E4F97D
:10114000054601F0E5F900240146234628462246DB
:10115000009412F02BF8274B274A1A60204602F021
:10116000E9FA264D264B274A27489A6011F086FF58
:101170002B68BFF35B8FDB0735D4284621F0CAF814
:1011800088B3224C224B236004F6083604F1140085
:1011900004F12C0804F6BC276060C4F80880E760FE
:1011A000266108F093FA1B4B6361404608F08EFA03
:1011B000194BE362384608F089FA184BC4F8BC3A78
:1011C00004F6043002F0BAFE224604F6043130463A
:1011D00002F02EFB304601F08DFB114821F0F2FFAA
:1011E000284621F0A3F80F4802B0BDE8F041FFF710
:1011F000E9BB00BFEC350120480400209812002014
:10120000680400204C040020080000209C120020EC
:1012100078510208DC5002081051020844510208BB
:1012200011110008C4030020704700000148FFF7B7
:10123000D7BB00BFC403002070B5264E264C274DF7
:10124000274B23603046FFF757FE284617F0B4F8C7
:1012500024480FF0A1FC244B2448DC6000224FF40A
:101260008071C3E9121222491A86C3E91A12214970
:1012700083F85820C3E91E011F49C3F880101F4995
:101280001F480B60F021C3E90422C3E90622C3E929
:101290000822C3E90A22C3E90E22C3E91022C3E9E6
:1012A0001422C3E917225A6683F870205A67C3E9EB
:1012B000016501801348018013484FF4A07101803B
:1012C0001248018012490A70012283F83420114A21
:1012D0001A6070BDF40400209412002068040020FD
:1012E000244202084C040020C40300200000010135
:1012F00001000001000450001A001400883501208C
:101300007C350120823501207E3501208435012085
:1013100080350120A04F02080148FFF779BC00BFCB
:10132000F40400200020704781807047C18070471E
:10133000018170474181704770477047704770471F
:10134000704710B4C4880368121B84885B6D091B46
:1013500012B25DF8044B09B218474FF6FF73838150
:101360004FF0FF3303621368C361106070470020C1
:1013700070478B88838001207047704780F8261063
:10138000704790F82600704710B50022B1F9084068
:10139000B1F90A10028042808480C18010BD002211
:1013A000028042808280C28070470177704780ED62
:1013B000080A704780F82410704780F8251070479D
:1013C00001207047983070478C30704784307047E8
:1013D0007047704770470000034B902283F85A23F0
:1013E00083F85823704700BF00E100E0094A0A492A
:1013F000D3680A48C3F30A03013B9BB20B8011690F
:10140000C1F30A01013901801364536B43F00103F6
:101410005363704700680140021F0020001F002036
:10142000014BD3F8AC00704700680140024B012229
:10143000C3F8AC105A6270470068014010B52C2107
:10144000044620F065FF204610BD10B5BC210446BF
:1014500020F05EFF204610BD70B5044608F033FC56
:1014600023689D6E0EF0E6F801462046A8472368E3
:10147000054AD3F88C502046AC460023BDE87040A6
:10148000A2F51631604700BF00B004D008F002BCDE
:1014900008F00CBC08F0C8BB08F037BD90F8252058
:1014A00012B103685B691847704790F825201AB19C
:1014B00090F8242002B1186070470000034B4FF0F1
:1014C00080629A604FF080729A60704700E100E09D
:1014D000084B4FF08062C3F88820BFF34F8FBFF3F3
:1014E0006F8F4FF08072C3F88820BFF34F8FBFF328
:1014F0006F8F704700E100E070B50023124E8380CB
:10150000124B0360336893F8582005460AB1D86C33
:1015100000B998680368DB6A98473368B0FA80F4CA
:10152000D86C640930B10368DB6A9847002808BFAB
:1015300044F001042CB9064B064A07482C2121F03F
:1015400023FE284670BD00BF883501208C5102085B
:10155000E9450208474602088046020870B5254E54
:101560003568BFF35B8F15F0010540D1304620F0A0
:10157000D1FE00283BD0204C204B256104F13400E3
:10158000C4E90035C4E90255E584A562A5850FF0DC
:10159000E8FD04F158000AF01FFF194BA36520462F
:1015A000184B40F8843BFFF7A7FF174BC4F8843073
:1015B0002433C4F88C304FF4C803C4E92835002321
:1015C000C4F8AC30C4F8B030C4F8B430C4F8B830A3
:1015D0000E480F4BC4F89050C4F89C50C4F8A85063
:1015E000C4F8983021F0EEFD304620F09FFE02480E
:1015F00070BD00BF041F0020081F00202C5A0208E5
:10160000AC51020824520208E0590208D513000820
:10161000C059020838B5184C23685BB3174B184AF9
:101620001B6C11888B4216D1164B198804F096FC5E
:10163000236893F86A200025013283F86A2083F832
:101640007C50FFF7B9FA206809F0BAF82846BDE8DF
:101650003840FFF7F9B804F081FC2468236820467D
:101660001B6A9847012384F87C300020BDE838408D
:10167000FFF714B938BD00BF88350120006801406C
:10168000021F0020001F002007B5064BADF8060022
:101690001B68054801220DF1060105F0FFF903B0B2
:1016A0005DF804FB0C000020182000202DE9F34118
:1016B0002D4FDFF8C08040F6B836012003F07EFBE6
:1016C0000546022003F07AFBB54204461BD952239B
:1016D0008DF80730D8F8000000231A460DF10701F5
:1016E00005F09DFFB44226D9204855238DF80730D8
:1016F000006800231A460DF1070105F090FF6420F1
:1017000005F09EFED9E7B5F57A7F08D24C238DF817
:101710000730002338681A460DF10701E0E74E2331
:101720008DF807300023D8F800001A460DF10701A4
:1017300005F075FFEDE7B4F57A7F0D4C08D2442330
:101740008DF80730002320681A460DF10701D4E711
:101750004E2306488DF8073000231A460DF1070185
:10176000006805F05CFFEDE7D01F0020CC1F0020D3
:10177000C81F0020D41F002030B595B010220021D2
:101780000AA821F008FF1422002103A821F003FF7A
:1017900000241E4B01941A6C42F080521A641B6C98
:1017A00003F080530193019B194B02941A6842F491
:1017B00040421A601B6803F4404302930122029BDB
:1017C0004FF48033CDE9082302254FF4800308212C
:1017D000CDE90E534FF4B473CDE9101308A80423D8
:1017E0001393129504F012FC04F0D6FB0F23CDE9FD
:1017F00003354FF4A0504FF48053CDE90603052183
:1018000003A8059404F0DEFD15B030BD0038024099
:10181000007000402DE980489BB003F0E9F9FFF724
:10182000ABFF142200210DA821F0B5FE0024C94B06
:1018300000941A6BC84842F010021A631A6B02F047
:1018400010020092009A01941A6B42F020021A636F
:101850001A6B02F020020192019A02941A6B42F074
:1018600080021A631A6B02F080020292029A0394B9
:101870001A6B42F004021A631A6B02F0040203921C
:10188000039A04941A6B42F001021A631A6B02F075
:1018900001020492049A05941A6B42F002021A6340
:1018A0001A6B02F002020592059A06941A6B42F036
:1018B00040021A631A6B02F040020692069A0794DD
:1018C0001A6B42F008021A631B6B03F008032246EE
:1018D00007933C21079B03F057FDA04801220221FA
:1018E00003F052FD22469D48042103F04DFD22469F
:1018F0009B484FF4405103F047FD01263C2303254C
:1019000095480F940DA90227CDE90D36109503F0E7
:1019100051FC92480DA9CDE90D764FF00408CDE9B0
:101920000F4403F047FC8D480DA9CDE90D86CDE9A4
:101930000F4703F03FFC4FF4405389480DA9CDE910
:101940000D36CDE90F4703F035FC85480F940DA9FE
:10195000CDE90D8503F02EFC0DA9062381480F94D7
:10196000CDE90D3503F026FC7F48804B804D0360A8
:1019700003F016FBDFF81CE27E4B2C62C5E900E3A6
:1019800028464FF48043C5E90434C5E90244C5E95B
:10199000064403F007FF1021284604F04BF9DFF856
:1019A000F88121462846744D04F063F94FF48273A0
:1019B000C5E900834FF400791823C5E9069328464A
:1019C0000A23C5E90244C5E90444C5E90844AC62F8
:1019D000EB6205F007F88F23224639465F488DF801
:1019E00024308DF8344003F0CFFC32464FF47A7344
:1019F00009A9284605F052F84FF47A7332460DA92A
:101A0000284605F0F7F93246394654485B4D03F055
:101A1000BBFC9DF83430D32B04BF594B1E70594B7F
:101A20000126C5E900364FF0100A40230024C5E91D
:101A300004A34FF4C073C5E906344FF40063C5E94D
:101A400008344FF400534FF002084FF00409AB6222
:101A50004FF0030B07230DA928460827CDE90D8376
:101A6000CDE90F93C5E90249CDE911B8CDF84C8015
:101A700004F09CFE4FF6FF7209A92846CDE90A76CC
:101A8000089409960C9404F0B1FE304603F0DCF89B
:101A90004FF6FF7209A92846CDE90987CDE90B6405
:101AA00004F0A4FE4FF6FF7209A92846CDE909B754
:101AB000CDE90B9404F09AFE4FF40C730893089B45
:101AC0000C934FF6FF7209A92846CDE909970B96AA
:101AD00004F08CFE40F26A51284604F0A5FE342240
:101AE00021460DEB020021F056FD274D274B2C61BE
:101AF000C5E900340923C5E905361D23C5E9073BBF
:101B000040F20D1240F24313C5E9092340F21711C8
:101B100040F247132846C5E90B13C5E90244AC86D9
:101B200085F8364004F038F9FF21F022CDE912148F
:101B30004FF4806005214FF4A073CDE91401CDE985
:101B40000E240DA9CDE9164228462246104D1893C1
:101B500024E000BF003802400010024000080240AC
:101B6000000C024000000240AC2100200030024086
:101B700018210020A086010018200020E41F00206A
:101B8000D81F0020400100A0702000200068014004
:101B9000C41F0020005C004000500140CDE9103817
:101BA0000D94ADF864408DF8664004F0A9F9374B08
:101BB0002B601B6898472B68354DDB689847354B81
:101BC0002846C5E90034C5E90284C5E90A48C5E9E3
:101BD0000C4403F0F5F93146284603F0A7FA5246C3
:101BE00021460DA821F0D7FC2B4DDFF8ECC0AC60EE
:101BF0004FF48033C5E900C32846284BAB622C6103
:101C00002C7685F82040EC62EC60EE6185F830407F
:101C10006E6103F02DF80DA92846CDE90D660F94ED
:101C200003F0D0F8FEF744FDFEF741FD05F080FB20
:101C30001B4A3146384605F0B7FC1A4B1A4A186061
:101C40003146384605F0B0FC184B194A1860314649
:101C5000384605F0A9FC174B174A1860314638463C
:101C600005F0A2FC154B164A18602146154805F0F0
:101C70008BFB154B154A18602146154805F084FB6F
:101C8000144B186005F066FBFEE700BF1C00002047
:101C90006C21002000B00240B42100200100000FA0
:101CA000B0520208D41F002098520208D01F002012
:101CB00080520208CC1F002068520208C81F002072
:101CC000EC520208AD160008E01F0020C8520208BE
:101CD000BF060008DC1F002000200140704770474D
:101CE0007FB5094B8DF817201B6802930DF1170281
:101CF0000123009201930A460146044803F0FAFDCD
:101D000007B05DF804FB00BF100000201821002080
:101D10007FB500238DF81730084B1B6802930A46E5
:101D200001230DF11701009101930146044803F0CE
:101D300071FE9DF8170007B05DF804FB100000204D
:101D4000182100201FB5084C24680092CDE9013409
:101D50000A4601230146054803F05CFE003818BF1F
:101D6000012004B010BD00BF100000201821002089
:101D700002F06ABF10B5064C00222046042103F091
:101D800003FB20460122BDE81040042103F0FCBA09
:101D90000008024038B50B4D044601220A484FF4B2
:101DA000005103F0F1FA00220421284603F0ECFA76
:101DB0002046FFF769FC28460122BDE8384004218F
:101DC00003F0E2BA00080240000C024038B50B4DA7
:101DD000044600220A484FF4005103F0D5FA0022CD
:101DE0000421284603F0D0FA2046FFF74DFC284690
:101DF0000122BDE83840042103F0C6BA00080240C1
:101E0000000C0240F7B5144E144F05460C46304600
:101E10000022042103F0B8FA00224FF400513846A2
:101E200003F0B2FA2846FFF72FFC0D4B0D481B6854
:101E3000224601A904F0DEFF384601224FF400518A
:101E4000019C03F0A1FA30460122042103F09CFA20
:101E5000204603B0F0BD00BF00080240000C024065
:101E60000C0000201820002002F0EEBE0268034B98
:101E70009A4201D102F0D6BE704700BF0010004068
:101E80007047000082B00E4B00220092596C41F462
:101E900080415964596C01F480410091009901928C
:101EA000196C41F0805119641B6C03F0805301934D
:101EB000019B0F216FF0010002B003F031B800BFA9
:101EC0000038024010B5044688B01422002103A84F
:101ED00021F061FB2268124B9A421ED103F58C332C
:101EE000002101915A6C0F4842F480725A645A6C76
:101EF00002F480720192019A02911A6B42F001027F
:101F00001A631B6B03F001030293029B0622032357
:101F100003A9CDE9032303F04DF908B010BD00BFBC
:101F200000200140000002400268094B9A4282B042
:101F30000BD100230193074B1A6B42F480521A63B2
:101F40001B6B03F480530193019B02B0704700BFE9
:101F5000003002400038024007B50F4B02689A4239
:101F600016D10022A3F5F0430192196B41F4000150
:101F700019631B6B03F40003019305215A20019B95
:101F800002F0CEFF5A2003B05DF804EB02F0FABF76
:101F900003B05DF804FB00BF00B002402DE9F04340
:101FA000044689B01422002103A821F0F4FA226823
:101FB000244B9A4243D1244C244800250095236B9E
:101FC00043F004032363236B03F004030093009B9B
:101FD0000195236B43F001032363236B03F001039B
:101FE0000193019B4FF012094FF400734FF0010869
:101FF0000327042603A9CDE90339CDE90587079610
:1020000003F0D8F84FF480731148079603A9CDE97F
:102010000339CDE9058703F0CDF80295236C43F42D
:1020200000032364236C03F400030293029B236ADE
:1020300043F400032362236A23F40003236209B0FC
:10204000BDE8F083005C0040003802400008024018
:1020500000000240F0B599B004461422002107A800
:1020600021F099FA30220DEB0200002121F093FAC1
:1020700022685E4B9A4240F0B78008230C93C0233D
:102080001093042312930CA84FF40033159304F01B
:1020900061FA08B1FFF7F4FE554B5648002400944E
:1020A0005A6C42F080625A645A6C02F0806200926C
:1020B000009A01941A6B42F020021A631A6B02F024
:1020C00020020192019A02941A6B42F001021A63F3
:1020D0001A6B02F001020292029A03941A6B42F008
:1020E00002021A631A6B02F002020392039A04942A
:1020F0001A6B42F040021A631A6B02F0400204921B
:10210000049A05941A6B42F004021A631A6B02F0E7
:1021100004020592059A06941A6B42F008021A63AB
:102120001B6B03F00803069302250E26069B0B96F5
:102130004FF4806307A9CDE90735CDE9094503F0E0
:1021400039F841F658032C480B9607A9CDE9073515
:102150000927CDE9094503F02DF8032327480B97FC
:1021600007A9CDE90735CDE9094503F023F84FF478
:10217000706322480B9607A9CDE90735CDE90945DB
:1021800003F018F84FF40C631D480B9607A9CDE92E
:102190000735CDE9094503F00DF8C02319480B9622
:1021A00007A9CDE90735CDE9094503F003F8082370
:1021B00015480B9607A9CDE90735CDE9094502F089
:1021C000F9FF4FF4A0530E480B9707A9CDE9073547
:1021D000CDE9094502F0EEFF58202246052102F024
:1021E0009FFE582002F0CEFE19B0F0BD00680140FD
:1021F0000038024000140240000002400004024087
:102200000018024000080240000C024010B50446CD
:1022100088B01422002103A821F0BDF92268144BD4
:102220009A4223D103F56843002101915A6C114869
:1022300042F480125A645A6C02F480120192019A9C
:1022400002911A6B42F020021A631B6B03F0200309
:102250000293029B4FF4607202230321CDE9032312
:102260000523CDE9061303A902F0A4FF08B010BDB1
:1022700000500140001402402DE9F04186B00023D7
:1022800003932B4B1C68002C4FD14FF00108C3F86F
:102290000080284B00949A6B274842EA08029A6310
:1022A0009B6B03EA08030093022703260C25009B7F
:1022B00001A94FF63F03CDE90137CDE9046502F0EE
:1022C00079FF1E48059501A9CDE90187CDE90346AF
:1022D00002F070FF48F233131948059501A9CDE9C2
:1022E0000137CDE9034602F065FF4FF683731548C9
:1022F000059501A9CDE90137CDE9034602F05AFF62
:102300004CF203731048059501A9CDE90137CDE9D9
:10231000034602F04FFF60230C48059501A9CDE963
:102320000137CDE9034602F045FF06B0BDE8F08174
:10233000FC21002000380240001402400008024046
:102340000018024000100240000C0240000402404D
:1023500070B588B000230293204B1A6C42F0100233
:102360001A641B6C03F010030293054601A903A82D
:10237000029B04F0D1F8069B4BBB04F0BDF8184E4D
:10238000184B336040F2E733F360174BB0FBF3F3C5
:10239000013B7360304600233361B360B36104F0E6
:1023A000F3FE044680B9304604F0C8FD044658B92F
:1023B000362002F0E7FD0F2D0DD8224629463620A3
:1023C00002F0AEFD094B1D60204608B070BD04F060
:1023D00093F84000D3E70124F6E700BF003802403D
:1023E000002200200010004040420F008400002026
:1023F0007047FEE7FEE7FEE7FEE77047014804F09E
:10240000DBBD00BF00220020014803F01CBD00BF5F
:1024100070200020014802F0FFBD00BF6C210020A9
:102420000120704708B521F059F9162303604FF0D9
:10243000FF3008BD08B521F051F916230360FEE70F
:1024400070B50D4614460E46731B9C4201DC2046B7
:1024500070BDAFF3008006F8010BF5E770B50D46CF
:1024600014460E46731B9C4201DC204670BD16F8D4
:10247000010BAFF30080F5E74FF0FF3070474FF4EA
:1024800000534B60002070470120704700207047C8
:102490000A4A116808B5034609B90949116010686C
:1024A000694603448B4206D921F018F90C230360D6
:1024B0004FF0FF3008BD1360FCE700BF482200204A
:1024C000C8420120704710B5042104461FF020FFC8
:1024D000204610BD08B5032913D8DFE801F0020635
:1024E0000A0E01F073F9006808BD01F06FF9406849
:1024F000FAE701F06BF98068F6E701F067F9C06868
:10250000F2E70020F0E7000000487047245302087B
:102510001120704713B5002451B1036801948DF860
:10252000034001AA9C680DF10303A04702B010BD4F
:102530000846FBE7C0897047008A7047C08870472B
:1025400080887047807A00F07F007047807AC009E9
:1025500070470020704700009FED010A704700BFE0
:1025600000000000806A7047704710B508210446DB
:102570001FF0CEFE204610BD7047704700F59873DF
:102580000868496803C370477047704741607047E7
:1025900070477047064BC0F84C310023C0F85031EB
:1025A00000F5A273C0F84801C0F84031704700BF81
:1025B0002D2700080123037270477047704710B43D
:1025C000C26841685410034601EB6200D20748BF5D
:1025D0000A599B685DF8044B48BFD3581847034617
:1025E000406830B19A681AB9D86800F001007047A5
:1025F0000120704710B50C2104461FF089FE2046CB
:1026000010BD10B5102104461FF082FE204610BDFB
:1026100010B54FF4AE7104461FF07AFE204610BD8F
:1026200010B5402104461FF073FE204610BD10B5C2
:102630000DF000F80368BDE81040DB6B18470000A0
:10264000054B1B7801462BB1406818B103680C316B
:102650005B6E1847704700BF87350120037A70B55D
:102660000546BBB940680368DB69984704463CB936
:102670006868036805F10C011B6EBDE870401847DF
:10268000A1886B8FC91A236820461B6B09B2984733
:10269000A469ECE770BD10B50446D0F8400158B10C
:1026A0000368DB68984738B1D4F8400103689B6839
:1026B00098470023C4F8403110BD70B5044690F827
:1026C000390094F838300130C0B2984284F83900AB
:1026D00005D901232372002384F8393070BDB4F981
:1026E0003A2000210FF0A6F9C30706D500284FF6BF
:1026F000FF73C8BF0123184400B2238AC01AA08701
:1027000060680368DB69984705462DB9606803680F
:10271000BDE870405B691847A988A38F19442B68EE
:1027200028461B6B09B29847AD69EEE72DE9F14FDA
:10273000D0E9556A0746B06803681B6A9847EF28D6
:1027400005D8444B444AA321444820F01DFD70683D
:1027500003681B6A98470F2803D8414B3E4AA421BF
:10276000F2E7F06803681B6A98470B2803D83D4BD3
:10277000394AA521E8E70CF05DFFDFF8F09004305E
:102780000CF096FFD9F8000010B10368DB68984799
:10279000D9F8000010B103681B689847DFF8D080B3
:1027A000D8F8000010B103685B699847D7F83C017E
:1027B00010B103685B689847D8F8000010B103684F
:1027C0001B689847D7F83C0110B103689B6898478D
:1027D000F068036800215B6A98474FF0000B224BBA
:1027E000C0F804B0044680F808B00360B06803681D
:1027F00059465B6A9847054601F094FB7068036888
:1028000059465B6A98472946064601F06BFB331D23
:10281000C7F83C61C9F80040C8F80050CAF8003059
:102820002B68C6F808A02846DB68EE639847336833
:1028300030461B689847214628460FF0F5F8236874
:1028400020461B69984723685B69204601B0BDE8B4
:10285000F04F184713470208A147020879480208B9
:10286000C048020863490208FC540208D035012020
:10287000CC350120044B1B6893F858200AB1D86C62
:1028800000B99868704700BF88350120F8B5174631
:1028900004460E460CF0DAFF124B1C60124B23600C
:1028A000124B0025C4E95135114BC4E95355186842
:1028B000036801219B68C4E94F55C4E955769847E0
:1028C000284600F037FFFFF7D5FF17F01EFCFFF793
:1028D000D1FF17F095FCFFF7CDFF17F09DFC2046C8
:1028E000F8BD00BFDC350120A8540208905402084E
:1028F00088350120064BC0F84C310023C0F8503118
:1029000000F5A273C0F84801C0F84031704700BF1D
:102910002D270008064BC0F84C310023C0F8503179
:1029200000F5A273C0F84801C0F84031704700BFFD
:10293000052B0008064BC0F84C310023C0F850317D
:1029400000F5A273C0F84801C0F84031704700BFDD
:10295000C92900082DE9F04105460026164B4660BE
:10296000067245F80C3B044628460F4609F0DCFD8C
:10297000124B84F838701B7884F83960A68723B925
:10298000012323722046BDE8F0810D4B0D4FB3F9B2
:102990000080E368B7F900109B6B266128469847D2
:1029A000E3684146DB6B28469847284609F037FD27
:1029B0003B885B426387E5E72055020887350120A5
:1029C0007E3501207C3501202DE9F047D0E9556A9C
:1029D0000746B06803681B6A984740F68723984209
:1029E00005D8414B414AA321414820F0CDFB7068F6
:1029F00003681B6A98470F2803D83E4B3B4AA42123
:102A0000F2E7F06803681B6A98473F2803D83A4BFF
:102A1000364AA521E8E70CF00DFEDFF8E09004301F
:102A20000CF046FED9F8000010B10368DB68984747
:102A3000D9F8000010B103681B689847DFF8C08020
:102A4000D8F8000010B103685B699847D7F83C01DB
:102A500010B103685B689847D8F8000010B10368AC
:102A60001B689847D7F83C0110B103689B689847EA
:102A7000F068036800215B6A984714210446FFF759
:102A800069FFB068036800215B6A9847054600F05B
:102A900029FF7068036800215B6A9847294606464B
:102AA00000F0DEFE331DC7F83C61C9F80040C8F8ED
:102AB0000050CAF800302B68C6F808A02846DB682A
:102AC000EE639847336830461B689847214628468E
:102AD0000EF0AAFF236820461B699847236820460A
:102AE0005B69BDE8F047184713470208064A020829
:102AF00079480208C048020863490208D03501201D
:102B0000CC3501202DE9F047D0E9556A0746B06879
:102B100003681B6A9847EF2805D8414B414AA32117
:102B2000414820F031FB706803681B6A98470F2802
:102B300003D83E4B3B4AA421F2E7F06803681B6AC6
:102B400098473F2803D83A4B364AA521E8E70CF0CE
:102B500071FDDFF8E09004300CF0AAFDD9F8000018
:102B600010B10368DB689847D9F8000010B103681A
:102B70001B689847DFF8C080D8F8000010B10368E0
:102B80005B699847D7F83C0110B103685B689847C8
:102B9000D8F8000010B103681B689847D7F83C01CB
:102BA00010B103689B689847F068036800215B6A6E
:102BB000984714210446FFF7CDFEB0680368002152
:102BC0005B6A9847054601F0ADF97068036800211B
:102BD0005B6A98472946064601F084F9331DC7F819
:102BE0003C61C9F80040C8F80050CAF800302B68B2
:102BF000C6F808A02846DB68EE639847336830467D
:102C00001B689847214628460EF00EFF2368204691
:102C10001B699847236820465B69BDE8F047184761
:102C200013470208F14A020879480208C04802081E
:102C300063490208D0350120CC3501207047704728
:102C400070477047704730B5036885B06D460181A5
:102C5000D3F88430014604462846984795E8070093
:102C60003C3484E8070005B030BD30B5036885B05A
:102C70006D464181D3F88430014604462846984782
:102C800095E807003C3484E8070005B030BD002219
:102C9000028042808280C280704780F83610704780
:102CA00070B5036804461B6B154698472368294690
:102CB00020465B6EBDE87040184700207047806C6E
:102CC0007047704770477047704730B4C2684468B7
:102CD0005510034604EB6200D20748BF62599B6857
:102CE00030BC48BFD35818470346406830B19A6893
:102CF0001AB9D86800F0010070470120704710B57C
:102D00004C2104461FF004FB204610BD10B51021D5
:102D100004461FF0FDFA204610BD10B54FF40F71A8
:102D200004461FF0F5FA204610BD08B5FEF7B6FBC5
:102D300008BD0000036870B55E6B124B1B6804464B
:102D40008DB22BB9104B114A6C21114820F01CFA9E
:102D50001049828D0988914203D80F4B0B4A6D218F
:102D6000F3E713F812200D4B1B6853F82200036899
:102D70001B6B9847291A3346204609B2BDE87040BC
:102D8000184700BFE0350120DC4B02081E4C02084A
:102D9000594C0208E4350120A04C0208E835012016
:102DA0006C30884208B505D10CF044FCBDE8084001
:102DB000FFF7B0BD08BD00224FF0FF31C0E9002190
:102DC0008260704770B5036804461B6B15469847D0
:102DD0002368294620465B6BBDE87040184770B5F4
:102DE00004461D46BDF91060FFF7ECFF2368294635
:102DF00020469B6B9847236831462046DB6BBDE835
:102E0000704018470022C0E90122C0E90322C0E94E
:102E10000522C0E907224FF480728284014A0260D1
:102E2000704700BF44550208F8B5194B018F1B8845
:102E30008B4206462AD9174B1B682BB9164B174AEB
:102E400017486C2120F0A0F913F81120154B1B68CE
:102E500053F82250144B186800F0A8FC2B68074662
:102E60009B6B284698472B6804469B6C394628463E
:102E700098472B6814FB00F45B6A3946284698474C
:102E8000A4B223181BB2A6F84630F8BD0023FAE717
:102E9000E4350120E0350120DC4B02081E4C02081D
:102EA000594C0208E8350120EC35012038B52622BE
:102EB00004460D46002120F06EFB2046FFF7A2FFDE
:102EC000064B23602B88E384FF23204684F82830B8
:102ED000294609F0CCFE204638BD00BF445C0208FC
:102EE00010B526220446002120F055FB2046FFF7AE
:102EF00089FF0A4BA3624FF6FF73A3854FF47F024D
:102F00000023C4E90C32064A226023874FF0FF32C7
:102F1000C4E91023E363A364204610BD8054020873
:102F2000AC5502082DE9F04F044691B0A0460025AB
:102F30000EF0CEFBA44BE56348F8403B2622294621
:102F4000404620F028FB4046FFF75CFF9F4B236480
:102F500004F16C0AFF2384F866305046A56609F038
:102F6000BDFF04F1B4034FF6FF760EA91846059392
:102F7000ADF83860FFF79AFF04F1E0030EA9184698
:102F80000693ADF83860FFF791FF04F586730EA93C
:102F900018460793ADF83860FFF788FF04F59C7377
:102FA00018460393FFF79CFF04F5C273184604F517
:102FB000E87B0493FFF794FF0EA95846ADF83860FC
:102FC000FFF774FF824BC4F8D031824BC4F8FC5138
:102FD000C4E98B34804B84F808520127C4E98D354D
:102FE0004FF0FF394FF4A0732A464046C4E980975A
:102FF00029460093F023FFF7F2FE261D4FF07F4392
:10300000A3664146304606F073FB5046BD2223219D
:10301000FFF7D8FE4FF004084FF002030EAA0DA9E7
:103020005046ADF83830ADF8347009F0EEFC50463B
:10303000A4F8A480FFF7F8FE04F50B73C4F89430ED
:1030400051463046C4E92A9906F052FB3A460598A3
:10305000CC21FFF7B7FE4FF00C0A0598ADF838A069
:103060000EA909F004FE0599304606F041FB3A46E8
:103070000698A921FFF7A6FE0698ADF838A00EA97C
:1030800009F0F5FD0699304606F032FB3A460798FE
:103090008621FFF797FE0798ADF838A00EA909F032
:1030A000E6FD0799304606F023FB1D2342460398B0
:1030B000009307216023FFF792FED4F8383103997B
:1030C000D3F88430C4F868910DF120084046A4F884
:1030D0006C51984798E8070004F5BA7383E8070035
:1030E0003E4B1B6804F5037A2BB93D4B3D4A6021EA
:1030F0003D4820F049F83D4B1B881BB93C4B394AF1
:103100006121F5E73B4B2946186800F04FFB3A4A2E
:103110000346052150460FF0A3FF03230398C4F88C
:1031200080A10EA9DFF8D4A0ADF83C30CDF838A0CE
:1031300009F00EFC0399304606F0DAFA22230498CF
:10314000009373222946F023FFF749FED4F8843117
:103150000499D3F88430C4F8B4914046A4F8B85127
:10316000984798E8070004F5E07383E8070004F245
:1031700016230498C4F8CC310EA94FF00203A4F82A
:103180001652ADF83C30CDF838A009F0E1FB0499B7
:10319000304606F0ADFA3A465846D021FFF712FE07
:1031A00009225846082109F0ADFA3946584609F077
:1031B000BCFA304684F8F851594606F099FA204690
:1031C00011B0BDE8F08F00BF54560208DC5B020866
:1031D000605B02083C560208A12D0008E035012082
:1031E000DC4B0208DE4C0208594C0208E435012091
:1031F000A04C0208EC350120294D02088054020839
:10320000406A7047806A704770478A880B8810B59B
:10321000D20A4C88C1699BB251F8220043EA0443A8
:10322000184410BD10B50446BAB1107B68B1537B89
:10323000D27A1B0203F4E0631A43236A03EB82038E
:103240001A888A4202D193F9020010BD05D80138CC
:1032500080B204330028F3D1F7E70020F5E710B57A
:103260002C2104461FF054F8204610BD30B58BB019
:103270000446BDF860500895BDF85C5007959DF870
:10328000505006959DF84C5005959DF84850049572
:103290009DF8445003959DF8405002959DF83C5090
:1032A0000195BDF8385000950EF018F8064B2360D4
:1032B000159BE361169B2362199B63621A9BA362B1
:1032C00020460BB030BD00BF8856020870477047DB
:1032D000704730B4C26844685510034604EB62007E
:1032E000D20748BF62599B6830BC48BFD3581847C3
:1032F0000346406830B19A681AB9D86800F00100F6
:1033000070470120704710B5102104461FF000F8E7
:10331000204610BD10B5F02104461EF0F9FF2046EE
:1033200010BD9830884208B505D10CF083F9BDE88E
:103330000840FFF7FFBA08BD2DE9F34104460EF03F
:10334000C7F9444B2360444B0025C4E910354FF4C2
:103350008072FF2304F16C07A4F8642084F86630BF
:10336000A4F890204FF6FF733C4AE26604F19806F9
:10337000A4F8923084F8943001A9C4E91255C4E944
:103380001455C4E91655C4E91C55C4E91E55C4E9D1
:103390002055C4E92255E5632566A5663846ADF893
:1033A000043009F064FC304609F098FD2C4BC4E968
:1033B00038342C4B04F14008C4E93A352A462946F2
:1033C0004046FFF7FFFC4046F021FDF7B1FF4046C5
:1033D0004FF4A071FDF7AEFF251D4FF07F43A366AC
:1033E0004146284606F084F91B2238461421FFF78F
:1033F000E9FC102301A93846ADF8043009F037FC88
:103400003946284606F074F93046BB222321FFF7DF
:10341000D9FC012301AA6946ADF8003030460223E9
:10342000ADF8043009F0F1FA0523A4F8D0303046A5
:10343000FFF7FAFC4FF0FF33C4E9353304F1E00342
:103440002846C4F8C030314606F052F9204602B092
:10345000BDE8F08108570208DC5B0208445C020802
:10346000F0560208233300087047000030B5164DAF
:103470002C6814F001048FB0BFF35B8F20D1284675
:103480001EF048FFE0B13F230993104B0893104B07
:10349000104911480A940122CDE906430423CDE9DD
:1034A00003320A230093CDE90B44CDE9014405948E
:1034B000FFF7DCFE09481FF085FE28461EF036FFA8
:1034C00005480FB030BD00BF4C2200205C6E0208E2
:1034D0008C6E0208686D02085022002069340008D2
:1034E0007047000030B5164D2C6814F001048FB001
:1034F000BFF35B8F20D128461EF00CFFE0B13F23C5
:103500000993104B0893104B104911480A9401225B
:10351000CDE906430423CDE9033214230093CDE91A
:103520000B44CDE901440594FFF7A0FE09481FF0C4
:1035300049FE28461EF0FAFE05480FB030BD00BF18
:103540007C220020606E0208906E0208786D0208EE
:1035500080220020E13400087047000030B5164D8D
:103560002C6814F001048FB0BFF35B8F21D1284683
:103570001EF0D0FEE8B13F230993104B0893104B87
:10358000104911480A94CDE9064301220423CDE9EC
:103590000332182300930E22CDE90B44CDE90144F8
:1035A0000594FFF763FE09481FF00CFE28461EF045
:1035B000BDFE05480FB030BDAC220020646E02088D
:1035C000946E0208886D0208B02200205935000868
:1035D0007047000030B5164D2C6814F001048FB010
:1035E000BFF35B8F20D128461EF094FEE0B13F234D
:1035F0000993104B0893104B104911480A9401226B
:10360000CDE906430423CDE9033228230093CDE915
:103610000B44CDE901440594FFF728FE09481FF04B
:10362000D1FD28461EF082FE05480FB030BD00BF18
:10363000DC220020886E0208986E02084C6E020898
:10364000E0220020D135000800207047002070479C
:103650000EB403B503AB002153F8042B01930DF016
:10366000BBF802B05DF804EB03B070470CB407B5CB
:1036700004AB53F8042B01930DF0AEF803B05DF8E2
:1036800004EB02B070470000436C10B5044673B3FE
:10369000038F2BB9184B194AC52119481FF074FD27
:1036A000C38E00EB43035B8C0BB30EF030FF238F14
:1036B000012B03D8134B144ACB21EEE7E28E531CA7
:1036C0009BB2092B194688BFA3F10A0104EB410103
:1036D00040F63F10498C814209D10A2B04EB42028B
:1036E00028BF002304EB4303508C588451842046A8
:1036F000BDE810400EF00EBE2C4D0208354D0208FC
:10370000E04D02082A4E0208384E02080EF0C9BDEC
:1037100010B586B002AC84E806001A460AAB0593E1
:103720000193099B00932146089B0BF021FB06B0F7
:1037300010BD000038B518BB124B13481C68134964
:10374000B4B1226822440260626822440A60A2681E
:1037500014440F4B00221A8000F038F8054600F0A0
:1037600033F80C4B1C600C4B1D600C4B188007E0B1
:103770000B4B03600B4B0B600B4B1C68002CE8D110
:1037800038BD00BF18230020102300200C23002088
:1037900014230020E0350120E8350120E435012024
:1037A000B46E02089C6E0208E86E0208044B1B68A7
:1037B00053F82100034B1B6803EB4000704700BF28
:1037C0000C2300201023002006207047004870477B
:1037D0001C23002010B5FFF7C1FE064C2060FFF748
:1037E000F9FE6060FFF742FEA060FFF77BFEE0603D
:1037F00010BD00BF1C23002010B5002404600C6025
:1038000014601C6010BD704710B54FF4AE710446D3
:103810001EF07EFD204610BD10B50446D0F85801BC
:1038200000F08FFB2046BDE810400BF09FBF00006A
:1038300010B50446FFF72AF8014B2360204610BD5F
:103840003C570208704704387047704710B5102184
:1038500004461EF05DFD204610BDA0F10400F5E712
:1038600000228260024A026018324260C1607047E2
:103870009057020870470000134B70B50446036070
:1038800040F65C2540F6A406B54217D140F2EC663E
:10389000635960191B682C3D9847B542F8D140F236
:1038A000DC65635960191B683C3D9847B5F50B7F93
:1038B000F7D12046FFF707FA204670BD635960191B
:1038C0001B6898472C3DDFE7B857020810B504463F
:1038D000FFF7D2FF204640F688211EF019FD204652
:1038E00010BD00002DE9F04F05468DB0FFF71AFB23
:1038F00005F50F79654B2B604FF6FF786946484612
:10390000ADF80080FFF7D2FA05F51A77DFF884B139
:1039100005F5E36A3C46002620466946ADF800807E
:10392000FFF7C4FA0123C4F800B0E662A4F83080BF
:10393000A4F8328084F8343084F8356084F8366036
:1039400084F8376084F838603C345445E4D105F598
:103950000D6A26464FF6FF78304669462C36ADF89C
:103960000080FFF7A3FA5645F6D1564605F688289B
:103970004FF6FF7B304669462C36ADF800B0FFF7B6
:1039800095FA4645F6D1424E684600F0D1FBBDF8A7
:103990000430B380BDF91C30039AB383089BF260F6
:1039A0003362049A099B32617362059A0A9B7261C1
:1039B00005F10408069AB3626846BDF82C30B2617E
:1039C000B38500F0C7FB404605F16C0105F0D1FE60
:1039D000404605F5C27105F0CCFE0E236946484607
:1039E000ADF8003009F043F9B6F90E20B6F90C1025
:1039F0004846FFF7E7F94046494605F079FE4FF0A3
:103A0000040804F5DC762122304640F24111FFF72C
:103A1000D9F9D4F8B83130461B6EADF8008069464C
:103A200098472046212240F24111FFF7CBF9236845
:103A300000261B6EADF80060204669462C3498477E
:103A40005445DED134460326B4FBF6F303EB4303BF
:103A5000E31A012B13D0022B14D00722062138467B
:103A600008F050FE01343846142108F05EFE142C94
:103A700007F13C07E8D128460DB0BDE8F08F0922D8
:103A80000821ECE70B220A21E9E700BFB85702083A
:103A9000F0270020605B0208C24B1B782DE9F74F2E
:103AA000C14E044643B3C14B1B782BB3DFF82483CC
:103AB00098F8003003BB00F16C05071D2946384615
:103AC00005F016FE04F5C279B388B94A0A2104F25A
:103AD00016200FF0C5FA4946384605F009FE28467B
:103AE0000CF0A4FF48460CF0A1FF012388F8003039
:103AF000B04B186803F08CFCAF4FDFF8DC823868FD
:103B00004FF000098DF8039003F0EAFD04F50F75FE
:103B1000E0B14FF0FF3338684A460DF1030103F07E
:103B2000AFFD9DF80330522B40F0F780B6F9281016
:103B3000A24800F08FFB0F23284601A9ADF80430FE
:103B400009F095F8D8F8000003F0CCFDD8F8000093
:103B500003F0C6FDE8B14FF0FF33D8F800000022B3
:103B60000DF1030103F08CFD9DF803304C2B40F068
:103B7000E380B16A9148494209B200F06BFB0D2322
:103B8000284601A9ADF8043009F071F8386803F04F
:103B9000A9FD8B4FDFF84482386803F0A1FDA8B17E
:103BA0004FF0FF33386800220DF1030103F068FD88
:103BB0009DF80330552B40F0CE808048B6F9281090
:103BC00000F04AFBD8F8000003F08CFDD8F80000A4
:103BD00003F086FDB0B14FF0FF33D8F800000022AB
:103BE0000DF1030103F04CFD9DF80330442B40F030
:103BF000BA80B16A7148494209B200F02DFB3868B9
:103C000003F070FD2846B6F90E20B6F90C106D4F82
:103C1000FDF797FB04F5E365A04604F50D6A04F192
:103C20000409B7F91030022B00F0A580042B00F036
:103C3000B380012B07D12B68B7F906209B6DB7F92C
:103C40000410284698472C35554507F11C07E8D144
:103C50005D4F04F6882A04F10409B7F91030022BED
:103C600000F0BE80042B00F0CC80012B07D12B6824
:103C7000B7F906209B6DB7F90410284698472C35F4
:103C8000554507F11C07E8D1504D04F51A7704F5A6
:103C9000966A04F10409B5F91030022B00F0B780E0
:103CA000042B00F0CF80012B08D1D8F86832B5F989
:103CB00006209B6DB5F904103846984708F13C087A
:103CC000D04505F1200507F13C07E4D1404AB6F99B
:103CD0002C3011788B4216D0DBB21370502284F84E
:103CE000DC2084F8082184F83421002B00F0B58012
:103CF000FF22012B84F8DC2005D0022B84F8082158
:103D000018BF84F83421B388294A052104F50370CB
:103D10000FF0A6F903B0BDE8F08F4E2B7FF416AF7D
:103D20004946264800F096FA0E2301A92846ADF828
:103D3000043008F09CFF09E74E2B7FF42AAF1F48A0
:103D4000002100F087FA0E2301A92846ADF80430BF
:103D500008F08DFF1DE74E2B7FF438AF1748002188
:103D600000F07AFA32E74E2B7FF44CAF1348002173
:103D700000F072FA46E72B68B7F906209B6DB7F999
:103D80000410284698472946484605F0B1FC012111
:103D9000384600F0A3F956E72946484605F0E9FC05
:103DA0000321F5E736230020F027002035230020EB
:103DB0000A4F020830230020D41F0020F8270020DB
:103DC000CC1F0020D8260020C02500204023002042
:103DD000140000202C230020D01F0020C81F00202A
:103DE0002B68B7F906209B6DB7F904102846984751
:103DF0002946484605F07CFC0121384600F06EF962
:103E00003DE72946484605F0B4FC0321F5E7D8F81C
:103E10006832B5F906209B6DB5F90410384698470D
:103E2000D8F86832D3F864B001231A460021384626
:103E3000D8473946484605F05BFC0121284600F08A
:103E40004DF93BE7D8F8683238469B6E98473946BB
:103E5000484605F08EFC0321F0E7024B01221A7060
:103E600051E700BF3523002010B5114C8AB0FEF792
:103E70002BFF206803F0CCFA2022002102A81FF0BB
:103E80008AFB0C4B01934FF480421823CDE90623A3
:103E9000002101AA084803F077FA084A20600023AD
:103EA0001370074A1370074A13700AB010BD00BFA1
:103EB000302300200D4F0208F14300083623002074
:103EC000352300202C2300207047043870477047AA
:103ED00010B5102104461EF01BFA204610BDA0F1BB
:103EE0000400F5E700228260024A02601832426054
:103EF000C1607047EC5702087047000010B5034BD3
:103F000003600446FFF7E3F9204610BD1458020889
:103F100010B50446FFF7F2FF2046F0211EF0F8F935
:103F2000204610BD10B50446FFF706FA014B23608A
:103F3000204610BD14580208FFF7CAB900220260DB
:103F40007047704710B5034B0360044600F0B1F8AA
:103F5000204610BD4858020810B50446FFF7F2FF8E
:103F600020461C211EF0D4F9204610BD10B5044691
:103F700000F0AAF8064B23604FF4C873A3614FF01A
:103F800018110023C4E90213024B2361204610BD1F
:103F90004858020803009001B0F9083010B5B0F994
:103FA00004405B429C420BDBF02C09DCB0F90A3088
:103FB000B0F906205B429A4202DBB2F5A07F05DD34
:103FC0000423038283694382002010BD438A591A67
:103FD00009B200294182F7DC83891C44C3898480AB
:103FE0001A448369C28043820120EEE710B5034B77
:103FF0000360044600F05DF8204610BD5C580208DE
:1040000010B50446FFF7F2FF204620211EF080F98C
:10401000204610BD10B5044600F056F8084B23604A
:104020004FF4167246F2A813C4E906234FF020118C
:104030000022C4E90212034A2261A382204610BD75
:104040005C58020803005802B0F90830B0F90420A7
:104050005B429A4210B508DBF02A06DCB0F90A3060
:10406000B0F906405B429C4207DA04230382C3692D
:10407000838283694382002010BD438A591A09B2A2
:1040800000294182F7DC83891A44C38982801C4459
:104090008369C48043820120EEE7838A591A09B2FA
:1040A0000029D8BFC3698182DABF83820120002042
:1040B000704770470020704710B5182104461EF065
:1040C00027F9204610BD0000034A02600322028245
:1040D0004FF02012826070477058020801827047CA
:1040E0008180C28070478181C2817047B0F904200D
:1040F000B0F9083010B5B1F904401344A34215DDFE
:10410000B1F9083023449A4210DAB0F90630B0F918
:104110000A20B1F906401A44A24207DDB1F90A208B
:1041200022449342ACBF0020012010BD0020FCE7D8
:1041300010B5054B0360002304468380083000F06F
:1041400033F8204610BD00BF845802088388194404
:104150008180704710B5044B044640F8083B00F0DE
:104160000FF8204610BD00BF8458020810B5044661
:10417000FFF7F0FF204630211EF0CAF8204610BDA0
:1041800010B5034B03600446FFF793FF204610BDB4
:104190009458020810B50446FFF7F2FF2046282184
:1041A0001EF0B6F8204610BD10B50446FFF78CFF90
:1041B00003210A480A4B2162A1844FF01C11C4E973
:1041C000010142F21072236000214FF4C873C4E968
:1041D0000632E160A2826382204610BD68000401BD
:1041E00094580208438A591A09B2002941821FDCF7
:1041F00082888389C1891A44C38812B20B441BB2D6
:1042000081698280002AC380418207DA002282808D
:10421000002B07DA0023C38001207047D02AF7DD86
:10422000D022F4E7B3F5907FF6DD4FF49073F2E718
:1042300000207047838A591A09B20029D8BFC36980
:104240008182DABF8382012000207047838C194469
:104250008184704781817047C18170472DE9F047A3
:10426000DFF890A0224CDAF80030DFF88C80DFF81D
:104270008C901B1A0546CAF800301426B4F9103089
:10428000032B09D029462046FFF7DEFE013E04F14C
:104290002004F3D1BDE8F087DAF80030002BF5DC1C
:1042A000D8F8003003F00102002A4FF6E0714FF613
:1042B000FF770CBFF0210127032B94BF19F80320CF
:1042C0000022022BD4BF013300232046C8F800305F
:1042D000FFF706FF002239462046FFF704FF0221C0
:1042E0002046FFF7FBFE42F21073CAF80030CDE71C
:1042F00040230020180000203C230020A058020882
:104300002DE9F843014606461348144CDFF8508067
:10431000DFF85090FFF78EFF04F58C770546B4F96F
:104320001030032B08D031462046FFF735FE1C34F1
:10433000BC42F4D1BDE8F88365B1B8F80020B9F803
:104340000010103A204692B2FFF7CAFE0221204622
:10435000FFF7C4FE0025EAE7F8270020D826002052
:10436000382300203A2300202DE9F0411E4C054659
:1043700000274FF01C08B4F91030012B10D129464A
:104380002046FFF78AFE58B1184A00231646B2F9B4
:104390001010032919D001330A2B02F11C02F6D1A7
:1043A0000137142F04F12004E5D1104C0A26B4F98A
:1043B0001030012B03D129462046FFF7EDFD013EC9
:1043C00004F11C04F3D1BDE8F081E288A18808FB68
:1043D00003661032304692B2FFF782FE0221304669
:1043E000FFF77CFEDCE700BF40230020C025002053
:1043F0002DE9F74FDFF8D8B100246E4B4FF6CE729F
:10440000E61811463046FFF76BFE04EB0B054FF63E
:10441000CE7211462846FFF763FE4FF6FB7200216D
:104420003046FFF760FE052200212846FFF75BFEBD
:1044300003213046FFF752FE1C3403212846FFF7C4
:104440004DFEB4F58C7FD8D1DFF888810025444635
:104450004FF6CE7211462046FFF742FE0135204648
:104460000321FFF73BFE142D04F12004F0D1524F3D
:104470000026524B1B780136002B40F09880022E0C
:104480004F4C14BF18461E464E4BA2891A804E4B05
:10449000E2891A8008BF01203870FFF7DFFE397803
:1044A00004F10800FFF79EFE3878FFF729FF3878FF
:1044B000FFF75AFF45464FF0000904F1080AB5F925
:1044C0001030012B60D151462846FFF70FFE00281F
:1044D0005AD03E484FF0FF31FFF7B8FE042128467E
:1044E000FFF7FCFD39484FF482726821FFF7F8FDB1
:1044F00045464FF01409B5F91030012B1AD1DFF8F9
:10450000B4A00A22BAF91010012945D15146284613
:104510000192FFF7EBFD019A00283DD004212846C7
:10452000FFF7DCFD04215046FFF7D8FD24480521A4
:10453000FFF70CFEB9F1010905F12005DBD1234994
:104540005D464FF00A09B5F91030012B29D12846F4
:10455000FFF7CCFD1D4920B31C484FF0FF31FFF79A
:1045600075FE04212846FFF7B9FD18484FF4827202
:104570006821FFF7B5FDB4F92C30002B3FF779AF78
:104580000E4A0123137074E709F10109B9F1140F00
:1045900005F1200593D1ABE7013A0AF11C0AB1D12C
:1045A000C8E7B9F1010905F11C05CCD1E3E703B077
:1045B000BDE8F08FD82600203423002036230020C9
:1045C000F02700203A23002038230020F82700207D
:1045D000C02500204023002038B50F480F4DFFF7BD
:1045E000A7FD002428191C34FFF7C0FCB4F58C7F0C
:1045F000F8D10B4D002428191C34FFF7B7FCB4F593
:104600008C7FF8D1074D002428192034FFF702FDD4
:10461000B4F5207FF8D138BDF0270020D82600203F
:10462000C025002040230020164838B51524013C41
:10463000A0F1200512D114480B24013CA0F11C0567
:1046400014D112480B24013CA0F11C0515D0D0F860
:10465000FC30FC305B6898472846F4E7D5F8803298
:1046600000F518705B6898472846E0E7D5F81831E0
:10467000FC305B6898472846DFE7BDE838400448CF
:10468000FFF768BD40230020C0250020D826002069
:10469000F0270020F02070474FF4A07070472920C9
:1046A000FDF794BB2820FDF791BB08B5FDF762FB31
:1046B000CA20FDF78BFBC320FDF76CFB0820FDF73C
:1046C00069FB5020FDF766FBCF20FDF77FFB002044
:1046D000FDF760FBC120FDF75DFB3020FDF75AFBC5
:1046E000ED20FDF773FB6420FDF754FB0320FDF77D
:1046F00051FB1220FDF74EFB8120FDF74BFBE8201C
:10470000FDF764FB8520FDF745FB0020FDF742FB2C
:104710007820FDF73FFBCB20FDF758FB3920FDF754
:1047200039FB2C20FDF736FB0020FDF733FB34204E
:10473000FDF730FB0220FDF72DFBF720FDF746FBD0
:104740002020FDF727FBEA20FDF740FB0020FDF7C6
:1047500021FB0020FDF71EFBB120FDF737FB0020F9
:10476000FDF718FB1B20FDF715FBB620FDF72EFB10
:104770000A20FDF70FFBA220FDF70CFBC020FDF780
:1047800025FB1020FDF706FBC120FDF71FFB1020C5
:10479000FDF700FBC520FDF719FB4520FDF7FAFAF0
:1047A0001520FDF7F7FAC720FDF710FB9020FDF765
:1047B000F1FA3620FDF70AFBC820FDF7EBFAF220EC
:1047C000FDF704FB0020FDF7E5FAB020FDF7FEFA47
:1047D000C220FDF7DFFAB620FDF7F8FA0A20FDF750
:1047E000D9FAA720FDF7D6FA2720FDF7D3FA04203F
:1047F000FDF7D0FA2A20FDF7E9FA0020FDF7CAFA02
:104800000020FDF7C7FA0020FDF7C4FAEF20FDF7FE
:10481000C1FA2B20FDF7DAFA0020FDF7BBFA0020E1
:10482000FDF7B8FA0120FDF7B5FA3F20FDF7B2FA1F
:10483000F620FDF7CBFA0120FDF7ACFA0020FDF7DA
:10484000A9FA0620FDF7A6FA2C20FDF7BFFAC8202A
:10485000FDF70AFB2620FDF7B9FA0120FDF79AFAC9
:10486000E020FDF7B3FA0F20FDF794FA2920FDF7B9
:1048700091FA2420FDF78EFA0C20FDF78BFA0E201A
:10488000FDF788FA0920FDF785FA4E20FDF782FA38
:104890007820FDF77FFA3C20FDF77CFA0920FDF730
:1048A00079FA1320FDF776FA0520FDF773FA172041
:1048B000FDF770FA1120FDF76DFA0020FDF76AFA96
:1048C000E120FDF783FA0020FDF764FA1620FDF7DA
:1048D00061FA1B20FDF75EFA0420FDF75BFA112058
:1048E000FDF758FA0720FDF755FA3120FDF752FA87
:1048F0003320FDF74FFA4220FDF74CFA0520FDF773
:1049000049FA0C20FDF746FA0A20FDF743FA282061
:10491000FDF740FA2F20FDF73DFA0F20FDF73AFA98
:104920001120FDF753FAC820FDF79EFA2920FDF764
:104930004DFABDE808402C20FDF748BA08B5FDF750
:1049400019FA0321D320FDF75DFA80B208BD10B536
:10495000C4B2022203212046FDF7C2F90A20FDF766
:1049600007FA204600220321FDF7BAF9BDE81040FE
:104970000220FDF7FDB938B50446E4B2FDF7AEF903
:1049800000212046FDF7C4F9012105462046FDF728
:10499000BFF940EA052080B238BD10B5C4B240214D
:1049A0002046FDF7B5F9030607D54C212046FDF753
:1049B000AFF9003818BF012010BD01224B2120465D
:1049C000FDF78EF9204600224B21FDF789F90020E2
:1049D000F2E773B50423C4B20E461546D7210DEB9A
:1049E00003022046FDF7AEF9019B1BBA1A0DC3F373
:1049F0000B23328020462B8001224B21FDF770F9DA
:104A000000224B212046FDF76BF902B070BD00007B
:104A100010B50A4A1378984204460DD0517888425E
:104A20000AD00BB141B90123D454FDF757F9204600
:104A3000BDE81040FFF78BBF10BD00BF202800204D
:104A400010B5C4B209212046FDF762F940F0010219
:104A5000D2B220460921BDE81040FDF741B910B59A
:104A6000C4B209212046FDF753F9092100F0FE02E6
:104A70002046BDE81040FDF733B938B5C4B20D4645
:104A800020460A21FDF744F940EA0502D2B2204649
:104A90000A21BDE83840FDF723B910B50446FDF7FB
:104AA0001EF920461F21FFF7E8FF2046BDE8104011
:104AB000FFF7C6BF38B5C4B20D4620460A21FDF740
:104AC00027F920EA0502D2B220460A21BDE8384083
:104AD000FDF706B910B50446FFF7C1FF20461F21B8
:104AE000BDE81040FFF7E6BF10B5C0B20C460B2181
:104AF000FDF70EF9204010BD1F21FFF7F5BF0A4654
:104B0000C0B20B21FDF7ECB81F21FFF7F8BF38B595
:104B1000C4B20D4620461721FDF7FAF820EA050237
:104B2000D2B220461721BDE83840FDF7D9B870B59C
:104B3000C4B2064604212046FDF7EAF8042100F03D
:104B4000FB0205462046FDF7CBF83046F021FFF783
:104B5000DEFF05F0F80220460421FDF7C1F84922E6
:104B600020212046FDF7BCF80220FDF701F9204680
:104B700001222121FDF7B4F820469A224121FDF7B8
:104B8000AFF8204601224A21FDF7AAF8204601226B
:104B90004B21FDF7A5F8204600224B21FDF7A0F898
:104BA000204601225621FDF79BF82046012258217C
:104BB000FDF796F8204601224021FDF791F82046A6
:104BC000FF220B21FDF78CF8BDE870400220FDF7B5
:104BD000CFB80000054BD3F8882042F47002C3F828
:104BE00088204FF000629A60704700BF00ED00E03F
:104BF00008B50B4B1A6842F400721A601A6842F446
:104C000080621A601A6842F480721A60032000F011
:104C100075F90020FDF79CFBFDF734F9002008BD75
:104C2000003C0240034A044B11681B780B4413609C
:104C3000704700BF2428002080000020014B186826
:104C4000704700BF2428002038B50446FFF7F6FF60
:104C5000631C1CBF054B1B78054618BFE418FFF703
:104C6000EDFF431BA342FAD338BD00BF80000020F4
:104C700038B50446002800F09B80056C25B9FDF787
:104C800021F9656484F83C50236CDB0600F18E80CA
:104C9000236C23F4885323F0020343F002032364BC
:104CA000444B5A6822F440325A605A6861680A4399
:104CB0005A60236821695A6822F480725A605A68DF
:104CC00042EA01225A605A68A16822F040725A6092
:104CD0005A680A435A609A68E16822F400629A604E
:104CE0009A680A439A603449A26A8A4252D0996803
:104CF00021F07061996099680A439A609A68E16A44
:104D000022F040529A609A680A439A609A6822F0A8
:104D100002029A609A68217E42EA41029A6094F8FF
:104D20002020002A3ED05A68616A42F400625A602C
:104D30005A6822F460425A605A68013942EA4132A4
:104D40005A60DA6AE16922F47002DA62DA6A0139D9
:104D500042EA0152DA629A6822F400729A609A6812
:104D600094F8301042EA41229A609A68616922F40C
:104D700080629A609A68002042EA81229A606064A8
:104D8000236C23F0030343F001032364002384F81E
:104D90003C3038BD9A6822F070629A609A6822F0BE
:104DA0004052B2E75A6822F40062C9E70120EDE7F9
:104DB0000120EEE7002301400100000F0368D86CDA
:104DC00070470000F7B50023019390F83C30012BA9
:104DD000054600F08680012380F83C3008682B6887
:104DE0008E68092884B233D904EB4402DF681E3A86
:104DF0004FF0070C0CFA02FC27EA0C07DF60DF68B3
:104E000006FA02F23A43DA604968062901EB8102A8
:104E10002DD8596B053A1F26964021EA06015963A1
:104E2000596B04FA02F20A435A632F4A93420AD199
:104E3000122837D12D4B5A6822F400025A605A6862
:104E400042F480025A60002085F83C0003B0F0BDB7
:104E50001A6900EB400C072707FA0CF722EA070251
:104E60001A611A6906FA0CF616431E61CCE70C2982
:104E70004FF01F010BD81E6B233A914026EA010127
:104E80001963196B04FA02F20A431A63CDE7DE6A6A
:104E9000413A914026EA0101D962D96A94400C4313
:104EA000DC62C2E7124B984201D01128CBD10F4BE4
:104EB0005A6822F480025A605A6842F400025A602A
:104EC0000B4B9842BFD10B4B0B4A1B68B3FBF2F361
:104ED0000A2253430193019B002BB4D0019B013B59
:104EE000F8E70220B2E700BF0020014000230140A4
:104EF000120000107C00002040420F000749CA68E1
:104F000022F4E0620302120403F4E063120C134380
:104F100043F0BF6343F40033CB60704700ED00E023
:104F2000164B30B5DC68C4F30224C4F10703251D19
:104F3000042B28BF0423062D4FF0FF358CBF033C04
:104F4000002405FA03F321EA0303A54022EA05023F
:104F5000A340002843EA0203ACBF00F16040084AC6
:104F60004FEA0313B8BF00F00F00DBB2AABF00F591
:104F70006140135480F8003330BD00BF00ED00E005
:104F800014ED00E0002807DB044A4109012300F08A
:104F90001F00834042F82130704700BF00E100E06D
:104FA00010B5044650B1437903F0FF0213B9027102
:104FB000FCF7BAFF01236371002010BD0120FCE75C
:104FC00010B5044620B390F8393003F0FF021BB946
:104FD00080F83820FCF7C0FF022384F839302368BA
:104FE00061681A6822F440320A431A605A6BA16859
:104FF00022F007020A435A631A6CE1686FF30D024C
:105000000A431A6400200123E06384F8393010BD9C
:105010000120FCE770477047036870B55E681D6843
:10502000F207044614D5E90512D51A6822F48072F5
:105030001A60C26B42F00102C26301229A6004232B
:1050400080F83930002380F83830436903B198473D
:10505000B20616D5AB0414D523681A6822F40052A0
:105060001A6020229A60E36B43F00203E363042397
:1050700084F83930002384F8383063690BB1204656
:105080009847300716D5290514D523681A6822F4E5
:1050900000621A6008229A60E36B43F00403E36342
:1050A000042384F83930002384F8383063690BB165
:1050B0002046984772070BD56B0509D523681A68F7
:1050C00022F480621A6004229A602046FFF7A2FF51
:1050D000B00714D5A90512D523681A6822F4007206
:1050E0001A6002229A60E36BE363012384F839308B
:1050F000002384F8383023690BB120469847F20624
:1051000013D5EB0411D523681A6822F480521A6073
:1051100010229A60E36BE363012384F839300023A3
:1051200084F838302046FFF776FF70BDF0B590F870
:105130003820012A03464FF002002BD0012283F8C9
:10514000382083F8390003EB0112D2E90740556A91
:10515000174F44EA0040093C012C9CBF05F07F42F8
:1051600010434FEA01161A6888BF40EA056091B9FA
:10517000516A394001435162012C9969916103D808
:10518000596A21F07F4191620122002083F8392081
:1051900083F83800F0BDD16939400143D1619919D4
:1051A000012C896911619CBF25F07F451562EBE7F1
:1051B000F0FFFC002DE9F74FDFF8BC916C4A0023AB
:1051C0000D6801249C4004EA0506AC4340F0B7801A
:1051D0004D68032705F003044FEA430807FA08FC6B
:1051E000671E012F6FEA0C0C34D8876807EA0C0E93
:1051F000CF6807FA08F747EA0E078760476827EA8B
:10520000060EC5F300179F4047EA0E074760C768C0
:1052100007EA0C0E8F6807FA08F747EA0E07022C18
:10522000C76019D14FEAD30A00EB8A0A03F0070BD3
:10523000DAF820704FEA8B0B4FF00F0E0EFA0BFED0
:1052400027EA0E0E0F6907FA0BF747EA0E07CAF8AE
:10525000207001E0032CDAD1076804FA08F407EAA9
:105260000C073C4315F4403F046068D000240194CF
:10527000D9F8444044F48044C9F84440D9F8444043
:1052800023F0030707F1804704F4804407F59C37B7
:10529000019403F0030C019CD7F808E04FEA8C0C52
:1052A0000F2404FA0CF42EEA040E324CA0424DD026
:1052B00004F58064A0424BD004F58064A04249D03C
:1052C00004F58064A04247D004F58064A04245D034
:1052D00004F58064A04243D004F58064A04241D02C
:1052E00004F58064A0423FD004F58064A0423DD024
:1052F00004F58064A04214BF0A24092404FA0CF4C3
:1053000044EA0E04BC609468F74315F4801F0CBF98
:105310003C4034439460D46815F4001F0CBF3C40FB
:105320003443D460546815F4003F0CBF3C40344310
:1053300054601468ED0354BF3C403443146001339F
:10534000102B7FF43DAF03B0BDE8F08F0024D5E70C
:105350000124D3E70224D1E70324CFE70424CDE7D7
:105360000524CBE70624C9E70724C7E70824C5E7D7
:10537000003C01400000024000380240036919422D
:1053800014BF0120002070470AB1816170470904F1
:10539000FBE7436901EA030221EA030141EA024112
:1053A0008161704701684B6913F480634FF000021C
:1053B00010D06FF480634B612023026380F83D308E
:1053C00080F83E20036C80F83C2043F00403036423
:1053D00001207047184670472DE9F84606460F46EB
:1053E00091461D464FEA114A3368BAF1010F0CBFCE
:1053F0005C699C6927EA0404A4B2B4FA84F46409E1
:10540000A14501D0002025E06A1CEED0FFF716FC74
:10541000089BC01AA84201D8002DE5D13368BAF123
:10542000010F0CBF5B699B6927EA03039BB2B3FAC8
:1054300083F35B099945D7D100232022336386F893
:105440003D2086F83E30326C86F83C3042F0200237
:1054500032640120BDE8F8862DE9F04104460F468C
:10546000164698462568686927EA000080B2C0B1F0
:105470006B695A0517D52B6843F400732B606FF4E2
:1054800080636B6120220023236384F83D2084F82D
:105490003E30236C43F004032364002384F83C3043
:1054A0000120BDE8F081731CDDD0FFF7C7FBA0EB46
:1054B0000800B04201D8002ED4D123685A6927EAE7
:1054C000020292B2002ACDD000232022236384F866
:1054D0003D2084F83E30236C1343DDE770B504466D
:1054E0000D46164623685B691B0601D500201EE0A9
:1054F0002046FFF757FFC8B96A1CF3D0FFF79EFBA1
:10550000801BA84201D8002DECD123685B6913F001
:105510008003E7D12022236384F83D2084F83E30C5
:10552000226C84F83C3042F020022264012070BDDD
:105530002DE9F0431546026885B0DDE90C789946FF
:10554000136843F4807313600E463B46CDF8008029
:1055500000224FF001110446FFF73EFF236838B1E7
:105560001B68DB0502D54FF400732364032620E09B
:1055700006F0FE061E611A4943463A462046FFF7EA
:105580006BFFA8B9236803905A6903929B69039340
:10559000424639462046039BFFF7A0FF064660B10E
:1055A000236C042B01BF2268136843F4007313605B
:1055B0000126304605B0BDE8F083B9F1010F23683C
:1055C00002D1EDB21D61F4E72A0A1A61394642465A
:1055D0002046FFF783FF0028E2D12368F1E700BFF0
:1055E000020001002DE9FF479A46036815461A6834
:1055F00042F480621A601A68DDE90C7842F4807225
:105600001A600E463B46CDF8008000224FF0011193
:105610000446FFF7E1FE236838B11B68DB0544BF91
:105620004FF400732364032021E05FFA86F906F04B
:10563000FE061E612B4943463A462046FFF70CFF03
:10564000A0B9236803905A6903929B690393424669
:1056500039462046039BFFF741FF58B1236C042BCA
:1056600001BF2268136843F400731360012004B083
:10567000BDE8F087BAF1010F23681AD1EDB24246B6
:105680001D6139462046FFF729FF02460028E5D173
:1056900021680B6843F480730B602046CDF80080CE
:1056A0003B464FF00111FFF797FE226860B1136887
:1056B000B4E72A0A1A61394642462046FFF70EFF30
:1056C0000028CBD12368D9E749F0010313610549CC
:1056D00043463A462046FFF7BFFE003818BF012078
:1056E000C5E700BF0200010070B504460D4616462E
:1056F00023685B695B0701D500201EE02046FFF7A9
:1057000051FEC8B96A1CF3D0FFF798FA801BA84273
:1057100001D8002DECD123685B6913F00403E7D1B5
:105720002022236384F83D2084F83E30226C84F8E4
:105730003C3042F020022264012070BD70B5044666
:105740000D46164621684B6913F0400301D0002036
:1057500011E04A69D2060FD56FF010024A6120228B
:10576000236384F83D2084F83E30236C23640023B7
:1057700084F83C30012070BDFFF760FA801BA8421E
:1057800001D8002DDED123685B6913F04003D9D125
:105790002022236384F83D2084F83E30236C134399
:1057A000E4E7000070B5044608B9012070BD90F828
:1057B0003D3003F0FF021BB980F83C20FCF7EEFB04
:1057C000242384F83D3023681A6822F001021A600D
:1057D0001A6842F400421A601A6822F400421A6001
:1057E00000F08AFE3F4B65689D4294BF3E4B3F4BA5
:1057F00098428CBF00230123002BD6D12268394E5A
:1058000051683B4BB0FBF3F321F03F011943B54224
:10581000516088BF4FF49676116A88BF734321F0B8
:105820003F0184BF4FF47A76B3FBF6F301330B43A9
:105830001362D169431E2B4821F44F41854221F068
:10584000FF0132D86D0040F6FC70B3FBF5F3013375
:10585000034242D0C3F30B031943D161D4E90730AB
:105860001168034321F0C0010B4313609168D4E930
:10587000030321F40341034321F0FF010B43936031
:10588000D4E90530D168034321F0FF010B43D36015
:10589000136843F00103136000202023206484F880
:1058A0003D30206384F83E0080E7A06850B905EBE6
:1058B0004505B3FBF5F30133C3F30B037BB143F4AD
:1058C0000043C9E719206843B3FBF0F30133C3F386
:1058D0000B0323B143F44043BEE70423BCE7012399
:1058E000BAE700BFA08601007F841E00FF083D00CC
:1058F00040420F002DE9F743044699460C9E0F469F
:105900009046FFF79BF994F83D30202B054603D0D5
:10591000022003B0BDE8F08300903C491923012226
:105920002046FFF759FD0028F2D194F83C30012BB6
:10593000EED02068012384F83C300368D9075EBFAD
:10594000036843F001030360036823F4006303600A
:10595000212384F83D30402384F83E300023236423
:105960000A9B6362BDF82C306385638D2385284BC9
:10597000E3624246CDE900654B4639462046FFF7D3
:10598000D7FD00282AD00120C3E7FFF7A7FD40B1CB
:10599000236C042B01BF2268136843F40073136067
:1059A000F1E7636A27681A4612F8011B39616262DF
:1059B000628D218D013A92B262857A69481E80B269
:1059C000520720850AD548B15A783A61023363629A
:1059D000638D013B02399BB221856385238D2A4665
:1059E00031462046002BD0D1FFF77EFE0028CFD1D4
:1059F0002268136843F400731360202384F83D3059
:105A000084F83C0084F83E0083E700BF02001000E9
:105A10000000FFFF2DE9F043044687B09946109F30
:105A20000D469046FFF70AF994F83D30202B0646C4
:105A300004D00225284607B0BDE8F08300907A49DB
:105A4000192301222046FFF7C7FC0028F1D194F862
:105A50003C30012BEDD02068012384F83C300368F2
:105A6000DB075EBF036843F001030360036823F4B0
:105A700000630360222384F83D30402384F83E30E5
:105A8000002323640E9B6362BDF83C306385638D05
:105A90002385664BE3622946CDE900764B464246B4
:105AA0002046FFF79FFD054608B10125C2E7228D7C
:105AB0002368B2B902905A6902929A690292029AD4
:105AC0001A6842F400721A60DFF86481238D002B9B
:105AD0002CD1202284F83D2084F83C3084F83E30DC
