:020000040800F2
:10000000000003205D060008F5210008F721000824
:10001000F9210008FB210008FD2100080000000074
:10002000000000000000000000000000A1670008C0
:10003000FF2100080000000031680008C5600008CA
:10004000AD060008AD060008AD060008AD060008C4
:10005000AD060008AD060008AD060008AD060008B4
:10006000AD060008AD060008AD060008AD060008A4
:10007000AD060008AD060008AD060008AD06000894
:10008000AD060008AD060008AD060008AD06000884
:10009000AD060008AD060008AD060008AD06000874
:1000A000AD060008AD060008AD060008AD06000864
:1000B000AD060008AD060008AD060008AD06000854
:1000C000AD060008AD060008AD060008AD06000844
:1000D000AD060008AD060008AD060008AD06000834
:1000E000AD060008AD060008AD060008AD06000824
:1000F000AD060008AD060008AD060008AD06000814
:10010000AD060008AD060008AD060008AD06000803
:10011000AD060008AD06000801220008AD06000883
:10012000AD060008AD060008AD060008AD060008E3
:10013000AD060008AD060008AD060008AD060008D3
:10014000AD060008AD060008AD060008AD060008C3
:10015000AD060008AD060008AD060008AD060008B3
:10016000AD060008AD060008AD060008AD060008A3
:10017000AD060008AD060008AD060008000000004E
:10018000AD060008AD060008AD060008AD06000883
:10019000AD060008AD060008AD060008AD06000873
:0C01A0000D220008AD060008192200081E
:1001B00010B5054C237833B9044B13B10448AFF3A1
:1001C00000800123237010BD800300200000000088
:1001D0009426020808B5034B1BB103490348AFF34B
:1001E000008008BD0000000084030020942602085F
:1001F00001F0FF01102A2BDB10F0070F08D010F8D8
:10020000013B013A8B422DD010F0070F42B3F6D1DB
:10021000F0B441EA012141EA014122F007047FF0F4
:1002200000070023F0E80256083C85EA010586EA4B
:10023000010685FA47F5A3FA87F586FA47F6A5FA87
:1002400087F68EB9EED1F0BC01F0FF0102F0070293
:1002500032B110F8013B013A83EA010313B1F8D13E
:100260000020704701387047002D06BF354603381F
:10027000073815F0010F07D1013015F4807F02BF58
:10028000013015F4C03F0130F0BC0138704700BFA9
:100290007BB972B90029BEBF00204FF0004106E0D3
:1002A00008BF00281CBF6FF000414FF0FF3000F086
:1002B000D3B9ADF1080C6DE904CE002909DB002BA0
:1002C0001ADB00F04DF8DDF804E0DDE9022304B0AC
:1002D0007047404261EB4101002B1BDB00F040F80E
:1002E000DDF804E0DDE9022304B0404261EB4101A6
:1002F000524263EB43037047524263EB430300F007
:100300002FF8DDF804E0DDE9022304B0404261EBA0
:1003100041017047524263EB430300F021F8DDF8DE
:1003200004E0DDE9022304B0524263EB430370476B
:1003300053B94AB9002908BF00281CBF4FF0FF314C
:100340004FF0FF3000F088B9ADF1080C6DE904CE34
:1003500000F006F8DDF804E0DDE9022304B07047A0
:100360002DE9F047089D8E4604468846002B4AD169
:100370008A42174662D9B2FA82F64EB1C6F120031C
:1003800001FA06F820FA03F3B74043EA0808B4403C
:100390004FEA174E1FFA87FCB8FBFEF1230C0EFB49
:1003A000118843EA084301FB0CF29A4209D9FB1871
:1003B00001F1FF3080F0EA809A4240F2E780023992
:1003C0003B449A1AA3B2B2FBFEF00EFB102243EAA2
:1003D000024300FB0CFC9C4509D9FB1800F1FF32DD
:1003E00080F0D6809C4540F2D3803B44023840EAFE
:1003F0000140A3EB0C0300211DB1F3400022C5E92D
:100400000032BDE8F0878B4205D90DB1C5E9000186
:1004100000210846F5E7B3FA83F1002946D1734578
:1004200002D3824200F20581841A6EEB030201209E
:100430009046002DE5D0C5E90048E2E7002A00F02B
:100440009080B2FA82F6002E40F0A4808A1A030C43
:100450004FEA174E80B2BCB20121B2FBFEFC0EFB8C
:100460001C2243EA024304FB0CF29A4207D9FB1810
:100470000CF1FF3802D29A4200F2E080C4469B1A87
:10048000B3FBFEF20EFB123340EA034302FB04F41B
:100490009C4207D9FB1802F1FF3002D29C4200F2C5
:1004A000CA8002461B1B42EA0C40A5E7C1F12006A8
:1004B0008B4022FA06F71F430EFA01F420FA06F3E6
:1004C0002EFA06FE4FEA1749234300FA01F81FFAF5
:1004D00087FCBEFBF9F01C0C09FB10EE44EA0E444D
:1004E00000FB0CFEA64502FA01F209D93C1900F105
:1004F000FF3A80F09C80A64540F2998002383C4447
:10050000A4EB0E041FFA83FEB4FBF9F309FB1344BA
:100510004EEA044403FB0CFCA44508D93C1903F142
:10052000FF3E80F08280A4457FD9023B3C4443EAF1
:100530000040A4EB0C04A0FB02EC64457346E146CA
:1005400062D35FD05DB1B8EB030264EB090404FA37
:1005500006F622FA01F31E43CC40C5E900640021EF
:100560004FE7B1FBF2FC010C41EA0E4180B240EAD8
:1005700001423B4638463C46B846BE462026B1FBC3
:10058000F7F1A2EB080241EA0C4166E7014618E7E1
:1005900010462CE7C6F120022EFA02F3B740B14014
:1005A00020FA02F24FEA174E0A43B3FBFEF8BCB240
:1005B0000EFB1833110C41EA034108FB04F9B0406B
:1005C00089454FEA104380B23ED9791808F1FF3CC3
:1005D00001D289451FD8A1EB0901B1FBFEF909FB46
:1005E00004F80EFB191192B242EA0142424529D2A7
:1005F000BA1809F1FF31C4D24245C2D2A9F10201B1
:100600003A44BEE7F0459DD2BEEB02036CEB070C0B
:100610000138E14696E7A7EB09094944A8F1020C25
:10062000B1FBFEF909FB04F8DBE773467FE75046B0
:1006300066E70846FDE63B44023A33E7ACF1020CBC
:100640003B441CE749469CE7A1EB0901C446B1FBCA
:10065000FEF909FB04F8C4E7704700BFDFF834D0A7
:10066000002103E00C4B5B58435004310B480C4B0A
:1006700042189A42F6D30B4A02E0002342F8043BA8
:10068000094B9A42F9D303F0C3FA21F095FA01F02D
:1006900061F8704700000320A0E204080000002079
:1006A000640100208003002010350120FEE7704720
:1006B00008B500F0B9FDBDE8084000F03DBD00F010
:1006C000B5BD704710B50421044620F089F82046D6
:1006D00010BD000038B50C4B0C4C18800C4B822020
:1006E00019806368984740F6110398420AD1094D72
:1006F00023682C60822098472B688220DB6898470B
:10070000002038BD0120FCE7A60300204C0000209B
:10071000A4030020A80300204FF4A071F020FFF7ED
:10072000D9BF0000F7B5394D2B6804461B698220FC
:100730009847208000284ED02B680DF106025B6997
:1007400001A982209847324B1B78002B4BD0BDF873
:10075000062040F674639A423FD9ADF80630BDF8E2
:1007600006209B1A9BB20A2B42D90B22B3FBF2F351
:10077000284A1288934201D9013A93B2BDF8042065
:10078000254840F6B8318A4234D8C2F571620E323B
:10079000016892B20F25B2FBF5F2204D2D88AA42D6
:1007A00084BF05F1FF35AAB28A4215468EB22AD916
:1007B000921B91B21A4E3768BB42BAB28CBF9A1ADA
:1007C000D21A92B211440529C4BF05603360036890
:1007D00063803368A38003B0F0BDB32A9CBFB4220A
:1007E000ADF80620BBE7BDF80630A3F5B473B9E752
:1007F0000023C3E7C2F56D62083292B20E2A016887
:10080000C8D800252A46891A89B2D3E7A803002050
:100810005C170020A4030020A0030020A6030020F2
:100820009C03002037B568460D461446FFF77AFF53
:10083000BDF8000030B1BDF802302B60BDF80430C7
:100840002360012003B030BD032821D8DFE800F089
:10085000020B12190F4B1A68B2FA82F252090421E4
:100860000D4803F069BC0B4B5A68B2FA82F2520988
:100870000821F5E7074B9A68B2FA82F25209102173
:10088000EEE7044BDA68B2FA82F252092021E7E778
:10089000704700BFAC03002000100240032821D89D
:1008A000DFE800F0020B12190F4B1A68003A18BF6C
:1008B000012204210D4803F03FBC0B4B5A68003A5B
:1008C00018BF01220821F5E7074B9A68003A18BFC4
:1008D00001221021EEE7044BDA68003A18BF01222A
:1008E0002021E7E7704700BFAC0300200010024062
:1008F00003280DD8DFE800F00206080A04210548A5
:1009000003F01FBC0821FAE71021F8E72021F6E7E1
:10091000704700BF0010024008B5032811D8DFE877
:1009200000F0020A0C0E0421074803F0FFFB431EEF
:100930005842584108BD0821F6E71021F4E720216C
:10094000F2E70020F3E700BF0010024070B5084D49
:1009500000240126E0B2FFF7DFFF18B12B68012B5E
:1009600018BF2E600134052C05F10405F2D170BDCD
:10097000AC030020012380F8781080F879307047AC
:100980007047002070470000034B4164003918BFD6
:1009900001211970704700BFCF2701207047002048
:1009A0007047836B0BB10846184770474FF6FF70CE
:1009B0007047406803689B691847704770477047E5
:1009C0007047704710B5044600F046FD23680349A0
:1009D000D3F890302046BDE810401847000000D002
:1009E00008B503680446D3F8843098472368204646
:1009F000DB6F984700F0ECF8236820465B6F984760
:100A0000292001F017F900F0E3F8236820465B6F16
:100A10009847F8E710B5044608F0B8FC236820466C
:100A2000D3F8BC30BDE81040184700F0F9BC00F026
:100A3000FDBC00F02FBD00F0CFBC00F03FBD00F0CA
:100A400047BD00F0D3BC07F0CFBE10B584210446EB
:100A50001FF0C6FE204610BD10B590F8341090F877
:100A600078400C4B8C421A7809D03AB90A4A0B49A3
:100A70001488088810800C8001221A7010BD002A8A
:100A8000FCD0054A05491488088810800C80002293
:100A9000F3E700BFC8270120C4270120C627012093
:100AA00070B50D46194635B9094B0A4A0A4840F255
:100AB000FF2120F0D1FDC0E90F52084B003A18BFCA
:100AC00001221A700368BDE87040D3F890301847CF
:100AD000042702083C2702088A270208CE270120A3
:100AE00008B5094B1B888B4203D8084B1B889342DF
:100AF00005D9074B074A0848A32120F0ADFD074B55
:100B00001980074B1A8008BDC4270120C627012081
:100B1000CF270208322802088A270208CA270120A4
:100B2000CC270120034690F87A0018B15868036872
:100B30001B68184770470000012108B500220846CD
:100B400005F04AFB0A4B186028B90A4B0A4A2821CB
:100B50000A4820F081FD00220421012005F0DBFB82
:100B6000074B186018B9074B034A2C21F0E708BD62
:100B7000C003002075280208BE280208ED280208DC
:100B8000BC0300202F290208024B4FF0FF311868E8
:100B900005F06CBBC0030020014B186805F092BB48
:100BA000C0030020024B0021186805F05FBB00BFA6
:100BB000C0030020FFF7F0BF03480449006800238A
:100BC0001A4605F0E3BB00BFBC0300200400002070
:100BD00013B5084C00231A4601A9206805F007FC4C
:100BE00020684FF0FF33002201A905F000FC02B09D
:100BF00010BD00BFBC03002003685B6C18470120D8
:100C0000704703689B6A1847FEE740F2EF30704771
:100C1000054B0360054B4FF08062C3F88820BFF39B
:100C20004F8FBFF36F8F7047E834020800E100E098
:100C300010B504464FF45A61FFF7EAFF20461FF053
:100C4000CFFD204610BD000082B0002301930E4B63
:100C50001A6B42F400021A631A6B02F4000201924A
:100C6000019A1A6942F400021A611A6922F4000218
:100C70001A61064B064A1A61064A5A61064B4FF042
:100C800080629A6002B0704700380240F01800207D
:100C9000E90E0008090C000800E100E008B50A2888
:100CA00009D8DFE800F006100E0808080810101038
:100CB0001000022008BD054B054A0648902120F08F
:100CC000CBFC0020F6E70120F4E700BF7129020801
:100CD0008C290208D729020838B50C46887FFFF70F
:100CE000DDFFA58AE28A164B2169586342EA054274
:100CF0005A64628BD963521B1A642568082D0ED181
:100D00009A611A615862207F0E4A42EA0062DA61F3
:100D1000E2681A620C4A5961D9601A6038BD002233
:100D2000D8611A61E1680A0A480902F4784200F4BD
:100D3000FC600243C1F3C4010A439A63034AECE72F
:100D400000B002400900010001230200012303005A
:100D500008B50B280BD8DFE800F00612100A0A0AC3
:100D60000A0808080808022008BD0520FCE7054B12
:100D7000054A06486F2120F06FFC0020F4E70120AF
:100D8000F2E700BF71290208172A0208D7290208D2
:100D90002DE9F04191F81D800C464046FFF7D8FF41
:100DA000A77F05463846FFF7D3FF06463846FFF7CC
:100DB00075FFA18A628B444B521A1A649A61228B86
:100DC000521A1A61E28A586342EA01425A6421695E
:100DD0006268D963DA602068802828D0227F0FD823
:100DE000202867D0402865D004281AD0364B45EA21
:100DF000026545F40035B845DD6161D0334A44E011
:100E0000B0F5807F04D0B0F5007FEFD1304800E02E
:100E1000304840EA0262DA61E2681A625E62596151
:100E200032E045EA026242F40032DA61F6E7A06895
:100E3000021DDA62227F45EA026545F40035DD6174
:100E40005E625961017841B1012921D0224B234AC8
:100E500023484FF48D7120F0FFFBDA69418822F4BA
:100E60007F42013922F0100242EA0122DA610121B7
:100E7000154BDA6942F02002DA61DA699206FCD495
:100E800010229A600029B9D0164A1A60BDE8F08194
:100E9000B2F1FF01DA69408822F47F4200F1FF30AD
:100EA00022F0100242EA002242F0100218BF012193
:100EB000DA61DDE745EA0262034B42F40032B4E74F
:100EC00042F20132E1E700BF00B00240012301001D
:100ED000090002000A000200612A02087B2A0208B7
:100EE000D729020801230200024B1B6858680368D7
:100EF0005B691847D027012070B5044625460A4B88
:100F00000C30002660602672667245F8203B602235
:100F1000294608F091FB04F55A63EE6024359D42A2
:100F2000FBD1204670BD00BFE8340208034B1A68AD
:100F3000D207FCD423229A60704700BF00B0024061
:100F40007047000030B50F4C2568ED07FCD4232511
:100F50000904A56041F001010225FF2B656361646E
:100F6000E0630AD00849656241EA0363E361074B25
:100F700022626061E060236030BDE561039BA36392
:100F8000034BF8E700B00240090001000100020035
:100F90000100030030B50E4C2568ED07FCD4232575
:100FA0001204A56042F001020225FF2B6563626412
:100FB000E063E16008D01B0643F00213E361054BD8
:100FC00065626061236030BD034BE3610123F9E793
:100FD00000B0024001000200020002FF30B50B4CDD
:100FE0002568ED07FCD4232512041B06A56043F4F5
:100FF0000033022542F0010265636264E063E16050
:10100000E361034B65626061236030BD00B0024064
:1010100001000200012070474020704700EB811062
:101020000830704700EB811008307047012070478E
:101030004FF4077070474FF4077303FB010008304B
:1010400070474FF4077303FB01000830704701201D
:1010500070471020704700EB01100830704700EB1C
:10106000011008307047084601F046BB10B5034B2D
:101070000360044607F00FF9204610BDA0350208B2
:1010800010B50446FFF7F2FF204648211FF0A8FBE9
:10109000204610BD10B5034B0360044607F0FBF873
:1010A000204610BD6C35020810B50446FFF7F2FF6C
:1010B00020464FF409711FF093FB204610BD00003D
:1010C00010B5034B0360044607F0E5F8204610BD59
:1010D0003835020810B50446FFF7F2FF2046182104
:1010E0001FF07EFB204610BD10B5084B0360044680
:1010F00000F51470FFF7BAFF04F12C00FFF7CAFFE8
:1011000004F11400FFF7DCFF204610BDD4350208BF
:1011100008B50248FFF7E8FF08BD00BF9C12002099
:1011200010B50446FFF7E0FF20464FF47E711FF034
:1011300057FB204610BD00002DE9F34101F0E6F811
:10114000054601F0E7F800240146234628462246DA
:10115000009410F093FA274B274A1A60204602F0B9
:10116000B5F9264D264B274A27489A6010F0EEF92C
:101170002B68BFF35B8FDB0735D428461FF032FBAB
:1011800088B3224C224B236004F5277604F1140027
:1011900004F12C0804F514776060C4F80880E76057
:1011A000266107F079F81B4B6361404607F074F83D
:1011B000194BE362384607F06FF8184BC4F8503209
:1011C00004F5267002F080FA224604F526713046B6
:1011D00002F0FAF9304601F08FFA114820F05AFA7D
:1011E00028461FF00BFB0F4802B0BDE8F041FFF7A7
:1011F000E9BB00BF342801204804002098120020D9
:10120000680400204C040020080000209C120020EC
:10121000D4350208383502086C350208A0350208BA
:1012200011110008C4030020704700000148FFF7B7
:10123000D7BB00BFC403002070B5264E264C274DF7
:10124000274B23603046FFF757FE284615F01CFB5E
:1012500024480EF085FA244B2448DC6000224FF429
:101260008071C3E9121222491A86C3E91A12214970
:1012700083F85820C3E91E011F49C3F880101F4995
:101280001F480B60F021C3E90422C3E90622C3E929
:101290000822C3E90A22C3E90E22C3E91022C3E9E6
:1012A0001422C3E917225A6683F870205A67C3E9EB
:1012B000016501801348018013484FF4A07101803B
:1012C0001248018012490A70012283F83420114A21
:1012D0001A6070BDF40400209412002068040020FD
:1012E000F42602084C040020C40300200000010181
:1012F00001000001000450001A001400D027012052
:10130000C4270120CA270120C6270120CC2701209D
:10131000C8270120FC3302080148FFF779BC00BF51
:10132000F40400200020704781807047C18070471E
:10133000018170474181704770477047704770471F
:10134000704710B4C4880368121B84885B6D091B46
:1013500012B25DF8044B09B218474FF6FF73838150
:101360004FF0FF3303621368C361106070470020C1
:1013700070478B88838001207047704780F8261063
:10138000704790F82600704710B50022B1F9084068
:10139000B1F90A10028042808480C18010BD002211
:1013A000028042808280C28070470177704780ED62
:1013B000080A704780F82410704780F8251070479D
:1013C00001207047983070478C30704784307047E8
:1013D0007047704770470000034B902283F85A23F0
:1013E00083F85823704700BF00E100E0094A0A492A
:1013F000D3680A48C3F30A03013B9BB20B8011690F
:10140000C1F30A01013901801364536B43F00103F6
:101410005363704700680140961600209416002020
:10142000014BD3F8AC00704700680140024B012229
:10143000C3F8AC105A6270470068014010B52C2107
:1014400004461FF0CDF9204610BD10B5BC2104465E
:101450001FF0C6F9204610BD70B5044607F019FA12
:1014600023689D6E0CF0CAFE01462046A8472368FB
:10147000054AD3F88C502046AC460023BDE87040A6
:10148000A2F51631604700BF00B004D007F0E8B9FC
:1014900007F0F2B907F0AEB907F01DBB90F82520B0
:1014A00012B103685B691847704790F825201AB19C
:1014B00090F8242002B1186070470000034B4FF0F1
:1014C00080629A604FF080729A60704700E100E09D
:1014D000084B4FF08062C3F88820BFF34F8FBFF3F3
:1014E0006F8F4FF08072C3F88820BFF34F8FBFF328
:1014F0006F8F704700E100E070B50023124E8380CB
:10150000124B0360336893F8582005460AB1D86C33
:1015100000B998680368DB6A98473368B0FA80F4CA
:10152000D86C640930B10368DB6A9847002808BFAB
:1015300044F001042CB9064B064A07482C2120F040
:101540008BF8284670BD00BFD0270120E83502087F
:10155000B92A0208172B0208502B020870B5254E35
:101560003568BFF35B8F15F0010540D130461FF0A1
:1015700039F900283BD0204C204B256104F1340080
:10158000C4E90035C4E90255E584A562A5850EF0DD
:10159000CCFB04F1580009F003FD194BA36520466C
:1015A000184B40F8843BFFF7A7FF174BC4F8843073
:1015B0002433C4F88C304FF4C803C4E92835002321
:1015C000C4F8AC30C4F8B030C4F8B430C4F8B830A3
:1015D0000E480F4BC4F89050C4F89C50C4F8A85063
:1015E000C4F8983020F056F830461FF007F902484A
:1015F00070BD00BF981600209C160020E83C020831
:1016000008360208803602089C3C0208D513000800
:101610007C3C020838B5184C23685BB3174B184A5A
:101620001B6C11888B4216D1164B198803F06EFB88
:10163000236893F86A200025013283F86A2083F832
:101640007C50FFF7B9FA206807F0A0FE2846BDE8F5
:101650003840FFF7F9B803F059FB246823682046A7
:101660001B6A9847012384F87C300020BDE838408D
:10167000FFF714B938BD00BFD02701200068014032
:10168000961600209416002007B5064BADF806000C
:101690001B68054801220DF1060104F0D7F803B0DC
:1016A0005DF804FB0C0000209C17002008B56420A6
:1016B00004F086FDFBE7000030B595B01022002154
:1016C0000AA820F0D0F91422002103A820F0CBF9B9
:1016D00000241E4B01941A6C42F080521A641B6C59
:1016E00003F080530193019B194B02941A6842F452
:1016F00040421A601B6803F4404302930122029B9C
:101700004FF48033CDE9082302254FF480030821EC
:10171000CDE90E534FF4B473CDE9101308A8042398
:101720001393129503F04AFB03F00EFB0F23CDE950
:1017300003354FF4A0504FF48053CDE90603052143
:1017400003A8059403F016FD15B030BD0038024023
:101750000070004080B59AB002F068FAFFF7ACFF65
:10176000142200210DA820F07EF90024C74B00941C
:101770001A6BC748C74DDFF8588342F010021A634E
:101780001A6B02F010020092009A01941A6B42F058
:1017900020021A631A6B02F020020192019A02944D
:1017A0001A6B42F080021A631A6B02F080020292F6
:1017B000029A03941A6B42F004021A631A6B02F045
:1017C00004020392039A04941A6B42F001021A6312
:1017D0001A6B02F001020492049A05941A6B42F00B
:1017E00002021A631A6B02F002020592059A06942D
:1017F0001A6B42F040021A631A6B02F04002069222
:10180000069A07941A6B42F008021A631B6B03F0E6
:101810000803224607933C21079B02F08DFC9E485B
:101820000122022102F088FC22469B48042102F09A
:1018300083FC224699484FF4405102F07DFC01267A
:101840003C23CDE90D3692480F9403230DA90227BE
:10185000109302F087FB90480DA9CDE90D76CDE9F4
:101860000F4402F07FFB04238B480DA9CDE90D3610
:10187000CDE90F4702F076FB0DA94FF4405387489E
:10188000CDE90D36CDE90F4702F06CFB8448854B5E
:10189000036002F05DFADFF83CE2834B2C62C5E99D
:1018A00000E328464FF48043C5E90434C5E9024407
:1018B000C5E9064402F04EFE1021284603F092F8D6
:1018C00021462846794D03F0ACF84FF48273C5E900
:1018D00000834FF400791823C5E9069328460A23AC
:1018E000C5E90244C5E90444C5E90844AC62EB62B9
:1018F00003F050FF8F232246394667488DF8243085
:101900008DF8344002F018FC32464FF47A7309A97E
:10191000284603F09BFF4FF47A7332460DA9284600
:1019200004F040F9324639465B48614D02F004FC50
:101930009DF83430D32B04BF5E4B1E705E4B0126E6
:10194000C5E90036102240230024C5E904234FF4E2
:10195000C073C5E906344FF40063C5E908344FF499
:10196000005302274FF00409AB624FF0030A07232C
:101970000DA92846CDE90D73CDE90F934FF0080866
:10198000C5E90249CDE911A7139703F0E7FD4FF62A
:10199000FF7209A92846CDE90A86089409960C9495
:1019A00003F0FCFD304602F06DF94FF6FF7209A915
:1019B0002846CDE90978CDE90B6403F0EFFD4FF639
:1019C000FF7209A92846CDE909A8CDE90B9403F0D7
:1019D000E5FD4FF40C730893089B0C934FF6FF72D0
:1019E00009A92846CDE909980B9603F0D7FD40F2E6
:1019F0006A51284603F0F0FD34220DEB0200214627
:101A000020F031F82D4D2E4B2C61C5E9003409230F
:101A1000C5E905361D23C5E9073A40F20D1140F22C
:101A20004313C5E9091340F2171040F24713C5E903
:101A30000B032846C5E90244AC8685F8364003F01E
:101A400083F8FF214FF4806CF022CDE912140521B8
:101A5000CDE914C14FF4A0730DA9CDE90E24CDE951
:101A6000164228462246174D1893CDE910370D949B
:101A7000ADF864408DF8664003F01AF9124B2B6004
:101A80001B6898472B68114DDB6825E00038024041
:101A9000001002409C18002000080240000C024088
:101AA0003019002000300240A08601009C17002061
:101AB000681700205C170020400100A0F4170020E8
:101AC000006801405817002014000020F018002082
:101AD00000500140005C00409847134B2846C5E980
:101AE0000034C5E90274C5E90A47C5E90C4402F0AF
:101AF0003FF93146284602F0F1F9FEF7D9FDFEF72D
:101B0000D6FD04F0EDFA094A0948214604F014FB19
:101B1000084B094A18602146084804F00DFB084BA1
:101B2000186004F0EFFAFEE700B00240E836020861
:101B3000AD16000864170020C4360208BF0600086E
:101B400060170020704770477FB5094B8DF817204C
:101B50001B6802930DF117020123009201930A46BC
:101B60000146044802F09EFD07B05DF804FB00BF8B
:101B7000100000209C1800207FB500238DF817303E
:101B8000084B1B6802930A4601230DF117010091CF
:101B900001930146044802F015FE9DF8170007B0B6
:101BA0005DF804FB100000209C1800201FB5084CB5
:101BB00024680092CDE901340A4601230146054814
:101BC00002F000FE003818BF012004B010BD00BFB5
:101BD000100000209C18002002F054B810B5064CEC
:101BE00000222046042102F0A7FA20460122BDE887
:101BF0001040042102F0A0BA0008024038B50B4D95
:101C0000044601220A484FF4005102F095FA0022DE
:101C10000421284602F090FA2046FFF735FD2846B9
:101C20000122BDE83840042102F086BA00080240D3
:101C3000000C024038B50B4D044600220A484FF410
:101C4000005102F079FA00220421284602F074FAC9
:101C50002046FFF719FD28460122BDE8384004213F
:101C600002F06ABA00080240000C0240F7B5144EB8
:101C7000144F05460C4630460022042102F05CFA5F
:101C800000224FF40051384602F056FA2846FFF77A
:101C9000FBFC0D4B0D481B68224601A903F082FF97
:101CA000384601224FF40051019C02F045FA3046BB
:101CB0000122042102F040FA204603B0F0BD00BF2B
:101CC00000080240000C02400C0000209C1700207D
:101CD00001F0D8BF0268034B9A4201D101F0C0BFA6
:101CE000704700BF001000407047000082B00E4BEC
:101CF00000220092596C41F480415964596C01F4FE
:101D00008041009100990192196C41F08051196451
:101D10001B6C03F080530193019B0F216FF00100B6
:101D200002B001F0D5BF00BF003802400268094B85
:101D30009A4282B00BD100230193074B1A6B42F4F5
:101D400080521A631B6B03F480530193019B02B012
:101D5000704700BF003002400038024007B50F4B0B
:101D600002689A4216D10022A3F5F0430192196B42
:101D700041F4000119631B6B03F400030193052177
:101D80005A20019B01F0A4FF5A2003B05DF804EB38
:101D900001F0D0BF03B05DF804FB00BF00B002400B
:101DA0002DE9F043044689B01422002103A81FF056
:101DB0005AFE2268244B9A4243D1244C24480025E1
:101DC0000095236B43F004032363236B03F00403A8
:101DD0000093009B0195236B43F001032363236B66
:101DE00003F001030193019B4FF012094FF40073BC
:101DF0004FF001080327042603A9CDE90339CDE9F3
:101E00000587079602F0AEF84FF4807311480796E5
:101E100003A9CDE90339CDE9058702F0A3F80295BE
:101E2000236C43F400032364236C03F40003029344
:101E3000029B236A43F400032362236A23F4000312
:101E4000236209B0BDE8F083005C00400038024026
:101E50000008024000000240F0B599B00446142288
:101E6000002107A81FF0FFFD30220DEB020000212A
:101E70001FF0F9FD22685E4B9A4240F0B7800823BC
:101E80000C93C0231093042312930CA84FF4003337
:101E9000159303F037FA08B1FFF726FF554B564864
:101EA000002400945A6C42F080625A645A6C02F02A
:101EB00080620092009A01941A6B42F020021A6329
:101EC0001A6B02F020020192019A02941A6B42F0FE
:101ED00001021A631A6B02F001020292029A039441
:101EE0001A6B42F002021A631A6B02F002020392AA
:101EF000039A04941A6B42F040021A631A6B02F0C0
:101F000040020492049A05941A6B42F004021A6388
:101F10001A6B02F004020592059A06941A6B42F0BD
:101F200008021A631B6B03F00803069302250E26B2
:101F3000069B0B964FF4806307A9CDE90735CDE9E1
:101F4000094502F00FF841F658032C480B9607A9F3
:101F5000CDE907350927CDE9094502F003F8032348
:101F600027480B9707A9CDE90735CDE9094501F0C9
:101F7000F9FF4FF4706322480B9607A9CDE90735A6
:101F8000CDE9094501F0EEFF4FF40C631D480B96B7
:101F900007A9CDE90735CDE9094501F0E3FFC023E5
:101FA00019480B9607A9CDE90735CDE9094501F098
:101FB000D9FF082315480B9607A9CDE90735CDE9C8
:101FC000094501F0CFFF4FF4A0530E480B9707A926
:101FD000CDE90735CDE9094501F0C4FF5820224677
:101FE000052101F075FE582001F0A4FE19B0F0BDE6
:101FF0000068014000380240001402400000024026
:10200000000402400018024000080240000C024098
:1020100010B5044688B01422002103A81FF023FD48
:102020002268144B9A4223D103F5684300210191A1
:102030005A6C114842F480125A645A6C02F48012AD
:102040000192019A02911A6B42F020021A631B6BF3
:1020500003F020030293029B4FF4607202230321DA
:10206000CDE903230523CDE9061303A901F07AFF87
:1020700008B010BD00500140001402402DE9F041AD
:1020800086B0002303932B4B1C68002C4FD14FF0DC
:102090000108C3F80080284B00949A6B274842EA55
:1020A00008029A639B6B03EA080300930227032646
:1020B0000C25009B01A94FF63F03CDE90137CDE97F
:1020C000046501F04FFF1E48059501A9CDE9018780
:1020D000CDE9034601F046FF48F233131948059550
:1020E00001A9CDE90137CDE9034601F03BFF4FF6E9
:1020F00083731548059501A9CDE90137CDE903465C
:1021000001F030FF4CF203731048059501A9CDE9A9
:102110000137CDE9034601F025FF60230C48059502
:1021200001A9CDE90137CDE9034601F01BFF06B057
:10213000BDE8F08138190020003802400014024048
:10214000000802400018024000100240000C02404B
:102150000004024070B588B000230293204B1A6C33
:1021600042F010021A641B6C03F010030293054640
:1021700001A903A8029B03F0A7F8069B4BBB03F041
:1021800093F8184E184B336040F2E733F360174B67
:10219000B0FBF3F3013B7360304600233361B3605F
:1021A000B36103F0C9FE044680B9304603F09EFDDA
:1021B000044658B9362001F0BDFD0F2D0DD822463A
:1021C0002946362001F084FD094B1D60204608B0E9
:1021D00070BD03F069F84000D3E70124F6E700BFC3
:1021E000003802403C1900200010004040420F001F
:1021F0007C0000207047FEE7FEE7FEE7FEE7704741
:10220000014803F0B1BD00BF3C190020014802F0B5
:10221000F2BC00BFF4170020014801F0D5BD00BF9B
:10222000F01800200120704708B51FF0BFFC1623EE
:1022300003604FF0FF3008BD08B51FF0B7FC162350
:102240000360FEE770B50D4614460E46731B9C42B4
:1022500001DC204670BDAFF3008006F8010BF5E706
:1022600070B50D4614460E46731B9C4201DC204699
:1022700070BD16F8010BAFF30080F5E74FF0FF30AB
:1022800070474FF400534B600020704701207047A7
:10229000002070470A4A116808B5034609B9094980
:1022A00011601068694603448B4206D91FF07EFC1A
:1022B0000C2303604FF0FF3008BD1360FCE700BF44
:1022C0008419002010350120704710B50421044600
:1022D0001EF086FA204610BD08B5032913D8DFE8A2
:1022E00001F002060A0E01F03DF9006808BD01F098
:1022F00039F94068FAE701F035F98068F6E701F04E
:1023000031F9C068F2E70020F0E7000000487047AC
:10231000203702080620704713B5002451B1036826
:1023200001948DF8034001AA9C680DF10303A047B6
:1023300002B010BD0846FBE7C0897047008A7047AD
:10234000C088704780887047807A00F07F007047AF
:10235000807AC00970470020704700009FED010A95
:10236000704700BF00000000806A7047704710B5DA
:10237000082104461EF034FA204610BD704770470D
:1023800000F598730868496803C370477047704741
:102390004160704770477047064BC0F84C310023CE
:1023A000C0F8503100F5A273C0F84801C0F84031C0
:1023B000704700BF31250008012303727047704742
:1023C000704710B4C26841685410034601EB6200C4
:1023D000D20748BF0A599B685DF8044B48BFD358E1
:1023E00018470346406830B19A681AB9D86800F0B7
:1023F000010070470120704710B50C2104461EF003
:10240000EFF9204610BD10B5102104461EF0E8F982
:10241000204610BD10B54FF4AE7104461EF0E0F931
:10242000204610BD10B5402104461EF0D9F92046C3
:1024300010BD10B50BF0E2FE0368BDE81040DB6B89
:1024400018470000054B1B7801462BB1406818B1B6
:1024500003680C315B6E1847704700BFCF2701201F
:10246000037A70B50546BBB940680368DB699847D5
:1024700004463CB96868036805F10C011B6EBDE8B1
:1024800070401847A1886B8FC91A236820461B6BC0
:1024900009B29847A469ECE770BD10B50446D0F8BE
:1024A000400158B10368DB68984738B1D4F840015F
:1024B00003689B6898470023C4F8403110BD70B58D
:1024C000044690F8390094F838300130C0B2984290
:1024D00084F8390005D901232372002384F83930A8
:1024E00070BDB4F93A2000210EF088F8C30706D574
:1024F00000284FF6FF73C8BF0123184400B2238A97
:10250000C01AA08760680368DB69984705462DB943
:1025100060680368BDE870405B691847A988A38FAD
:1025200019442B6828461B6B09B29847AD69EEE742
:102530002DE9F14FD0E9556A0746B06803681B6A78
:102540009847EF2805D8444B444AA32144481FF03C
:1025500083F8706803681B6A98470F2803D8414BBB
:102560003E4AA421F2E7F06803681B6A98470B28EB
:1025700003D83D4B394AA521E8E70BF03FFEDFF8D1
:10258000F09004300BF078FED9F8000010B1036829
:10259000DB689847D9F8000010B103681B689847BA
:1025A000DFF8D080D8F8000010B103685B69984765
:1025B000D7F83C0110B103685B689847D8F8000071
:1025C00010B103681B689847D7F83C0110B1036845
:1025D0009B689847F068036800215B6A98474FF052
:1025E000000B224BC0F804B0044680F808B003602A
:1025F000B068036859465B6A9847054601F058F889
:102600007068036859465B6A98472946064601F098
:102610002FF8331DC7F83C61C9F80040C8F80050D6
:10262000CAF800302B68C6F808A02846DB68EE63BD
:102630009847336830461B689847214628460DF076
:10264000D7FF236820461B69984723685B692046AB
:1026500001B0BDE8F04F1847C72B0208552C0208FF
:102660002D2D0208742D0208172E02081C380208AE
:102670001828012014280120044B1B6893F85820C7
:102680000AB1D86C00B99868704700BFD027012004
:10269000F8B5174604460E460BF0BCFE124B1C6004
:1026A000124B2360124B0025C4E95135114BC4E98C
:1026B00053551868036801219B68C4E94F55C4E964
:1026C00055769847284600F001FFFFF7D5FF15F033
:1026D00084FFFFF7D1FF15F0FBFFFFF7CDFF16F0EA
:1026E00003F82046F8BD00BF24280120C83702089F
:1026F000B0370208D0270120064BC0F84C31002328
:10270000C0F8503100F5A273C0F84801C0F840315C
:10271000704700BF31250008064BC0F84C3100233C
:10272000C0F8503100F5A273C0F84801C0F840313C
:10273000704700BF09290008064BC0F84C31002340
:10274000C0F8503100F5A273C0F84801C0F840311C
:10275000704700BFCD2700082DE9F041054600264F
:10276000164B4660067245F80C3B044628460F4659
:1027700008F0BEFC124B84F838701B7884F839607E
:10278000A68723B9012323722046BDE8F0810D4BB3
:102790000D4FB3F90080E368B7F900109B6B266119
:1027A00028469847E3684146DB6B28469847284609
:1027B00008F019FC3B885B426387E5E74038020874
:1027C000CF270120C6270120C42701202DE9F0478B
:1027D000D0E9556A0746B06803681B6A9847B0F5A8
:1027E000077F05D2414B424AA32142481EF034FFE5
:1027F000706803681B6A98470F2803D83E4B3C4A11
:10280000A421F2E7F06803681B6A98473F2803D8C1
:102810003A4B374AA521E8E70BF0F0FCDFF8E090EF
:1028200004300BF029FDD9F8000010B10368DB6813
:102830009847D9F8000010B103681B689847DFF883
:10284000C480D8F8000010B103685B699847D7F8D6
:102850003C0110B103685B689847D8F8000010B1DC
:1028600003681B689847D7F83C0110B103689B6860
:102870009847F068036800215B6A98471421044672
:10288000FFF76AFFB068036800215B6A9847054656
:1028900000F0D4FE7068036800215B6A98472946FF
:1028A000064600F0A9FE331DC7F83C61C9F8004098
:1028B000C8F80050CAF800302B68C6F808A02846AF
:1028C000DB68EE639847336830461B6898472146BB
:1028D00028460DF08DFE236820461B699847236823
:1028E00020465B69BDE8F047184700BFC72B0208C8
:1028F000BA2E02082D2D0208742D0208172E020888
:1029000018280120142801202DE9F047D0E9556A44
:102910000746B06803681B6A9847EF2805D8414B03
:10292000414AA32141481EF097FE706803681B6A64
:1029300098470F2803D83E4B3B4AA421F2E7F068A2
:1029400003681B6A98473F2803D83A4B364AA521AB
:10295000E8E70BF053FCDFF8E09004300BF08CFC60
:10296000D9F8000010B10368DB689847D9F8000077
:1029700010B103681B689847DFF8C080D8F80000E2
:1029800010B103685B699847D7F83C0110B1036840
:102990005B689847D8F8000010B103681B68984737
:1029A000D7F83C0110B103689B689847F06803684A
:1029B00000215B6A984714210446FFF7CDFEB068FA
:1029C000036800215B6A9847054600F071FE706855
:1029D000036800215B6A98472946064600F048FED6
:1029E000331DC7F83C61C9F80040C8F80050CAF868
:1029F00000302B68C6F808A02846DB68EE639847CD
:102A0000336830461B689847214628460DF0F0FD94
:102A1000236820461B699847236820465B69BDE808
:102A2000F0471847C72B0208A52F02082D2D0208D2
:102A3000742D0208172E02081828012014280120DE
:102A40007047704770477047704730B5036885B06E
:102A50006D460181D3F884300146044628469847E4
:102A600095E807003C3484E8070005B030BD30B578
:102A7000036885B06D464181D3F884300146044631
:102A80002846984795E807003C3484E8070005B0DD
:102A900030BD0022028042808280C280704780F870
:102AA0003610704770B5036804461B6B154698478F
:102AB0002368294620465B6EBDE870401847002019
:102AC0007047806C7047704770477047704730B4EC
:102AD000C26844685510034604EB6200D20748BF41
:102AE00062599B6830BC48BFD358184703464068BA
:102AF00030B19A681AB9D86800F001007047012017
:102B0000704710B54C2104461DF06AFE204610BDEA
:102B100010B5102104461DF063FE204610BD10B50F
:102B20004FF4077104461DF05BFE204610BD08B54A
:102B3000FEF7B4FC08BD0000036870B55E6B124B75
:102B40001B6804468DB22BB9104B114A6C211148F9
:102B50001EF082FD1049828D0988914203D80F4BE7
:102B60000B4A6D21F3E713F812200D4B1B6853F845
:102B7000220003681B6B9847291A3346204609B286
:102B8000BDE87040184700BF282801209030020897
:102B9000D23002080D3102082C28012054310208DD
:102BA000302801206C30884208B505D10BF026FB97
:102BB000BDE80840FFF7B0BD08BD00224FF0FF316F
:102BC000C0E900218260704770B5036804461B6B42
:102BD000154698472368294620465B6BBDE8704040
:102BE000184770B504461D46BDF91060FFF7ECFFAD
:102BF0002368294620469B6B984723683146204628
:102C0000DB6BBDE8704018470022C0E90122C0E933
:102C10000322C0E90522C0E907224FF480728284B2
:102C2000014A0260704700BF64380208F8B5194BCA
:102C3000018F1B888B4206462AD9174B1B682BB97C
:102C4000164B174A17486C211EF006FD13F8112089
:102C5000154B1B6853F82250144B186800F072FC97
:102C60002B6807469B6B284698472B6804469B6C4D
:102C70003946284698472B6814FB00F45B6A3946AE
:102C800028469847A4B223181BB2A6F84630F8BDD0
:102C90000023FAE72C280120282801209030020880
:102CA000D23002080D3102083028012034280120DA
:102CB00038B5262204460D4600211EF0D4FE2046DB
:102CC000FFF7A2FF064B23602B88E384FF232046F7
:102CD00084F82830294608F0AEFD204638BD00BFF4
:102CE000003F020810B52622044600211EF0BBFE5C
:102CF0002046FFF789FF0A4BA3624FF6FF73A385B7
:102D00004FF47F020023C4E90C32064A2260238775
:102D10004FF0FF32C4E91023E363A364204610BDE3
:102D2000A0370208CC3802082DE9F04F04468FB0D6
:102D3000A04600250DF0B0FA914BE56348F8403B02
:102D40002622294640461EF08EFE4046FFF75CFFD5
:102D50008C4B236404F16C09FF2384F86630A5666C
:102D6000484608F09FFE04F1B4034FF6FF760CA925
:102D700018460393ADF83060FFF79AFF04F1E003C3
:102D80000CA918460493ADF83060FFF791FF04F5E5
:102D900086730CA918460593ADF83060FFF788FFDD
:102DA00004F59C7304F5C27B184604F5E87A029397
:102DB000FFF798FF5846FFF795FF0CA95046ADF86E
:102DC0003060FFF775FF704BC4F8D03101274FF02A
:102DD000FF33C4E980376D4BC4F8FC51C4E9833438
:102DE0006B4B84F80852C4E985354FF4A0732A462A
:102DF000009329464046F023261DFFF7F2FE4FF0D0
:102E00007F43A3664146304605F058FA4846BD2246
:102E10002321FFF7D9FE0CAA0BA94846ADF82C5088
:102E2000ADF8307008F0D5FB4FF00203A4F8A430E1
:102E30004846FFF7FBFE4FF0FF33C4E92A3304F5A1
:102E40000373C4F894304946304605F037FA3A46E1
:102E50000398DFF84091CC21FFF7B6FE4FF004084D
:102E60000398ADF830800CA908F0E5FC03993046D2
:102E700005F024FA3A460498A921FFF7A5FE049824
:102E8000ADF830800CA908F0D6FC0499304605F066
:102E900015FA3A4605988621FFF796FE0598ADF893
:102EA00030800CA908F0C7FC0599304605F006FAF9
:102EB0001D2342460298009307216023FFF791FEED
:102EC0004FF0FF33C4F86831D4F838310299D3F8A1
:102ED0008430A4F86C510DF118084046984798E8E2
:102EE000070004F5BA7383E807000298CDF8309024
:102EF0000CA9ADF8347008F00FFB0299304605F0CC
:102F0000DDF922230093732229465846F023FFF768
:102F100068FE4FF0FF33C4F8B431D4F88431A4F81C
:102F2000B85159464046D3F88430984798E807008E
:102F300004F5E07383E807000CA95846CDF83090FB
:102F4000ADF8345008F0E8FA5946304605F0B6F9C5
:102F50003A465046D021FFF737FE03225046022161
:102F600008F0B4F93946504608F0C3F9304684F801
:102F7000F851514605F0A2F920460FB0BDE8F08F98
:102F800074390208983E02081C3E02085C390208A7
:102F9000A52B0008A0370208406A7047806A704776
:102FA00070478A880B8810B5D20A4C88C1699BB2D9
:102FB00051F8220043EA0443184410BD10B50446FA
:102FC000BAB1107B68B1537BD27A1B0203F4E06381
:102FD0001A43236A03EB82031A888A4202D193F9C7
:102FE000020010BD05D8013880B204330028F3D1A7
:102FF000F7E70020F5E710B52C2104461DF0F0FBA3
:10300000204610BD30B58BB00446BDF86050089521
:10301000BDF85C5007959DF8505006959DF84C50B2
:1030200005959DF8485004959DF8445003959DF8EA
:10303000405002959DF83C500195BDF838500095E0
:103040000CF030FF064B2360159BE361169B236257
:10305000199B63621A9BA36220460BB030BD00BF70
:10306000A839020870477047704730B4C268446896
:103070005510034604EB6200D20748BF62599B68B3
:1030800030BC48BFD35818470346406830B19A68EF
:103090001AB9D86800F0010070470120704710B5D8
:1030A000102104461DF09CFB204610BD10B5F021F8
:1030B00004461DF095FB204610BD9830884208B5A7
:1030C00005D10BF09BF8BDE80840FFF735BB08BD04
:1030D0002DE9F74304460DF0DFF8444B2360444BE1
:1030E0000025C4E910354FF48072FF2304F16C070A
:1030F000A4F8642084F86630A4F890204FF6FF739B
:103100003C4AE26604F19806A4F8923084F89430C0
:1031100001A93846C4E91255C4E91455C4E9165545
:10312000C4E91C55C4E91E55C4E92055C4E922551B
:10313000E5632566A566ADF8043008F07CFB3046F3
:1031400008F0B0FC2C4BC4E938342C4B04F1400897
:103150002A46C4E93A3529464046FFF735FD404640
:10316000F021FEF7E5F840464FF4A071FEF7E2F8D3
:1031700004F104094FF07F43A3664146484605F039
:103180009DF81B2238461421FFF71EFD052301A9D7
:103190003846ADF8043008F04EFB3946484605F095
:1031A0008DF83046BB222321FFF70EFD01AA6946A8
:1031B00001233046ADF80430ADF8005008F009FAAC
:1031C0000323A4F8D0303046FFF730FD4FF0FF3333
:1031D000C4E9353304F1E0034846C4F8C030314651
:1031E00005F06CF8204603B0BDE8F083283A0208E9
:1031F000983E0208003F0208103A0208BB3000085F
:103200007047000030B5164D2C6814F001048FB0E3
:10321000BFF35B8F20D128461DF0E4FAE0B13F23D5
:103220000993104B0893104B104911480A9401223E
:10323000CDE906430423CDE903320A230093CDE907
:103240000B44CDE901440594FFF7DCFE09481EF06C
:1032500021FA28461DF0D2FA05480FB030BD00BF54
:103260008819002090500208C0500208A84F020898
:103270008C190020013200087047000030B5164D4F
:103280002C6814F001048FB0BFF35B8F20D1284667
:103290001DF0A8FAE0B13F230993104B0893104B9F
:1032A000104911480A940122CDE906430423CDE9CF
:1032B000033214230093CDE90B44CDE90144059476
:1032C000FFF7A0FE09481EF0E5F928461DF096FA22
:1032D00005480FB030BD00BFB81900209450020857
:1032E000C4500208B84F0208BC1900207932000807
:1032F0007047000030B5164D2C6814F001048FB0F3
:10330000BFF35B8F21D128461DF06CFAE8B13F2353
:103310000993104B0893104B104911480A94CDE9BA
:10332000064301220423CDE90332182300930D2222
:10333000CDE90B44CDE901440594FFF763FE09484C
:103340001EF0A8F928461DF059FA05480FB030BD07
:10335000E819002098500208C8500208C84F020817
:10336000EC190020F13200087047000030B5164D0E
:103370002C6814F001048FB0BFF35B8F20D1284676
:103380001DF030FAE0B13F230993104B0893104B26
:10339000104911480A940122CDE906430423CDE9DE
:1033A000033228230093CDE90B44CDE90144059471
:1033B000FFF728FE09481EF06DF928461DF01EFA99
:1033C00005480FB030BD00BF181A0020BC500208DD
:1033D000CC500208805002081C1A002069330008F3
:1033E00000207047002070470EB403B503AB0021E6
:1033F00053F8042B01930BF0D3FF02B05DF804EBFC
:1034000003B070470CB407B504AB53F8042B019319
:103410000BF0C6FF03B05DF804EB02B0704700008C
:10342000436C10B5044673B3038F2BB9184B194A7C
:10343000C52119481EF010F9C38E00EB43035B8CC5
:103440000BB30DF048FE238F012B03D8134B144A06
:10345000CB21EEE7E28E531C9BB2092B194688BFA5
:10346000A3F10A0104EB410140F63F10498C81426F
:1034700009D10A2B04EB420228BF002304EB4303CB
:10348000508C588451842046BDE810400DF026BD74
:10349000923102089B31020846320208903202083B
:1034A0009E3202080DF0E1BC10B586B002AC84E893
:1034B00006001A460AAB05930193099B0093214627
:1034C000089B0AF039FA06B010BD000038B518BBE9
:1034D000124B13481C681349B4B12268224402609D
:1034E000626822440A60A26814440F4B00221A80CA
:1034F00000F038F8054600F033F80C4B1C600C4B1C
:103500001D600C4B188007E00B4B03600B4B0B60EE
:103510000B4B1C68002CE8D138BD00BF541A0020AA
:103520004C1A0020481A0020501A00202828012098
:10353000302801202C280120E0500208D050020839
:1035400010510208044B1B6853F82100034B1B6801
:1035500003EB4000704700BF481A00204C1A0020BF
:103560000420704700487047581A002010B5FFF734
:10357000C1FE064C2060FFF7F9FE6060FFF742FED7
:10358000A060FFF77BFEE06010BD00BF581A00206E
:1035900010B5002404600C6014601C6010BD7047FE
:1035A00010B54FF4AE7104461DF01AF9204610BD57
:1035B00010B50446D0F8580100F089F82046BDE85F
:1035C00010400AF0B7BE000010B50446FFF760F8DF
:1035D000014B2360204610BD5C3A02087047043856
:1035E0007047704710B5102104461DF0F9F82046C9
:1035F00010BDA0F10400F5E700228260024A0260DB
:1036000018324260C1607047B03A0208704700004B
:1036100010B5034B03600446FFF757FA204610BD70
:10362000D83A020810B50446FFF7F2FF20464FF4DF
:1036300007711DF0D5F8204610BD000010B50446F6
:10364000FFF772FB014B2360204610BDD83A0208F9
:10365000FFF73CBA704704387047704710B5102127
:1036600004461DF0BDF8204610BDA0F10400F5E7AA
:1036700000228260024A026018324260C1607047D4
:103680000C3B02087047000010B5034B0360044672
:10369000FFF7E9FC204610BD343B020810B5044694
:1036A000FFF7F2FF2046F0211DF09AF8204610BDEA
:1036B00010B50446FFF70CFD014B2360204610BDFA
:1036C000343B0208FFF7D0BC00220260704770470D
:1036D000F02070474FF4A07070472920FEF7AABA77
:1036E0002820FEF7A7BA08B5FEF778FACA20FEF739
:1036F000A1FAC320FEF782FA0820FEF77FFA5020D5
:10370000FEF77CFACF20FEF795FA0020FEF776FA56
:10371000C120FEF773FA3020FEF770FAED20FEF7B5
:1037200089FA6420FEF76AFA0320FEF767FA12208E
:10373000FEF764FA8120FEF761FAE820FEF77AFAD4
:103740008520FEF75BFA0020FEF758FA7820FEF796
:1037500055FACB20FEF76EFA3920FEF74FFA2C20EF
:10376000FEF74CFA0020FEF749FA3420FEF746FA3D
:103770000220FEF743FAF720FEF75CFA2020FEF75E
:103780003DFAEA20FEF756FA0020FEF737FA00204D
:10379000FEF734FAB120FEF74DFA0020FEF72EFABC
:1037A0001B20FEF72BFAB620FEF744FA0A20FEF79C
:1037B00025FAA220FEF722FAC020FEF73BFA1020DD
:1037C000FEF71CFAC120FEF735FA1020FEF716FAB4
:1037D000C520FEF72FFA4520FEF710FA1520FEF758
:1037E0000DFAC720FEF726FA9020FEF707FA3620DA
:1037F000FEF720FAC820FEF701FAF220FEF71AFAC7
:103800000020FEF7FBF9B020FEF714FAC220FEF705
:10381000F5F9B620FEF70EFA0A20FEF7EFF9A72019
:10382000FEF7ECF92720FEF7E9F90420FEF7E6F9A8
:103830002A20FEF7FFF90020FEF7E0F90020FEF74E
:10384000DDF90020FEF7DAF9EF20FEF7D7F92B209B
:10385000FEF7F0F90020FEF7D1F90020FEF7CEF9CF
:103860000120FEF7CBF93F20FEF7C8F9F620FEF75E
:10387000E1F90120FEF7C2F90020FEF7BFF90620AA
:10388000FEF7BCF92C20FEF7D5F9C820FEF720FA88
:103890002620FEF7CFF90120FEF7B0F9E020FEF771
:1038A000C9F90F20FEF7AAF92920FEF7A7F924206D
:1038B000FEF7A4F90C20FEF7A1F90E20FEF79EF901
:1038C0000920FEF79BF94E20FEF798F97820FEF7C5
:1038D00095F93C20FEF792F90920FEF78FF91320A5
:1038E000FEF78CF90520FEF789F91720FEF786F917
:1038F0001120FEF783F90020FEF780F9E120FEF7A2
:1039000099F90020FEF77AF91620FEF777F91B20C7
:10391000FEF774F90420FEF771F91120FEF76EF935
:103920000720FEF76BF93120FEF768F93320FEF728
:1039300065F94220FEF762F90520FEF75FF90C20D9
:10394000FEF75CF90A20FEF759F92820FEF756F930
:103950002F20FEF753F90F20FEF750F91120FEF744
:1039600069F9C820FEF7B4F92920FEF763F9BDE82C
:1039700008402C20FEF75EB908B5FEF72FF90321A9
:10398000D320FEF773F980B208BD10B5C4B202228D
:1039900003212046FEF7D8F80A20FEF71DF920463D
:1039A00000220321FEF7D0F8BDE810400220FEF708
:1039B00013B938B50446E4B2FEF7C4F80021204636
:1039C000FEF7DAF8012105462046FEF7D5F840EA71
:1039D000052080B238BD10B5C4B240212046FEF7A4
:1039E000CBF8030607D54C212046FEF7C5F8003872
:1039F00018BF012010BD01224B212046FEF7A4F87C
:103A0000204600224B21FEF79FF80020F2E773B515
:103A10000423C4B20E461546D7210DEB03022046FF
:103A2000FEF7C4F8019B1BBA1A0DC3F30B233280B7
:103A300020462B8001224B21FEF786F800224B21E5
:103A40002046FEF781F802B070BD000010B50A4AAA
:103A50001378984204460DD0517888420AD00BB1B1
:103A600041B90123D454FEF76DF82046BDE810405B
:103A7000FFF78BBF10BD00BF681A002010B5C4B29D
:103A800009212046FEF778F840F00102D2B2204624
:103A90000921BDE81040FEF757B810B5C4B209219E
:103AA0002046FEF769F8092100F0FE022046BDE835
:103AB0001040FEF749B838B5C4B20D4620460A2179
:103AC000FEF75AF840EA0502D2B220460A21BDE8C4
:103AD0003840FEF739B810B50446FEF734F82046F2
:103AE0001F21FFF7E8FF2046BDE81040FFF7C6BFE3
:103AF00038B5C4B20D4620460A21FEF73DF820EA4B
:103B00000502D2B220460A21BDE83840FEF71CB8B3
:103B100010B50446FFF7C1FF20461F21BDE8104045
:103B2000FFF7E6BF10B5C0B20C460B21FEF724F834
:103B3000204010BD1F21FFF7F5BF0A46C0B20B2180
:103B4000FEF702B81F21FFF7F8BF38B5C4B20D4623
:103B500020461721FEF710F820EA0502D2B22046CF
:103B60001721BDE83840FDF7EFBF70B5C4B2064677
:103B700004212046FEF700F8042100F0FB02054670
:103B80002046FDF7E1FF3046F021FFF7DEFF05F0AC
:103B9000F80220460421FDF7D7FF492220212046C4
:103BA000FDF7D2FF0220FEF717F82046012221215F
:103BB000FDF7CAFF20469A224121FDF7C5FF2046A6
:103BC00001224A21FDF7C0FF204601224B21FDF7CB
:103BD000BBFF204600224B21FDF7B6FF2046012205
:103BE0005621FDF7B1FF204601225821FDF7ACFF19
:103BF000204601224021FDF7A7FF2046FF220B218E
:103C0000FDF7A2FFBDE870400220FDF7E5BF000010
:103C1000054BD3F8882042F47002C3F888204FF097
:103C200000629A60704700BF00ED00E008B50B4BE2
:103C30001A6842F400721A601A6842F480621A60CC
:103C40001A6842F480721A60032000F02FF80020F6
:103C5000FEF780FAFEF74AF8002008BD003C02405B
:103C6000034A044B11681B780B441360704700BF74
:103C70006C1A002078000020014B1868704700BFC4
:103C80006C1A002038B50446FFF7F6FF631C1CBF12
:103C9000054B1B78054618BFE418FFF7EDFF431BE3
:103CA000A342FAD338BD00BF780000200749CA6894
:103CB00022F4E0620302120403F4E063120C1343E3
:103CC00043F0BF6343F40033CB60704700ED00E086
:103CD000164B30B5DC68C4F30224C4F10703251D7C
:103CE000042B28BF0423062D4FF0FF358CBF033C67
:103CF000002405FA03F321EA0303A54022EA0502A2
:103D0000A340002843EA0203ACBF00F16040084A28
:103D10004FEA0313B8BF00F00F00DBB2AABF00F5F3
:103D20006140135480F8003330BD00BF00ED00E067
:103D300014ED00E0002807DB044A4109012300F0EC
:103D40001F00834042F82130704700BF00E100E0CF
:103D500010B5044650B1437903F0FF0213B9027164
:103D6000FDF7E4FF01236371002010BD0120FCE793
:103D700010B5044620B390F8393003F0FF021BB9A8
:103D800080F83820FDF7EAFF022384F839302368F1
:103D900061681A6822F440320A431A605A6BA168BB
:103DA00022F007020A435A631A6CE1686FF30D02AE
:103DB0000A431A6400200123E06384F8393010BDFF
:103DC0000120FCE770477047036870B55E681D68A6
:103DD000F207044614D5E90512D51A6822F4807258
:103DE0001A60C26B42F00102C26301229A6004238E
:103DF00080F83930002380F83830436903B19847A0
:103E0000B20616D5AB0414D523681A6822F4005202
:103E10001A6020229A60E36B43F00203E3630423F9
:103E200084F83930002384F8383063690BB12046B8
:103E30009847300716D5290514D523681A6822F447
:103E400000621A6008229A60E36B43F00403E363A4
:103E5000042384F83930002384F8383063690BB1C7
:103E60002046984772070BD56B0509D523681A6859
:103E700022F480621A6004229A602046FFF7A2FFB3
:103E8000B00714D5A90512D523681A6822F4007268
:103E90001A6002229A60E36BE363012384F83930ED
:103EA000002384F8383023690BB120469847F20686
:103EB00013D5EB0411D523681A6822F480521A60D6
:103EC00010229A60E36BE363012384F83930002306
:103ED00084F838302046FFF776FF70BDF0B590F8D3
:103EE0003820012A03464FF002002BD0012283F82C
:103EF000382083F8390003EB0112D2E90740556AF4
:103F0000174F44EA0040093C012C9CBF05F07F425A
:103F100010434FEA01161A6888BF40EA056091B95C
:103F2000516A394001435162012C9969916103D86A
:103F3000596A21F07F4191620122002083F83920E3
:103F400083F83800F0BDD16939400143D161991936
:103F5000012C896911619CBF25F07F451562EBE753
:103F6000F0FFFC002DE9F74FDFF8BC916C4A00230D
:103F70000D6801249C4004EA0506AC4340F0B7807C
:103F80004D68032705F003044FEA430807FA08FCCD
:103F9000671E012F6FEA0C0C34D8876807EA0C0EF5
:103FA000CF6807FA08F747EA0E078760476827EAED
:103FB000060EC5F300179F4047EA0E074760C76823
:103FC00007EA0C0E8F6807FA08F747EA0E07022C7B
:103FD000C76019D14FEAD30A00EB8A0A03F0070B36
:103FE000DAF820704FEA8B0B4FF00F0E0EFA0BFE33
:103FF00027EA0E0E0F6907FA0BF747EA0E07CAF811
:10400000207001E0032CDAD1076804FA08F407EA0B
:104010000C073C4315F4403F046068D00024019431
:10402000D9F8444044F48044C9F84440D9F84440A5
:1040300023F0030707F1804704F4804407F59C3719
:10404000019403F0030C019CD7F808E04FEA8C0CB4
:104050000F2404FA0CF42EEA040E324CA0424DD088
:1040600004F58064A0424BD004F58064A04249D09E
:1040700004F58064A04247D004F58064A04245D096
:1040800004F58064A04243D004F58064A04241D08E
:1040900004F58064A0423FD004F58064A0423DD086
:1040A00004F58064A04214BF0A24092404FA0CF425
:1040B00044EA0E04BC609468F74315F4801F0CBFFB
:1040C0003C4034439460D46815F4001F0CBF3C405E
:1040D0003443D460546815F4003F0CBF3C40344373
:1040E00054601468ED0354BF3C4034431460013302
:1040F000102B7FF43DAF03B0BDE8F08F0024D5E76F
:104100000124D3E70224D1E70324CFE70424CDE739
:104110000524CBE70624C9E70724C7E70824C5E739
:10412000003C01400000024000380240036919428F
:1041300014BF0120002070470AB181617047090453
:10414000FBE7436901EA030221EA030141EA024174
:104150008161704701684B6913F480634FF000027E
:1041600010D06FF480634B612023026380F83D30F0
:1041700080F83E20036C80F83C2043F00403036485
:1041800001207047184670472DE9F84606460F464D
:1041900091461D464FEA114A3368BAF1010F0CBF30
:1041A0005C699C6927EA0404A4B2B4FA84F4640943
:1041B000A14501D0002025E06A1CEED0FFF75CFD90
:1041C000089BC01AA84201D8002DE5D13368BAF186
:1041D000010F0CBF5B699B6927EA03039BB2B3FA2B
:1041E00083F35B099945D7D100232022336386F8F6
:1041F0003D2086F83E30326C86F83C3042F020029A
:1042000032640120BDE8F8862DE9F04104460F46EE
:10421000164698462568686927EA000080B2C0B152
:104220006B695A0517D52B6843F400732B606FF444
:1042300080636B6120220023236384F83D2084F88F
:104240003E30236C43F004032364002384F83C30A5
:104250000120BDE8F081731CDDD0FFF70DFDA0EB60
:104260000800B04201D8002ED4D123685A6927EA49
:10427000020292B2002ACDD000232022236384F8C8
:104280003D2084F83E30236C1343DDE770B50446CF
:104290000D46164623685B691B0601D500201EE00B
:1042A0002046FFF757FFC8B96A1CF3D0FFF7E4FCBC
:1042B000801BA84201D8002DECD123685B6913F064
:1042C0008003E7D12022236384F83D2084F83E3028
:1042D000226C84F83C3042F020022264012070BD40
:1042E0002DE9F0431546026885B0DDE90C78994662
:1042F000136843F4807313600E463B46CDF800808C
:1043000000224FF001110446FFF73EFF236838B149
:104310001B68DB0502D54FF400732364032620E0FD
:1043200006F0FE061E611A4943463A462046FFF74C
:104330006BFFA8B9236803905A6903929B690393A2
:10434000424639462046039BFFF7A0FF064660B170
:10435000236C042B01BF2268136843F400731360BD
:104360000126304605B0BDE8F083B9F1010F23689E
:1043700002D1EDB21D61F4E72A0A1A6139464246BC
:104380002046FFF783FF0028E2D12368F1E700BF52
:10439000020001002DE9FF479A46036815461A6896
:1043A00042F480621A601A68DDE90C7842F4807287
:1043B0001A600E463B46CDF8008000224FF00111F6
:1043C0000446FFF7E1FE236838B11B68DB0544BFF4
:1043D0004FF400732364032021E05FFA86F906F0AE
:1043E000FE061E612B4943463A462046FFF70CFF66
:1043F000A0B9236803905A6903929B6903934246CC
:1044000039462046039BFFF741FF58B1236C042B2C
:1044100001BF2268136843F400731360012004B0E5
:10442000BDE8F087BAF1010F23681AD1EDB2424618
:104430001D6139462046FFF729FF02460028E5D1D5
:1044400021680B6843F480730B602046CDF8008030
:104450003B464FF00111FFF797FE226860B11368E9
:10446000B4E72A0A1A61394642462046FFF70EFF92
:104470000028CBD12368D9E749F00103136105492E
:1044800043463A462046FFF7BFFE003818BF0120DA
:10449000C5E700BF0200010070B504460D46164690
:1044A00023685B695B0701D500201EE02046FFF70B
:1044B00051FEC8B96A1CF3D0FFF7DEFB801BA8428F
:1044C00001D8002DECD123685B6913F00403E7D118
:1044D0002022236384F83D2084F83E30226C84F847
:1044E0003C3042F020022264012070BD70B50446C9
:1044F0000D46164621684B6913F0400301D0002099
:1045000011E04A69D2060FD56FF010024A612022ED
:10451000236384F83D2084F83E30236C2364002319
:1045200084F83C30012070BDFFF7A6FB801BA84239
:1045300001D8002DDED123685B6913F04003D9D187
:104540002022236384F83D2084F83E30236C1343FB
:10455000E4E7000070B5044608B9012070BD90F88A
:104560003D3003F0FF021BB980F83C20FDF718FC3A
:10457000242384F83D3023681A6822F001021A606F
:104580001A6842F400421A601A6822F400421A6063
:1045900000F08AFE3F4B65689D4294BF3E4B3F4B07
:1045A00098428CBF00230123002BD6D12268394EBC
:1045B00051683B4BB0FBF3F321F03F011943B54287
:1045C000516088BF4FF49676116A88BF734321F01B
:1045D0003F0184BF4FF47A76B3FBF6F301330B430C
:1045E0001362D169431E2B4821F44F41854221F0CB
:1045F000FF0132D86D0040F6FC70B3FBF5F30133D8
:10460000034242D0C3F30B031943D161D4E907300D
:104610001168034321F0C0010B4313609168D4E992
:10462000030321F40341034321F0FF010B43936093
:10463000D4E90530D168034321F0FF010B43D36077
:10464000136843F00103136000202023206484F8E2
:104650003D30206384F83E0080E7A06850B905EB48
:104660004505B3FBF5F30133C3F30B037BB143F40F
:104670000043C9E719206843B3FBF0F30133C3F3E8
:104680000B0323B143F44043BEE70423BCE70123FB
:10469000BAE700BFA08601007F841E00FF083D002E
:1046A00040420F002DE9F743044699460C9E0F4601
:1046B0009046FFF7E1FA94F83D30202B054603D0F1
:1046C000022003B0BDE8F08300903C491923012289
:1046D0002046FFF759FD0028F2D194F83C30012B19
:1046E000EED02068012384F83C300368D9075EBF10
:1046F000036843F001030360036823F4006303606D
:10470000212384F83D30402384F83E300023236485
:104710000A9B6362BDF82C306385638D2385284B2B
:10472000E3624246CDE900654B4639462046FFF735
:10473000D7FD00282AD00120C3E7FFF7A7FD40B12D
:10474000236C042B01BF2268136843F400731360C9
:10475000F1E7636A27681A4612F8011B3961626241
:10476000628D218D013A92B262857A69481E80B2CB
:10477000520720850AD548B15A783A6102336362FC
:10478000638D013B02399BB221856385238D2A46C7
:1047900031462046002BD0D1FFF77EFE0028CFD136
:1047A0002268136843F400731360202384F83D30BB
:1047B00084F83C0084F83E0083E700BF020010004C
:1047C0000000FFFF2DE9F043044687B09946109F93
:1047D0000D469046FFF750FA94F83D30202B0646E0
:1047E00004D00225284607B0BDE8F08300907A493E
:1047F000192301222046FFF7C7FC0028F1D194F8C5
:104800003C30012BEDD02068012384F83C30036854
:10481000DB075EBF036843F001030360036823F412
:1048200000630360222384F83D30402384F83E3047
:10483000002323640E9B6362BDF83C306385638D67
:104840002385664BE3622946CDE900764B46424616
:104850002046FFF79FFD054608B10125C2E7228DDE
:104860002368B2B902905A6902929A690292029A36
:104870001A6842F400721A60DFF86481238D002BFD
:104880002CD1202284F83D2084F83C3084F83E303E
:10489000A8E7012A0AD11A6822F480621A600390FC
:1048A0005A6903929A690392039AE1E7022A0ED1A8
:1048B0001A6822F480621A601A6842F400621A6070
:1048C00004905A6904929B690493049BD4E7059071
:1048D0005A6905929B690593059BCDE7032B56D832
:1048E000012B15D1324639462046FFF7FFFD00283F
:1048F000B3D123681A69636A1A70636A0133636209
:10490000238D013B2385638D013B9BB26385B5E716
:10491000022B00963B464FF000024146204619D13B
:10492000FFF732FC002898D123681A6842F400721D
:104930001A601A69636A1A70626A531C6362238D73
:10494000013B2385638D013B9BB2638523681B6913
:104950005370D2E7FFF718FC024600287FF47DAFC2
:104960002368196821F4806119601969636A1970F4
:10497000636A01336362238D013B2385638D013BB1
:104980009BB26385414600963B462046C8E73246C7
:1049900039462046FFF7AAFD00287FF45EAF236862
:1049A0001A69636A1A70628D616A013A92B24B1C8D
:1049B000628522686362238D5069013B9BB2400788
:1049C00023857FF55BAF032B02BF136823F480635D
:1049D000136013694B7090E7020010000000FFFFA6
:1049E0000400010010B590F83D30202BDCB216D148
:1049F000242380F83D3003681A6822F001021A600F
:104A00005A6A22F010025A625A6A114359621A68AD
:104A100042F001021A6080F83D40002010BD0220E3
:104A2000FCE730B590F83D30202BDCB216D102689F
:104A3000242380F83D30136823F001031360556A86
:104A40004FF6F0732B400B439BB25362136843F055
:104A50000103136080F83D40002030BD0220FCE7D8
:104A60000068D20184328318F0B5C7685D684C686D
:104A70000E6805F470455D60C56806F1010CC5F36C
:104A80000B45C7F30B472744654445EA07455D607E
:104A9000C768CD68C7F30A072F449D6805F47045C1
:104AA0009D60D0F80CC08D68CCF30A0C01356544CC
:104AB00045EA07459D601D69D1F810C08F6925F052
:104AC00007051D61C3F810C091F8305045EA07652D
:104AD00091F8317045EA072591F8327045EA0745AB
:104AE0009D615D6925F0FF055D614D695D61DD6971
:104AF00025F4E06525F00705DD61D1E907573D4361
:104B0000DD61BCF1070F4D6A9D629CBF0D4D15F82C
:104B10000C70DD6A05F0E025DD6288BF01278D6A33
:104B2000C96AA41B7C437D43033444EA0544DC6228
:104B30001C6B6FF30A041C631963835843F0010371
:104B40008350F0BD783B020838B5044600284ED0AB
:104B500090F8A13003F0FF021BB980F8A020FDF708
:104B60007BF9022384F8A13023689A6922F070420D
:104B70009A61D4E901200243E068996902432069FF
:104B800002430A439A61D4E9051242EA01429A605B
:104B9000D4E9071242EA0142DA60D4E9091242EA92
:104BA00001421A61D4E90B1242EA01425A61DA6AFF
:104BB00094F8350094F8361002F07F42DA62DD6A2C
:104BC00094F834202A4342EA002242EA0142DA629F
:104BD0005A6B42F006025A639A6942F001029A61E6
:104BE00000200123C4F8A40084F8A13038BD0120BE
:104BF000FCE770477047036870B59E6B5D6B72078A
:104C0000044614D5690712D55A6B22F004025A6380
:104C10000422DA63D0F8A43043F00103C0F8A430D2
:104C2000002380F8A12080F8A030FFF7E2FFB20750
:104C300016D5AB0714D523685A6B22F002025A63CB
:104C40000222DA63D4F8A4301343C4F8A430042356
:104C500084F8A130002384F8A0302046FFF7C9FF74
:104C6000F00710D5E9070ED523685A6B22F0010230
:104C70005A630122DA63002384F8A12084F8A0306B
:104C80002046FCF7C7FC320711D52B070FD5236848
:104C90005A6B22F008025A630822DA63012384F86F
:104CA000A130002384F8A0302046FFF7A3FF70BD99
:104CB0002DE9F04190F8A030012B06460F469446AE
:104CC0004FF002001FD04FF0010886F8A08086F850
:104CD000A10034240D4604FB02640FCD38340FC408
:104CE0000FCD0FC40FCD0FC42B6823603046624632
:104CF0003946FFF7B5FE33680020C3F8248086F8F4
:104D0000A18086F8A000BDE8F081000090F8A02006
:104D1000012A03464FF0020012D01A6883F8A1005E
:104D2000506B20F00100506306480164516B41F064
:104D3000010151630020012283F8A12083F8A00023
:104D4000704700BF0068014037B500230193184B3E
:104D5000184D1A6C42F080521A641B6C03F0805399
:104D60000193019B144B01221A64FEF785FF044650
:104D70006B68DA030BD5104B0E4D01225A64FEF717
:104D80007BFF04466B689B030AD5002006E0FEF714
:104D900073FF001BB0F57A7FEAD9032003B030BD62
:104DA000FEF76AFF001BB0F57A7FEBD9F5E700BF8D
:104DB000003802400070004000000E422DE9F3412F
:104DC000044640B30368DE0710D423689D075BD414
:104DD0002368190700F19D8023685A0700F1BD8000
:104DE000A369002B40F0248100202CE08D4B9A68B1
:104DF00002F00C02042A07D09A6802F00C02082A7A
:104E00000BD15B68590208D5864B1B689A03DCD529
:104E10006368002BD9D1012015E06368814DB3F59B
:104E2000803F13D12B6843F480332B60FEF724FFBF
:104E30007C4E054633689B03C7D4FEF71DFF401B1D
:104E40006428F7D9032002B0BDE8F081B3F5A02FA4
:104E500004D12B6843F480232B60E3E72A6822F413
:104E600080322A602A6822F480222A60002BDDD159
:104E7000FEF702FF06462B689F03A6D5FEF7FCFE51
:104E8000801B6428F7D9DDE7664B9A6812F00C0F97
:104E900007D09A6802F00C02082A11D15B685D0203
:104EA0000ED4604A1368990702D5E368012BB2D18A
:104EB0001368216923F0F80343EAC103136087E70D
:104EC000E268594BB2B101221A60FEF7D5FE554D8A
:104ED00006462B689B0707D52B68226923F0F80349
:104EE00043EAC2032B6073E7FEF7C6FE801B02286D
:104EF000EFD9A7E71A60FEF7BFFE4A4E05463368B2
:104F00009F077FF565AFFEF7B7FE401B0228F6D975
:104F100098E76269444B82B10122C3F8802EFEF704
:104F2000ABFE404E0546736F9B073FF555AFFEF74E
:104F3000A3FE401B0228F6D984E7C3F8802EFEF7B3
:104F40009BFE384E0546736F9F077FF545AFFEF712
:104F500093FE401B0228F6D974E7324B1A6C12F00C
:104F6000805228D101921A6C42F080521A641B6C54
:104F700003F080530193019B01272C4D2B68D8052A
:104F80001BD5A368274D012B27D12B6F43F00103BD
:104F90002B67FEF771FE234E054641F28838336FCA
:104FA0009A0739D5002F3FF41BAF1E4A136C23F02C
:104FB0008053136414E70027DFE72B6843F4807302
:104FC0002B60FEF759FE06462B68D905D9D4FEF7AB
:104FD00053FE801B0228F7D934E7052B04D12B6F31
:104FE00043F004032B67D0E72A6F22F001022A67FF
:104FF0002A6F22F004022A67002BCAD1FEF73CFE7A
:1050000041F2883806462B6F9B07CBD5FEF734FE5E
:10501000801B4045F7D915E7FEF72EFE401B4045A3
:10502000BDD90FE700380240000047420070004041
:10503000374DAA6802F00C02082A3ED0022B354BED
:105040004FF000021A662BD1FEF716FE06462B68BB
:1050500099011FD4D4E907321343626A43EA8213E9
:10506000E26A43EA0263A26A5208013A43EA02434F
:105070006B60284B264D01221A66FEF7FDFD0446A3
:105080002B689A013FF5B0AEFEF7F6FD001B022833
:10509000F6D9D7E6FEF7F0FD801B0228D7D9D1E676
:1050A000FEF7EAFD04462B689B017FF59DAEFEF7F7
:1050B000E3FD001B0228F6D9C4E6012B3FF4ABAE9A
:1050C0006B68E26903F4800191427FF4A4AE216A27
:1050D00003F03F028A427FF49EAE616A47F6C072D7
:1050E0001A40B2EB811F7FF496AEA26A520803F415
:1050F0004031013AB1EB024F7FF48DAEE26A03F02A
:105100007063B3EB026F14BF012000209BE600BF69
:105110000038024000004742134908B58B6803F08D
:105120000C03042B1CD0082B1CD14A684B6849681F
:1051300013F4800314BF0D480D48C1F3881118BF44
:10514000002302F03F02A1FB0001FBF7F1F8064B40
:105150005B68C3F3014301335B00B0FBF3F008BDB0
:105160000248FCE70248FAE70038024000127A00E1
:105170000024F4002DE9F0410D46044610B9012049
:10518000BDE8F081434B1A6802F00F028A4228D32F
:1051900021688F072DD4C80740D43E4B1A6802F00F
:1051A0000F02AA4265D8226851076BD4130707D5AE
:1051B000394A2169936823F4604343EAC103936049
:1051C000FFF7AAFF344B354A9B68C3F30313D35C44
:1051D000D840334B1860334B1868FCF7BBFF0020F6
:1051E000CEE7CAB21A701B6803F00F038B42C6D118
:1051F000CEE7294B11F0040F1EBF9A6842F4E0522B
:105200009A600E0742BF9A6842F460429A609A68B8
:10521000A06822F0F00202439A60BCE762681E4B6D
:10522000012A1CD11B6813F4003FA8D01A4EB368A2
:1052300023F003031343B360FEF71EFD41F28838E9
:105240000746B368626803F00C03B3EB820FA4D087
:10525000FEF712FDC01B4045F3D9032090E7911ED5
:1052600001291B6802D813F0007FDEE713F0020F5C
:10527000DBE7EAB21A701B6803F00F03AB427FF45E
:105280007EAF90E70449E0688B6823F4E053034362
:105290008B608BE7003C024000380240683B02080C
:1052A000740000207C000020044B054A9B68C3F377
:1052B0008223D35C034A1068D8407047003802400C
:1052C000603B0208740000200F2303600B4B9A68B8
:1052D00002F0030242609A6802F0F00282609A686B
:1052E00002F4E052C2609B68DB0803F4E053036100
:1052F000034B1B6803F00F030B607047003802403C
:10530000003C0240036813F0430FF7B5044640F039
:105310008880236813F00C0F45D08C4B8C4D0022F5
:105320001A67FEF7A9FC06462B68990000F1CB80AE
:1053300021684A0715D5D4E90403D5F888201B064F
:1053400002F0E04243EA80131343C5F88830D5F8F1
:105350008C30226A23F4F853013A43EA0223C5F859
:105360008C300B0714D57A4AA369D2F888102069CB
:105370001B0701F0706143EA80130B43C2F88830C9
:10538000D2F88C30616A23F440330B43C2F88C307E
:105390006E4B6F4E01221A67FEF76EFC05463368AE
:1053A0009F0040F197802368980634D5002301932D
:1053B000674B684D1A6C42F080521A641B6C03F004
:1053C00080530193019B2B6843F480732B60FEF79D
:1053D00053FC06462B68D80540F183805C4DA26AD9
:1053E0002B6F13F4407340F08380A36A03F4407280
:1053F000B2F5407F564A40F09E80916823F070409D
:1054000021F4F81120F4407001439160116FC3F34F
:105410000B030B4313672368DB0600F19080002029
:105420004FE04A4B4A4E00229A66FEF725FC05469D
:1054300033681F013FD42168C80741BFD4E9012365
:105440001B0743EA8213C6F884308A0715D5404A01
:10545000E368D2F8840065681B0600F0E04043EA88
:1054600085130343C2F88430D2F88C00E36920F03E
:105470001F00013B0343C2F88C304B060AD5E3689A
:1054800062681B0643EA8213A26843EA0273304A49
:10549000C2F884302D4B2E4E01229A66FEF7ECFBAB
:1054A000054633681F013FF534AFFEF7E5FB401BAF
:1054B0000228F6D904E0FEF7DFFB401B0228B7D92B
:1054C000032003B0F0BDFEF7D7FB801B02287FF658
:1054D0002BAFF5E7FEF7D0FB401B02287FF65FAF4E
:1054E000EEE7FEF7C9FB801B02287FF673AFE7E704
:1054F00002F4407293423FF478AF2B6F134A0121BC
:10550000C2F8401E23F440730021C2F8401E2B67EE
:105510002B6FD9077FF569AFFEF7AEFB41F28837F5
:1055200006462B6F9A073FF560AFFEF7A5FB801B81
:10553000B842F6D9C4E7916821F4F81165E7064B43
:1055400094F82C20C3F8E02169E700BF000047422F
:1055500000380240007000400010474238B50D4648
:105560000446C8B190F82C3003F0FF021BB980F854
:105570002D20FCF783FD022384F82C30211D2068A8
:1055800000F008FD62682068294600F039FD01231B
:1055900084F82C30002038BD0120FCE770B590F86D
:1055A0002C30022B05460E46D8B212D000F0FB0478
:1055B000012C0FD1022385F82C30286800F056FD0D
:1055C0003368022B06BF052385F82C3085F82C4064
:1055D000002070BD0120FCE738B590F82C30022B7C
:1055E0000446D8B20DD094F82C30012BDDB209D18D
:1055F0000223206884F82C3000F05CFD84F82C50E5
:10560000002038BD0120FCE72DE9F3471F468946FD
:1056100090460446FEF730FB0A9D3D442D1AFEF7E6
:105620002BFB264B1E68C6F3CB366E438246019693
:105630002268936839EA03030CBF01230023434522
:1056400001D100202EE07B1CF3D0FEF715FBA0EB70
:105650000A00A84229D323685A6822F0E0025A605F
:105660006268B2F5827F0AD1A268B2F5004F02D01B
:10567000B2F5806F03D11A6822F040021A60A26A64
:10568000B2F5005F07D11A6822F400521A601A6856
:1056900042F400521A60012384F85130002384F848
:1056A0005030032002B0BDE8F087019B1BB1019B85
:1056B000013B0193BCE71D46BAE700BF7400002020
:1056C000F0B585B00B4600920E4617460221012226
:1056D0000446FFF799FF054628B1636D43F02003A8
:1056E0006365032515E0124B1868124BB0FBF3F00D
:1056F0004FF47A73584363680390B3F5827F0BD1FC
:10570000009733462A4680212046FFF77DFF002878
:10571000E3D1284605B0F0BD039B002BF9D0039BD5
:10572000013B039323689B681B06F5D4F1E700BF98
:105730007400002000366E0137B50B464168B1F5A4
:10574000827F044608D0009201210022FFF75CFF0F
:10575000D0B9002003B030BD8168B1F5004F02D050
:10576000B1F5806F07D125682868B1F5806F20F00A
:105770004000286004D00092802100222046E5E706
:10578000009201210022F9E7636D43F02003636575
:105790000320DFE710B50446002855D0436A002BEC
:1057A0004ED14268B2F5827F00D0C3610023A3626C
:1057B00094F8513003F0FF0223B984F850202046BA
:1057C000FCF726FC2168A068A269022384F8513006
:1057D0000B6823F040030B60636800F4044003F49B
:1057E00082730343E06800F400600343206900F023
:1057F00002000343606900F00100034302F40070FB
:105800000343E06900F038000343206A00F08000A1
:105810000343A06A00F4005003430B60636A120C58
:1058200003F0100302F004021A434A60CB6923F428
:105830000063CB6100200123606584F8513010BD06
:105840000023C0E90433B1E70120F8E72DE9F7436D
:1058500004461F460D469046FEF70EFA94F8513066
:10586000012B8146D8B240F09F80002D74D0B8F152
:10587000000F71D094F85030012B00F09580032375
:1058800084F8513000236365C4E91033A4F83680EE
:10589000A363A387E387A368266884F85000B3F561
:1058A000004F2563A4F8348007D1336823F0400308
:1058B0003360336843F4804333603368E2685B06E7
:1058C0005EBF336843F040033360B2F5006F636836
:1058D00045D113B1B8F1010F07D135F8023BF360A0
:1058E0002563E38E013B9BB2E386E38E9BB2D3B983
:1058F0004A4639462046FFF7E3FE002851D1A36807
:1059000033B901932368DA6801929B680193019B84
:10591000012384F85130606D0023C01A84F85030A0
:1059200018BF012018E022689368980705D5236BFB
:1059300033F8021BD1602363D3E7FEF79DF9A0EB98
:105940000900B842D1D3791CCFD0012384F851305B
:10595000002384F85030032003B0BDE8F08313B176
:10596000B8F1010F08D12B783373236B0133236314
:10597000E38E013B9BB2E386E38E9BB2002BB7D054
:1059800023689A68920703D5226B12781A73ECE7A2
:10599000FEF772F9A0EB0900B842EDD37B1CEBD007
:1059A000D3E720236365AAE70220D5E72DE9F74373
:1059B00004460D4691461E46DDF82880FEF75CF948
:1059C00094F851306268012B0746D9B20AD0B2F57B
:1059D000827F40F0E580A368002B40F0E18004293D
:1059E00040F0DE80002D4BD0B9F1000F48D0002EE2
:1059F00046D094F85030012B00F0D280012384F877
:105A0000503094F85130C4F83890042B1CBF052353
:105A100084F8513000236365C4E910332368E687B6
:105A2000E6861968A687490658BF1968256358BFD6
:105A300041F04001A68658BF1960E168B1F5006FDA
:105A400055D10AB1012E07D135F8022BDA60E38E69
:105A50002563013B9BB2E3860125E38E9BB28BB9A4
:105A6000E38F9BB273B93A4641462046FFF728FEC2
:105A7000002800F0818020236365002384F85030E3
:105A8000012031E021688B689A070DD5E38E9BB227
:105A900053B145B1236B33F8022BCA602363E38E05
:105AA000013B9BB2E38600258A6812F001020CD00C
:105AB000E38F9BB24BB1A36BC96823F8021BA363AE
:105AC000E38F013B9BB2E3871546FEF7D5F8C01B79
:105AD0004045C2D3B8F1FF3FBFD0012384F8513015
