:020000040800F2
:10000000000003205D060008CD240008CF2400086E
:10001000D1240008D3240008D524000800000000E3
:10002000000000000000000000000000217D00082A
:10003000D724000800000000B17D0008D575000835
:10004000AD060008AD060008AD060008AD060008C4
:10005000AD060008AD060008AD060008AD060008B4
:10006000AD060008AD060008AD060008AD060008A4
:10007000AD060008AD060008AD060008AD06000894
:10008000AD060008AD060008AD060008AD06000884
:10009000AD060008AD060008AD060008AD06000874
:1000A000AD060008AD060008AD060008AD06000864
:1000B000AD060008AD060008AD060008AD06000854
:1000C000AD060008AD060008AD060008AD06000844
:1000D000AD060008AD060008AD060008AD06000834
:1000E000AD060008AD060008AD060008AD06000824
:1000F000AD060008AD060008AD060008AD06000814
:10010000AD060008AD060008AD060008AD06000803
:10011000AD060008AD060008D9240008AD060008A9
:10012000AD060008AD060008AD060008AD060008E3
:10013000AD060008AD060008AD060008AD060008D3
:10014000AD060008AD060008AD060008AD060008C3
:10015000AD060008AD060008AD060008AD060008B3
:10016000AD060008AD060008AD060008AD060008A3
:10017000AD060008AD060008AD060008000000004E
:10018000AD060008AD060008AD060008AD06000883
:10019000AD060008AD060008AD060008AD06000873
:0C01A000E5240008AD060008F12400086A
:1001B00010B5054C237833B9044B13B10448AFF3A1
:1001C00000800123237010BD800300200000000088
:1001D000A844020808B5034B1BB103490348AFF319
:1001E000008008BD0000000084030020A84402082D
:1001F00001F0FF01102A2BDB10F0070F08D010F8D8
:10020000013B013A8B422DD010F0070F42B3F6D1DB
:10021000F0B441EA012141EA014122F007047FF0F4
:1002200000070023F0E80256083C85EA010586EA4B
:10023000010685FA47F5A3FA87F586FA47F6A5FA87
:1002400087F68EB9EED1F0BC01F0FF0102F0070293
:1002500032B110F8013B013A83EA010313B1F8D13E
:100260000020704701387047002D06BF354603381F
:10027000073815F0010F07D1013015F4807F02BF58
:10028000013015F4C03F0130F0BC0138704700BFA9
:100290007BB972B90029BEBF00204FF0004106E0D3
:1002A00008BF00281CBF6FF000414FF0FF3000F086
:1002B000D3B9ADF1080C6DE904CE002909DB002BA0
:1002C0001ADB00F04DF8DDF804E0DDE9022304B0AC
:1002D0007047404261EB4101002B1BDB00F040F80E
:1002E000DDF804E0DDE9022304B0404261EB4101A6
:1002F000524263EB43037047524263EB430300F007
:100300002FF8DDF804E0DDE9022304B0404261EBA0
:1003100041017047524263EB430300F021F8DDF8DE
:1003200004E0DDE9022304B0524263EB430370476B
:1003300053B94AB9002908BF00281CBF4FF0FF314C
:100340004FF0FF3000F088B9ADF1080C6DE904CE34
:1003500000F006F8DDF804E0DDE9022304B07047A0
:100360002DE9F047089D8E4604468846002B4AD169
:100370008A42174662D9B2FA82F64EB1C6F120031C
:1003800001FA06F820FA03F3B74043EA0808B4403C
:100390004FEA174E1FFA87FCB8FBFEF1230C0EFB49
:1003A000118843EA084301FB0CF29A4209D9FB1871
:1003B00001F1FF3080F0EA809A4240F2E780023992
:1003C0003B449A1AA3B2B2FBFEF00EFB102243EAA2
:1003D000024300FB0CFC9C4509D9FB1800F1FF32DD
:1003E00080F0D6809C4540F2D3803B44023840EAFE
:1003F0000140A3EB0C0300211DB1F3400022C5E92D
:100400000032BDE8F0878B4205D90DB1C5E9000186
:1004100000210846F5E7B3FA83F1002946D1734578
:1004200002D3824200F20581841A6EEB030201209E
:100430009046002DE5D0C5E90048E2E7002A00F02B
:100440009080B2FA82F6002E40F0A4808A1A030C43
:100450004FEA174E80B2BCB20121B2FBFEFC0EFB8C
:100460001C2243EA024304FB0CF29A4207D9FB1810
:100470000CF1FF3802D29A4200F2E080C4469B1A87
:10048000B3FBFEF20EFB123340EA034302FB04F41B
:100490009C4207D9FB1802F1FF3002D29C4200F2C5
:1004A000CA8002461B1B42EA0C40A5E7C1F12006A8
:1004B0008B4022FA06F71F430EFA01F420FA06F3E6
:1004C0002EFA06FE4FEA1749234300FA01F81FFAF5
:1004D00087FCBEFBF9F01C0C09FB10EE44EA0E444D
:1004E00000FB0CFEA64502FA01F209D93C1900F105
:1004F000FF3A80F09C80A64540F2998002383C4447
:10050000A4EB0E041FFA83FEB4FBF9F309FB1344BA
:100510004EEA044403FB0CFCA44508D93C1903F142
:10052000FF3E80F08280A4457FD9023B3C4443EAF1
:100530000040A4EB0C04A0FB02EC64457346E146CA
:1005400062D35FD05DB1B8EB030264EB090404FA37
:1005500006F622FA01F31E43CC40C5E900640021EF
:100560004FE7B1FBF2FC010C41EA0E4180B240EAD8
:1005700001423B4638463C46B846BE462026B1FBC3
:10058000F7F1A2EB080241EA0C4166E7014618E7E1
:1005900010462CE7C6F120022EFA02F3B740B14014
:1005A00020FA02F24FEA174E0A43B3FBFEF8BCB240
:1005B0000EFB1833110C41EA034108FB04F9B0406B
:1005C00089454FEA104380B23ED9791808F1FF3CC3
:1005D00001D289451FD8A1EB0901B1FBFEF909FB46
:1005E00004F80EFB191192B242EA0142424529D2A7
:1005F000BA1809F1FF31C4D24245C2D2A9F10201B1
:100600003A44BEE7F0459DD2BEEB02036CEB070C0B
:100610000138E14696E7A7EB09094944A8F1020C25
:10062000B1FBFEF909FB04F8DBE773467FE75046B0
:1006300066E70846FDE63B44023A33E7ACF1020CBC
:100640003B441CE749469CE7A1EB0901C446B1FBCA
:10065000FEF909FB04F8C4E7704700BFDFF834D0A7
:10066000002103E00C4B5B58435004310B480C4B0A
:1006700042189A42F6D30B4A02E0002342F8043BA8
:10068000094B9A42F9D304F0CDFA23F09FF901F017
:10069000C7F8704700000320C8B705080000002015
:1006A0006C01002080030020EC420120FEE770472F
:1006B00008B500F0B9FDBDE8084000F03DBD00F010
:1006C000B5BD704710B50421044621F081FF2046D6
:1006D00010BD000038B50C4B0C4C18800C4B822020
:1006E00019806368984740F6110398420AD1094D72
:1006F00023682C60822098472B688220DB6898470B
:10070000002038BD0120FCE7A60300205400002093
:10071000A4030020A80300204FF4A071F020FFF7ED
:10072000D9BF0000F7B5394D2B6804461B698220FC
:100730009847208000284ED02B680DF106025B6997
:1007400001A982209847324B1B78002B4BD0BDF873
:10075000062040F674639A423FD9ADF80630BDF8E2
:1007600006209B1A9BB20A2B42D90B22B3FBF2F351
:10077000284A1288934201D9013A93B2BDF8042065
:10078000254840F6B8318A4234D8C2F571620E323B
:10079000016892B20F25B2FBF5F2204D2D88AA42D6
:1007A00084BF05F1FF35AAB28A4215468EB22AD916
:1007B000921B91B21A4E3768BB42BAB28CBF9A1ADA
:1007C000D21A92B211440529C4BF05603360036890
:1007D00063803368A38003B0F0BDB32A9CBFB4220A
:1007E000ADF80620BBE7BDF80630A3F5B473B9E752
:1007F0000023C3E7C2F56D62083292B20E2A016887
:10080000C8D800252A46891A89B2D3E7A803002050
:10081000DC1F0020A4030020A0030020A60300206A
:100820009C03002037B568460D461446FFF77AFF53
:10083000BDF8000030B1BDF802302B60BDF80430C7
:100840002360012003B030BD032821D8DFE800F089
:10085000020B12190F4B1A68B2FA82F252090421E4
:100860000D4804F0A5BE0B4B5A68B2FA82F2520949
:100870000821F5E7074B9A68B2FA82F25209102173
:10088000EEE7044BDA68B2FA82F252092021E7E778
:10089000704700BFAC03002000100240032821D89D
:1008A000DFE800F0020B12190F4B1A68003A18BF6C
:1008B000012204210D4804F07BBE0B4B5A68003A1C
:1008C00018BF01220821F5E7074B9A68003A18BFC4
:1008D00001221021EEE7044BDA68003A18BF01222A
:1008E0002021E7E7704700BFAC0300200010024062
:1008F00003280DD8DFE800F00206080A04210548A5
:1009000004F05BBE0821FAE71021F8E72021F6E7A2
:10091000704700BF0010024008B5032811D8DFE877
:1009200000F0020A0C0E0421074804F03BFE431EAF
:100930005842584108BD0821F6E71021F4E720216C
:10094000F2E70020F3E700BF0010024070B5084D49
:1009500000240126E0B2FFF7DFFF18B12B68012B5E
:1009600018BF2E600134052C05F10405F2D170BDCD
:10097000AC030020012380F8781080F879307047AC
:100980007047002070470000034B4164003918BFD6
:1009900001211970704700BFAB350120704700205E
:1009A0007047836B0BB10846184770474FF6FF70CE
:1009B0007047406803689B691847704770477047E5
:1009C0007047704710B5044600F046FD23680349A0
:1009D000D3F890302046BDE810401847000000D002
:1009E00008B503680446D3F8843098472368204646
:1009F000DB6F984700F0ECF8236820465B6F984760
:100A0000292001F01BFA00F0E3F8236820465B6F11
:100A10009847F8E710B504460AF032F823682046F4
:100A2000D3F8BC30BDE81040184700F0F9BC00F026
:100A3000FDBC00F02FBD00F0CFBC00F03FBD00F0CA
:100A400047BD00F0D3BC09F049BA10B58421044673
:100A500021F0BEFD204610BD10B590F8341090F87E
:100A600078400C4B8C421A7809D03AB90A4A0B49A3
:100A70001488088810800C8001221A7010BD002A8A
:100A8000FCD0054A05491488088810800C80002293
:100A9000F3E700BFA4350120A0350120A2350120D5
:100AA00070B50D46194635B9094B0A4A0A4840F255
:100AB000FF2122F0C9FCC0E90F52084B003A18BFD1
:100AC00001221A700368BDE87040D3F890301847CF
:100AD00018450208504502089E450208AA35012023
:100AE00008B5094B1B888B4203D8084B1B889342DF
:100AF00005D9074B074A0848A32122F0A5FC074B5C
:100B00001980074B1A8008BDA0350120A2350120AD
:100B1000E3450208464602089E450208A635012024
:100B2000A8350120034690F87A0018B15868036888
:100B30001B68184770470000012108B500220846CD
:100B400006F0EAFD0A4B186028B90A4B0A4A282128
:100B50000A4822F079FC00220421012006F084FEDC
:100B6000074B186018B9074B034A2C21F0E708BD62
:100B7000C003002089460208D24602080147020845
:100B8000BC03002043470208024B4FF0FF311868B6
:100B900006F00CBEC0030020014B186806F032BE00
:100BA000C0030020024B0021186806F0FFBD00BF03
:100BB000C0030020FFF7F0BF03480449006800238A
:100BC0001A4606F08CBE00BFBC03002004000020C3
:100BD00013B5084C00231A4601A9206806F0B0FEA0
:100BE00020684FF0FF33002201A906F0A9FE02B0F1
:100BF00010BD00BFBC03002003685B6C18470120D8
:100C0000704703689B6A1847FEE740F2EF30704771
:100C1000054B0360054B4FF08062C3F88820BFF39B
:100C20004F8FBFF36F8F70478453020800E100E0DD
:100C300010B504464FF45A61FFF7EAFF204621F051
:100C4000C7FC204610BD000082B0002301930E4B6C
:100C50001A6B42F400021A631A6B02F4000201924A
:100C6000019A1A6942F400021A611A6922F4000218
:100C70001A61064B064A1A61064A5A61064B4FF042
:100C800080629A6002B070470038024080210020E4
:100C9000E90E0008090C000800E100E008B50A2888
:100CA00009D8DFE800F006100E0808080810101038
:100CB0001000022008BD054B054A0648902122F08D
:100CC000C3FB0020F6E70120F4E700BF85470208D8
:100CD000A0470208EB47020838B50C46887FFFF7AB
:100CE000DDFFA58AE28A164B2169586342EA054274
:100CF0005A64628BD963521B1A642568082D0ED181
:100D00009A611A615862207F0E4A42EA0062DA61F3
:100D1000E2681A620C4A5961D9601A6038BD002233
:100D2000D8611A61E1680A0A480902F4784200F4BD
:100D3000FC600243C1F3C4010A439A63034AECE72F
:100D400000B002400900010001230200012303005A
:100D500008B50B280BD8DFE800F00612100A0A0AC3
:100D60000A0808080808022008BD0520FCE7054B12
:100D7000054A06486F2122F067FB0020F4E70120B6
:100D8000F2E700BF854702082B480208EB4702083C
:100D90002DE9F04191F81D800C464046FFF7D8FF41
:100DA000A77F05463846FFF7D3FF06463846FFF7CC
:100DB00075FFA18A628B444B521A1A649A61228B86
:100DC000521A1A61E28A586342EA01425A6421695E
:100DD0006268D963DA602068802828D0227F0FD823
:100DE000202867D0402865D004281AD0364B45EA21
:100DF000026545F40035B845DD6161D0334A44E011
:100E0000B0F5807F04D0B0F5007FEFD1304800E02E
:100E1000304840EA0262DA61E2681A625E62596151
:100E200032E045EA026242F40032DA61F6E7A06895
:100E3000021DDA62227F45EA026545F40035DD6174
:100E40005E625961017841B1012921D0224B234AC8
:100E500023484FF48D7122F0F7FADA69418822F4C1
:100E60007F42013922F0100242EA0122DA610121B7
:100E7000154BDA6942F02002DA61DA699206FCD495
:100E800010229A600029B9D0164A1A60BDE8F08194
:100E9000B2F1FF01DA69408822F47F4200F1FF30AD
:100EA00022F0100242EA002242F0100218BF012193
:100EB000DA61DDE745EA0262034B42F40032B4E74F
:100EC00042F20132E1E700BF00B00240012301001D
:100ED000090002000A000200754802088F48020853
:100EE000EB47020801230200024B1B6858680368A5
:100EF0005B691847AC35012070B5044625460A4B9E
:100F00000C30002660602672667245F8203B602235
:100F1000294609F00BFF04F55A63EE6024359D4223
:100F2000FBD1204670BD00BF84530208034B1A68F2
:100F3000D207FCD423229A60704700BF00B0024061
:100F40007047000030B50F4C2568ED07FCD4232511
:100F50000904A56041F001010225FF2B656361646E
:100F6000E0630AD00849656241EA0363E361074B25
:100F700022626061E060236030BDE561039BA36392
:100F8000034BF8E700B00240090001000100020035
:100F90000100030030B50E4C2568ED07FCD4232575
:100FA0001204A56042F001020225FF2B6563626412
:100FB000E063E16008D01B0643F00213E361054BD8
:100FC00065626061236030BD034BE3610123F9E793
:100FD00000B0024001000200020002FF30B50B4CDD
:100FE0002568ED07FCD4232512041B06A56043F4F5
:100FF0000033022542F0010265636264E063E16050
:10100000E361034B65626061236030BD00B0024064
:1010100001000200012070474020704700EB811062
:101020000830704700EB811008307047012070478E
:101030004FF4296070474FF4296303FB0100083027
:1010400070474FF4296303FB01000830704701200B
:1010500070471020704700EB01100830704700EB1C
:10106000011008307047084601F0ACBC10B5034BC6
:101070000360044608F089FC204610BD3C54020879
:1010800010B50446FFF7F2FF2046482121F0A0FAF0
:10109000204610BD10B5034B0360044608F075FCF4
:1010A000204610BD0854020810B50446FFF7F2FFB1
:1010B000204640F6982121F08BFA204610BD000012
:1010C00010B5034B0360044608F05FFC204610BDDA
:1010D000D453020810B50446FFF7F2FF204618214A
:1010E00021F076FA204610BD10B5084B0360044687
:1010F00000F6C420FFF7BAFF04F12C00FFF7CAFF87
:1011000004F11400FFF7DCFF204610BD7054020804
:1011100008B50248FFF7E8FF08BD00BF9C12002099
:1011200010B50446FFF7E0FF204640F66C4121F081
:101130004FFA204610BD00002DE9F34101F04CFAB2
:10114000054601F04DFA0024014623462846224672
:10115000009412F08BF9274B274A1A60204602F0C0
:1011600017FB264D264B274A27489A6012F0E6F8CF
:101170002B68BFF35B8FDB0735D4284621F02AFAB2
:1011800088B3224C224B236004F5316604F114002D
:1011900004F12C0804F6C4276060C4F80880E760F6
:1011A000266108F0F3FB1B4B6361404608F0EEFB41
:1011B000194BE362384608F0E9FB184BC4F8C43A0F
:1011C00004F60C3002F0A6FE224604F60C3130463E
:1011D00002F058FB304601F0F5FB114822F052F9BD
:1011E000284621F003FA0F4802B0BDE8F041FFF7AE
:1011F000E9BB00BF103601204804002098120020EF
:10120000680400204C040020080000209C120020EC
:1012100070540208D4530208085402083C540208CF
:1012200011110008C4030020704700000148FFF7B7
:10123000D7BB00BFC403002070B5264E264C274DF7
:10124000274B23603046FFF757FE284617F014FA65
:1012500024480FF001FE244B2448DC6000224FF4A8
:101260008071C3E9121222491A86C3E91A12214970
:1012700083F85820C3E91E011F49C3F880101F4995
:101280001F480B60F021C3E90422C3E90622C3E929
:101290000822C3E90A22C3E90E22C3E91022C3E9E6
:1012A0001422C3E917225A6683F870205A67C3E9EB
:1012B000016501801348018013484FF4A07101803B
:1012C0001248018012490A70012283F83420114A21
:1012D0001A6070BDF40400209412002068040020FD
:1012E000084502084C040020C4030020000001014E
:1012F00001000001000450001A001400AC35012068
:10130000A0350120A6350120A2350120A8350120F5
:10131000A4350120985202080148FFF779BC00BFAC
:10132000F40400200020704781807047C18070471E
:10133000018170474181704770477047704770471F
:10134000704710B4C4880368121B84885B6D091B46
:1013500012B25DF8044B09B218474FF6FF73838150
:101360004FF0FF3303621368C361106070470020C1
:1013700070478B88838001207047704780F8261063
:10138000704790F82600704710B50022B1F9084068
:10139000B1F90A10028042808480C18010BD002211
:1013A000028042808280C28070470177704780ED62
:1013B000080A704780F82410704780F8251070479D
:1013C00001207047983070478C30704784307047E8
:1013D0007047704770470000034B902283F85A23F0
:1013E00083F85823704700BF00E100E0094A0A492A
:1013F000D3680A48C3F30A03013B9BB20B8011690F
:10140000C1F30A01013901801364536B43F00103F6
:1014100053637047006801400A1F0020081F002026
:10142000014BD3F8AC00704700680140024B012229
:10143000C3F8AC105A6270470068014010B52C2107
:10144000044621F0C5F8204610BD10B5BC21044665
:1014500021F0BEF8204610BD70B5044608F093FD9B
:1014600023689D6E0EF046FA01462046A847236881
:10147000054AD3F88C502046AC460023BDE87040A6
:10148000A2F51631604700BF00B004D008F062BD7D
:1014900008F06CBD08F028BD08F097BE90F8252034
:1014A00012B103685B691847704790F825201AB19C
:1014B00090F8242002B1186070470000034B4FF0F1
:1014C00080629A604FF080729A60704700E100E09D
:1014D000084B4FF08062C3F88820BFF34F8FBFF3F3
:1014E0006F8F4FF08072C3F88820BFF34F8FBFF328
:1014F0006F8F704700E100E070B50023124E8380CB
:10150000124B0360336893F8582005460AB1D86C33
:1015100000B998680368DB6A98473368B0FA80F4CA
:10152000D86C640930B10368DB6A9847002808BFAB
:1015300044F001042CB9064B064A07482C2121F03F
:1015400083FF284670BD00BFAC35012084540208DB
:10155000CD4802082B4902086449020870B5254E9F
:101560003568BFF35B8F15F0010540D1304621F09F
:1015700031F800283BD0204C204B256104F1340089
:10158000C4E90035C4E90255E584A562A5850FF0DC
:1015900048FF04F158000BF07FF8194BA365204673
:1015A000184B40F8843BFFF7A7FF174BC4F8843073
:1015B0002433C4F88C304FF4C803C4E92835002321
:1015C000C4F8AC30C4F8B030C4F8B430C4F8B830A3
:1015D0000E480F4BC4F89050C4F89C50C4F8A85063
:1015E000C4F8983021F04EFF304620F0FFFF02484B
:1015F00070BD00BF0C1F0020101F0020085D0208F6
:10160000A45402081C550208BC5C0208D51300084B
:101610009C5C020838B5184C23685BB3174B184A1A
:101620001B6C11888B4216D1164B198804F0AAFD49
:10163000236893F86A200025013283F86A2083F832
:101640007C50FFF7B9FA206809F01AFA2846BDE87D
:101650003840FFF7F9B804F095FD24682368204668
:101660001B6A9847012384F87C300020BDE838408D
:10167000FFF714B938BD00BFAC3501200068014048
:101680000A1F0020081F002007B5064BADF8060012
:101690001B68054801220DF1060105F05FFB03B050
:1016A0005DF804FB0C0000201C20002038B5084C1D
:1016B000204603F0ABFB0A21204603F040FC204605
:1016C00003F090FC0546204603F01EFC284638BD7A
:1016D0001022002038B5084C204603F097FB0A2161
:1016E000204603F02CFC204603F07CFC05462046F7
:1016F00003F00AFC284638BDC82100202DE9F3413B
:10170000DFF87C801C4E1D4FFFF7D0FF0546FFF72A
:10171000E1FF294602460446404622F059F8322DA0
:1017200019D952238DF80730306800231A460DF17D
:10173000070106F0D4F8642C386818D955238DF8C1
:10174000073000231A460DF1070106F0C8F864209F
:1017500005F0D6FFD8E7072D94BF4C234E238DF814
:101760000730002330681A460DF10701E1E7072C26
:1017700094BF44234E23E2E7D81F0020D41F00204B
:10178000C649020830B595B0102200210AA822F0FF
:1017900074F81422002103A822F06FF800241E4BD5
:1017A00001941A6C42F080521A641B6C03F080534F
:1017B0000193019B194B02941A6842F440421A604B
:1017C0001B6803F4404302930122029B4FF48033D1
:1017D000CDE9082302254FF480030821CDE90E53FB
:1017E0004FF4B473CDE9101308A804231393129592
:1017F00004F020FD04F0E4FC0F23CDE903354FF4A1
:10180000A0504FF48053CDE90603052103A80594A9
:1018100004F0ECFE15B030BD00380240007000400E
:101820002DE980489BB003F00BFAFFF7ABFF1422C1
:1018300000210DA822F021F80024C84B00941A6B57
:10184000C74842F010021A631A6B02F010020092AD
:10185000009A01941A6B42F020021A631A6B02F08C
:1018600020020192019A02941A6B42F080021A63DC
:101870001A6B02F080020292029A03941A6B42F0F1
:1018800004021A631A6B02F004020392039A04948E
:101890001A6B42F001021A631A6B02F00102049201
:1018A000049A05941A6B42F002021A631A6B02F052
:1018B00002020592059A06941A6B42F040021A63DE
:1018C0001A6B02F040020692069A07941A6B42F0D5
:1018D00008021A631B6B03F00803224607933C219E
:1018E000079B03F065FE9F480122022103F060FE82
:1018F00022469C48042103F05BFE22469A484FF49E
:10190000405103F055FE224698484FF4005103F031
:101910004FFE01263C23032591480F940DA9022771
:10192000CDE90D36109503F059FD8E480DA9CDE98E
:101930000D764FF00408CDE90F4403F04FFD8948C0
:101940000DA9CDE90D86CDE90F4703F047FD4FF412
:10195000405385480DA9CDE90D36CDE90F4703F079
:101960003DFD81480F940DA9CDE90D8503F036FDAD
:101970004FF400537D480DA9CDE90D36CDE90F4454
:1019800003F02CFD0DA9062379480F94CDE90D3500
:1019900003F024FD7748784B784D036003F014FC86
:1019A000DFF8F8C1764B2C62C5E900C328464FF436
:1019B0008043C5E90434C5E90244C5E9064404F09E
:1019C00005F81021284604F049FA2146284604F07B
:1019D00064FA6C4DDFF8C8E1AC624FF48273C5E97C
:1019E00000E34FF400781823C5E9068328460A234C
:1019F000C5E90244C5E90444C5E90844EB6205F0C1
:101A000051F98F232246394656488DF824308DF8F7
:101A1000344003F0CDFD32464FF47A7309A92846CD
:101A200005F09CF94FF47A7332460DA9284605F06B
:101A300041FB324639464B4803F0BAFD9DF834303D
:101A4000D32B04BF504B1E70504E514B0125C6E99D
:101A500000354FF0100940230024C6E904934FF4E9
:101A6000C073C6E906344FF40063C6E908344FF486
:101A7000005302274FF0040A4FF0030BB3620DA985
:101A800007233046CDE90FA34FF00808CDE90D73C9
:101A9000C6E9024ACDE911B7139704F0E7FF4FF604
:101AA000FF7209A93046CDE90A85089409950C947E
:101AB00004F0FCFF284603F0EFF84FF6FF7209A987
:101AC0003046CDE90978CDE90B5404F0EFFF4FF62D
:101AD000FF7209A93046CDE909B8CDE90BA404F09D
:101AE000E5FF4FF40C730893089B0C934FF6FF72BD
:101AF00009A93046CDE909A80B9504F0D7FF40F2BB
:101B00006A51304604F0F0FF342221460DEB02000A
:101B100021F0B3FE1F4E204B3461C6E90034092387
:101B2000C6E905351D23C6E9073B40F20D1240F218
:101B30004313C6E9092340F2171140F24713304618
:101B4000C6E90B13C6E90244B48686F8364004F0B1
:101B500037FAFF21F022CDE9121423E000380240C9
:101B60000010024000080240000C02400018024031
:101B700000000240C0210020003002402C21002043
:101B8000A08601001C200020DC1F0020E81F002090
:101B9000400100A08420002000680140005C00405B
:101BA000005001404FF4806005214FF4A073CDE94F
:101BB0001401CDE90E240DA9CDE916423046224686
:101BC0004B4E1893CDE910370D94ADF864408DF865
:101BD000664004F0A9FA474B33601B68DFF868A140
:101BE00098473368444EDB689847444B3046C6E913
:101BF0000034C6E90274C6E90A47C6E90C4403F09A
:101C0000F3FA2946304603F0A5FB3D4E4A462146ED
:101C10000DA821F032FE3B4BB4604FF4803B3046C0
:101C2000C6E9003B3461347686F82040F462C6F899
:101C300028A0F460F56186F83040756103F040F843
:101C40000DA93046CDE90D552F4E0F9403F0CEF976
:101C50004A4621460DA821F010FE2C4BB4603046B8
:101C6000C6E9003BC6E90AA43461347686F8204010
:101C7000F460F56186F83040756103F021F80DA934
:101C80003046CDE90D750F9403F0B0F92048214B93
:101C9000036004F09FFEFEF70BFDFEF708FD05F064
:101CA000A7FC1D4A2946404605F0DEFD1B4B1C4A99
:101CB00018602946404605F0D7FD1A4B1A4A1860AD
:101CC0002946404605F0D0FD184B194A18602146B8
:101CD000184805F0B9FC184B184A186021461848F6
:101CE00005F0B2FC174B186005F094FCFEE700BF4E
:101CF000CC1F00201C0000208021002000B00240EA
:101D00001022002000200140C821002000210140B5
:101D1000742000200008065090550208D81F0020AB
:101D200078550208D41F002060550208D01F0020FB
:101D3000CC550208FD160008E41F0020A855020833
:101D4000BF060008E01F00200100000F7047704729
:101D50007FB5094B8DF817201B6802930DF1170210
:101D60000123009201930A460146044803F0D6FE7F
:101D700007B05DF804FB00BF100000202C210020FC
:101D80007FB500238DF81730084B1B6802930A4675
:101D900001230DF11701009101930146044803F05E
:101DA0004DFF9DF8170007B05DF804FB1000002000
:101DB0002C2100201FB5084C24680092CDE9013485
:101DC0000A4601230146054803F038FF003818BFD2
:101DD000012004B010BD00BF100000202C21002005
:101DE00002F05ABF10B5064C00222046042103F031
:101DF000DFFB20460122BDE81040042103F0D8BBE0
:101E00000008024038B50B4D044601220A484FF441
:101E1000005103F0CDFB00220421284603F0C8FB4B
:101E20002046FFF731FC28460122BDE83840042156
:101E300003F0BEBB00080240000C024038B50B4D59
:101E4000044600220A484FF4005103F0B1FB00227F
:101E50000421284603F0ACFB2046FFF715FC28467A
:101E60000122BDE83840042103F0A2BB0008024073
:101E7000000C0240F7B5144E144F05460C46304690
:101E80000022042103F094FB00224FF40051384655
:101E900003F08EFB2846FFF7F7FB0D4B0D481B6840
:101EA000224601A905F006F9384601224FF40051F7
:101EB000019C03F07DFB30460122042103F078FBF6
:101EC000204603B0F0BD00BF00080240000C0240F5
:101ED0000C0000201C20002002F0DEBE0268034B34
:101EE0009A4201D102F0C6BE704700BF0010004008
:101EF0007047000082B00E4B00220092596C41F4F2
:101F000080415964596C01F480410091009901921B
:101F1000196C41F0805119641B6C03F080530193DC
:101F2000019B0F216FF0010002B003F00DB900BF5B
:101F30000038024010B514228AB0044600210DEB8F
:101F4000020021F09AFC23681E4A93421FD11E4BC7
:101F5000002101915A6C42F480725A645A6C02F466
:101F600080720192019A02911A6B42F001021A6387
:101F70001B6B03F001030293029B0223059313489A
:101F8000032305A9069303F029FA0AB010BD104AED
:101F90009342FAD10C4B002103915A6C42F4007227
:101FA0005A645A6C02F400720392039A04911A6BF9
:101FB00042F001021A631B6B03F001030493049BBC
:101FC0000423DBE70020014000380240000002400B
:101FD000002101400268094B9A4282B00BD10023D4
:101FE0000193074B1A6B42F480521A631B6B03F484
:101FF00080530193019B02B0704700BF0030024044
:102000000038024007B50F4B02689A4216D10022F1
:10201000A3F5F0430192196B41F4000119631B6BA6
:1020200003F40003019305215A20019B03F08CF86F
:102030005A2003B05DF804EB03F0B8B803B05DF8C4
:1020400004FB00BF00B002402DE9F043044689B014
:102050001422002103A821F010FC2268244B9A428C
:1020600043D1244C244800250095236B43F00403FE
:102070002363236B03F004030093009B0195236B00
:1020800043F001032363236B03F001030193019BDE
:102090004FF012094FF400734FF001080327042694
:1020A00003A9CDE90339CDE90587079603F096F931
:1020B0004FF480731148079603A9CDE90339CDE9A0
:1020C000058703F08BF90295236C43F40003236426
:1020D000236C03F400030293029B236A43F400037E
:1020E0002362236A23F40003236209B0BDE8F0836E
:1020F000005C00400038024000080240000002403E
:10210000F0B599B004461422002107A821F0B5FBD0
:1021100030220DEB0200002121F0AFFB22685E4B64
:102120009A4240F0B78008230C93C02310930423F5
:1021300012930CA84FF40033159304F01FFB08B161
:10214000FFF7D6FE554B5648002400945A6C42F0D7
:1021500080625A645A6C02F080620092009A019484
:102160001A6B42F020021A631A6B02F020020192ED
:10217000019A02941A6B42F001021A631A6B02F080
:1021800001020292029A03941A6B42F002021A634D
:102190001A6B02F002020392039A04941A6B42F043
:1021A00040021A631A6B02F040020492049A0594EA
:1021B0001A6B42F004021A631A6B02F004020592D1
:1021C000059A06941A6B42F008021A631B6B03F01F
:1021D0000803069302250E26069B0B964FF4806398
:1021E00007A9CDE90735CDE9094503F0F7F841F630
:1021F00058032C480B9607A9CDE907350927CDE9E7
:10220000094503F0EBF8032327480B9707A9CDE90D
:102210000735CDE9094503F0E1F84FF47063224832
:102220000B9607A9CDE90735CDE9094503F0D6F8A6
:102230004FF40C631D480B9607A9CDE90735CDE98E
:10224000094503F0CBF8C02319480B9607A9CDE93F
:102250000735CDE9094503F0C1F8082315480B9669
:1022600007A9CDE90735CDE9094503F0B7F84FF4E3
:10227000A0530E480B9707A9CDE90735CDE90945CD
:1022800003F0ACF858202246052102F05DFF5820EB
:1022900002F08CFF19B0F0BD006801400038024028
:1022A00000140240000002400004024000180240F6
:1022B00000080240000C02400268094B9A4282B0BA
:1022C0000BD100230193074B5A6B42F040025A6333
:1022D0005B6B03F040030193019B02B0704700BFAA
:1022E000000806500038024010B5044688B0142299
:1022F000002103A821F0C1FA2268144B9A4223D18D
:1023000003F56843002101915A6C114842F4801290
:102310005A645A6C02F480120192019A02911A6B6B
:1023200042F020021A631B6B03F020030293029B0E
:102330004FF4607202230321CDE903230523CDE985
:10234000061303A903F04AF808B010BD005001407D
:10235000001402402DE9F04186B0002303932B4B7B
:102360001C68002C4FD14FF00108C3F80080284BA7
:1023700000949A6B274842EA08029A639B6B03EA2F
:1023800008030093022703260C25009B01A94FF6A2
:102390003F03CDE90137CDE9046503F01FF81E487E
:1023A000059501A9CDE90187CDE9034603F016F8AB
:1023B00048F233131948059501A9CDE90137CDE954
:1023C000034603F00BF84FF683731548059501A9F2
:1023D000CDE90137CDE9034603F000F84CF2037371
:1023E0001048059501A9CDE90137CDE9034602F072
:1023F000F5FF60230C48059501A9CDE90137CDE92A
:10240000034602F0EBFF06B0BDE8F0815822002041
:102410000038024000140240000802400018024048
:1024200000100240000C02400004024070B588B069
:1024300000230293204B1A6C42F010021A641B6CAA
:1024400003F010030293054601A903A8029B04F0C0
:1024500077F9069B4BBB04F063F9184E184B3360B9
:1024600040F2E733F360174BB0FBF3F3013B7360CB
:10247000304600233361B360B36104F0E5FF0446E6
:1024800080B9304604F0BAFE044658B9362002F04E
:102490008DFE0F2D0DD822462946362002F054FE1F
:1024A000094B1D60204608B070BD04F039F94000AA
:1024B000D3E70124F6E700BF003802405C22002089
:1024C0000010004040420F00840000207047FEE7EB
:1024D000FEE7FEE7FEE77047014804F0CDBE00BF0F
:1024E0005C220020014803F0C2BD00BF8420002010
:1024F000014802F0A5BE00BF8021002001207047E6
:1025000008B521F05DFA162303604FF0FF3008BDD7
:1025100008B521F055FA16230360FEE770B50D46A5
:1025200014460E46731B9C4201DC204670BDAFF37F
:10253000008006F8010BF5E770B50D4614460E460F
:10254000731B9C4201DC204670BD16F8010BAFF3F3
:102550000080F5E74FF0FF3070474FF400534B60B9
:102560000020704701207047002070470A4A116818
:1025700008B5034609B90949116010686946034462
:102580008B4206D921F01CFA0C2303604FF0FF3078
:1025900008BD1360FCE700BFA4220020F042012028
:1025A000704710B50421044620F012F8204610BDF3
:1025B000012908B506D0022908D059B901F034F92B
:1025C000006808BD01F030F94068FAE701F02CF925
:1025D0008068F6E70020F4E70048704704560208D8
:1025E0001120704713B5002451B1036801948DF890
:1025F000034001AA9C680DF10303A04702B010BD7F
:102600000846FBE7C0897047008A7047C08870475A
:1026100080887047807A00F07F007047807AC00918
:1026200070470020704700009FED010A704700BF0F
:1026300000000000806A7047704710B5082104460A
:102640001FF0C6FF204610BD7047704700F5987315
:102650000868496803C37047704770474160704716
:1026600070477047064BC0F84C310023C0F850311A
:1026700000F5A273C0F84801C0F84031704700BFB0
:10268000FD2700080123037270477047704710B49C
:10269000C26841685410034601EB6200D20748BF8C
:1026A0000A599B685DF8044B48BFD3581847034646
:1026B000406830B19A681AB9D86800F001007047D4
:1026C0000120704710B50C2104461FF081FF204601
:1026D00010BD10B5102104461FF07AFF204610BD32
:1026E00010B54FF4AE7104461FF072FF204610BDC6
:1026F00010B5402104461FF06BFF204610BD10B5F9
:102700000DF0F8F80368BDE81040DB6B18470000D7
:10271000054B1B7801462BB1406818B103680C319A
:102720005B6E1847704700BFAB350120037A70B568
:102730000546BBB940680368DB69984704463CB965
:102740006868036805F10C011B6EBDE8704018470E
:10275000A1886B8FC91A236820461B6B09B2984762
:10276000A469ECE770BD10B50446D0F8400158B13B
:102770000368DB68984738B1D4F8400103689B6868
:1027800098470023C4F8403110BD70B5044690F856
:10279000390094F838300130C0B2984284F83900DA
:1027A00005D901232372002384F8393070BDB4F9B0
:1027B0003A2000210FF09EFAC30706D500284FF6F5
:1027C000FF73C8BF0123184400B2238AC01AA08730
:1027D00060680368DB69984705462DB9606803683F
:1027E000BDE870405B691847A988A38F19442B681E
:1027F00028461B6B09B29847AD69EEE72DE9F14F0A
:10280000D0E9556A0746B06803681B6A9847EF2805
:1028100005D8444B444AA321444820F015FE706873
:1028200003681B6A98470F2803D8414B3E4AA421EE
:10283000F2E7F06803681B6A98470B2803D83D4B02
:10284000394AA521E8E70DF055F8DFF8F09004309B
:102850000DF08EF8D9F8000010B10368DB689847D6
:10286000D9F8000010B103681B689847DFF8D080E2
:10287000D8F8000010B103685B699847D7F83C01AD
:1028800010B103685B689847D8F8000010B103687E
:102890001B689847D7F83C0110B103689B689847BC
:1028A000F068036800215B6A98474FF0000B224BE9
:1028B000C0F804B0044680F808B00360B06803684C
:1028C00059465B6A9847054601F018FB7068036833
:1028D00059465B6A98472946064601F0EFFA331DD0
:1028E000C7F83C61C9F80040C8F80050CAF8003089
:1028F0002B68C6F808A02846DB68EE639847336863
:1029000030461B689847214628460FF0EDF92368AA
:1029100020461B69984723685B69204601B0BDE8E3
:10292000F04F18470A4A0208984A0208704B0208FA
:10293000B74B02085A4C0208DC570208F435012054
:10294000F0350120044B1B6893F858200AB1D86C6D
:1029500000B99868704700BFAC350120F8B517463C
:1029600004460E460DF0D2F8124B1C60124B236049
:10297000124B0025C4E95135114BC4E95355186871
:10298000036801219B68C4E94F55C4E9557698470F
:10299000284600F0FDFEFFF7D5FF17F016FDFFF704
:1029A000D1FF17F08DFDFFF7CDFF17F095FD204605
:1029B000F8BD00BF00360120885702087057020892
:1029C000AC350120064BC0F84C310023C0F8503123
:1029D00000F5A273C0F84801C0F84031704700BF4D
:1029E000FD270008064BC0F84C310023C0F85031D9
:1029F00000F5A273C0F84801C0F84031704700BF2D
:102A0000D52B0008064BC0F84C310023C0F85031DC
:102A100000F5A273C0F84801C0F84031704700BF0C
:102A2000992A00082DE9F04105460026164B46601C
:102A3000067245F80C3B044628460F4609F0D4FEC2
:102A4000124B84F838701B7884F83960A68723B954
:102A5000012323722046BDE8F0810D4B0D4FB3F9E1
:102A60000080E368B7F900109B6B26612846984701
:102A7000E3684146DB6B28469847284609F02FFE5D
:102A80003B885B426387E5E700580208AB350120CD
:102A9000A2350120A03501202DE9F047D0E9556A83
:102AA0000746B06803681B6A9847B0F5296F05D2DE
:102AB000414B424AA321424820F0C6FC706803689B
:102AC0001B6A98470F2803D83E4B3C4AA421F2E7E3
:102AD000F06803681B6A98473F2803D83A4B374A87
:102AE000A521E8E70CF006FFDFF8E09004300CF0D9
:102AF0003FFFD9F8000010B10368DB689847D9F8A8
:102B0000000010B103681B689847DFF8C480D8F84C
:102B1000000010B103685B699847D7F83C0110B119
:102B200003685B689847D8F8000010B103681B6819
:102B30009847D7F83C0110B103689B689847F06844
:102B4000036800215B6A984714210446FFF76AFF77
:102B5000B068036800215B6A9847054600F0ECFE08
:102B60007068036800215B6A98472946064600F0B2
:102B7000A1FE331DC7F83C61C9F80040C8F80050F9
:102B8000CAF800302B68C6F808A02846DB68EE6358
:102B90009847336830461B689847214628460FF00F
:102BA000A3F8236820461B699847236820465B6981
:102BB000BDE8F047184700BF0A4A0208FD4C02086A
:102BC000704B0208B74B02085A4C0208F43501203A
:102BD000F03501202DE9F047D0E9556A0746B06885
:102BE00003681B6A9847EF2805D8414B414AA32147
:102BF000414820F029FC706803681B6A98470F2839
:102C000003D83E4B3B4AA421F2E7F06803681B6AF5
:102C100098473F2803D83A4B364AA521E8E70CF0FD
:102C200069FEDFF8E09004300CF0A2FED9F8000055
:102C300010B10368DB689847D9F8000010B1036849
:102C40001B689847DFF8C080D8F8000010B103680F
:102C50005B699847D7F83C0110B103685B689847F7
:102C6000D8F8000010B103681B689847D7F83C01FA
:102C700010B103689B689847F068036800215B6A9D
:102C8000984714210446FFF7CDFEB0680368002181
:102C90005B6A9847054601F031F9706803680021C6
:102CA0005B6A98472946064601F008F9331DC7F8C4
:102CB0003C61C9F80040C8F80050CAF800302B68E1
:102CC000C6F808A02846DB68EE63984733683046AC
:102CD0001B689847214628460FF006F823682046CF
:102CE0001B699847236820465B69BDE8F047184791
:102CF0000A4A0208E84D0208704B0208B74B020866
:102D00005A4C0208F4350120F03501207047704715
:102D100070477047704730B5036885B06D460181D4
:102D2000D3F88430014604462846984795E80700C2
:102D30003C3484E8070005B030BD30B5036885B089
:102D40006D464181D3F884300146044628469847B1
:102D500095E807003C3484E8070005B030BD002248
:102D6000028042808280C280704780F836107047AF
:102D700070B5036804461B6B1546984723682946BF
:102D800020465B6EBDE87040184700207047806C9D
:102D90007047704770477047704730B4C2684468E6
:102DA0005510034604EB6200D20748BF62599B6886
:102DB00030BC48BFD35818470346406830B19A68C2
:102DC0001AB9D86800F0010070470120704710B5AB
:102DD0004C2104461FF0FCFB204610BD10B510210D
:102DE00004461FF0F5FB204610BD10B54FF41171DD
:102DF00004461FF0EDFB204610BD08B5FEF74EFB64
:102E000008BD0000036870B55E6B124B1B6804467A
:102E10008DB22BB9104B114A6C21114820F014FBD4
:102E20001049828D0988914203D80F4B0B4A6D21BE
:102E3000F3E713F812200D4B1B6853F822000368C8
:102E40001B6B9847291A3346204609B2BDE87040EB
:102E5000184700BF04360120D34E0208154F020860
:102E6000504F020808360120974F02080C36012007
:102E70006C30884208B505D10CF03CFDBDE8084037
:102E8000FFF7B0BD08BD00224FF0FF31C0E90021BF
:102E90008260704770B5036804461B6B15469847FF
:102EA0002368294620465B6BBDE87040184770B523
:102EB00004461D46BDF91060FFF7ECFF2368294664
:102EC00020469B6B9847236831462046DB6BBDE864
:102ED000704018470022C0E90122C0E90322C0E97E
:102EE0000522C0E907224FF480728284014A026001
:102EF000704700BF24580208F8B5194B018F1B8892
:102F00008B4206462AD9174B1B682BB9164B174A1A
:102F100017486C2120F098FA13F81120154B1B6804
:102F200053F82250144B186800F06EFC2B680746CB
:102F30009B6B284698472B6804469B6C394628466D
:102F400098472B6814FB00F45B6A3946284698477B
:102F5000A4B223181BB2A6F84630F8BD0023FAE746
:102F60000836012004360120D34E0208154F02080E
:102F7000504F02080C3601201036012038B52622A9
:102F800004460D46002120F078FC2046FFF7A2FF02
:102F9000064B23602B88E384FF23204684F82830E7
:102FA000294609F0C4FF204638BD00BF205F020853
:102FB00010B526220446002120F05FFC2046FFF7D2
:102FC00089FF0A4BA3624FF6FF73A3854FF47F027C
:102FD0000023C4E90C32064A226023874FF0FF32F7
:102FE000C4E91023E363A364204610BD60570208C0
:102FF0008C5802082DE9F04F04468FB0A0460025FA
:103000000EF0C6FCA54BE56348F8403B2622294656
:10301000404620F032FC4046FFF75CFFA04B2364A3
:1030200004F16C09FF2384F866304846A5660AF06F
:10303000B5F804F1B4034FF6FF760CA918460393D4
:10304000ADF83060FFF79AFF04F1E0030CA91846D1
:103050000493ADF83060FFF791FF04F586730CA977
:1030600018460593ADF83060FFF788FF04F59C73B0
:10307000184604F5C27B029304F5E87AFFF798FF3F
:103080005846FFF795FF0CA95046ADF83060FFF7A2
:1030900075FF844BC4F8D03101274FF0FF33C4E9EA
:1030A0008037814BC4F8FC51C4E98D347F4B84F8E0
:1030B0000852C4E98F354FF4A0732A464046009366
:1030C0002946F023FFF7F3FE261D4FF07F43A3664A
:1030D0004146304606F06CFC4846BD222321FFF7EE
:1030E000D9FE0CAA4FF002030BA94846ADF83030C8
:1030F000ADF82C7009F0E9FD03234846A4F8A4308C
:10310000FFF7FAFE4FF0FF33C4E92A3304F50D73DD
:10311000C4F894304946304606F04AFC3A460398D3
:10312000CC21FFF7B7FE4FF00C080398ADF83080C4
:103130000CA909F0FCFE0399304606F039FC3A462A
:103140000498A921FFF7A6FE0498ADF830800CA9D9
:1031500009F0EDFE0499304606F02AFC3A4605983F
:103160008621FFF797FE0598ADF830800CA909F08D
:10317000DEFE0599304606F01BFC1D230422029852
:10318000009307216023FFF792FE4FF0FF33C4F84E
:103190006831D4F838310299D3F88430A4F86C51EE
:1031A0000DF118084046984798E8070004F5BA73EF
:1031B00083E807003E4B1B6804F503792BB93D4BB0
:1031C0003D4A60213D4820F03FF93D4B1B881BB92B
:1031D0003C4B394A6121F5E73B4B2946186800F022
:1031E00013FB3A4A03460A21484610F099F84FF07B
:1031F00002030298C4F880910CA9DFF8D490ADF8CE
:103200003430CDF8309009F003FD0299304606F0D5
:10321000CFFB22230093732229465846F023FFF761
:1032200046FE4FF0FF33C4F8B431D4F88431A4F82B
:10323000B85159464046D3F88430984798E807007B
:1032400004F5E07383E8070004F50873C4F8CC3193
:103250000CA95846A4F82052CDF83090ADF834703F
:1032600009F0D6FC5946304606F0A2FB3A465046D5
:10327000D021FFF70FFE09225046082109F0A2FBDA
:103280003946504609F0B1FB304684F8F8515146B2
:1032900006F08EFB20460FB0BDE8F08F34590208CF
:1032A000B85E02083C5E02081C590208712E000834
:1032B00004360120D34E0208D54F0208504F0208B1
:1032C00008360120974F02081036012020500208CE
:1032D00060570208406A7047806A704770478A8862
:1032E0000B8810B5D20A4C88C1699BB251F82200F4
:1032F00043EA0443184410BD10B50446BAB1107B2C
:1033000068B1537BD27A1B0203F4E0631A43236A49
:1033100003EB82031A888A4202D193F9020010BD9E
:1033200005D8013880B204330028F3D1F7E7002034
:10333000F5E710B52C2104461FF04AF9204610BDD0
:1033400030B58BB00446BDF860500895BDF85C50B0
:1033500007959DF8505006959DF84C5005959DF8A1
:10336000485004959DF8445003959DF840500295AF
:103370009DF83C500195BDF8385000950EF00EF9BF
:10338000064B2360159BE361169B2362199B6362C6
:103390001A9BA36220460BB030BD00BF68590208DB
:1033A00070477047704730B4C26844685510034690
:1033B00004EB6200D20748BF62599B6830BC48BF2B
:1033C000D35818470346406830B19A681AB9D8688C
:1033D00000F0010070470120704710B5102104462D
:1033E0001FF0F6F8204610BD10B5F02104461FF07E
:1033F000EFF8204610BD9830884208B505D10CF092
:1034000079FABDE80840FFF7FDBA08BD2DE9F341A0
:1034100004460EF0BDFA444B2360444B0025C4E93A
:1034200010354FF48072FF2304F16C07A4F8642078
:1034300084F86630A4F890204FF6FF733C4AE266A9
:1034400004F19806A4F8923084F8943001A9C4E9F4
:103450001255C4E91455C4E91655C4E91C55C4E90C
:103460001E55C4E92055C4E92255E5632566A566C5
:103470003846ADF8043009F05AFD304609F08EFEAA
:103480002C4BC4E938342C4B04F14008C4E93A35DC
:103490002A4629464046FFF7FDFC4046F021FDF74D
:1034A00047FF40464FF4A071FDF744FF251D4FF044
:1034B0007F43A3664146284606F07AFA1B22384627
:1034C0001421FFF7E7FC102301A93846ADF80430BA
:1034D00009F02DFD3946284606F06AFA3046BB222F
:1034E0002321FFF7D7FC012301AA6946ADF800307C
:1034F00030460223ADF8043009F0E7FB0423A4F8BA
:10350000D0303046FFF7F8FC4FF0FF33C4E93533D5
:1035100004F1E0032846C4F8C030314606F048FA0A
:10352000204602B0BDE8F081E8590208B85E020802
:10353000205F0208D0590208F733000870470000E6
:1035400030B5164D2C6814F001048FB0BFF35B8FBB
:1035500020D128461FF03EF8E0B13F230993104BDD
:103560000893104B104911480A940122CDE90643F3
:103570000423CDE903320A230093CDE90B44CDE9BE
:1035800001440594FFF7DCFE09481FF07BFF284645
:103590001FF02CF805480FB030BD00BFA822002056
:1035A000AC750208D875020848740208AC220020E5
:1035B0003D3500087047000030B5164D2C6814F0FA
:1035C00001048FB0BFF35B8F21D128461FF002F8B2
:1035D000E8B13F230993104B0893104B1049114851
:1035E0000A94CDE9064301220423CDE903321823CE
:1035F00000931722CDE90B44CDE901440594FFF770
:103600009FFE09481FF03EFF28461EF0EFFF0548C9
:103610000FB030BDD8220020B0750208DC7502085A
:1036200058740208DC220020B535000870470000FD
:1036300030B5164D2C6814F001048FB0BFF35B8FCA
:1036400020D128461EF0C6FFE0B13F230993104B5E
:103650000893104B104911480A940122CDE9064302
:103660000423CDE9033228230093CDE90B44CDE9AF
:1036700001440594FFF764FE09481FF003FF284644
:103680001EF0B4FF05480FB030BD00BF0823002076
:10369000D4750208E07502089C7502080C2300200E
:1036A0002D36000800207047002070470EB403B587
:1036B00003AB002153F8042B01930DF0EDF902B098
:1036C0005DF804EB03B070470CB407B504AB53F8D6
:1036D000042B01930DF0E0F903B05DF804EB02B0A8
:1036E00070470000436C10B5044673B3038F2BB9C9
:1036F000184B194AC52119481FF0A6FEC38E00EBCE
:1037000043035B8C0BB30FF062F8238F012B03D8BC
:10371000134B144ACB21EEE7E28E531C9BB2092BCC
:10372000194688BFA3F10A0104EB410140F63F109E
:10373000498C814209D10A2B04EB420228BF0023A5
:1037400004EB4303508C588451842046BDE810405C
:103750000EF040BF235002082C500208D750020838
:10376000215102082F5102080EF0FBBE10B586B0A1
:1037700002AC84E806001A460AAB05930193099B44
:1037800000932146089B0BF053FC06B010BD0000CF
:1037900038B518BB124B13481C681349B4B12268E2
:1037A00022440260626822440A60A26814440F4BFB
:1037B00000221A8000F038F8054600F033F80C4B70
:1037C0001C600C4B1D600C4B188007E00B4B03601A
:1037D0000B4B0B600B4B1C68002CE8D138BD00BFB5
:1037E000442300203C2300203823002040230020D5
:1037F000043601200C36012008360120F875020835
:10380000E47502082C760208044B1B6853F821006B
:10381000034B1B6803EB4000704700BF38230020B8
:103820003C230020052070470048704748230020B3
:1038300010B5FFF7C1FE044C2060FFF7F9FE606091
:10384000FFF77EFEA06010BD4823002010B50024C5
:1038500004600C6014601C6010BD704710B54FF41C
:10386000AE7104461EF0B4FE204610BD10B50446ED
:10387000D0F8580100F051FB2046BDE810400CF094
:10388000D5B8000010B50446FFF768F8014B236077
:10389000204610BD1C5A0208704704387047704714
:1038A00010B5102104461EF093FE204610BDA0F175
:1038B0000400F5E700228260024A0260183242608A
:1038C000C1607047705A020870470000134B70B512
:1038D0000446036040F6642540F6AC06B54217D1B5
:1038E00040F2F466635960191B682C3D9847B54255
:1038F000F8D140F2E465635960191B683C3D984774
:10390000B5F50D7FF7D12046FFF745FA204670BD8B
:10391000635960191B6898472C3DDFE7985A0208E5
:1039200010B50446FFF7D2FF20464FF429611EF080
:103930004FFE204610BD00002DE9F04F05468DB02A
:10394000FFF758FB05F51179654B2B604FF6FF78B3
:1039500069464846ADF80080FFF710FB05F51C7777
:10396000DFF884B105F5E46A3C4600262046694646
:10397000ADF80080FFF702FB0123C4F800B0E66257
:10398000A4F83080A4F8328084F8343084F83560AC
:1039900084F8366084F8376084F838603C345445E5
:1039A000E4D105F6D80A26464FF6FF783046694638
:1039B0002C36ADF80080FFF7E1FA5645F6D15646B1
:1039C00005F529684FF6FF7B304669462C36ADF881
:1039D00000B0FFF7D3FA4645F6D1424E684600F0F4
:1039E00093FBBDF80430B380BDF91C30039AB38358
:1039F000089BF2603362049A099B32617362059AF4
:103A00000A9B726105F10408069AB3626846BDF824
:103A10002C30B261B38500F089FB404605F16C01A2
:103A200006F007F8404605F5C27106F002F80E23CD
:103A300069464846ADF8003009F079FAB6F90E202B
:103A4000B6F90C104846FFF725FA4046494605F0FE
:103A5000AFFF4FF0040804F5DC762122304640F237
:103A60004111FFF717FAD4F8B83130461B6EADF8A4
:103A70000080694698472046212240F24111FFF715
:103A800009FA236800261B6EADF8006020466946DF
:103A90002C3498475445DED134460326B4FBF6F364
:103AA00003EB4303E31A012B13D0022B14D007229C
:103AB0000621384608F086FF01343846142108F004
:103AC00094FF142C07F13C07E8D128460DB0BDE85F
:103AD000F08F09220821ECE70B220A21E9E700BF59
:103AE000985A0208142800203C5E02082DE9F74F7E
:103AF000C34E0446306803F053FF0546002D57D1EE
:103B00009DF80280BF4EB8F1010F2AD1DFF8209353
:103B100099F800302BBB251D04F16C073946284667
:103B200005F046FF04F5C27AB388B74A0A2104F5C6
:103B300008700FF0F5FB5146284605F039FF38466E
:103B40000DF0D4F850460DF0D1F828460DF0CEF81F
:103B5000AE4B89F8008083F80080AD4B186803F005
:103B6000B7FDAC4F4FF0000838688DF8038003F0C4
:103B700017FF04F5117588B34FF0FF3338684246DC
:103B80000DF1030103F0DCFE9DF80330522B18D138
:103B9000B6F92810A04800F049FB0F23284601A9D8
:103BA000ADF8043009F0C3F9386803F0FBFE15E006
:103BB000002330681A460DF1020103F0C1FE013DF9
:103BC0009CE74E2B24D19448414600F02FFB0E2356
:103BD00001A92846ADF8043009F0A9F98F4F3868DB
:103BE00003F0DEFE18B34FF0FF33386800220DF10A
:103BF000030103F0A5FE9DF80330552B10D1B6F953
:103C00002810854800F014FB386803F0CBFE0EE066
:103C1000B16A8148494209B200F008FB0D23BDE7B3
:103C20004E2B40F090807C48002100F001FB28469C
:103C3000B6F90E20B6F90C10794FFDF782FB04F5AA
:103C4000E465A04604F6D80A04F10409B7F9103077
:103C5000022B7CD0042B00F08B80012B07D12B682A
:103C6000B7F906209B6DB7F90410284698472C3504
:103C7000554507F11C07E9D16A4F04F5296A04F19B
:103C80000409B7F91030022B78D0042B00F087809C
:103C9000012B07D12B68B7F906209B6DB7F90410EB
:103CA000284698472C35554507F11C07E9D15E4D4C
:103CB00004F51C7704F5966A04F10409B5F910308F
:103CC000022B72D0042B00F08B80012B08D1D8F886
:103CD0007032B5F906209B6DB5F904103846984747
:103CE00008F13C08D04505F1200507F13C07E5D176
:103CF0004E4AB6F92C3011788B4204F1040515D0E8
:103D0000DBB21370502284F8DC2084F8082184F898
:103D10003421002B6FD0FF22012B84F8DC2005D04A
:103D2000022B84F8082118BF84F83421B388364A5E
:103D30000A2104F503700FF0F3FA28460CF0D6FFC1
:103D400003B0BDE8F08FB16A494209B259E72B6868
:103D5000B7F906209B6DB7F9041028469847294605
:103D6000484605F025FE0121384600F0A3F97EE71C
:103D70002946484605F05DFE0321F5E72B68B7F9B3
:103D800006209B6DB7F904102846984729464846F7
:103D900005F00EFE0121384600F08CF982E7294635
:103DA000484605F046FE0321F5E7D8F87032B5F92C
:103DB00006209B6DB5F9041038469847D8F8703244
:103DC000D3F864B001231A4600213846D847394653
:103DD000484605F0EDFD0121284600F06BF97FE72C
:103DE000D8F8703238469B6E98473946484605F0F9
:103DF00020FE0321F0E728460CF078FF96E700BF8D
:103E0000D01F002014280020015202085D2300204A
:103E100058230020D81F00201C280020D41F002079
:103E2000FC260020E425002064230020140000204C
:103E30005423002010B5134C8AB0FEF7ADFF206864
:103E400003F046FC104B186803F0ACFD2022002163
:103E500002A81FF012FD0D4B01934FF4804218236E
:103E6000CDE90623002101AA094803F0EDFB094A28
:103E7000206000231370084A1370084A13700AB0B8
:103E800010BD00BF58230020D01F0020045202089C
:103E9000D94300085E2300205D2300205423002026
:103EA000704704387047704710B5102104461EF063
:103EB0008FFB204610BDA0F10400F5E700228260D0
:103EC000024A026018324260C1607047CC5A020850
:103ED0007047000010B5034B03600446FFF761FA1A
:103EE000204610BDF45A020810B50446FFF7F2FF51
:103EF0002046F0211EF06CFB204610BD10B5044694
:103F0000FFF784FA014B2360204610BDF45A0208E3
:103F1000FFF748BA002202607047704710B5034BA4
:103F20000360044600F0B1F8204610BD285B02088B
:103F300010B50446FFF7F2FF20461C211EF048FB97
:103F4000204610BD10B5044600F0AAF8064B2360C9
:103F50004FF4C873A3614FF018110023C4E9021392
:103F6000024B2361204610BD285B0208030090012C
:103F7000B0F9083010B5B0F904405B429C420BDB4D
:103F8000F02C09DCB0F90A30B0F906205B429A4205
:103F900002DBB2F5A07F05DD04230382836943823F
:103FA000002010BD438A591A09B200294182F7DC6A
:103FB00083891C44C38984801A448369C2804382F4
:103FC0000120EEE710B5034B0360044600F05DF8F6
:103FD000204610BD3C5B020810B50446FFF7F2FF17
:103FE000204620211EF0F4FA204610BD10B50446EC
:103FF00000F056F8084B23604FF4167246F2A813EF
:10400000C4E906234FF020110022C4E90212034A3A
:104010002261A382204610BD3C5B020803005802C7
:10402000B0F90830B0F904205B429A4210B508DBC1
:10403000F02A06DCB0F90A30B0F906405B429C4237
:1040400007DA04230382C3698382836943820020E1
:1040500010BD438A591A09B200294182F7DC8389CD
:104060001A44C38982801C448369C480438201202E
:10407000EEE7838A591A09B20029D8BFC369818241
:10408000DABF83820120002070477047002070470C
:1040900010B5182104461EF09BFA204610BD000002
:1040A000034A0260032202824FF0201282607047AE
:1040B000505B0208018270478180C2807047818115
:1040C000C2817047B0F90420B0F9083010B5B1F9D9
:1040D00004401344A34215DDB1F9083023449A4249
:1040E00010DAB0F90630B0F90A20B1F906401A44E6
:1040F000A24207DDB1F90A2022449342ACBF00205E
:10410000012010BD0020FCE710B5054B0360002323
:1041100004468380083000F033F8204610BD00BF0D
:10412000645B0208838819448180704710B5044B92
:10413000044640F8083B00F00FF8204610BD00BFD1
:10414000645B020810B50446FFF7F0FF20463021FB
:104150001EF03EFA204610BD10B5034B0360044626
:10416000FFF793FF204610BD745B020810B50446AC
:10417000FFF7F2FF204628211EF02AFA204610BD44
:1041800010B50446FFF78CFF03210A480A4B216251
:10419000A1844FF01C11C4E9010142F210722360A6
:1041A00000214FF4C873C4E90632E160A282638241
:1041B000204610BD68000401745B0208438A591A46
:1041C00009B2002941821FDC82888389C1891A448F
:1041D000C38812B20B441BB281698280002AC3805B
:1041E000418207DA00228280002B07DA0023C38095
:1041F00001207047D02AF7DDD022F4E7B3F5907F95
:10420000F6DD4FF49073F2E700207047838A591A65
:1042100009B20029D8BFC3698182DABF8382012035
:1042200000207047838C5B1A8384704781817047BC
:10423000C18170472DE9F347DFF8A4A0274CDAF8D5
:104240000030DFF8A0901B1A0546CAF8003014268B
:104250004FF00008B4F91030032B0AD0294620464D
:10426000FFF7DEFE013E04F12004F3D102B0BDE809
:10427000F087DAF80030002BF4DC01A94846CDF8CD
:10428000048002F0BFFB08B1CDF80480019B03F06D
:10429000030203F48073002B02F1FF334FF6E07149
:1042A0004FF6FF770CBFF0210127022B9DBF013293
:1042B00002EB8202D2002A222046FFF7FDFE0022F6
:1042C00039462046FFF7FBFE02212046FFF7F2FEAB
:1042D00042F21073CAF80030C4E700BF6423002024
:1042E00018000020742000202DE9F84301460646FE
:1042F0001348144CDFF85080DFF85090FFF786FF2A
:1043000004F58C770546B4F91030032B08D03146FC
:104310002046FFF72DFE1C34BC42F4D1BDE8F883E3
:1043200065B1B8F80020B9F80010103A204692B2F2
:10433000FFF7C2FE02212046FFF7BCFE0025EAE798
:104340001C280020FC26002060230020622300207F
:104350002DE9F0411E4C054600274FF01C08B4F92A
:104360001030012B10D129462046FFF782FE58B1AC
:10437000184A00231646B2F91010032919D0013348
:104380000A2B02F11C02F6D10137142F04F120048C
:10439000E5D1104C0A26B4F91030012B03D129467F
:1043A0002046FFF7E5FD013E04F11C04F3D1BDE812
:1043B000F081E288A18808FB03661032304692B291
:1043C000FFF77AFE02213046FFF774FEDCE700BFFC
:1043D00064230020E42500202DE9F04F002485B05F
:1043E000854B4FF6CE72E61811463046FFF764FE55
:1043F000824B4FF6CE72E51811462846FFF75CFE59
:104400004FF6FB7200213046FFF759FE05220021CE
:104410002846FFF754FE03213046FFF74BFE1C34BD
:1044200003212846FFF746FEB4F58C7FD8D1DFF88C
:10443000F481002544464FF6CE7211462046FFF720
:104440003BFE013520460321FFF734FE142D04F115
:104450002004F0D16A4F00266A4B1B78013633B135
:10446000694B1B78002BF7D005B0BDE8F08F012E0B
:10447000664CD4BF18461E46654BA2891A80654B10
:10448000E2891A80C8BF01203870FFF7D3FE39785F
:1044900004F10800FFF792FE3878FFF725FF38781F
:1044A000FFF756FF45464FF0000904F1080AB5F939
:1044B00010B0BBF1010F7FD151462846FFF702FE35
:1044C000002879D054485946FFF7ACFE042128460D
:1044D000FFF7F0FD50484FF482726821FFF7ECFDC2
:1044E00045464FF01409B5F91030012B2AD1DFF8F9
:1044F00008A10A22BAF910B0BBF1010F65D15146EB
:1045000028460192FFF7DEFD019A00285DD00421C4
:104510002846FFF7CFFD04215046FFF7CBFD3B486F
:104520000521FFF7FFFD5A464FF400513B4801F0CB
:104530003FF8322003F0E4F8384800224FF40051ED
:1045400001F036F8B9F1010905F12005CBD12B4D69
:1045500031494FF00A09B5F910B0BBF1010F39D15B
:104560002846FFF7AFFD2C49A0B32B485946FFF76B
:1045700059FE04212846FFF79DFD27484FF482721B
:104580006821FFF799FDB4F92C30002B28DC1D4B76
:104590001D4D234E01241C702B78002B7FF464AF3B
:1045A00030688DF80F401A460DF10F0103F097F9AE
:1045B0000A2003F0A5F8EFE709F10109B9F1140F9A
:1045C00005F120057FF473AF8AE7013A0AF11C0A6E
:1045D00090D1B7E7B9F1010905F11C05BBD1D2E7CC
:1045E00030230F488DF80F3000231A460DF10F01CC
:1045F000006803F074F92FE7FC260020E425002072
:104600005C2300205E2300205D230020142800206E
:1046100062230020602300201C2800200018024094
:10462000D01F00206423002038B50F480F4DFFF73E
:104630006BFD002428191C34FFF784FCB4F58C7F33
:10464000F8D10B4D002428191C34FFF77BFCB4F57E
:104650008C7FF8D1074D002428192034FFF7C6FCC1
:10466000B4F5207FF8D138BD14280020FC260020A6
:10467000E425002064230020164838B51524013CA9
:10468000A0F1200512D114480B24013CA0F11C0517
:1046900014D112480B24013CA0F11C0515D0D0F810
:1046A000FC30FC305B6898472846F4E7D5F8803248
:1046B00000F518705B6898472846E0E7D5F8183190
:1046C000FC305B6898472846DFE7BDE8384004487F
:1046D000FFF72CBD64230020E4250020FC260020E9
:1046E00014280020F02070474FF4A0707047292054
:1046F000FDF7A4BB2820FDF7A1BB08B5FDF772FBB1
:10470000CA20FDF79BFBC320FDF77CFB0820FDF7CB
:1047100079FB5020FDF776FBCF20FDF78FFB0020C3
:10472000FDF770FBC120FDF76DFB3020FDF76AFB44
:10473000ED20FDF783FB6420FDF764FB0320FDF70C
:1047400061FB1220FDF75EFB8120FDF75BFBE8209B
:10475000FDF774FB8520FDF755FB0020FDF752FBAC
:104760007820FDF74FFBCB20FDF768FB3920FDF7E4
:1047700049FB2C20FDF746FB0020FDF743FB3420CE
:10478000FDF740FB0220FDF73DFBF720FDF756FB50
:104790002020FDF737FBEA20FDF750FB0020FDF756
:1047A00031FB0020FDF72EFBB120FDF747FB002079
:1047B000FDF728FB1B20FDF725FBB620FDF73EFB90
:1047C0000A20FDF71FFBA220FDF71CFBC020FDF710
:1047D00035FB1020FDF716FBC120FDF72FFB102045
:1047E000FDF710FBC520FDF729FB4520FDF70AFB6F
:1047F0001520FDF707FBC720FDF720FB9020FDF7F4
:1048000001FB3620FDF71AFBC820FDF7FBFAF2206A
:10481000FDF714FB0020FDF7F5FAB020FDF70EFBC5
:10482000C220FDF7EFFAB620FDF708FB0A20FDF7DE
:10483000E9FAA720FDF7E6FA2720FDF7E3FA0420BE
:10484000FDF7E0FA2A20FDF7F9FA0020FDF7DAFA81
:104850000020FDF7D7FA0020FDF7D4FAEF20FDF78E
:10486000D1FA2B20FDF7EAFA0020FDF7CBFA002061
:10487000FDF7C8FA0120FDF7C5FA3F20FDF7C2FA9F
:10488000F620FDF7DBFA0120FDF7BCFA0020FDF76A
:10489000B9FA0620FDF7B6FA2C20FDF7CFFAC820AA
:1048A000FDF71AFB2620FDF7C9FA0120FDF7AAFA49
:1048B000E020FDF7C3FA0F20FDF7A4FA2920FDF749
:1048C000A1FA2420FDF79EFA0C20FDF79BFA0E209A
:1048D000FDF798FA0920FDF795FA4E20FDF792FAB8
:1048E0007820FDF78FFA3C20FDF78CFA0920FDF7C0
:1048F00089FA1320FDF786FA0520FDF783FA1720C1
:10490000FDF780FA1120FDF77DFA0020FDF77AFA15
:10491000E120FDF793FA0020FDF774FA1620FDF769
:1049200071FA1B20FDF76EFA0420FDF76BFA1120D7
:10493000FDF768FA0720FDF765FA3120FDF762FA06
:104940003320FDF75FFA4220FDF75CFA0520FDF702
:1049500059FA0C20FDF756FA0A20FDF753FA2820E1
:10496000FDF750FA2F20FDF74DFA0F20FDF74AFA18
:104970001120FDF763FAC820FDF7AEFA2920FDF7F4
:104980005DFABDE808402C20FDF758BA08B5FDF7E0
:1049900029FA0321D320FDF76DFA80B208BD10B5C6
:1049A000C4B2022203212046FDF7D2F90A20FDF706
:1049B00017FA204600220321FDF7CAF9BDE810408E
:1049C0000220FDF70DBA38B50446E4B2FDF7BEF992
:1049D00000212046FDF7D4F9012105462046FDF7C8
:1049E000CFF940EA052080B238BD10B5C4B24021ED
:1049F0002046FDF7C5F9030607D54C212046FDF7F3
:104A0000BFF9003818BF012010BD01224B212046FC
:104A1000FDF79EF9204600224B21FDF799F9002071
:104A2000F2E773B50423C4B20E461546D7210DEB49
:104A300003022046FDF7BEF9019B1BBA1A0DC3F312
:104A40000B23328020462B8001224B21FDF780F979
:104A500000224B212046FDF77BF902B070BD00001B
:104A600010B50A4A1378984204460DD0517888420E
:104A70000AD00BB141B90123D454FDF767F92046A0
:104A8000BDE81040FFF78BBF10BD00BF44280020D9
:104A900010B5C4B209212046FDF772F940F00102B9
:104AA000D2B220460921BDE81040FDF751B910B53A
:104AB000C4B209212046FDF763F9092100F0FE0286
:104AC0002046BDE81040FDF743B938B5C4B20D46E5
:104AD00020460A21FDF754F940EA0502D2B22046E9
:104AE0000A21BDE83840FDF733B910B50446FDF79B
:104AF0002EF920461F21FFF7E8FF2046BDE81040B1
:104B0000FFF7C6BF38B5C4B20D4620460A21FDF7EF
:104B100037F920EA0502D2B220460A21BDE8384022
:104B2000FDF716B910B50446FFF7C1FF20461F2157
:104B3000BDE81040FFF7E6BF10B5C0B20C460B2130
:104B4000FDF71EF9204010BD1F21FFF7F5BF0A46F3
:104B5000C0B20B21FDF7FCB81F21FFF7F8BF38B535
:104B6000C4B20D4620461721FDF70AF920EA0502D6
:104B7000D2B220461721BDE83840FDF7E9B870B53C
:104B8000C4B2064604212046FDF7FAF8042100F0DD
:104B9000FB0205462046FDF7DBF83046F021FFF723
:104BA000DEFF05F0F80220460421FDF7D1F8492286
:104BB00020212046FDF7CCF80220FDF711F9204610
:104BC00001222121FDF7C4F820469A224121FDF758
:104BD000BFF8204601224A21FDF7BAF820460122FB
:104BE0004B21FDF7B5F8204600224B21FDF7B0F828
:104BF000204601225621FDF7ABF82046012258211C
:104C0000FDF7A6F8204601224021FDF7A1F8204635
:104C1000FF220B21FDF79CF8BDE870400220FDF754
:104C2000DFB80000054BD3F8882042F47002C3F8C7
:104C300088204FF000629A60704700BF00ED00E0EE
:104C400008B50B4B1A6842F400721A601A6842F4F5
:104C500080621A601A6842F480721A60032000F0C1
:104C600061FA0020FDF7E2FBFDF744F9002008BDE2
:104C7000003C0240034A044B11681B780B4413604C
:104C8000704700BF4828002080000020014B1868B2
:104C9000704700BF4828002038B50446FFF7F6FFEC
:104CA000631C1CBF054B1B78054618BFE418FFF7B3
:104CB000EDFF431BA342FAD338BD00BF80000020A4
:104CC00038B50446002800F09B80056C25B9FDF737
:104CD00031F9656484F83C50236CDB0600F18E806A
:104CE000236C23F4885323F0020343F0020323646C
:104CF000444B5A6822F440325A605A6861680A4349
:104D00005A60236821695A6822F480725A605A688E
:104D100042EA01225A605A68A16822F040725A6041
:104D20005A680A435A609A68E16822F400629A60FD
:104D30009A680A439A603449A26A8A4252D09968B2
:104D400021F07061996099680A439A609A68E16AF3
:104D500022F040529A609A680A439A609A6822F058
:104D600002029A609A68217E42EA41029A6094F8AF
:104D70002020002A3ED05A68616A42F400625A60DC
:104D80005A6822F460425A605A68013942EA413254
:104D90005A60DA6AE16922F47002DA62DA6A013989
:104DA00042EA0152DA629A6822F400729A609A68C2
:104DB00094F8301042EA41229A609A68616922F4BC
:104DC00080629A609A68002042EA81229A60606458
:104DD000236C23F0030343F001032364002384F8CE
:104DE0003C3038BD9A6822F070629A609A6822F06E
:104DF0004052B2E75A6822F40062C9E70120EDE7A9
:104E00000120EEE7002301400100000F82B00023E3
:104E1000019390F83C30012B69D0012380F83C309D
:104E200003689A68D2070BD59A68D1071AD4036C25
:104E300043F010030364436C43F0010343644CE00C
:104E40009A682C4942F001029A602B4A1268B2FB20
:104E5000F1F202EB42020192019A002AE4D0019A97
:104E6000013AF8E7026C22F4E06222F0010242F417
:104E7000807202645A68520541BF026C22F44052AB
:104E800042F480520264026C12F480521CBF426CE5
:104E900022F006024264002280F83C206FF02202D9
:104EA0001A60164A516811F01F0F15491CD18B4228
:104EB00007D001F580718B420CD1526812F01F0FA0
:104EC0000BD19A6812F0405F07D19A6842F0804295
:104ED0009A6002E00B498B4202D0002002B070477A
:104EE000526812F0100FEBE78B42F6D1E9E702208F
:104EF000F4E700BF40420F007C0000200023014087
:104F0000002001400022014090F83C30012B14D0D9
:104F100003689A6822F001029A609B68DB0707D455
:104F2000036C23F4885323F0010343F0010303646B
:104F3000002380F83C301846704702207047036811
:104F40009A68520570B504460D460BD59B68DE0580
:104F500008D5036C43F020030364002380F83C3041
:104F6000012070BDFFF792FE064623681A6891077C
:104F70000CD56FF012021A60226C42F400722264A7
:104F80009A6812F0405F17D00020EAE7681CEDD065
:104F900065B923681B6813F00203E6D1226C84F81C
:104FA0003C3042F0040222640320DAE7FFF76EFE91
:104FB000801BA842EDD8D8E7227E002AE4D1DA6A25
:104FC00012F4700F02D09B685A05DDD4236C23F4D1
:104FD00080732364236CDB04D6D4236C43F0010379
:104FE0002364D1E70368D86C70470000F7B500234D
:104FF000019390F83C30012B054600F08680012398
:1050000080F83C3008682B688E68092884B233D950
:1050100004EB4402DF681E3A4FF0070C0CFA02FC66
:1050200027EA0C07DF60DF6806FA02F23A43DA602B
:105030004968062901EB81022DD8596B053A1F26D4
:10504000964021EA06015963596B04FA02F20A43B9
:105050005A632F4A93420AD1122837D12D4B5A68EE
:1050600022F400025A605A6842F480025A6000201A
:1050700085F83C0003B0F0BD1A6900EB400C07272F
:1050800007FA0CF722EA07021A611A6906FA0CF607
:1050900016431E61CCE70C294FF01F010BD81E6B85
:1050A000233A914026EA01011963196B04FA02F2CE
:1050B0000A431A63CDE7DE6A413A914026EA0101CC
:1050C000D962D96A94400C43DC62C2E7124B984221
:1050D00001D01128CBD10F4B5A6822F480025A60BC
:1050E0005A6842F400025A600B4B9842BFD10B4BF6
:1050F0000B4A1B68B3FBF2F30A2253430193019B53
:10510000002BB4D0019B013BF8E70220B2E700BFBF
:105110000020014000230140120000107C0000200C
:1051200040420F000749CA6822F4E06203021204F9
:1051300003F4E063120C134343F0BF6343F4003302
:10514000CB60704700ED00E0164B30B5DC68C4F36F
:105150000224C4F10703251D042B28BF0423062DB8
:105160004FF0FF358CBF033C002405FA03F321EA1E
:105170000303A54022EA0502A340002843EA0203F4
:10518000ACBF00F16040084A4FEA0313B8BF00F01B
:105190000F00DBB2AABF00F56140135480F8003362
:1051A00030BD00BF00ED00E014ED00E0002807DB9B
:1051B000044A4109012300F01F00834042F82130D6
:1051C000704700BF00E100E010B5044650B14379DC
:1051D00003F0FF0213B90271FCF7FCFE01236371B7
:1051E000002010BD0120FCE710B5044620B390F864
:1051F000393003F0FF021BB980F83820FCF702FFBA
:10520000022384F83930236861681A6822F4403236
:105210000A431A605A6BA16822F007020A435A63D4
:105220001A6CE1686FF30D020A431A64002001232F
:10523000E06384F8393010BD0120FCE77047704707
:10524000036870B55E681D68F207044614D5E90569
:1052500012D51A6822F480721A60C26B42F0010201
:10526000C26301229A60042380F83930002380F859
:105270003830436903B19847B20616D5AB0414D54C
:1052800023681A6822F400521A6020229A60E36BA5
:1052900043F00203E363042384F83930002384F8E5
:1052A000383063690BB120469847300716D5290579
:1052B00014D523681A6822F400621A6008229A60E2
:1052C000E36B43F00403E363042384F839300023E1
:1052D00084F8383063690BB12046984772070BD5C4
:1052E0006B0509D523681A6822F480621A600422CB
:1052F0009A602046FFF7A2FFB00714D5A90512D582
:1053000023681A6822F400721A6002229A60E36B22
:10531000E363012384F83930002384F838302369AB
:105320000BB120469847F20613D5EB0411D523683C
:105330001A6822F480521A6010229A60E36BE363C9
:10534000012384F83930002384F838302046FFF7F1
:1053500076FF70BDF0B590F83820012A03464FF073
:1053600002002BD0012283F8382083F8390003EBA8
:105370000112D2E90740556A174F44EA0040093C40
:10538000012C9CBF05F07F4210434FEA01161A68BA
:1053900088BF40EA056091B9516A394001435162C2
:1053A000012C9969916103D8596A21F07F4191627A
:1053B0000122002083F8392083F83800F0BDD1693C
:1053C00039400143D1619919012C896911619CBF50
:1053D00025F07F451562EBE7F0FFFC002DE9F74F64
:1053E000DFF8BC916C4A00230D6801249C4004EA5C
:1053F0000506AC4340F0B7804D68032705F0030471
:105400004FEA430807FA08FC671E012F6FEA0C0CED
:1054100034D8876807EA0C0ECF6807FA08F747EA1E
:105420000E078760476827EA060EC5F300179F40FE
:1054300047EA0E074760C76807EA0C0E8F6807FA4D
:1054400008F747EA0E07022CC76019D14FEAD30AC2
:1054500000EB8A0A03F0070BDAF820704FEA8B0B97
:105460004FF00F0E0EFA0BFE27EA0E0E0F6907FA29
:105470000BF747EA0E07CAF8207001E0032CDAD1D7
:10548000076804FA08F407EA0C073C4315F4403FA8
:10549000046068D000240194D9F8444044F4804466
:1054A000C9F84440D9F8444023F0030707F1804786
:1054B00004F4804407F59C37019403F0030C019C2D
:1054C000D7F808E04FEA8C0C0F2404FA0CF42EEA0B
:1054D000040E324CA0424DD004F58064A0424BD063
:1054E00004F58064A04249D004F58064A04247D00E
:1054F00004F58064A04245D004F58064A04243D006
:1055000004F58064A04241D004F58064A0423FD0FD
:1055100004F58064A0423DD004F58064A04214BF2D
:105520000A24092404FA0CF444EA0E04BC609468CA
:10553000F74315F4801F0CBF3C4034439460D4689B
:1055400015F4001F0CBF3C403443D460546815F47C
:10555000003F0CBF3C40344354601468ED0354BF1B
:105560003C40344314600133102B7FF43DAF03B053
:10557000BDE8F08F0024D5E70124D3E70224D1E76A
:105580000324CFE70424CDE70524CBE70624C9E7AD
:105590000724C7E70824C5E7003C0140000002409B
:1055A000003802400369194214BF012000207047EF
:1055B0000AB1816170470904FBE7436901EA03020C
:1055C00021EA030141EA02418161704701684B69A8
:1055D00013F480634FF0000210D06FF480634B61CE
:1055E0002023026380F83D3080F83E20036C80F871
:1055F0003C2043F0040303640120704718467047C1
:105600002DE9F84606460F4691461D464FEA114AD7
:105610003368BAF1010F0CBF5C699C6927EA040486
:10562000A4B2B4FA84F46409A14501D0002025E0B5
:105630006A1CEED0FFF72AFB089BC01AA84201D8CB
:10564000002DE5D13368BAF1010F0CBF5B699B698E
:1056500027EA03039BB2B3FA83F35B099945D7D1D9
:1056600000232022336386F83D2086F83E30326CDA
:1056700086F83C3042F0200232640120BDE8F88612
:105680002DE9F04104460F4616469846256868699C
:1056900027EA000080B2C0B16B695A0517D52B68A4
:1056A00043F400732B606FF480636B61202200234E
:1056B000236384F83D2084F83E30236C43F00403D8
:1056C0002364002384F83C300120BDE8F081731C82
:1056D000DDD0FFF7DBFAA0EB0800B04201D8002EC6
:1056E000D4D123685A6927EA020292B2002ACDD0A7
:1056F00000232022236384F83D2084F83E30236C6D
:105700001343DDE770B504460D46164623685B6912
:105710001B0601D500201EE02046FFF757FFC8B941
:105720006A1CF3D0FFF7B2FA801BA84201D8002D03
:10573000ECD123685B6913F08003E7D12022236357
:1057400084F83D2084F83E30226C84F83C3042F0EE
:1057500020022264012070BD2DE9F0431546026845
:1057600085B0DDE90C789946136843F480731360C3
:105770000E463B46CDF8008000224FF00111044652
:10578000FFF73EFF236838B11B68DB0502D54FF4F5
:1057900000732364032620E006F0FE061E611A490A
:1057A00043463A462046FFF76BFFA8B923680390AB
:1057B0005A6903929B690393424639462046039BEC
:1057C000FFF7A0FF064660B1236C042B01BF2268DF
:1057D000136843F4007313600126304605B0BDE83A
:1057E000F083B9F1010F236802D1EDB21D61F4E736
:1057F0002A0A1A61394642462046FFF783FF0028ED
:10580000E2D12368F1E700BF020001002DE9FF4764
:105810009A46036815461A6842F480621A601A684C
:10582000DDE90C7842F480721A600E463B46CDF8F2
:10583000008000224FF001110446FFF7E1FE2368CB
:1058400038B11B68DB0544BF4FF4007323640320A9
:1058500021E05FFA86F906F0FE061E612B494346F9
:105860003A462046FFF70CFFA0B9236803905A6917
:1058700003929B690393424639462046039BFFF7F8
:1058800041FF58B1236C042B01BF2268136843F415
:1058900000731360012004B0BDE8F087BAF1010F76
:1058A00023681AD1EDB242461D6139462046FFF702
:1058B00029FF02460028E5D121680B6843F4807374
:1058C0000B602046CDF800803B464FF00111FFF7FA
:1058D00097FE226860B11368B4E72A0A1A61394654
:1058E00042462046FFF70EFF0028CBD12368D9E7B8
:1058F00049F001031361054943463A462046FFF744
:10590000BFFE003818BF0120C5E700BF020001003C
:1059100070B504460D46164623685B695B0701D5E2
:1059200000201EE02046FFF751FEC8B96A1CF3D0E4
:10593000FFF7ACF9801BA84201D8002DECD12368F9
:105940005B6913F00403E7D12022236384F83D2030
:1059500084F83E30226C84F83C3042F0200222640D
:10596000012070BD70B504460D46164621684B698E
:1059700013F0400301D0002011E04A69D2060FD590
:105980006FF010024A612022236384F83D2084F8DE
:105990003E30236C2364002384F83C30012070BD2A
:1059A000FFF774F9801BA84201D8002DDED12368CF
:1059B0005B6913F04003D9D12022236384F83D2092
:1059C00084F83E30236C1343E4E7000070B50446CE
:1059D00008B9012070BD90F83D3003F0FF021BB9FB
:1059E00080F83C20FCF730FB242384F83D3023680A
:1059F0001A6822F001021A601A6842F400421A6022
:105A00001A6822F400421A6000F08AFE3F4B656873
:105A10009D4294BF3E4B3F4B98428CBF00230123D5
:105A2000002BD6D12268394E51683B4BB0FBF3F3C3
:105A300021F03F011943B542516088BF4FF496767B
:105A4000116A88BF734321F03F0184BF4FF47A7617
:105A5000B3FBF6F301330B431362D169431E2B48AA
:105A600021F44F41854221F0FF0132D86D0040F60C
:105A7000FC70B3FBF5F30133034242D0C3F30B03D5
:105A80001943D161D4E907301168034321F0C00103
:105A90000B4313609168D4E9030321F403410343EA
:105AA00021F0FF010B439360D4E90530D168034333
:105AB00021F0FF010B43D360136843F0010313602F
:105AC00000202023206484F83D30206384F83E00C9
:105AD00080E7A06850B905EB4505B3FBF5F301334A
