:020000040800F2
:10000000000003205D060008C9240008CB24000876
:10001000CD240008CF240008D124000800000000EF
:10002000000000000000000000000000217D00082A
:10003000D324000800000000B17D0008D575000839
:10004000AD060008AD060008AD060008AD060008C4
:10005000AD060008AD060008AD060008AD060008B4
:10006000AD060008AD060008AD060008AD060008A4
:10007000AD060008AD060008AD060008AD06000894
:10008000AD060008AD060008AD060008AD06000884
:10009000AD060008AD060008AD060008AD06000874
:1000A000AD060008AD060008AD060008AD06000864
:1000B000AD060008AD060008AD060008AD06000854
:1000C000AD060008AD060008AD060008AD06000844
:1000D000AD060008AD060008AD060008AD06000834
:1000E000AD060008AD060008AD060008AD06000824
:1000F000AD060008AD060008AD060008AD06000814
:10010000AD060008AD060008AD060008AD06000803
:10011000AD060008AD060008D5240008AD060008AD
:10012000AD060008AD060008AD060008AD060008E3
:10013000AD060008AD060008AD060008AD060008D3
:10014000AD060008AD060008AD060008AD060008C3
:10015000AD060008AD060008AD060008AD060008B3
:10016000AD060008AD060008AD060008AD060008A3
:10017000AD060008AD060008AD060008000000004E
:10018000AD060008AD060008AD060008AD06000883
:10019000AD060008AD060008AD060008AD06000873
:0C01A000E1240008AD060008ED24000872
:1001B00010B5054C237833B9044B13B10448AFF3A1
:1001C00000800123237010BD800300200000000088
:1001D000A844020808B5034B1BB103490348AFF319
:1001E000008008BD0000000084030020A84402082D
:1001F00001F0FF01102A2BDB10F0070F08D010F8D8
:10020000013B013A8B422DD010F0070F42B3F6D1DB
:10021000F0B441EA012141EA014122F007047FF0F4
:1002200000070023F0E80256083C85EA010586EA4B
:10023000010685FA47F5A3FA87F586FA47F6A5FA87
:1002400087F68EB9EED1F0BC01F0FF0102F0070293
:1002500032B110F8013B013A83EA010313B1F8D13E
:100260000020704701387047002D06BF354603381F
:10027000073815F0010F07D1013015F4807F02BF58
:10028000013015F4C03F0130F0BC0138704700BFA9
:100290007BB972B90029BEBF00204FF0004106E0D3
:1002A00008BF00281CBF6FF000414FF0FF3000F086
:1002B000D3B9ADF1080C6DE904CE002909DB002BA0
:1002C0001ADB00F04DF8DDF804E0DDE9022304B0AC
:1002D0007047404261EB4101002B1BDB00F040F80E
:1002E000DDF804E0DDE9022304B0404261EB4101A6
:1002F000524263EB43037047524263EB430300F007
:100300002FF8DDF804E0DDE9022304B0404261EBA0
:1003100041017047524263EB430300F021F8DDF8DE
:1003200004E0DDE9022304B0524263EB430370476B
:1003300053B94AB9002908BF00281CBF4FF0FF314C
:100340004FF0FF3000F088B9ADF1080C6DE904CE34
:1003500000F006F8DDF804E0DDE9022304B07047A0
:100360002DE9F047089D8E4604468846002B4AD169
:100370008A42174662D9B2FA82F64EB1C6F120031C
:1003800001FA06F820FA03F3B74043EA0808B4403C
:100390004FEA174E1FFA87FCB8FBFEF1230C0EFB49
:1003A000118843EA084301FB0CF29A4209D9FB1871
:1003B00001F1FF3080F0EA809A4240F2E780023992
:1003C0003B449A1AA3B2B2FBFEF00EFB102243EAA2
:1003D000024300FB0CFC9C4509D9FB1800F1FF32DD
:1003E00080F0D6809C4540F2D3803B44023840EAFE
:1003F0000140A3EB0C0300211DB1F3400022C5E92D
:100400000032BDE8F0878B4205D90DB1C5E9000186
:1004100000210846F5E7B3FA83F1002946D1734578
:1004200002D3824200F20581841A6EEB030201209E
:100430009046002DE5D0C5E90048E2E7002A00F02B
:100440009080B2FA82F6002E40F0A4808A1A030C43
:100450004FEA174E80B2BCB20121B2FBFEFC0EFB8C
:100460001C2243EA024304FB0CF29A4207D9FB1810
:100470000CF1FF3802D29A4200F2E080C4469B1A87
:10048000B3FBFEF20EFB123340EA034302FB04F41B
:100490009C4207D9FB1802F1FF3002D29C4200F2C5
:1004A000CA8002461B1B42EA0C40A5E7C1F12006A8
:1004B0008B4022FA06F71F430EFA01F420FA06F3E6
:1004C0002EFA06FE4FEA1749234300FA01F81FFAF5
:1004D00087FCBEFBF9F01C0C09FB10EE44EA0E444D
:1004E00000FB0CFEA64502FA01F209D93C1900F105
:1004F000FF3A80F09C80A64540F2998002383C4447
:10050000A4EB0E041FFA83FEB4FBF9F309FB1344BA
:100510004EEA044403FB0CFCA44508D93C1903F142
:10052000FF3E80F08280A4457FD9023B3C4443EAF1
:100530000040A4EB0C04A0FB02EC64457346E146CA
:1005400062D35FD05DB1B8EB030264EB090404FA37
:1005500006F622FA01F31E43CC40C5E900640021EF
:100560004FE7B1FBF2FC010C41EA0E4180B240EAD8
:1005700001423B4638463C46B846BE462026B1FBC3
:10058000F7F1A2EB080241EA0C4166E7014618E7E1
:1005900010462CE7C6F120022EFA02F3B740B14014
:1005A00020FA02F24FEA174E0A43B3FBFEF8BCB240
:1005B0000EFB1833110C41EA034108FB04F9B0406B
:1005C00089454FEA104380B23ED9791808F1FF3CC3
:1005D00001D289451FD8A1EB0901B1FBFEF909FB46
:1005E00004F80EFB191192B242EA0142424529D2A7
:1005F000BA1809F1FF31C4D24245C2D2A9F10201B1
:100600003A44BEE7F0459DD2BEEB02036CEB070C0B
:100610000138E14696E7A7EB09094944A8F1020C25
:10062000B1FBFEF909FB04F8DBE773467FE75046B0
:1006300066E70846FDE63B44023A33E7ACF1020CBC
:100640003B441CE749469CE7A1EB0901C446B1FBCA
:10065000FEF909FB04F8C4E7704700BFDFF834D0A7
:10066000002103E00C4B5B58435004310B480C4B0A
:1006700042189A42F6D30B4A02E0002342F8043BA8
:10068000094B9A42F9D304F019FB23F09FF901F0CA
:10069000EBF870470000032084B305080000002039
:1006A0006C0100208003002018430120FEE7704702
:1006B00008B500F0B9FDBDE8084000F03DBD00F010
:1006C000B5BD704710B50421044621F081FF2046D6
:1006D00010BD000038B50C4B0C4C18800C4B822020
:1006E00019806368984740F6110398420AD1094D72
:1006F00023682C60822098472B688220DB6898470B
:10070000002038BD0120FCE7A60300205400002093
:10071000A4030020A80300204FF4A071F020FFF7ED
:10072000D9BF0000F7B5394D2B6804461B698220FC
:100730009847208000284ED02B680DF106025B6997
:1007400001A982209847324B1B78002B4BD0BDF873
:10075000062040F674639A423FD9ADF80630BDF8E2
:1007600006209B1A9BB20A2B42D90B22B3FBF2F351
:10077000284A1288934201D9013A93B2BDF8042065
:10078000254840F6B8318A4234D8C2F571620E323B
:10079000016892B20F25B2FBF5F2204D2D88AA42D6
:1007A00084BF05F1FF35AAB28A4215468EB22AD916
:1007B000921B91B21A4E3768BB42BAB28CBF9A1ADA
:1007C000D21A92B211440529C4BF05603360036890
:1007D00063803368A38003B0F0BDB32A9CBFB4220A
:1007E000ADF80620BBE7BDF80630A3F5B473B9E752
:1007F0000023C3E7C2F56D62083292B20E2A016887
:10080000C8D800252A46891A89B2D3E7A803002050
:10081000E01F0020A4030020A0030020A603002066
:100820009C03002037B568460D461446FFF77AFF53
:10083000BDF8000030B1BDF802302B60BDF80430C7
:100840002360012003B030BD032821D8DFE800F089
:10085000020B12190F4B1A68B2FA82F252090421E4
:100860000D4804F0F1BE0B4B5A68B2FA82F25209FD
:100870000821F5E7074B9A68B2FA82F25209102173
:10088000EEE7044BDA68B2FA82F252092021E7E778
:10089000704700BFAC03002000100240032821D89D
:1008A000DFE800F0020B12190F4B1A68003A18BF6C
:1008B000012204210D4804F0C7BE0B4B5A68003AD0
:1008C00018BF01220821F5E7074B9A68003A18BFC4
:1008D00001221021EEE7044BDA68003A18BF01222A
:1008E0002021E7E7704700BFAC0300200010024062
:1008F00003280DD8DFE800F00206080A04210548A5
:1009000004F0A7BE0821FAE71021F8E72021F6E756
:10091000704700BF0010024008B5032811D8DFE877
:1009200000F0020A0C0E0421074804F087FE431E63
:100930005842584108BD0821F6E71021F4E720216C
:10094000F2E70020F3E700BF0010024070B5084D49
:1009500000240126E0B2FFF7DFFF18B12B68012B5E
:1009600018BF2E600134052C05F10405F2D170BDCD
:10097000AC030020012380F8781080F879307047AC
:100980007047002070470000034B4164003918BFD6
:1009900001211970704700BFD73501207047002032
:1009A0007047836B0BB10846184770474FF6FF70CE
:1009B0007047406803689B691847704770477047E5
:1009C0007047704710B5044600F046FD23680349A0
:1009D000D3F890302046BDE810401847000000D002
:1009E00008B503680446D3F8843098472368204646
:1009F000DB6F984700F0ECF8236820465B6F984760
:100A0000292001F031FA00F0E3F8236820465B6FFB
:100A10009847F8E710B504460AF032F823682046F4
:100A2000D3F8BC30BDE81040184700F0F9BC00F026
:100A3000FDBC00F02FBD00F0CFBC00F03FBD00F0CA
:100A400047BD00F0D3BC09F049BA10B58421044673
:100A500021F0BEFD204610BD10B590F8341090F87E
:100A600078400C4B8C421A7809D03AB90A4A0B49A3
:100A70001488088810800C8001221A7010BD002A8A
:100A8000FCD0054A05491488088810800C80002293
:100A9000F3E700BFD0350120CC350120CE35012051
:100AA00070B50D46194635B9094B0A4A0A4840F255
:100AB000FF2122F0C9FCC0E90F52084B003A18BFD1
:100AC00001221A700368BDE87040D3F890301847CF
:100AD00018450208504502089E450208D6350120F7
:100AE00008B5094B1B888B4203D8084B1B889342DF
:100AF00005D9074B074A0848A32122F0A5FC074B5C
:100B00001980074B1A8008BDCC350120CE35012055
:100B1000E3450208464602089E450208D2350120F8
:100B2000D4350120034690F87A0018B1586803685C
:100B30001B68184770470000012108B500220846CD
:100B400006F0EAFD0A4B186028B90A4B0A4A282128
:100B50000A4822F079FC00220421012006F084FEDC
:100B6000074B186018B9074B034A2C21F0E708BD62
:100B7000C003002089460208D24602080147020845
:100B8000BC03002043470208024B4FF0FF311868B6
:100B900006F00CBEC0030020014B186806F032BE00
:100BA000C0030020024B0021186806F0FFBD00BF03
:100BB000C0030020FFF7F0BF03480449006800238A
:100BC0001A4606F08CBE00BFBC03002004000020C3
:100BD00013B5084C00231A4601A9206806F0B0FEA0
:100BE00020684FF0FF33002201A906F0A9FE02B0F1
:100BF00010BD00BFBC03002003685B6C18470120D8
:100C0000704703689B6A1847FEE740F2EF30704771
:100C1000054B0360054B4FF08062C3F88820BFF39B
:100C20004F8FBFF36F8F70478C53020800E100E0D5
:100C300010B504464FF45A61FFF7EAFF204621F051
:100C4000C7FC204610BD000082B0002301930E4B6C
:100C50001A6B42F400021A631A6B02F4000201924A
:100C6000019A1A6942F400021A611A6922F4000218
:100C70001A61064B064A1A61064A5A61064B4FF042
:100C800080629A6002B070470038024074210020F0
:100C9000E90E0008090C000800E100E008B50A2888
:100CA00009D8DFE800F006100E0808080810101038
:100CB0001000022008BD054B054A0648902122F08D
:100CC000C3FB0020F6E70120F4E700BF85470208D8
:100CD000A0470208EB47020838B50C46887FFFF7AB
:100CE000DDFFA58AE28A164B2169586342EA054274
:100CF0005A64628BD963521B1A642568082D0ED181
:100D00009A611A615862207F0E4A42EA0062DA61F3
:100D1000E2681A620C4A5961D9601A6038BD002233
:100D2000D8611A61E1680A0A480902F4784200F4BD
:100D3000FC600243C1F3C4010A439A63034AECE72F
:100D400000B002400900010001230200012303005A
:100D500008B50B280BD8DFE800F00612100A0A0AC3
:100D60000A0808080808022008BD0520FCE7054B12
:100D7000054A06486F2122F067FB0020F4E70120B6
:100D8000F2E700BF854702082B480208EB4702083C
:100D90002DE9F04191F81D800C464046FFF7D8FF41
:100DA000A77F05463846FFF7D3FF06463846FFF7CC
:100DB00075FFA18A628B444B521A1A649A61228B86
:100DC000521A1A61E28A586342EA01425A6421695E
:100DD0006268D963DA602068802828D0227F0FD823
:100DE000202867D0402865D004281AD0364B45EA21
:100DF000026545F40035B845DD6161D0334A44E011
:100E0000B0F5807F04D0B0F5007FEFD1304800E02E
:100E1000304840EA0262DA61E2681A625E62596151
:100E200032E045EA026242F40032DA61F6E7A06895
:100E3000021DDA62227F45EA026545F40035DD6174
:100E40005E625961017841B1012921D0224B234AC8
:100E500023484FF48D7122F0F7FADA69418822F4C1
:100E60007F42013922F0100242EA0122DA610121B7
:100E7000154BDA6942F02002DA61DA699206FCD495
:100E800010229A600029B9D0164A1A60BDE8F08194
:100E9000B2F1FF01DA69408822F47F4200F1FF30AD
:100EA00022F0100242EA002242F0100218BF012193
:100EB000DA61DDE745EA0262034B42F40032B4E74F
:100EC00042F20132E1E700BF00B00240012301001D
:100ED000090002000A000200754802088F48020853
:100EE000EB47020801230200024B1B6858680368A5
:100EF0005B691847D835012070B5044625460A4B72
:100F00000C30002660602672667245F8203B602235
:100F1000294609F00BFF04F55A63EE6024359D4223
:100F2000FBD1204670BD00BF8C530208034B1A68EA
:100F3000D207FCD423229A60704700BF00B0024061
:100F40007047000030B50F4C2568ED07FCD4232511
:100F50000904A56041F001010225FF2B656361646E
:100F6000E0630AD00849656241EA0363E361074B25
:100F700022626061E060236030BDE561039BA36392
:100F8000034BF8E700B00240090001000100020035
:100F90000100030030B50E4C2568ED07FCD4232575
:100FA0001204A56042F001020225FF2B6563626412
:100FB000E063E16008D01B0643F00213E361054BD8
:100FC00065626061236030BD034BE3610123F9E793
:100FD00000B0024001000200020002FF30B50B4CDD
:100FE0002568ED07FCD4232512041B06A56043F4F5
:100FF0000033022542F0010265636264E063E16050
:10100000E361034B65626061236030BD00B0024064
:1010100001000200012070474020704700EB811062
:101020000830704700EB811008307047012070478E
:101030004FF4296070474FF4296303FB0100083027
:1010400070474FF4296303FB01000830704701200B
:1010500070471020704700EB01100830704700EB1C
:10106000011008307047084601F0B0BC10B5034BC2
:101070000360044608F089FC204610BD4454020871
:1010800010B50446FFF7F2FF2046482121F0A0FAF0
:10109000204610BD10B5034B0360044608F075FCF4
:1010A000204610BD1054020810B50446FFF7F2FFA9
:1010B000204640F6982121F08BFA204610BD000012
:1010C00010B5034B0360044608F05FFC204610BDDA
:1010D000DC53020810B50446FFF7F2FF2046182142
:1010E00021F076FA204610BD10B5084B0360044687
:1010F00000F6C420FFF7BAFF04F12C00FFF7CAFF87
:1011000004F11400FFF7DCFF204610BD78540208FC
:1011100008B50248FFF7E8FF08BD00BF9C12002099
:1011200010B50446FFF7E0FF204640F66C4121F081
:101130004FFA204610BD00002DE9F34101F050FAAE
:10114000054601F051FA002401462346284622466E
:10115000009412F08BF9274B274A1A60204602F0C0
:1011600055FB264D264B274A27489A6012F0E6F891
:101170002B68BFF35B8FDB0735D4284621F02AFAB2
:1011800088B3224C224B236004F5316604F114002D
:1011900004F12C0804F6C4276060C4F80880E760F6
:1011A000266108F0F3FB1B4B6361404608F0EEFB41
:1011B000194BE362384608F0E9FB184BC4F8C43A0F
:1011C00004F60C3002F02EFF224604F60C313046B5
:1011D00002F09AFB304601F0F9FB114822F052F977
:1011E000284621F003FA0F4802B0BDE8F041FFF7AE
:1011F000E9BB00BF3C3601204804002098120020C3
:10120000680400204C040020080000209C120020EC
:1012100078540208DC5302081054020844540208AF
:1012200011110008C4030020704700000148FFF7B7
:10123000D7BB00BFC403002070B5264E264C274DF7
:10124000274B23603046FFF757FE284617F014FA65
:1012500024480FF001FE244B2448DC6000224FF4A8
:101260008071C3E9121222491A86C3E91A12214970
:1012700083F85820C3E91E011F49C3F880101F4995
:101280001F480B60F021C3E90422C3E90622C3E929
:101290000822C3E90A22C3E90E22C3E91022C3E9E6
:1012A0001422C3E917225A6683F870205A67C3E9EB
:1012B000016501801348018013484FF4A07101803B
:1012C0001248018012490A70012283F83420114A21
:1012D0001A6070BDF40400209412002068040020FD
:1012E000084502084C040020C4030020000001014E
:1012F00001000001000450001A001400D83501203C
:10130000CC350120D2350120CE350120D435012045
:10131000D0350120A05202080148FFF779BC00BF78
:10132000F40400200020704781807047C18070471E
:10133000018170474181704770477047704770471F
:10134000704710B4C4880368121B84885B6D091B46
:1013500012B25DF8044B09B218474FF6FF73838150
:101360004FF0FF3303621368C361106070470020C1
:1013700070478B88838001207047704780F8261063
:10138000704790F82600704710B50022B1F9084068
:10139000B1F90A10028042808480C18010BD002211
:1013A000028042808280C28070470177704780ED62
:1013B000080A704780F82410704780F8251070479D
:1013C00001207047983070478C30704784307047E8
:1013D0007047704770470000034B902283F85A23F0
:1013E00083F85823704700BF00E100E0094A0A492A
:1013F000D3680A48C3F30A03013B9BB20B8011690F
:10140000C1F30A01013901801364536B43F00103F6
:1014100053637047006801400A1F0020081F002026
:10142000014BD3F8AC00704700680140024B012229
:10143000C3F8AC105A6270470068014010B52C2107
:10144000044621F0C5F8204610BD10B5BC21044665
:1014500021F0BEF8204610BD70B5044608F093FD9B
:1014600023689D6E0EF046FA01462046A847236881
:10147000054AD3F88C502046AC460023BDE87040A6
:10148000A2F51631604700BF00B004D008F062BD7D
:1014900008F06CBD08F028BD08F097BE90F8252034
:1014A00012B103685B691847704790F825201AB19C
:1014B00090F8242002B1186070470000034B4FF0F1
:1014C00080629A604FF080729A60704700E100E09D
:1014D000084B4FF08062C3F88820BFF34F8FBFF3F3
:1014E0006F8F4FF08072C3F88820BFF34F8FBFF328
:1014F0006F8F704700E100E070B50023124E8380CB
:10150000124B0360336893F8582005460AB1D86C33
:1015100000B998680368DB6A98473368B0FA80F4CA
:10152000D86C640930B10368DB6A9847002808BFAB
:1015300044F001042CB9064B064A07482C2121F03F
:1015400083FF284670BD00BFD83501208C540208A7
:10155000CD4802082B4902086449020870B5254E9F
:101560003568BFF35B8F15F0010540D1304621F09F
:1015700031F800283BD0204C204B256104F1340089
:10158000C4E90035C4E90255E584A562A5850FF0DC
:1015900048FF04F158000BF07FF8194BA365204673
:1015A000184B40F8843BFFF7A7FF174BC4F8843073
:1015B0002433C4F88C304FF4C803C4E92835002321
:1015C000C4F8AC30C4F8B030C4F8B430C4F8B830A3
:1015D0000E480F4BC4F89050C4F89C50C4F8A85063
:1015E000C4F8983021F04EFF304620F0FFFF02484B
:1015F00070BD00BF0C1F0020101F00202C5D0208D2
:10160000AC54020824550208E05C0208D513000817
:10161000C05C020838B5184C23685BB3174B184AF6
:101620001B6C11888B4216D1164B198804F0F6FDFD
:10163000236893F86A200025013283F86A2083F832
:101640007C50FFF7B9FA206809F01AFA2846BDE87D
:101650003840FFF7F9B804F0E1FD2468236820461C
:101660001B6A9847012384F87C300020BDE838408D
:10167000FFF714B938BD00BFD8350120006801401C
:101680000A1F0020081F002007B5064BADF8060012
:101690001B68054801220DF1060105F05FFB03B050
:1016A0005DF804FB0C0000202020002038B5084C19
:1016B000204603F0F7FB0A21204603F08CFC20466D
:1016C00003F0DCFC0546204603F06AFC284638BDE2
:1016D0000422002038B5084C204603F0E3FB0A2121
:1016E000204603F078FC204603F0C8FC054620465F
:1016F00003F056FC284638BDBC2100202DE9F341FB
:10170000DFF8C4802C4E2D4FFFF7D0FF0546FFF7C2
:10171000E1FF294602460446404622F059F8B5F555
:10172000487F1BD952238DF80730386800231A46AA
:101730000DF1070106F0D3F8B4F5C87F24D920488D
:1017400055238DF80730006800231A460DF1070174
:1017500006F0C5F8642005F0D3FFD5E7092D08D8B9
:101760004C238DF80730002330681A460DF107012D
:10177000E0E74E238DF80730002338681A460DF154
:10178000070106F0ACF8EEE7092C0E4C08D844230C
:101790008DF80730002320681A460DF10701D7E7BE
:1017A0004E2307488DF8073000231A460DF1070134
:1017B000006806F094F8EDE7D81F0020DC1F002039
:1017C000D41F0020D01F0020C649020830B595B0B4
:1017D000102200210AA822F050F81422002103A8A8
:1017E00022F04BF800241E4B01941A6C42F08052F8
:1017F0001A641B6C03F080530193019B194B0294F4
:101800001A6842F440421A601B6803F44043029392
:101810000122029B4FF48033CDE9082302254FF4C7
:1018200080030821CDE90E534FF4B473CDE91013B2
:1018300008A804231393129504F048FD04F00CFD4E
:101840000F23CDE903354FF4A0504FF48053CDE979
:101850000603052103A8059404F014FF15B030BD5C
:1018600000380240007000402DE980489BB003F032
:1018700033FAFFF7ABFF142200210DA821F0FDFF82
:101880000024C94B00941A6BC84842F010021A6336
:101890001A6B02F010020092009A01941A6B42F047
:1018A00020021A631A6B02F020020192019A02943C
:1018B0001A6B42F080021A631A6B02F080020292E5
:1018C000029A03941A6B42F004021A631A6B02F034
:1018D00004020392039A04941A6B42F001021A6301
:1018E0001A6B02F001020492049A05941A6B42F0FA
:1018F00002021A631A6B02F002020592059A06941C
:101900001A6B42F040021A631A6B02F04002069210
:10191000069A07941A6B42F008021A631B6B03F0D5
:101920000803224607933C21079B03F08DFEA04845
:101930000122022103F088FE22469D48042103F083
:1019400083FE22469B484FF4405103F07DFE012662
:101950003C23032595480F940DA90227CDE90D36A8
:10196000109503F087FD92480DA9CDE90D764FF053
:101970000408CDE90F4403F07DFD8D480DA9CDE9A4
:101980000D86CDE90F4703F075FD4FF440538948AC
:101990000DA9CDE90D36CDE90F4703F06BFD854864
:1019A0000F940DA9CDE90D8503F064FD0DA9062363
:1019B00081480F94CDE90D3503F05CFD7F48804BE5
:1019C000804D036003F04CFCDFF81CC27E4B2C62A0
:1019D000C5E900C328464FF48043C5E90434C5E98E
:1019E0000244C5E9064404F03DF81021284604F0FD
:1019F00081FA2146284604F09CFA744DDFF8ECE1A8
:101A0000AC624FF48273C5E900E34FF40078182309
:101A1000C5E9068328460A23C5E90244C5E904440A
:101A2000C5E90844EB6205F03DF98F2322463946AB
:101A30005F488DF824308DF8344003F005FE3246BF
:101A40004FF47A7309A9284605F088F94FF47A73A0
:101A500032460DA9284605F02DFB3246394654483A
:101A600003F0F2FD9DF83430D32B04BF584B1E70A9
:101A7000584E594B0125C6E900354FF01009402357
:101A80000024C6E904934FF4C073C6E906344FF44A
:101A90000063C6E908344FF400534FF002084FF0DA
:101AA000040A4FF0030BB3620DA907233046082741
:101AB000CDE90FA3CDE90D83C6E9024ACDE911B8FE
:101AC000CDF84C8004F0D2FF4FF6FF7209A93046E2
:101AD000CDE90A75089409950C9404F0E7FF2846AF
:101AE00003F026F94FF6FF7209A93046CDE90987C0
:101AF000CDE90B5404F0DAFF4FF6FF7209A9304626
:101B0000CDE909B7CDE90BA404F0D0FF4FF40C7375
:101B10000893089B0C934FF6FF7209A93046CDE954
:101B200009A70B9504F0C2FF40F26A51304604F059
:101B3000DBFF342221460DEB020021F09EFE274EF2
:101B4000274B3461C6E900340923C6E905351D2356
:101B5000C6E9073B40F20D1240F24313C6E90923E0
:101B600040F2171140F247133046C6E90B13C6E99D
:101B70000244B48686F8364004F06EFAFF21F02263
:101B8000CDE912144FF4806005214FF4A073CDE924
:101B90001401CDE90E240DA9CDE9164230462246A6
:101BA000104E189324E000BF00380240001002409D
:101BB00000080240000C024000000240B421002056
:101BC0000030024020210020A086010020200020BB
:101BD000E01F0020EC1F0020400100A07820002022
:101BE00000680140CC1F0020005C00400050014014
:101BF000CDE910380D94ADF864408DF8664004F0DE
:101C0000DFFA474B33601B68DFF868A198473368F9
:101C1000444EDB689847444B3046C6E90034C6E979
:101C20000284C6E90A48C6E90C4403F029FB2946A8
:101C3000304603F0DBFB3D4E4A4621460DA821F01D
:101C40001CFE3B4BB4604FF4803B3046C6E9003B82
:101C50003461347686F82040F462C6F828A0F46037
:101C6000F56186F83040756103F076F80DA93046CD
:101C7000CDE90D552F4E0F9403F004FA4A46214644
:101C80000DA821F0FAFD2C4BB4603046C6E9003BAC
:101C9000C6E90AA43461347686F82040F460F56120
:101CA00086F83040756103F057F80DA93046CDE94C
:101CB0000D850F9403F0E6F9FEF7FAFCFEF7F7FC4A
:101CC00005F096FC1D4A2946384605F0CDFD1C4B13
:101CD0001C4A18602946384605F0C6FD1A4B1B4AB7
:101CE00018602946384605F0BFFD194B194A18609F
:101CF0002946384605F0B8FD174B184A18602146AA
:101D0000174805F0A1FC174B174A186021461748E1
:101D100005F09AFC164B186005F07CFCFEE700BF4E
:101D20001C0000207421002000B00240042200208A
:101D300000200140BC21002000210140B0550208D4
:101D4000DC1F002098550208D81F0020805502088B
:101D5000D41F002068550208D01F0020EC5502084F
:101D6000FD160008E81F0020C8550208BF0600083D
:101D7000E41F00200100000F704770477FB5094B3A
:101D80008DF817201B6802930DF1170201230092B2
:101D900001930A460146044803F00CFF07B05DF8C2
:101DA00004FB00BF10000020202100207FB500238D
:101DB0008DF81730084B1B6802930A4601230DF17A
:101DC0001701009101930146044803F083FF9DF839
:101DD000170007B05DF804FB100000202021002050
:101DE0001FB5084C24680092CDE901340A4601234E
:101DF0000146054803F06EFF003818BF012004B00B
:101E000010BD00BF100000202021002002F090BF74
:101E100010B5064C00222046042103F015FC204694
:101E20000122BDE81040042103F00EBC000802406E
:101E300038B50B4D044601220A484FF4005103F017
:101E400003FC00220421284603F0FEFB2046FFF796
:101E50001BFC28460122BDE83840042103F0F4BBF6
:101E600000080240000C024038B50B4D0446002229
:101E70000A484FF4005103F0E7FB002204212846F2
:101E800003F0E2FB2046FFF7FFFB28460122BDE8F6
:101E90003840042103F0D8BB00080240000C024087
:101EA000F7B5144E144F05460C4630460022042167
:101EB00003F0CAFB00224FF40051384603F0C4FB84
:101EC0002846FFF7E1FB0D4B0D481B68224601A990
:101ED00005F0F0F8384601224FF40051019C03F060
:101EE000B3FB30460122042103F0AEFB204603B0D1
:101EF000F0BD00BF00080240000C02400C000020B2
:101F00002020002002F014BF0268034B9A4201D146
:101F100002F0FCBE704700BF001000407047000098
:101F200082B00E4B00220092596C41F480415964FA
:101F3000596C01F48041009100990192196C41F0B3
:101F4000805119641B6C03F080530193019B0F2196
:101F50006FF0010002B003F043B900BF0038024047
:101F600010B514228AB0044600210DEB020021F0C6
:101F700084FC23681E4A93421FD11E4B002101910D
:101F80005A6C42F480725A645A6C02F48072019264
:101F9000019A02911A6B42F001021A631B6B03F063
:101FA00001030293029B022305931348032305A90F
:101FB000069303F05FFA0AB010BD104A9342FAD1BB
:101FC0000C4B002103915A6C42F400725A645A6C13
:101FD00002F400720392039A04911A6B42F0010218
:101FE0001A631B6B03F001030493049B0423DBE7D8
:101FF0000020014000380240000002400021014062
:102000000268094B9A4282B00BD100230193074B1F
:102010001A6B42F480521A631B6B03F480530193D2
:10202000019B02B0704700BF003002400038024000
:1020300007B50F4B02689A4216D10022A3F5F04370
:102040000192196B41F4000119631B6B03F4000347
:10205000019305215A20019B03F0C2F85A2003B0D6
:102060005DF804EB03F0EEB803B05DF804FB00BFCD
:1020700000B002402DE9F043044689B0142200214B
:1020800003A821F0FAFB2268244B9A4243D1244C46
:10209000244800250095236B43F004032363236B3E
:1020A00003F004030093009B0195236B43F00103AD
:1020B0002363236B03F001030193019B4FF012098B
:1020C0004FF400734FF001080327042603A9CDE95C
:1020D0000339CDE90587079603F0CCF94FF48073F7
:1020E0001148079603A9CDE90339CDE9058703F027
:1020F000C1F90295236C43F400032364236C03F4B9
:1021000000030293029B236A43F400032362236AC1
:1021100023F40003236209B0BDE8F083005C0040B3
:10212000003802400008024000000240F0B599B0BB
:1021300004461422002107A821F09FFB30220DEB5A
:102140000200002121F099FB22685E4B9A4240F088
:10215000B78008230C93C0231093042312930CA878
:102160004FF40033159304F055FB08B1FFF7D6FE8A
:10217000554B5648002400945A6C42F080625A64D1
:102180005A6C02F080620092009A01941A6B42F03D
:1021900020021A631A6B02F020020192019A029443
:1021A0001A6B42F001021A631A6B02F001020292EA
:1021B000029A03941A6B42F002021A631A6B02F03D
:1021C00002020392039A04941A6B42F040021A63CB
:1021D0001A6B02F040020492049A05941A6B42F0C2
:1021E00004021A631A6B02F004020592059A06941F
:1021F0001A6B42F008021A631B6B03F00803069384
:1022000002250E26069B0B964FF4806307A9CDE9A5
:102210000735CDE9094503F02DF941F658032C485F
:102220000B9607A9CDE907350927CDE9094503F044
:1022300021F9032327480B9707A9CDE90735CDE9F5
:10224000094503F017F94FF4706322480B9607A96C
:10225000CDE90735CDE9094503F00CF94FF40C63DE
:102260001D480B9607A9CDE90735CDE9094503F0CF
:1022700001F9C02319480B9607A9CDE90735CDE927
:10228000094503F0F7F8082315480B9607A9CDE98F
:102290000735CDE9094503F0EDF84FF4A0530E489A
:1022A0000B9707A9CDE90735CDE9094503F0E2F819
:1022B00058202246052102F093FF582002F0C2FF69
:1022C00019B0F0BD0068014000380240001402401F
:1022D00000000240000402400018024000080240D2
:1022E000000C024010B5044688B01422002103A857
:1022F00021F0C3FA2268144B9A4223D103F56843B4
:10230000002101915A6C114842F480125A645A6CAF
:1023100002F480120192019A02911A6B42F020029B
:102320001A631B6B03F020030293029B4FF460724D
:1023300002230321CDE903230523CDE9061303A9D5
:1023400003F098F808B010BD00500140001402409E
:102350002DE9F04186B0002303932B4B1C68002C21
:102360004FD14FF00108C3F80080284B00949A6BBE
:10237000274842EA08029A639B6B03EA080300932A
:10238000022703260C25009B01A94FF63F03CDE948
:102390000137CDE9046503F06DF81E48059501A9E4
:1023A000CDE90187CDE9034603F064F848F2331321
:1023B0001948059501A9CDE90137CDE9034603F098
:1023C00059F84FF683731548059501A9CDE90137F2
:1023D000CDE9034603F04EF84CF20373104805951F
:1023E00001A9CDE90137CDE9034603F043F86023A5
:1023F0000C48059501A9CDE90137CDE9034603F065
:1024000039F806B0BDE8F0814C22002000380240C7
:102410000014024000080240001802400010024070
:10242000000C02400004024070B588B00023029303
:10243000204B1A6C42F010021A641B6C03F010035C
:102440000293054601A903A8029B04F0C5F9069B67
:102450004BBB04F0B1F9184E184B336040F2E73330
:10246000F360174BB0FBF3F3013B7360304600237E
:102470003361B360B36104F0E7FF044680B93046CE
:1024800004F0BCFE044658B9362002F0DBFE0F2DE6
:102490000DD822462946362002F0A2FE094B1D60C7
:1024A000204608B070BD04F087F94000D3E701244E
:1024B000F6E700BF00380240502200200010004024
:1024C00040420F00840000207047FEE7FEE7FEE771
:1024D000FEE77047014804F0CFBE00BF5022002045
:1024E000014803F010BE00BF78200020014802F030
:1024F000F3BE00BF742100200120704708B521F011
:102500005FFA162303604FF0FF3008BD08B521F0D5
:1025100057FA16230360FEE770B50D4614460E46C3
:10252000731B9C4201DC204670BDAFF3008006F8AF
:10253000010BF5E770B50D4614460E46731B9C4221
:1025400001DC204670BD16F8010BAFF30080F5E703
:102550004FF0FF3070474FF400534B60002070473E
:1025600001207047002070470A4A116808B50346E9
:1025700009B9094911601068694603448B4206D9BC
:1025800021F01EFA0C2303604FF0FF3008BD1360EA
:10259000FCE700BF9822002018430120704710B5C7
:1025A0000421044620F014F8204610BD08B5032984
:1025B00013D8DFE801F002060A0E01F073F9006893
:1025C00008BD01F06FF94068FAE701F06BF9806827
:1025D000F6E701F067F9C068F2E70020F0E70000D5
:1025E00000487047245602081120704713B5002494
:1025F00051B1036801948DF8034001AA9C680DF164
:102600000303A04702B010BD0846FBE7C08970472E
:10261000008A7047C088704780887047807A00F0D1
:102620007F007047807AC009704700207047000023
:102630009FED010A704700BF00000000806A7047EC
:10264000704710B5082104461FF0C2FF204610BD98
:102650007047704700F598730868496803C370476E
:10266000704770474160704770477047064BC0F82D
:102670004C310023C0F8503100F5A273C0F8480176
:10268000C0F84031704700BF0528000801230372DD
:1026900070477047704710B4C268416854100346D1
:1026A00001EB6200D20748BF0A599B685DF8044BF2
:1026B00048BFD35818470346406830B19A681AB9E2
:1026C000D86800F0010070470120704710B50C2158
:1026D00004461FF07DFF204610BD10B510210446B2
:1026E0001FF076FF204610BD10B54FF4AE710446C2
:1026F0001FF06EFF204610BD10B5402104461FF0AC
:1027000067FF204610BD10B50DF0F4F80368BDE872
:102710001040DB6B18470000054B1B7801462BB1BE
:10272000406818B103680C315B6E1847704700BFF2
:10273000D7350120037A70B50546BBB940680368F8
:10274000DB69984704463CB96868036805F10C01E9
:102750001B6EBDE870401847A1886B8FC91A2368AB
:1027600020461B6B09B29847A469ECE770BD10B511
:102770000446D0F8400158B10368DB68984738B187
:10278000D4F8400103689B6898470023C4F840319F
:1027900010BD70B5044690F8390094F83830013017
:1027A000C0B2984284F8390005D90123237200236E
:1027B00084F8393070BDB4F93A2000210FF09AFA4C
:1027C000C30706D500284FF6FF73C8BF012318447E
:1027D00000B2238AC01AA08760680368DB69984743
:1027E00005462DB960680368BDE870405B6918470D
:1027F000A988A38F19442B6828461B6B09B29847F8
:10280000AD69EEE72DE9F14FD0E9556A0746B068AA
:1028100003681B6A9847EF2805D8444B444AA32114
:10282000444820F011FE706803681B6A98470F281F
:1028300003D8414B3E4AA421F2E7F06803681B6AC3
:1028400098470B2803D83D4B394AA521E8E70DF0FE
:1028500051F8DFF8F09004300DF08AF8D9F8000054
:1028600010B10368DB689847D9F8000010B103681D
:102870001B689847DFF8D080D8F8000010B10368D3
:102880005B699847D7F83C0110B103685B689847CB
:10289000D8F8000010B103681B689847D7F83C01CE
:1028A00010B103689B689847F068036800215B6A71
:1028B00098474FF0000B224BC0F804B0044680F854
:1028C00008B00360B068036859465B6A98470546DC
:1028D00001F09CFB7068036859465B6A984729467B
:1028E000064601F073FB331DC7F83C61C9F8004090
:1028F000C8F80050CAF800302B68C6F808A028466F
:10290000DB68EE639847336830461B68984721467A
:1029100028460FF0E9F9236820461B699847236889
:102920005B69204601B0BDE8F04F1847114A020824
:102930009F4A0208774B0208BE4B0208614C02080E
:10294000FC570208203601201C360120044B1B686E
:1029500093F858200AB1D86C00B99868704700BF46
:10296000D8350120F8B5174604460E460DF0CEF8CE
:10297000124B1C60124B2360124B0025C4E95135E9
:10298000114BC4E953551868036801219B68C4E9D9
:102990004F55C4E955769847284600F037FFFFF7B2
:1029A000D5FF17F012FDFFF7D1FF17F089FDFFF7F4
:1029B000CDFF17F091FD2046F8BD00BF2C36012059
:1029C000A857020890570208D8350120064BC0F8D6
:1029D0004C310023C0F8503100F5A273C0F8480113
:1029E000C0F84031704700BF05280008064BC0F80A
:1029F0004C310023C0F8503100F5A273C0F84801F3
:102A0000C0F84031704700BFDD2B0008064BC0F80E
:102A10004C310023C0F8503100F5A273C0F84801D2
:102A2000C0F84031704700BFA12A00082DE9F041ED
:102A300005460026164B4660067245F80C3B0446D8
:102A400028460F4609F0D0FE124B84F838701B78E8
:102A500084F83960A68723B9012323722046BDE894
:102A6000F0810D4B0D4FB3F90080E368B7F900100A
:102A70009B6B266128469847E3684146DB6B2846F6
:102A80009847284609F02BFE3B885B426387E5E7C1
:102A900020580208D7350120CE350120CC35012041
:102AA0002DE9F047D0E9556A0746B06803681B6A0C
:102AB0009847B0F5296F05D2414B424AA3214248BD
:102AC00020F0C2FC706803681B6A98470F2803D87F
:102AD0003E4B3C4AA421F2E7F06803681B6A984722
:102AE0003F2803D83A4B374AA521E8E70CF002FF0C
:102AF000DFF8E09004300CF03BFFD9F8000010B193
:102B00000368DB689847D9F8000010B103681B68B8
:102B10009847DFF8C480D8F8000010B103685B69FB
:102B20009847D7F83C0110B103685B689847D8F81C
:102B3000000010B103681B689847D7F83C0110B13A
:102B400003689B689847F068036800215B6A9847B0
:102B500014210446FFF76AFFB068036800215B6A2E
:102B60009847054600F02AFF7068036800215B6AF9
:102B700098472946064600F0DFFE331DC7F83C6142
:102B8000C9F80040C8F80050CAF800302B68C6F8F1
:102B900008A02846DB68EE639847336830461B6818
:102BA0009847214628460FF09FF8236820461B6966
:102BB0009847236820465B69BDE8F047184700BF87
:102BC000114A0208044D0208774B0208BE4B020866
:102BD000614C0208203601201C3601202DE9F04707
:102BE000D0E9556A0746B06803681B6A9847EF2822
:102BF00005D8414B414AA321414820F025FC70688B
:102C000003681B6A98470F2803D83E4B3B4AA42110
:102C1000F2E7F06803681B6A98473F2803D83A4BED
:102C2000364AA521E8E70CF065FEDFF8E0900430B5
:102C30000CF09EFED9F8000010B10368DB689847DD
:102C4000D9F8000010B103681B689847DFF8C0800E
:102C5000D8F8000010B103685B699847D7F83C01C9
:102C600010B103685B689847D8F8000010B103689A
:102C70001B689847D7F83C0110B103689B689847D8
:102C8000F068036800215B6A984714210446FFF747
:102C9000CDFEB068036800215B6A9847054601F0E5
:102CA000B5F97068036800215B6A984729460646B3
:102CB00001F08CF9331DC7F83C61C9F80040C8F831
:102CC0000050CAF800302B68C6F808A02846DB6818
:102CD000EE639847336830461B689847214628467C
:102CE0000FF002F8236820461B69984723682046A6
:102CF0005B69BDE8F0471847114A0208EF4D02082A
:102D0000774B0208BE4B0208614C020820360120B6
:102D10001C3601207047704770477047704730B5C8
:102D2000036885B06D460181D3F8843001460446BE
:102D30002846984795E807003C3484E8070005B02A
:102D400030BD30B5036885B06D464181D3F884301D
:102D5000014604462846984795E807003C3484E835
:102D6000070005B030BD0022028042808280C28010
:102D7000704780F83610704770B5036804461B6BC7
:102D8000154698472368294620465B6EBDE870408B
:102D9000184700207047806C704770477047704735
:102DA000704730B4C26844685510034604EB6200B3
:102DB000D20748BF62599B6830BC48BFD3581847F8
:102DC0000346406830B19A681AB9D86800F001002B
:102DD00070470120704710B54C2104461FF0F8FBE6
:102DE000204610BD10B5102104461FF0F1FB20460F
:102DF00010BD10B54FF4117104461FF0E9FB2046D9
:102E000010BD08B5FEF74AFB08BD0000036870B5A9
:102E10005E6B124B1B6804468DB22BB9104B114AE6
:102E20006C21114820F010FB1049828D09889142D5
:102E300003D80F4B0B4A6D21F3E713F812200D4B0B
:102E40001B6853F8220003681B6B9847291A334606
:102E5000204609B2BDE87040184700BF3036012057
:102E6000DA4E02081C4F0208574F02083436012080
:102E70009E4F0208383601206C30884208B505D1D3
:102E80000CF038FDBDE80840FFF7B0BD08BD0022DA
:102E90004FF0FF31C0E900218260704770B50368D0
:102EA00004461B6B154698472368294620465B6BF2
:102EB000BDE87040184770B504461D46BDF9106066
:102EC000FFF7ECFF2368294620469B6B9847236851
:102ED00031462046DB6BBDE8704018470022C0E950
:102EE0000122C0E90322C0E90522C0E907224FF40C
:102EF00080728284014A0260704700BF4458020811
:102F0000F8B5194B018F1B888B4206462AD9174BFF
:102F10001B682BB9164B174A17486C2120F094FAFE
:102F200013F81120154B1B6853F82250144B1868E6
:102F300000F0A8FC2B6807469B6B284698472B6837
:102F400004469B6C3946284698472B6814FB00F4CE
:102F50005B6A394628469847A4B223181BB2A6F8E4
:102F60004630F8BD0023FAE7343601203036012020
:102F7000DA4E02081C4F0208574F0208383601206B
:102F80003C36012038B5262204460D46002120F0AB
:102F900074FC2046FFF7A2FF064B23602B88E384D6
:102FA000FF23204684F82830294609F0C0FF204638
:102FB00038BD00BF445F020810B526220446002138
:102FC00020F05BFC2046FFF789FF0A4BA3624FF617
:102FD000FF73A3854FF47F020023C4E90C32064A35
:102FE000226023874FF0FF32C4E91023E363A36418
:102FF000204610BD80570208AC5802082DE9F04F5A
:10300000044691B0A04600250EF0C2FCA44BE56337
:1030100048F8403B26222946404620F02EFC4046F8
:10302000FFF75CFF9F4B236404F16C0AFF2384F8D5
:1030300066305046A5660AF0B1F804F1B4034FF6C5
:10304000FF760EA918460593ADF83860FFF79AFF92
:1030500004F1E0030EA918460693ADF83860FFF7B7
:1030600091FF04F586730EA918460793ADF83860F2
:10307000FFF788FF04F59C7318460393FFF79CFF46
:1030800004F5C273184604F5E87B0493FFF794FF38
:103090000EA95846ADF83860FFF774FF824BC4F8AC
:1030A000D031824BC4F8FC51C4E98D34804B84F894
:1030B00008520127C4E98F354FF0FF394FF4A07350
:1030C0002A464046C4E9809729460093F023FFF73B
:1030D000F2FE261D4FF07F43A3664146304606F0C0
:1030E00067FC5046BD222321FFF7D8FE4FF00408AD
:1030F0004FF002030EAA0DA95046ADF83830ADF8D6
:10310000347009F0E2FD5046A4F8A480FFF7F8FE01
:1031100004F50D73C4F8943051463046C4E92A9939
:1031200006F046FC3A460598CC21FFF7B7FE4FF073
:103130000C0A0598ADF838A00EA909F0F8FE05991B
:10314000304606F035FC3A460698A921FFF7A6FE60
:103150000698ADF838A00EA909F0E9FE06993046A8
:1031600006F026FC3A4607988621FFF797FE079857
:10317000ADF838A00EA909F0DAFE0799304606F03E
:1031800017FC1D2342460398009307216023FFF795
:1031900092FED4F838310399D3F88430C4F868919A
:1031A0000DF120084046A4F86C51984798E80700B4
:1031B00004F5BA7383E807003E4B1B6804F5037AF5
:1031C0002BB93D4B3D4A60213D4820F03DF93D4B38
:1031D0001B881BB93C4B394A6121F5E73B4B29461B
:1031E000186800F04FFB3A4A03460A21504610F097
:1031F00097F803230398C4F880A10EA9DFF8D4A0A0
:10320000ADF83C30CDF838A009F002FD0399304606
:1032100006F0CEFB22230498009373222946F02364
:10322000FFF749FED4F884310499D3F88430C4F808
:10323000B4914046A4F8B851984798E8070004F5BF
:10324000E07383E8070004F508730498C4F8CC31F0
:103250000EA94FF00203A4F82052ADF83C30CDF88F
:1032600038A009F0D5FC0499304606F0A1FB3A4697
:103270005846D021FFF712FE09225846082109F0CE
:10328000A1FB3946584609F0B0FB304684F8F851A6
:10329000594606F08DFB204611B0BDE8F08F00BF07
:1032A00054590208DC5E0208605E02083C590208BC
:1032B000792E000830360120DA4E0208DC4F020871
:1032C000574F0208343601209E4F02083C36012039
:1032D0002750020880570208406A7047806A70478A
:1032E00070478A880B8810B5D20A4C88C1699BB296
:1032F00051F8220043EA0443184410BD10B50446B7
:10330000BAB1107B68B1537BD27A1B0203F4E0633D
:103310001A43236A03EB82031A888A4202D193F983
:10332000020010BD05D8013880B204330028F3D163
:10333000F7E70020F5E710B52C2104461FF048F907
:10334000204610BD30B58BB00446BDF860500895DE
:10335000BDF85C5007959DF8505006959DF84C506F
:1033600005959DF8485004959DF8445003959DF8A7
:10337000405002959DF83C500195BDF8385000959D
:103380000EF00CF9064B2360159BE361169B23623C
:10339000199B63621A9BA36220460BB030BD00BF2D
:1033A0008859020870477047704730B4C268446853
:1033B0005510034604EB6200D20748BF62599B6870
:1033C00030BC48BFD35818470346406830B19A68AC
:1033D0001AB9D86800F0010070470120704710B595
:1033E000102104461FF0F4F8204610BD10B5F0215E
:1033F00004461FF0EDF8204610BD9830884208B50D
:1034000005D10CF077FABDE80840FFF7FFBA08BD18
:103410002DE9F34104460EF0BBFA444B2360444BC4
:103420000025C4E910354FF48072FF2304F16C07C6
:10343000A4F8642084F86630A4F890204FF6FF7357
:103440003C4AE26604F19806A4F8923084F894307D
:1034500001A9C4E91255C4E91455C4E91655C4E9D3
:103460001C55C4E91E55C4E92055C4E92255E5633D
:103470002566A5663846ADF8043009F058FD30469B
:1034800009F08CFE2C4BC4E938342C4B04F1400875
:10349000C4E93A352A4629464046FFF7FFFC404634
:1034A000F021FDF745FF40464FF4A071FDF742FFC4
:1034B000251D4FF07F43A3664146284606F078FA63
:1034C0001B2238461421FFF7E9FC102301A93846D6
:1034D000ADF8043009F02BFD3946284606F068FAAD
:1034E0003046BB222321FFF7D9FC012301AA6946FC
:1034F000ADF8003030460223ADF8043009F0E5FBAA
:103500000523A4F8D0303046FFF7FAFC4FF0FF3324
:10351000C4E9353304F1E0032846C4F8C03031462D
:1035200006F046FA204602B0BDE8F081085A0208CB
:10353000DC5E0208445F0208F0590208FB33000811
:103540007047000030B5164D2C6814F001048FB0A0
:10355000BFF35B8F20D128461FF03CF8E0B13F233A
:103560000993104B0893104B104911480A940122FB
:10357000CDE906430423CDE903320A230093CDE9C4
:103580000B44CDE901440594FFF7DCFE09481FF028
:1035900079FF28461FF02AF805480FB030BD00BF5C
:1035A0009C2200205C7102088C710208687002087D
:1035B000A0220020413500087047000030B5164DAC
:1035C0002C6814F001048FB0BFF35B8F20D1284624
:1035D0001FF000F8E0B13F230993104B0893104B04
:1035E000104911480A940122CDE906430423CDE98C
:1035F000033214230093CDE90B44CDE90144059433
:10360000FFF7A0FE09481FF03DFF28461EF0EEFF21
:1036100005480FB030BD00BFCC2200206071020809
:103620009071020878700208D0220020B935000895
:103630007047000030B5164D2C6814F001048FB0AF
:10364000BFF35B8F21D128461EF0C4FFE8B13F23B2
:103650000993104B0893104B104911480A94CDE977
:10366000064301220423CDE90332182300930E22DE
:10367000CDE90B44CDE901440594FFF763FE094809
:103680001FF000FF28461EF0B1FF05480FB030BD07
:10369000FC220020647102089471020888700208FC
:1036A00000230020313600087047000030B5164D69
:1036B0002C6814F001048FB0BFF35B8F20D1284633
:1036C0001EF088FFE0B13F230993104B0893104B85
:1036D000104911480A940122CDE906430423CDE99B
:1036E000033228230093CDE90B44CDE9014405942E
:1036F000FFF728FE09481FF0C5FE28461EF076FF9A
:1037000005480FB030BD00BF2C230020887102088F
:10371000987102084C71020830230020A936000875
:1037200000207047002070470EB403B503AB0021A2
:1037300053F8042B01930DF0AFF902B05DF804EBE0
:1037400003B070470CB407B504AB53F8042B0193D6
:103750000DF0A2F903B05DF804EB02B07047000071
:10376000436C10B5044673B3038F2BB9184B194A39
:10377000C52119481FF068FEC38E00EB43035B8C24
:103780000BB30FF024F8238F012B03D8134B144AEB
:10379000CB21EEE7E28E531C9BB2092B194688BF62
:1037A000A3F10A0104EB410140F63F10498C81422C
:1037B00009D10A2B04EB420228BF002304EB430388
:1037C000508C588451842046BDE810400EF002BF52
:1037D0002A50020833500208DE500208285102081D
:1037E000365102080EF0BDBE10B586B002AC84E8BA
:1037F00006001A460AAB05930193099B00932146E4
:10380000089B0BF015FC06B010BD000038B518BBC6
:10381000124B13481C681349B4B122682244026059
:10382000626822440A60A26814440F4B00221A8086
:1038300000F038F8054600F033F80C4B1C600C4BD8
:103840001D600C4B188007E00B4B03600B4B0B60AB
:103850000B4B1C68002CE8D138BD00BF682300204A
:10386000602300205C2300206423002030360120E8
:103870003836012034360120B47102089C710208E8
:10388000E8710208044B1B6853F82100034B1B68C6
:1038900003EB4000704700BF5C2300206023002042
:1038A00006207047004870476C23002010B5FFF7D2
:1038B000C1FE064C2060FFF7F9FE6060FFF742FE94
:1038C000A060FFF77BFEE06010BD00BF6C2300200E
:1038D00010B5002404600C6014601C6010BD7047BB
:1038E00010B54FF4AE7104461EF072FE204610BDB6
:1038F00010B50446D0F8580100F097FB2046BDE80B
:1039000010400CF093B8000010B50446FFF72AF8F9
:10391000014B2360204610BD3C5A02087047043812
:103920007047704710B5102104461EF051FE204626
:1039300010BDA0F10400F5E700228260024A026097
:1039400018324260C1607047905A02087047000008
:10395000134B70B50446036040F6642540F6AC0690
:10396000B54217D140F2F466635960191B682C3DCB
:103970009847B542F8D140F2E465635960191B6875
:103980003C3D9847B5F50D7FF7D12046FFF707FA84
:10399000204670BD635960191B6898472C3DDFE7CE
:1039A000B85A020810B50446FFF7D2FF20464FF47C
:1039B00029611EF00DFE204610BD00002DE9F04FDC
:1039C00005468DB0FFF71AFB05F51179654B2B60A5
:1039D0004FF6FF7869464846ADF80080FFF7D2FA07
:1039E00005F51C77DFF884B105F5E46A3C4600264E
:1039F00020466946ADF80080FFF7C4FA0123C4F8F9
:103A000000B0E662A4F83080A4F8328084F8343044
:103A100084F8356084F8366084F8376084F838605C
:103A20003C345445E4D105F6D80A26464FF6FF78D3
:103A3000304669462C36ADF80080FFF7A3FA5645AC
:103A4000F6D1564605F529684FF6FF7B30466946A4
:103A50002C36ADF800B0FFF795FA4645F6D1424E48
:103A6000684600F0D9FBBDF80430B380BDF91C30C6
:103A7000039AB383089BF2603362049A099B326114
:103A80007362059A0A9B726105F10408069AB36293
:103A90006846BDF82C30B261B38500F0CFFB4046DC
:103AA00005F16C0105F0C5FF404605F5C27105F052
:103AB000C0FF0E2369464846ADF8003009F037FADA
:103AC000B6F90E20B6F90C104846FFF7E7F9404664
:103AD000494605F06DFF4FF0040804F5DC7621221D
:103AE000304640F24111FFF7D9F9D4F8B8313046E9
:103AF0001B6EADF80080694698472046212240F2AF
:103B00004111FFF7CBF9236800261B6EADF800606A
:103B1000204669462C3498475445DED13446032666
:103B2000B4FBF6F303EB4303E31A012B13D0022B90
:103B300014D007220621384608F044FF01343846E5
:103B4000142108F052FF142C07F13C07E8D1284655
:103B50000DB0BDE8F08F09220821ECE70B220A2105
:103B6000E9E700BFB85A020840280020605E02085A
:103B7000C54B1B782DE9F74FC44E044643B3C44BE5
:103B80001B782BB3DFF8308398F8003003BB00F1CB
:103B90006C05071D2946384605F00AFF04F5C27971
:103BA000B388BC4A0A2104F508700FF0B9FB4946F6
:103BB000384605F0FDFE28460DF098F848460DF011
:103BC00095F8012388F80030B34B186803F080FDA6
:103BD000B24FDFF8E88238684FF000098DF80390A3
:103BE00003F0DEFE04F51175E0B14FF0FF333868E5
:103BF0004A460DF1030103F0A3FE9DF80330522B5A
:103C000040F0FC80B6F92810A54800F097FB0F2380
:103C1000284601A9ADF8043009F089F9D8F8000068
:103C200003F0C0FED8F8000003F0BAFEE8B14FF090
:103C3000FF33D8F8000000220DF1030103F080FEED
:103C40009DF803304C2B40F0E880B16A944849421B
:103C500009B200F073FB0D23284601A9ADF804302A
:103C600009F065F9386803F09DFE8E4FDFF8508249
:103C7000386803F095FEA8B14FF0FF333868002292
:103C80000DF1030103F05CFE9DF80330552B40F06D
:103C9000D3808348B6F9281000F052FBD8F8000012
:103CA00003F080FED8F8000003F07AFEB0B14FF0C8
:103CB000FF33D8F8000000220DF1030103F040FEAD
:103CC0009DF80330442B40F0BF80B16A74484942EC
:103CD00009B200F035FB386803F064FE2846B6F9F7
:103CE0000E20B6F90C10704FFDF72BFB04F5E465C0
:103CF000A04604F6D80A04F10409B7F91030022BE3
:103D000000F0AA80042B00F0B880012B07D12B68AB
:103D1000B7F906209B6DB7F90410284698472C3553
:103D2000554507F11C07E8D1604F04F5296A04F1F5
:103D30000409B7F91030022B00F0C480042B00F006
:103D4000D280012B07D12B68B7F906209B6DB7F9FC
:103D50000410284698472C35554507F11C07E8D133
:103D6000534D04F51C7704F5966A04F10409B5F97E
:103D70001030022B00F0BD80042B00F0D580012B09
:103D800008D1D8F87032B5F906209B6DB5F904104A
:103D90003846984708F13C08D04505F1200507F161
:103DA0003C07E4D1434AB6F92C3011788B4204F138
:103DB000040516D0DBB21370502284F8DC2084F89E
:103DC000082184F83421002B00F0B980FF22012B58
:103DD00084F8DC2005D0022B84F8082118BF84F871
:103DE0003421B3882B4A0A2104F503700FF098FAA6
:103DF00028460CF07BFF03B0BDE8F08F4E2B7FF41C
:103E000011AF4946264800F099FA0E2301A9284629
:103E1000ADF8043009F08BF804E74E2B7FF425AFA2
:103E20001F48002100F08AFA0E2301A92846ADF8A8
:103E3000043009F07CF818E74E2B7FF433AF1848B4
:103E4000002100F07DFA2DE74E2B7FF447AF144898
:103E5000002100F075FA41E72B68B7F906209B6D49
:103E6000B7F90410284698472946484605F0A0FDB2
:103E70000121384600F0A6F951E72946484605F0E9
:103E8000D8FD0321F5E700BF86230020402800204D
:103E9000852300200852020880230020DC1F002018
:103EA00048280020D41F00202827002010260020AA
:103EB00090230020140000207C230020D81F002025
:103EC000D01F00202B68B7F906209B6DB7F90410AE
:103ED000284698472946484605F06AFD012138469C
:103EE00000F070F937E72946484605F0A2FD0321A6
:103EF000F5E7D8F87032B5F906209B6DB5F90410D6
:103F000038469847D8F87032D3F864B001231A467F
:103F100000213846D8473946484605F049FD012179
:103F2000284600F04FF935E7D8F8703238469B6ED6
:103F300098473946484605F07CFD0321F0E7034BDE
:103F4000012228461A700CF0D1FE4AE78523002092
:103F500010B5114C8AB0FEF723FF206803F0B8FBC0
:103F60002022002102A81FF088FC0C4B01934FF483
:103F700080421823CDE90623002101AA084803F056
:103F800063FB084A206000231370074A1370074A36
:103F900013700AB010BD00BF802300200B5202082E
:103FA000D944000886230020852300207C2300209C
:103FB000704704387047704710B5102104461EF052
:103FC00007FB204610BDA0F10400F5E70022826047
:103FD000024A026018324260C1607047EC5A02081F
:103FE0007047000010B5034B03600446FFF7DBF990
:103FF000204610BD145B020810B50446FFF7F2FF1F
:104000002046F0211EF0E4FA204610BD10B504460B
:10401000FFF7FEF9014B2360204610BD145B020838
:10402000FFF7C2B9002202607047704710B5034B1A
:104030000360044600F0B1F8204610BD485B02085A
:1040400010B50446FFF7F2FF20461C211EF0C0FA0F
:10405000204610BD10B5044600F0AAF8064B2360B8
:104060004FF4C873A3614FF018110023C4E9021381
:10407000024B2361204610BD485B020803009001FB
:10408000B0F9083010B5B0F904405B429C420BDB3C
:10409000F02C09DCB0F90A30B0F906205B429A42F4
:1040A00002DBB2F5A07F05DD04230382836943822E
:1040B000002010BD438A591A09B200294182F7DC59
:1040C00083891C44C38984801A448369C2804382E3
:1040D0000120EEE710B5034B0360044600F05DF8E5
:1040E000204610BD5C5B020810B50446FFF7F2FFE6
:1040F000204620211EF06CFA204610BD10B5044663
:1041000000F056F8084B23604FF4167246F2A813DD
:10411000C4E906234FF020110022C4E90212034A29
:104120002261A382204610BD5C5B02080300580296
:10413000B0F90830B0F904205B429A4210B508DBB0
:10414000F02A06DCB0F90A30B0F906405B429C4226
:1041500007DA04230382C3698382836943820020D0
:1041600010BD438A591A09B200294182F7DC8389BC
:104170001A44C38982801C448369C480438201201D
:10418000EEE7838A591A09B20029D8BFC369818230
:10419000DABF8382012000207047704700207047FB
:1041A00010B5182104461EF013FA204610BD000079
:1041B000034A0260032202824FF02012826070479D
:1041C000705B0208018270478180C28070478181E4
:1041D000C2817047B0F90420B0F9083010B5B1F9C8
:1041E00004401344A34215DDB1F9083023449A4238
:1041F00010DAB0F90630B0F90A20B1F906401A44D5
:10420000A24207DDB1F90A2022449342ACBF00204C
:10421000012010BD0020FCE710B5054B0360002312
:1042200004468380083000F033F8204610BD00BFFC
:10423000845B0208838819448180704710B5044B61
:10424000044640F8083B00F00FF8204610BD00BFC0
:10425000845B020810B50446FFF7F0FF20463021CA
:104260001EF0B6F9204610BD10B5034B036004469E
:10427000FFF793FF204610BD945B020810B504467B
:10428000FFF7F2FF204628211EF0A2F9204610BDBC
:1042900010B50446FFF78CFF03210A480A4B216240
:1042A000A1844FF01C11C4E9010142F21072236095
:1042B00000214FF4C873C4E90632E160A282638230
:1042C000204610BD68000401945B0208438A591A15
:1042D00009B2002941821FDC82888389C1891A447E
:1042E000C38812B20B441BB281698280002AC3804A
:1042F000418207DA00228280002B07DA0023C38084
:1043000001207047D02AF7DDD022F4E7B3F5907F83
:10431000F6DD4FF49073F2E700207047838A591A54
:1043200009B20029D8BFC3698182DABF8382012024
:1043300000207047838C19448184704781817047C5
:10434000C18170472DE9F047DFF890A0224CDAF8E0
:104350000030DFF88C80DFF88C901B1A0546CAF815
:1043600000301426B4F91030032B09D0294620461A
:10437000FFF7DEFE013E04F12004F3D1BDE8F08733
:10438000DAF80030002BF5DCD8F8003003F0010239
:10439000002A4FF6E0714FF6FF770CBFF02101279E
:1043A000032B94BF19F803200022022BD4BF013342
:1043B00000232046C8F80030FFF706FF00223946E8
:1043C0002046FFF704FF02212046FFF7FBFE42F2E2
:1043D0001073CAF80030CDE79023002018000020A9
:1043E0008C230020A05B02082DE9F8430146064615
:1043F0001348144CDFF85080DFF85090FFF78EFF21
:1044000004F58C770546B4F91030032B08D03146FB
:104410002046FFF735FE1C34BC42F4D1BDE8F883DA
:1044200065B1B8F80020B9F80010103A204692B2F1
:10443000FFF7CAFE02212046FFF7C4FE0025EAE787
:104440004828002028270020882300208A230020D5
:104450002DE9F0411E4C054600274FF01C08B4F929
:104460001030012B10D129462046FFF78AFE58B1A3
:10447000184A00231646B2F91010032919D0013347
:104480000A2B02F11C02F6D10137142F04F120048B
:10449000E5D1104C0A26B4F91030012B03D129467E
:1044A0002046FFF7EDFD013E04F11C04F3D1BDE809
:1044B000F081E288A18808FB03661032304692B290
:1044C000FFF782FE02213046FFF77CFEDCE700BFEB
:1044D00090230020102600202DE9F74FDFF8D8B1F7
:1044E00000246E4B4FF6CE72E61811463046FFF7A9
:1044F0006BFE04EB0B054FF6CE7211462846FFF714
:1045000063FE4FF6FB7200213046FFF760FE052286
:1045100000212846FFF75BFE03213046FFF752FEDD
:104520001C3403212846FFF74DFEB4F58C7FD8D10B
:10453000DFF88881002544464FF6CE7211462046AA
:10454000FFF742FE013520460321FFF73BFE142D05
:1045500004F12004F0D1524F0026524B1B78013653
:10456000002B40F09880022E4F4C14BF18461E4678
:104570004E4BA2891A804E4BE2891A8008BF012057
:104580003870FFF7DFFE397804F10800FFF79EFE70
:104590003878FFF729FF3878FFF75AFF45464FF084
:1045A000000904F1080AB5F91030012B60D1514619
:1045B0002846FFF70FFE00285AD03E484FF0FF3143
:1045C000FFF7B8FE04212846FFF7FCFD39484FF4F9
:1045D00082726821FFF7F8FD45464FF01409B5F9DE
:1045E0001030012B1AD1DFF8B4A00A22BAF910104A
:1045F000012945D1514628460192FFF7EBFD019A6A
:1046000000283DD004212846FFF7DCFD0421504658
:10461000FFF7D8FD24480521FFF70CFEB9F1010989
:1046200005F12005DBD123495D464FF00A09B5F9B4
:104630001030012B29D12846FFF7CCFD1D4920B3AE
:104640001C484FF0FF31FFF775FE04212846FFF7A5
:10465000B9FD18484FF482726821FFF7B5FDB4F92F
:104660002C30002B3FF779AF0E4A0123137074E70B
:1046700009F10109B9F1140F05F1200593D1ABE758
:10468000013A0AF11C0AB1D1C8E7B9F1010905F1F3
:104690001C05CCD1E3E703B0BDE8F08F282700204C
:1046A0008423002086230020402800208A23002025
:1046B0008823002048280020102600209023002076
:1046C00038B50F480F4DFFF7A7FD002428191C34FB
:1046D000FFF7C0FCB4F58C7FF8D10B4D00242819EE
:1046E0001C34FFF7B7FCB4F58C7FF8D1074D0024DC
:1046F00028192034FFF702FDB4F5207FF8D138BD2A
:104700004028002028270020102600209023002089
:10471000164838B51524013CA0F1200512D11448E3
:104720000B24013CA0F11C0514D112480B24013CC0
:10473000A0F11C0515D0D0F8FC30FC305B68984720
:104740002846F4E7D5F8803200F518705B68984782
:104750002846E0E7D5F81831FC305B6898472846D2
:10476000DFE7BDE838400448FFF768BD902300202C
:10477000102600202827002040280020F020704725
:104780004FF4A07070472920FDF76EBB2820FDF77D
:104790006BBB08B5FDF73CFBCA20FDF765FBC320EA
:1047A000FDF746FB0820FDF743FB5020FDF740FBDB
:1047B000CF20FDF759FB0020FDF73AFBC120FDF7A4
:1047C00037FB3020FDF734FBED20FDF74DFB642077
:1047D000FDF72EFB0320FDF72BFB1220FDF728FB36
:1047E0008120FDF725FBE820FDF73EFB8520FDF746
:1047F0001FFB0020FDF71CFB7820FDF719FBCB20E9
:10480000FDF732FB3920FDF713FB2C20FDF710FBE1
:104810000020FDF70DFB3420FDF70AFB0220FDF719
:1048200007FBF720FDF720FB2020FDF701FBEA2026
:10483000FDF71AFB0020FDF7FBFA0020FDF7F8FA60
:10484000B120FDF711FB0020FDF7F2FA1B20FDF768
:10485000EFFAB620FDF708FB0A20FDF7E9FAA220DF
:10486000FDF7E6FAC020FDF7FFFA1020FDF7E0FAA9
:10487000C120FDF7F9FA1020FDF7DAFAC520FDF79F
:10488000F3FA4520FDF7D4FA1520FDF7D1FAC72039
:10489000FDF7EAFA9020FDF7CBFA3620FDF7E4FAAF
:1048A000C820FDF7C5FAF220FDF7DEFA0020FDF77B
:1048B000BFFAB020FDF7D8FAC220FDF7B9FAB6204A
:1048C000FDF7D2FA0A20FDF7B3FAA720FDF7B0FAF8
:1048D0002720FDF7ADFA0420FDF7AAFA2A20FDF7FC
:1048E000C3FA0020FDF7A4FA0020FDF7A1FA00208A
:1048F000FDF79EFAEF20FDF79BFA2B20FDF7B4FAA7
:104900000020FDF795FA0020FDF792FA0120FDF74F
:104910008FFA3F20FDF78CFAF620FDF7A5FA01206B
:10492000FDF786FA0020FDF783FA0620FDF780FAEE
:104930002C20FDF799FAC820FDF7E4FA2620FDF7B0
:1049400093FA0120FDF774FAE020FDF78DFA0F20AD
:10495000FDF76EFA2920FDF76BFA2420FDF768FABF
:104960000C20FDF765FA0E20FDF762FA0920FDF72D
:104970005FFA4E20FDF75CFA7820FDF759FA3C20EB
:10498000FDF756FA0920FDF753FA1320FDF750FA08
:104990000520FDF74DFA1720FDF74AFA1120FDF723
:1049A00047FA0020FDF744FAE120FDF75DFA002008
:1049B000FDF73EFA1620FDF73BFA1B20FDF738FA0B
:1049C0000420FDF735FA1120FDF732FA0720FDF734
:1049D0002FFA3120FDF72CFA3320FDF729FA422077
:1049E000FDF726FA0520FDF723FA0C20FDF720FA43
:1049F0000A20FDF71DFA2820FDF71AFA2F20FDF7EF
:104A000017FA0F20FDF714FA1120FDF72DFAC82030
:104A1000FDF778FA2920FDF727FABDE808402C2099
:104A2000FDF722BA08B5FDF7F3F90321D320FDF70E
:104A300037FA80B208BD10B5C4B202220321204665
:104A4000FDF79CF90A20FDF7E1F920460022032139
:104A5000FDF794F9BDE810400220FDF7D7B938B54D
:104A60000446E4B2FDF788F900212046FDF79EF9DF
:104A7000012105462046FDF799F940EA052080B25C
:104A800038BD10B5C4B240212046FDF78FF90306AA
:104A900007D54C212046FDF789F9003818BF0120C1
:104AA00010BD01224B212046FDF768F92046002267
:104AB0004B21FDF763F90020F2E773B50423C4B27C
:104AC0000E461546D7210DEB03022046FDF788F967
:104AD000019B1BBA1A0DC3F30B23328020462B8097
:104AE00001224B21FDF74AF900224B212046FDF718
:104AF00045F902B070BD000010B50A4A137898421B
:104B000004460DD0517888420AD00BB141B9012337
:104B1000D454FDF731F92046BDE81040FFF78BBFB4
:104B200010BD00BF7028002010B5C4B20921204676
:104B3000FDF73CF940F00102D2B220460921BDE860
:104B40001040FDF71BB910B5C4B209212046FDF78E
:104B50002DF9092100F0FE022046BDE81040FDF7C6
:104B60000DB938B5C4B20D4620460A21FDF71EF92D
:104B700040EA0502D2B220460A21BDE83840FDF7DE
:104B8000FDB810B50446FDF7F8F820461F21FFF7E1
:104B9000E8FF2046BDE81040FFF7C6BF38B5C4B2F5
:104BA0000D4620460A21FDF701F920EA0502D2B29E
:104BB00020460A21BDE83840FDF7E0B810B50446AC
:104BC000FFF7C1FF20461F21BDE81040FFF7E6BFF9
:104BD00010B5C0B20C460B21FDF7E8F8204010BD1F
:104BE0001F21FFF7F5BF0A46C0B20B21FDF7C6B87B
:104BF0001F21FFF7F8BF38B5C4B20D462046172174
:104C0000FDF7D4F820EA0502D2B220461721BDE80C
:104C10003840FDF7B3B870B5C4B20646042120464B
:104C2000FDF7C4F8042100F0FB0205462046FDF71D
:104C3000A5F83046F021FFF7DEFF05F0F802204628
:104C40000421FDF79BF8492220212046FDF796F824
:104C50000220FDF7DBF8204601222121FDF78EF826
:104C600020469A224121FDF789F8204601224A2157
:104C7000FDF784F8204601224B21FDF77FF82046FE
:104C800000224B21FDF77AF8204601225621FDF73C
:104C900075F8204601225821FDF770F820460122C0
:104CA0004021FDF76BF82046FF220B21FDF766F847
:104CB000BDE870400220FDF7A9B80000054BD3F80D
:104CC000882042F47002C3F888204FF000629A6096
:104CD000704700BF00ED00E008B50B4B1A6842F4C6
:104CE00000721A601A6842F480621A601A6842F40C
:104CF00080721A60032000F061FA0020FDF794FB37
:104D0000FDF70EF9002008BD003C0240034A044BA9
:104D100011681B780B441360704700BF7428002093
:104D200080000020014B1868704700BF74280020E5
:104D300038B50446FFF7F6FF631C1CBF054B1B7814
:104D4000054618BFE418FFF7EDFF431BA342FAD353
:104D500038BD00BF8000002038B50446002800F0B0
:104D60009B80056C25B9FDF7FBF8656484F83C5021
:104D7000236CDB0600F18E80236C23F4885323F030
:104D8000020343F002032364444B5A6822F4403286
:104D90005A605A6861680A435A60236821695A68F0
:104DA00022F480725A605A6842EA01225A605A68B4
:104DB000A16822F040725A605A680A435A609A68A1
:104DC000E16822F400629A609A680A439A60344962
:104DD000A26A8A4252D0996821F0706199609968FC
:104DE0000A439A609A68E16A22F040529A609A688F
:104DF0000A439A609A6822F002029A609A68217EB9
:104E000042EA41029A6094F82020002A3ED05A6873
:104E1000616A42F400625A605A6822F460425A6041
:104E20005A68013942EA41325A60DA6AE16922F489
:104E30007002DA62DA6A013942EA0152DA629A6889
:104E400022F400729A609A6894F8301042EA412283
:104E50009A609A68616922F480629A609A68002078
:104E600042EA81229A606064236C23F0030343F0DA
:104E700001032364002384F83C3038BD9A6822F093
:104E800070629A609A6822F04052B2E75A6822F43F
:104E90000062C9E70120EDE70120EEE700230140B1
:104EA0000100000F82B00023019390F83C30012BE9
:104EB00069D0012380F83C3003689A68D2070BD58B
:104EC0009A68D1071AD4036C43F010030364436C4F
:104ED00043F0010343644CE09A682C4942F001021C
:104EE0009A602B4A1268B2FBF1F202EB4202019285
:104EF000019A002AE4D0019A013AF8E7026C22F400
:104F0000E06222F0010242F4807202645A685205A3
:104F100041BF026C22F4405242F480520264026C9F
:104F200012F480521CBF426C22F00602426400223E
:104F300080F83C206FF022021A60164A516811F086
:104F40001F0F15491CD18B4207D001F580718B4290
:104F50000CD1526812F01F0F0BD19A6812F0405F0B
:104F600007D19A6842F080429A6002E00B498B4276
:104F700002D0002002B07047526812F0100FEBE729
:104F80008B42F6D1E9E70220F4E700BF40420F0070
:104F90007C0000200023014000200140002201404D
:104FA00090F83C30012B14D003689A6822F001027B
:104FB0009A609B68DB0707D4036C23F4885323F0C3
:104FC000010343F001030364002380F83C301846DA
:104FD00070470220704703689A68520570B504460E
:104FE0000D460BD59B68DE0508D5036C43F0200306
:104FF0000364002380F83C30012070BDFFF792FE6F
:10500000064623681A6891070CD56FF012021A60E1
:10501000226C42F4007222649A6812F0405F17D04A
:105020000020EAE7681CEDD065B923681B6813F01F
:105030000203E6D1226C84F83C3042F00402226480
:105040000320DAE7FFF76EFE801BA842EDD8D8E711
:10505000227E002AE4D1DA6A12F4700F02D09B6833
:105060005A05DDD4236C23F480732364236CDB04A2
:10507000D6D4236C43F001032364D1E70368D86CD2
:1050800070470000F7B50023019390F83C30012BE6
:10509000054600F08680012380F83C3008682B68C4
:1050A0008E68092884B233D904EB4402DF681E3AC3
:1050B0004FF0070C0CFA02FC27EA0C07DF60DF68F0
:1050C00006FA02F23A43DA604968062901EB8102E6
:1050D0002DD8596B053A1F26964021EA06015963DF
:1050E000596B04FA02F20A435A632F4A93420AD1D7
:1050F000122837D12D4B5A6822F400025A605A68A0
:1051000042F480025A60002085F83C0003B0F0BDF4
:105110001A6900EB400C072707FA0CF722EA07028E
:105120001A611A6906FA0CF616431E61CCE70C29BF
:105130004FF01F010BD81E6B233A914026EA010164
:105140001963196B04FA02F20A431A63CDE7DE6AA7
:10515000413A914026EA0101D962D96A94400C4350
:10516000DC62C2E7124B984201D01128CBD10F4B21
:105170005A6822F480025A605A6842F400025A6067
:105180000B4B9842BFD10B4B0B4A1B68B3FBF2F39E
:105190000A2253430193019B002BB4D0019B013B96
:1051A000F8E70220B2E700BF0020014000230140E1
:1051B000120000107C00002040420F000749CA681E
:1051C00022F4E0620302120403F4E063120C1343BE
:1051D00043F0BF6343F40033CB60704700ED00E061
:1051E000164B30B5DC68C4F30224C4F10703251D57
:1051F000042B28BF0423062D4FF0FF358CBF033C42
:10520000002405FA03F321EA0303A54022EA05027C
:10521000A340002843EA0203ACBF00F16040084A03
:105220004FEA0313B8BF00F00F00DBB2AABF00F5CE
:105230006140135480F8003330BD00BF00ED00E042
:1052400014ED00E0002807DB044A4109012300F0C7
:105250001F00834042F82130704700BF00E100E0AA
:1052600010B5044650B1437903F0FF0213B902713F
:10527000FCF7C6FE01236371002010BD0120FCE78E
:1052800010B5044620B390F8393003F0FF021BB983
:1052900080F83820FCF7CCFE022384F839302368EC
:1052A00061681A6822F440320A431A605A6BA16896
:1052B00022F007020A435A631A6CE1686FF30D0289
:1052C0000A431A6400200123E06384F8393010BDDA
:1052D0000120FCE770477047036870B55E681D6881
:1052E000F207044614D5E90512D51A6822F4807233
:1052F0001A60C26B42F00102C26301229A60042369
:1053000080F83930002380F83830436903B198477A
:10531000B20616D5AB0414D523681A6822F40052DD
:105320001A6020229A60E36B43F00203E3630423D4
:1053300084F83930002384F8383063690BB1204693
:105340009847300716D5290514D523681A6822F422
:1053500000621A6008229A60E36B43F00403E3637F
:10536000042384F83930002384F8383063690BB1A2
:105370002046984772070BD56B0509D523681A6834
:1053800022F480621A6004229A602046FFF7A2FF8E
:10539000B00714D5A90512D523681A6822F4007243
:1053A0001A6002229A60E36BE363012384F83930C8
:1053B000002384F8383023690BB120469847F20661
:1053C00013D5EB0411D523681A6822F480521A60B1
:1053D00010229A60E36BE363012384F839300023E1
:1053E00084F838302046FFF776FF70BDF0B590F8AE
:1053F0003820012A03464FF002002BD0012283F807
:10540000382083F8390003EB0112D2E90740556ACE
:10541000174F44EA0040093C012C9CBF05F07F4235
:1054200010434FEA01161A6888BF40EA056091B937
:10543000516A394001435162012C9969916103D845
:10544000596A21F07F4191620122002083F83920BE
:1054500083F83800F0BDD16939400143D161991911
:10546000012C896911619CBF25F07F451562EBE72E
:10547000F0FFFC002DE9F74FDFF8BC916C4A0023E8
:105480000D6801249C4004EA0506AC4340F0B78057
:105490004D68032705F003044FEA430807FA08FCA8
:1054A000671E012F6FEA0C0C34D8876807EA0C0ED0
:1054B000CF6807FA08F747EA0E078760476827EAC8
:1054C000060EC5F300179F4047EA0E074760C768FE
:1054D00007EA0C0E8F6807FA08F747EA0E07022C56
:1054E000C76019D14FEAD30A00EB8A0A03F0070B11
:1054F000DAF820704FEA8B0B4FF00F0E0EFA0BFE0E
:1055000027EA0E0E0F6907FA0BF747EA0E07CAF8EB
:10551000207001E0032CDAD1076804FA08F407EAE6
:105520000C073C4315F4403F046068D0002401940C
:10553000D9F8444044F48044C9F84440D9F8444080
:1055400023F0030707F1804704F4804407F59C37F4
:10555000019403F0030C019CD7F808E04FEA8C0C8F
:105560000F2404FA0CF42EEA040E324CA0424DD063
:1055700004F58064A0424BD004F58064A04249D079
:1055800004F58064A04247D004F58064A04245D071
:1055900004F58064A04243D004F58064A04241D069
:1055A00004F58064A0423FD004F58064A0423DD061
:1055B00004F58064A04214BF0A24092404FA0CF400
:1055C00044EA0E04BC609468F74315F4801F0CBFD6
:1055D0003C4034439460D46815F4001F0CBF3C4039
:1055E0003443D460546815F4003F0CBF3C4034434E
:1055F00054601468ED0354BF3C40344314600133DD
:10560000102B7FF43DAF03B0BDE8F08F0024D5E749
:105610000124D3E70224D1E70324CFE70424CDE714
:105620000524CBE70624C9E70724C7E70824C5E714
:10563000003C01400000024000380240036919426A
:1056400014BF0120002070470AB18161704709042E
:10565000FBE7436901EA030221EA030141EA02414F
:105660008161704701684B6913F480634FF0000259
:1056700010D06FF480634B612023026380F83D30CB
:1056800080F83E20036C80F83C2043F00403036460
:1056900001207047184670472DE9F84606460F4628
:1056A00091461D464FEA114A3368BAF1010F0CBF0B
:1056B0005C699C6927EA0404A4B2B4FA84F464091E
:1056C000A14501D0002025E06A1CEED0FFF72AFB9F
:1056D000089BC01AA84201D8002DE5D13368BAF161
:1056E000010F0CBF5B699B6927EA03039BB2B3FA06
:1056F00083F35B099945D7D100232022336386F8D1
:105700003D2086F83E30326C86F83C3042F0200274
:1057100032640120BDE8F8862DE9F04104460F46C9
:10572000164698462568686927EA000080B2C0B12D
:105730006B695A0517D52B6843F400732B606FF41F
:1057400080636B6120220023236384F83D2084F86A
:105750003E30236C43F004032364002384F83C3080
:105760000120BDE8F081731CDDD0FFF7DBFAA0EB70
:105770000800B04201D8002ED4D123685A6927EA24
:10578000020292B2002ACDD000232022236384F8A3
:105790003D2084F83E30236C1343DDE770B50446AA
:1057A0000D46164623685B691B0601D500201EE0E6
:1057B0002046FFF757FFC8B96A1CF3D0FFF7B2FACB
:1057C000801BA84201D8002DECD123685B6913F03F
:1057D0008003E7D12022236384F83D2084F83E3003
:1057E000226C84F83C3042F020022264012070BD1B
:1057F0002DE9F0431546026885B0DDE90C7899463D
:10580000136843F4807313600E463B46CDF8008066
:1058100000224FF001110446FFF73EFF236838B124
:105820001B68DB0502D54FF400732364032620E0D8
:1058300006F0FE061E611A4943463A462046FFF727
:105840006BFFA8B9236803905A6903929B6903937D
:10585000424639462046039BFFF7A0FF064660B14B
:10586000236C042B01BF2268136843F40073136098
:105870000126304605B0BDE8F083B9F1010F236879
:1058800002D1EDB21D61F4E72A0A1A613946424697
:105890002046FFF783FF0028E2D12368F1E700BF2D
:1058A000020001002DE9FF479A46036815461A6871
:1058B00042F480621A601A68DDE90C7842F4807262
:1058C0001A600E463B46CDF8008000224FF00111D1
:1058D0000446FFF7E1FE236838B11B68DB0544BFCF
:1058E0004FF400732364032021E05FFA86F906F089
:1058F000FE061E612B4943463A462046FFF70CFF41
:10590000A0B9236803905A6903929B6903934246A6
:1059100039462046039BFFF741FF58B1236C042B07
:1059200001BF2268136843F400731360012004B0C0
:10593000BDE8F087BAF1010F23681AD1EDB24246F3
:105940001D6139462046FFF729FF02460028E5D1B0
:1059500021680B6843F480730B602046CDF800800B
:105960003B464FF00111FFF797FE226860B11368C4
:10597000B4E72A0A1A61394642462046FFF70EFF6D
:105980000028CBD12368D9E749F001031361054909
:1059900043463A462046FFF7BFFE003818BF0120B5
:1059A000C5E700BF0200010070B504460D4616466B
:1059B00023685B695B0701D500201EE02046FFF7E6
:1059C00051FEC8B96A1CF3D0FFF7ACF9801BA8429E
:1059D00001D8002DECD123685B6913F00403E7D1F3
:1059E0002022236384F83D2084F83E30226C84F822
:1059F0003C3042F020022264012070BD70B50446A4
:105A00000D46164621684B6913F0400301D0002073
:105A100011E04A69D2060FD56FF010024A612022C8
:105A2000236384F83D2084F83E30236C23640023F4
:105A300084F83C30012070BDFFF774F9801BA84248
:105A400001D8002DDED123685B6913F04003D9D162
:105A50002022236384F83D2084F83E30236C1343D6
:105A6000E4E7000070B5044608B9012070BD90F865
:105A70003D3003F0FF021BB980F83C20FCF7FAFA36
:105A8000242384F83D3023681A6822F001021A604A
:105A90001A6842F400421A601A6822F400421A603E
:105AA00000F08AFE3F4B65689D4294BF3E4B3F4BE2
:105AB00098428CBF00230123002BD6D12268394E97
:105AC00051683B4BB0FBF3F321F03F011943B54262
:105AD000516088BF4FF49676116A88BF734321F0F6
