:020000040800F2
:100000000000032095050008651E0008671E000813
:10001000691E00086B1E00086D1E0008000000002D
:10002000000000000000000000000000C172000895
:100030006F1E00080000000051730008736B000879
:10004000E5050008E5050008E5050008E5050008E8
:10005000E5050008E5050008E5050008E5050008D8
:10006000E5050008E5050008E5050008E5050008C8
:10007000E5050008E5050008E5050008E5050008B8
:10008000E5050008E5050008E5050008E5050008A8
:10009000E5050008E5050008E5050008E505000898
:1000A000E5050008E5050008E5050008E505000888
:1000B000E5050008E5050008E5050008E505000878
:1000C000E5050008E5050008E5050008E505000868
:1000D000E5050008E5050008E5050008E505000858
:1000E000E5050008E5050008E5050008E505000848
:1000F000E5050008E5050008E5050008E505000838
:10010000E5050008E5050008E5050008E505000827
:10011000E5050008E5050008711E0008E505000872
:10012000E5050008E5050008E5050008E505000807
:10013000E5050008E5050008E5050008E5050008F7
:10014000E5050008E5050008E5050008E5050008E7
:10015000E5050008E5050008E5050008E5050008D7
:10016000E5050008E5050008E5050008E5050008C7
:10017000E5050008E5050008E505000800000000A9
:10018000E5050008E5050008E5050008E5050008A7
:10019000E5050008E5050008E5050008E505000897
:0C01A0007D1E0008E5050008891E00080F
:1001B00010B5054C237833B9044B13B10448AFF3A1
:1001C00000800123237010BD6C010020000000009E
:1001D0000CC9010808B5034B1BB103490348AFF331
:1001E000008008BD00000000700100200CC901085B
:1001F00001F0FF01102A2BDB10F0070F08D010F8D8
:10020000013B013A8B422DD010F0070F42B3F6D1DB
:10021000F0B441EA012141EA014122F007047FF0F4
:1002200000070023F0E80256083C85EA010586EA4B
:10023000010685FA47F5A3FA87F586FA47F6A5FA87
:1002400087F68EB9EED1F0BC01F0FF0102F0070293
:1002500032B110F8013B013A83EA010313B1F8D13E
:100260000020704701387047002D06BF354603381F
:10027000073815F0010F07D1013015F4807F02BF58
:10028000013015F4C03F0130F0BC0138704700BFA9
:1002900053B94AB9002908BF00281CBF4FF0FF31ED
:1002A0004FF0FF3000F074B9ADF1080C6DE904CEE9
:1002B00000F006F8DDF804E0DDE9022304B0704741
:1002C0002DE9F047089D04468E46002B4DD18A4209
:1002D000944669D9B2FA82F252B101FA02F3C2F13C
:1002E000200120FA01F10CFA02FC41EA030E9440CD
:1002F0004FEA1C48210CBEFBF8F61FFA8CF708FBEE
:1003000016E341EA034306FB07F199420AD91CEBC5
:10031000030306F1FF3080F01F81994240F21C81F7
:10032000023E63445B1AA4B2B3FBF8F008FB10333F
:1003300044EA034400FB07F7A7420AD91CEB040474
:1003400000F1FF3380F00A81A74240F20781644444
:10035000023840EA0640E41B00261DB1D4400023C9
:10036000C5E900433146BDE8F0878B4209D9002D2D
:1003700000F0EF800026C5E9000130463146BDE8B7
:10038000F087B3FA83F6002E4AD18B4202D3824221
:1003900000F2F980841A61EB030301209E46002DD0
:1003A000E0D0C5E9004EDDE702B9FFDEB2FA82F225
:1003B000002A40F09280A1EB0C014FEA1C471FFA83
:1003C0008CFE0126200CB1FBF7F307FB131140EA6A
:1003D00001410EFB03F0884208D91CEB010103F137
:1003E000FF3802D2884200F2CB804346091AA4B2F9
:1003F000B1FBF7F007FB101144EA01440EFB00FECD
:10040000A64508D91CEB040400F1FF3102D2A64531
:1004100000F2BB800846A4EB0E0440EA03409CE7D0
:10042000C6F12007B34022FA07FC4CEA030C20FA7D
:1004300007F401FA06F31C43F9404FEA1C4900FA9D
:1004400006F3B1FBF9F8200C1FFA8CFE09FB18111A
:1004500040EA014108FB0EF0884202FA06F20BD98D
:100460001CEB010108F1FF3A80F08880884240F2DD
:100470008580A8F102086144091AA4B2B1FBF9F021
:1004800009FB101144EA014100FB0EFE8E4508D91C
:100490001CEB010100F1FF346CD28E456AD90238A1
:1004A000614440EA0840A0FB0294A1EB0E01A14286
:1004B000C846A64656D353D05DB1B3EB080261EBF4
:1004C0000E0101FA07F722FA06F3F1401F43C5E9CE
:1004D000007100263146BDE8F087C2F12003D84004
:1004E0000CFA02FC21FA03F3914001434FEA1C4746
:1004F0001FFA8CFEB3FBF7F007FB10360B0C43EA38
:10050000064300FB0EF69E4204FA02F408D91CEBE7
:10051000030300F1FF382FD29E422DD902386344E5
:100520009B1B89B2B3FBF7F607FB163341EA034185
:1005300006FB0EF38B4208D91CEB010106F1FF38D4
:1005400016D28B4214D9023E6144C91A46EA0046CB
:1005500038E72E46284605E70646E3E61846F8E65D
:100560004B45A9D2B9EB020864EB0C0E0138A3E7A6
:100570004646EAE7204694E74046D1E7D0467BE787
:10058000023B614432E7304609E76444023842E7FF
:10059000704700BFDFF834D0002103E00C4B5B58FC
:1005A000435004310B480C4B42189A42F6D30B4A85
:1005B00002E0002342F8043B094B9A42F9D304F0CD
:1005C000B1F81BF03DF900F0EDFE7047000003208C
:1005D0001C3A0508000000206C0100206C0100207E
:1005E000D8340120FEE700F089BC00F0F7BC70476A
:1005F00010B5042104461BF0ABF8204610BD0000E6
:1006000038B50C4B0C4C18800C4B82201980636859
:10061000984740F6110398420AD1094D23682C608F
:10062000822098472B688220DB689847002038BDDD
:100630000120FCE788010020540000208A010020EE
:100640008C0100204FF4A071F020FFF7D9BF00000B
:10065000F7B5344D2B6804461B698220984780B259
:10066000208000284CD02B680DF106025B6901A99F
:1006700082209847BDF8063040F67462934241D913
:10068000ADF80620BDF80620C2F56762043292B2CA
:100690000A2A3DD90B23B2FBF3F2234B1B889A4263
:1006A00001D9013B9AB2BDF8043040F6B8318B4213
:1006B00030D8C3F571630E339BB20F21B3FBF1F356
:1006C0001A4909888B4201D94B1E9BB2184E194D0D
:1006D00030682F68834281B28CBF591AC91AB8B2E8
:1006E000BA428CBF101A801A89B280B2014405291F
:1006F000C8BF33603368C8BF2A6063802B68A3809B
:1007000003B0F0BDB32B9CBFB423ADF80630B9E7FE
:100710000022C8E7C3F56D6308339BB20E2BCCD81B
:100720000023D3E78C0100208A01002088010020EB
:10073000900100209401002037B568460D4614460C
:10074000FFF786FFBDF8000030B1BDF802302B6026
:10075000BDF804302360012003B030BD032821D848
:10076000DFE800F0020B12190F4B1A68B2FA82F29E
:10077000520904210D4804F06DBA0B4B5A68B2FAC5
:1007800082F252090821F5E7074B9A68B2FA82F221
:1007900052091021EEE7044BDA68B2FA82F25209EC
:1007A0002021E7E7704700BF9801002000100240B9
:1007B000032821D8DFE800F0020B12190F4B1A684A
:1007C000003A18BF012204210D4804F043BA0B4B34
:1007D0005A68003A18BF01220821F5E7074B9A68CA
:1007E000003A18BF01221021EEE7044BDA68003A04
:1007F00018BF01222021E7E7704700BF98010020C1
:100800000010024003280DD8DFE800F00206080AB5
:100810000421054804F023BA0821FAE71021F8E77B
:100820002021F6E7704700BF00100240012380F846
:10083000741080F87530704700207047034B416496
:10084000003918BF01211970704700BF33320120F1
:1008500000207047836B0BB10846184770474FF66E
:10086000FF707047406803689B691847704770477E
:100870007047000070B5044600F050FC2368D3F8C0
:100880008850044BD4E90F122046AC46BDE87040B6
:10089000604700BF000000D008B503680446D3F8E5
:1008A00080309847236820469B6F984700F0ECF80B
:1008B000236820461B6F9847292001F005F800F0B7
:1008C000E3F8236820461B6F9847F8E710B5044605
:1008D00009F0A2FB23682046D3F8AC30BDE81040F5
:1008E000184700F00DBC00F011BC00F03DBC00F05A
:1008F000E3BB00F03DBC00F045BC00F0E7BB08F0F6
:10090000F3BD10B57C2104461AF022FF204610BD2D
:1009100090F877301BB1406803681B681847184689
:100920007047000010B590F8341090F874400C4BEC
:100930008C421A7809D03AB90A4A0B4914880888B7
:1009400010800C8001221A7010BD002AFCD0054ACC
:1009500005491488088810800C800022F3E700BF46
:100960002C320120283201202A32012070B50D4698
:10097000194635B9094B0A4A0A4840F2D2211AF001
:1009800015FFC0E90F52084B003A18BF01221A7038
:100990000368BDE87040D3F88C3018477CC9010863
:1009A000B4C9010802CA01083232012008B5094B56
:1009B0001B888B4203D8084B1B88934205D9074BF1
:1009C000074A08489E211AF0F1FE074B1980074B91
:1009D0001A8008BD283201202A32012047CA0108A6
:1009E000AACA010802CA01082E32012030320120B1
:1009F000012108B50022084606F061F90A4B18608B
:100A000028B90A4B0A4A28210A481AF0CFFE0022C8
:100A10000421012006F0F9F9074B186018B9074BBB
:100A2000034A2C21F0E708BDAC010020C8CB010827
:100A300011CC010840CC0108A80100208BCC010892
:100A4000024B4FF0FF31186806F083B9AC0100206B
:100A5000014B186806F0A8B9AC010020024B002138
:100A6000186806F076B900BFAC010020FFF7F0BFB0
:100A700003480449006800231A4606F001BA00BF83
:100A8000A80100200400002013B5084C00231A46DA
:100A900001A9206806F024FA20684FF0FF330022F5
:100AA00001A906F01DFA02B010BD00BFA801002088
:100AB00003685B6C18470120704703689B6A1847FE
:100AC00082B0002301930D4B1A6B42F400021A63AB
:100AD0001A6B02F400020192019A1A6942F40002B0
:100AE0001A611A6922F400021A61054B054A1A615B
:100AF000054B4FF080629A6002B0704700380240A8
:100B0000F01C00204D0B000800E100E040F2EF3047
:100B100070470000054B0360054B4FF08062C3F83F
:100B20008820BFF34F8FBFF36F8F704728CE010827
:100B300000E100E010B504464FF45A61FFF7EAFF08
:100B400020461AF005FE204610BD0000024B1B682F
:100B5000586803685B6918473432012070B5044651
:100B600025460A4B0C30002660602672667245F8F6
:100B7000203B6022294609F08DFB04F55A63EE60A4
:100B80002435AB42FBD1204670BD00BF28CE010802
:100B900008B50B290BD8DFE801F01206100A0A0A83
:100BA0000A0808080808012008BD0520FCE7054BD5
:100BB000054A064866211AF0F9FD0020F4E70220F4
:100BC000F2E700BFCDCC0108E8CC010832CD010826
:100BD00008B50A2909D8DFE801F010060E08080850
:100BE000080606060600012008BD054B054A064812
:100BF00087211AF0DBFD0020F6E70220F4E700BFB2
:100C0000CDCC01087BCD010832CD01082DE9F84398
:100C10004F7F0C4639468146FFF7BAFF94F81E8095
:100C2000054641464846FFF7B3FF4146064648465B
:100C3000FFF7CEFFA18A628B424B521A1A649A6167
:100C4000228B521A1A61E28A586342EA01425A64BC
:100C500020696268D863DA60216894F81CC0802932
:100C60004FEA0C6226D010D8202945EA020461D050
:100C700040295FD004295DD0324B2A4342F4003230
:100C80004745DA615AD0304A40E0B1F5807F07D05D
:100C9000B1F5007FF0D142F4003242F0090203E0E6
:100CA00042F4003242F00A02DA61E2681A625E62DD
:100CB00058612AE0A4682A4342F40032211DD96217
:100CC000DA6122785E62586142B1012A21D01F4B5D
:100CD0001F4A204840F211111AF068FDDA69618854
:100CE00022F47F42013922F0100242EA0122DA6145
:100CF0000120144BDA6942F02002DA61DA699206C7
:100D0000FCD410229A600028BDD0134A1A60BDE8B6
:100D1000F8836288D969541E21F47F4222F01002C0
:100D200042EA0422BCF1FF0042F0100218BF012089
:100D3000DA61DEE744F40034DC61B8E740F2012216
:100D4000E4E700BF00B0024001020100C6CD010887
:100D5000E0CD010832CD01080102020070B50C4659
:100D6000897FFFF735FFA68AE18A628B154B2569DB
:100D7000586341EA0641921B5964DD631A64266890
:100D8000E168082E0DD19A611A615862207F0E4ADF
:100D900042EA0062DA610D4A19625D61DD601A6043
:100DA00070BD0022D8611A6148090A0A02F478422B
:100DB00000F4FC600243C1F3C4010A439A63044A8D
:100DC000EDE700BF00B0024009000100010202008F
:100DD000010203000120704754207047542303FB95
:100DE000010008307047542303FB010008307047AE
:100DF0000120704740F68820704740F6882303FBA7
:100E000001000830704740F6882303FB01000830DA
:100E10007047012070471020704700EB0110083028
:100E2000704700EB011008307047084601F0EABA3D
:100E300010B5034B0360044608F0A3F8204610BD2C
:100E4000E0CE010810B50446FFF7F2FF20465C2112
:100E50001AF07EFC204610BD10B5034B036004461B
:100E600008F08FF8204610BDACCE010810B504463E
:100E7000FFF7F2FF20464FF429611AF069FC204683
:100E800010BD000010B5034B0360044608F079F86C
:100E9000204610BD78CE010810B50446FFF7F2FFDA
:100EA000204618211AF054FC204610BD10B5084BFE
:100EB0000360044600F6BC20FFF7BAFF04F12C00E3
:100EC000FFF7CAFF04F11400FFF7DCFF204610BD56
:100ED00014CF010808B50248FFF7E8FF08BD00BFBE
:100EE000B401002010B50446FFF7E0FF204640F6AD
:100EF00074411AF02DFC204610BD00002DE9F3418D
:100F000001F03CF8054601F03DF800240146234677
:100F10002846224600940EF00FFE254B254A264D0A
:100F20001A60204602F0BEF924480EF06DFD2B78C1
:100F3000BFF35B8FDB0735D428461AF00BFC88B370
:100F40001F4C204B236004F61C3604F1140004F1FE
:100F50002C0804F6BC276060C4F80880E7602661AE
:100F600008F010F8184B6361404608F00BF8174B77
:100F7000E362384608F006F8154BC4F8BC3A04F6AC
:100F8000183002F08BFD224604F61831304602F08C
:100F9000FFF9304601F036FA0E481AF025FC2846D3
:100FA0001AF0E4FB0C4802B0BDE8F041FFF762BC68
:100FB00090320120481C0020B001002008000020D1
:100FC000B401002014CF010878CE0108ACCE01088E
:100FD000E0CE0108D50E0008CC1B00200148FFF729
:100FE0005BBC00BFCC1B002070B5234C234E244BB0
:100FF000244D23603046FFF7B1FD284611F0A6FED0
:10100000214B2248DC60224C03600022F0204FF488
:1010100080712080C3E912121E4C1F492080C3E951
:1010200019121E4C1A864FF080714FF4A070596748
:101030000121C3E90422C3E90622C3E90822C3E966
:101040000A22C3E90E22C3E91022C3E91422C3E92C
:1010500016221A6683F86C201A67C3E9016583F8C3
:10106000781020800E4C83F8341020800D480270D8
:101070000D4A1A6070BD00BF280E00202C0E002003
:101080006CC901084C1C0020CC1B0020343201200C
:10109000283201202E320120010000012A320120D5
:1010A000303201202C320120F8CA01080148FFF734
:1010B00031BD00BF2C0E0020034B902283F85A2331
:1010C00083F85823704700BF00E100E0094A0A494D
:1010D000D3680A48C3F30A03013B9BB20B80116932
:1010E000C1F30A01013901801364536B43F001031A
:1010F0005363704700680140C81C0020C61C0020D4
:10110000014BD3F8AC00704700680140024B01224C
:10111000C3F8AC105A6270470068014070B50446CD
:1011200008F037FA23685D6E0BF030FD014620466B
:10113000A8472368054AD3F888502046AC460023C8
:10114000BDE87040A2F51631604700BF00B004D082
:1011500008F006BA90F84B3013B1024B01221A7016
:1011600008F00ABAC41C002008F0C4B908F01DBB7E
:10117000034B4FF080629A604FF080729A60704724
:1011800000E100E0084B4FF08062C3F88820BFF315
:101190004F8FBFF36F8F4FF08072C3F88820BFF37B
:1011A0004F8FBFF36F8F704700E100E010B5144C14
:1011B000236823B3134B144A1B6C11888B4213D141
:1011C000124B198804F02CFB226892F86630013328
:1011D00082F86630FFF74CFC206808F01DFFBDE880
:1011E00010400020FFF7BABA04F01AFB2068036829
:1011F0001B6A9847BDE810400020FFF7D9BA10BD20
:101200003432012000680140C81C0020C61C0020A8
:1012100007B5064BADF806001B68054801220DF125
:10122000060105F049F803B05DF804FB100000204A
:10123000601E0020F7B5304E304C306805F07FFE60
:10124000054678B90421204603F0FEFC00280CBFB7
:1012500052234E238DF80430306864232A4601A9B6
:1012600005F00EFE264F386805F069FE0821054698
:10127000204603F0E9FC024658B9002D0CBF4C2370
:101280004E238DF80530386864230DF1050105F013
:10129000F7FD1C4F386805F052FE054680B9102155
:1012A000204603F0D1FC00280CBF55234E238DF8B7
:1012B0000630386864232A460DF1060105F0E0FD8A
:1012C000114F386805F03BFE054680B920212046C5
:1012D00003F0BAFC00280CBF44234E238DF80730DE
:1012E000386864232A460DF1070105F0C9FD642022
:1012F00005F0D9FCA1E700BFD41C0020001002407B
:10130000D81C0020DC1C0020E01C002030B595B06B
:10131000102200210AA81AF0D5FA1422002103A8ED
:101320001AF0D0FA00241D4B01941A6C42F080523E
:101330001A641B6C03F080530193019B184B0294B9
:101340001A6842F440421A601B6803F44043029357
:101350000122029B4FF48033CDE9082302254FF48C
:101360008003CDE90E5308214FF4A873CDE9101383
:1013700008A804231393129504F070FA0F23CDE903
:1013800003354FF4A0504FF48053CDE906030521F7
:1013900003A8059404F040FC15B030BD00380240AD
:1013A000007000402DE980489BB003F0C9F9FFF7B9
:1013B000ADFF142200210DA800241AF083FAC64BB9
:1013C00000941A6BC548C64E42F010021A631A6B9D
:1013D00002F010020092009A01941A6B42F020026F
:1013E0001A631A6B02F020020192019A02941A6B9E
:1013F00042F080021A631A6B02F080020292029A93
:1014000003941A6B42F004021A631A6B02F004028E
:101410000392039A04941A6B42F001021A631A6B46
:1014200002F001020492049A05941A6B42F002023F
:101430001A631A6B02F002020592059A06941A6B5F
:1014400042F040021A631A6B02F040020692069ABA
:1014500007941A6B42F008021A631B6B03F008032F
:10146000079322463C21079B03F0F4FB9D4822464C
:10147000042103F0EFFB22469B484FF44051012525
:1014800003F0E8FB4FF003093C239448CDF840906B
:101490000DA94FF002084FF0040ACDE90D350F9465
:1014A00003F0ECFA8F480F940DA9CDE90DA5CDF806
:1014B000408003F0E3FA4FF440538B480DA9CDE987
:1014C0000D35CDE90F4803F0D9FA88480F940DA9DE
:1014D000CDE90D5403F0D2FA80480DA90827CDE9D3
:1014E0000DA4CDE90F5403F0C9FA7C480DA94FF0C3
:1014F000100BCDE90D74CDE90F5403F0BFFA774816
:101500000DA9CDE90DB4CDE90F5403F0B7FA0DA93B
:1015100020237248CDE90D34CDE90F5403F0AEFA23
:101520007348744B036003F09DF9734A734B346244
:10153000C6E9002330464FF48043C6E90434C6E9C7
:101540000244C6E9064403F06FFD5946304603F0F5
:10155000ABFF2146304603F0C6FF69486949846203
:101560004FF48273C0E900134FF400761823C0E9EA
:1015700006630A23644EC362C0E90244C0E904441E
:10158000C0E9084404F03CFE604BC6F810B04FF0D0
:10159000400CC6E900354FF4C073C6E905C34FF4EB
:1015A0000063C6E908344FF40053B3620DA9072362
:1015B0003046CDE90E3ACDE91039C6E9024AF46168
:1015C000CDE91288CDF8348004F01AFD4FF6FF7291
:1015D00009A93046CDE90957CDE90B54089404F028
:1015E0002FFD284603F0D8F84FF6FF7209A93046C0
:1015F000CDE90987CDE90B5404F022FD4FF6FF72C7
:1016000009A93046CDE90997CDE90BA404F018FDEE
:101610004FF40C730893089B0C934FF6FF7209A9C3
:101620003046CDE909A70B9504F00AFD40F26A5156
:10163000304604F023FD342221460DEB02001AF05F
:1016400041F9334E334BB486C6E900340923C6E969
:1016500005351D2340F20D1EC6E9073940F243133C
:10166000C6E909E3304640F2471340F21719C6E9CC
:101670000B93C6E90244346186F8364003F0D8FF84
:10168000FF21F022CDE912144FF4806A05214FF4B6
:10169000A073CDE90E24CDE914A1CDE916420DA920
:1016A00022463046CDE910381B4E18930D94ADF804
:1016B00064408DF8664004F086F8184B33601B6870
:1016C00098473368164EDB689847164BC6E90A48B8
:1016D000C6E90C4428E000BF003802400010024078
:1016E000301D002000080240000C024000000240B3
:1016F000E81C002000300240005C0040A086010091
:10170000601E0020005001402C1E0020400100A05F
:10171000841D002000680140D01C00201C00002017
:10172000F01C002000B002403046C6E90034C6E993
:10173000028403F0A7F82946304603F05BF9FEF770
:1017400052FF05F023FA164A2946384605F05DFB9C
:10175000144B154A18602946384605F056FB134BC2
:10176000134A18602946384605F04FFB114B124AC0
:1017700018602946384605F048FB104B104A18609F
:101780002146104805F02EFA0F4B104A18602146EA
:101790000F4805F027FA0F4B186005F009FAFEE72D
:1017A00078CF0108D41C002090CF0108D81C00205D
:1017B000A8CF0108DC1C0020C0CF0108E01C0020DD
:1017C000D8CF010835120008E41C002054CF0108CE
:1017D000EB050008CC1C0020704770477FB5094B13
:1017E0008DF817201B6802930DF117020123009258
:1017F00001930A460146044803F0BEFC07B05DF8B9
:1018000004FB00BF0C000020301D00207FB500232A
:101810008DF81730084B1B6802930A4601230DF11F
:101820001701009101930146044803F035FD9DF82E
:10183000170007B05DF804FB0C000020301D0020ED
:101840001FB5084C24680092CDE901340A460123F3
:101850000146054803F020FD003818BF012004B000
:1018600010BD00BF0C000020301D002002F094BF0E
:1018700008B506480022042103F0ECF9BDE8084051
:1018800002480122042103F0E5B900BF000802402C
:1018900038B50B4D044601220A484FF4005103F0BD
:1018A000D9F900220421284603F0D4F92046FFF795
:1018B000AFFC28460122BDE83840042103F0CAB934
:1018C00000080240000C024038B50B4D04460022CF
:1018D0000A484FF4005103F0BDF9002204212846C4
:1018E00003F0B8F92046FFF793FC28460122BDE833
:1018F0003840042103F0AEB900080240000C024059
:10190000F7B5144E144F05460C463046002204210C
:1019100003F0A0F900224FF40051384603F09AF981
:101920002846FFF775FC0D4B0D481B68224601A9A0
:1019300004F064FE384601224FF40051019C03F08C
:1019400089F930460122042103F084F9204603B0CE
:10195000F0BD00BF00080240000C02401000002053
:10196000601E002002F018BF0268034B9A4201D1AA
:1019700002F000BF704700BF001000407047000039
:1019800082B00E4B00220092596C41F480415964A0
:10199000596C01F48041009100990192196C41F059
:1019A000805119641B6C03F080530193019B0F213C
:1019B0006FF0010002B002F015BF00BF0038024016
:1019C0000268094B9A4282B00BD100230193074B66
:1019D0001A6B42F480521A631B6B03F48053019319
:1019E000019B02B0704700BF003002400038024047
:1019F00007B50F4B02689A4216D10022A3F5F043B7
:101A00000192196B41F4000119631B6B03F400038D
:101A1000019305215A20019B02F0E4FE5A2003B0F5
:101A20005DF804EB02F010BF03B05DF804FB00BFEB
:101A300000B002402DE9F043044689B01422002191
:101A400003A819F03FFF2268244B9A4243D1244C4B
:101A5000244800250095236B43F004032363236B84
:101A600003F004030093009B0195236B43F00103F3
:101A70002363236B03F001030193019B4FF01209D1
:101A80004FF400734FF001080327042603A9CDE9A2
:101A90000339CDE90587079602F0F0FF4FF4807314
:101AA0001148079603A9CDE90339CDE9058702F06E
:101AB000E5FF0295236C43F400032364236C03F4D5
:101AC00000030293029B236A43F400032362236A08
:101AD00023F40003236209B0BDE8F083005C0040FA
:101AE000003802400008024000000240F0B599B002
:101AF00004461422002107A819F0E4FE30220DEB61
:101B00000200002119F0DEFE22685E4B9A4240F08E
:101B1000B78008230C93C0231093042312930CA8BE
:101B20004FF40033159304F041F908B1FFF726FF95
:101B3000554B5648002400945A6C42F080625A6417
:101B40005A6C02F080620092009A01941A6B42F083
:101B500020021A631A6B02F020020192019A029489
:101B60001A6B42F001021A631A6B02F00102029230
:101B7000029A03941A6B42F002021A631A6B02F083
:101B800002020392039A04941A6B42F040021A6311
:101B90001A6B02F040020492049A05941A6B42F008
:101BA00004021A631A6B02F004020592059A069465
:101BB0001A6B42F008021A631B6B03F008030693CA
:101BC00002250E26069B0B964FF4806307A9CDE9EC
:101BD0000735CDE9094502F051FF41F658032C487D
:101BE0000B9607A9CDE907350927CDE9094502F08C
:101BF00045FF032327480B9707A9CDE90735CDE912
:101C0000094502F03BFF4FF4706322480B9607A989
:101C1000CDE90735CDE9094502F030FF4FF40C63FB
:101C20001D480B9607A9CDE90735CDE9094502F016
:101C300025FFC02319480B9607A9CDE90735CDE943
:101C4000094502F01BFF082315480B9607A9CDE9AB
:101C50000735CDE9094502F011FF4FF4A0530E48B6
:101C60000B9707A9CDE90735CDE9094502F006FF35
:101C700058202246052102F0B5FD582002F0E4FD6F
:101C800019B0F0BD00680140003802400014024065
:101C90000000024000040240001802400008024018
:101CA000000C024010B5044688B01422002103A89D
:101CB00019F008FE2268144B9A4223D103F56843B9
:101CC000002101915A6C114842F480125A645A6CF6
:101CD00002F480120192019A02911A6B42F02002E2
:101CE0001A631B6B03F020030293029B4FF4607294
:101CF00002230321CDE903230523CDE9061303A91C
:101D000002F0BCFE08B010BD0050014000140240BB
:101D10002DE9F04186B0002303932B4B1C68002C67
:101D20004FD14FF00108C3F80080284B00949A6B04
:101D3000274842EA08029A639B6B03EA0803009370
:101D4000022703260C25009B01A94FF63F03CDE98E
:101D50000137CDE9046502F091FE1E48059501A901
:101D6000CDE90187CDE9034602F088FE48F233133E
:101D70001948059501A9CDE90137CDE9034602F0DF
:101D80007DFE4FF683731548059501A9CDE901370E
:101D9000CDE9034602F072FE4CF20373104805953C
:101DA00001A9CDE90137CDE9034602F067FE6023C2
:101DB0000C48059501A9CDE90137CDE9034602F0AC
:101DC0005DFE06B0BDE8F081B81E0020003802407C
:101DD00000140240000802400018024000100240B7
:101DE000000C02400004024030B5014689B00022D8
:101DF000362002F0F7FC362002F026FD0025154BB8
:101E000002951A6C144C42F010021A641B6C03F019
:101E10001003029301A903A8029B03F0A9FF03F09A
:101E200097FF0E4B236040F2E733E36040000C4B1A
:101E3000B0FBF3F00138606020462561A56004F036
:101E4000C9FD20B9204604F07FFC09B030BD012057
:101E5000FBE700BF00380240BC1E0020001000401D
:101E600040420F007047FEE7FEE7FEE7FEE77047DF
:101E7000014804F0A7BC00BFBC1E0020014803F0CD
:101E800045BC00BF841D0020014802F029BD00BFF1
:101E9000F01C00200120704708B519F0B9FC16238A
:101EA00003604FF0FF3008BD08B519F0B1FC1623F0
:101EB0000360FEE770B50D4614460E46731B9C4248
:101EC00001DC204670BDAFF3008006F8010BF5E79A
:101ED00070B50D4614460E46731B9C4201DC20462D
:101EE00070BD16F8010BAFF30080F5E74FF0FF303F
:101EF00070474FF400534B6000207047012070473B
:101F0000002070470A4A116808B5034609B9094913
:101F100011601068694603448B4206D919F078FCB9
:101F20000C2303604FF0FF3008BD1360FCE700BFD7
:101F3000041F0020D8340120704710B50421044646
:101F400019F006FC204610BD08B5032913D8DFE8B8
:101F500001F002060A0E01F0F1F9006808BD01F077
:101F6000EDF94068FAE701F0E9F98068F6E701F079
:101F7000E5F9C068F2E70020F0E70000004870478C
:101F800010D001081120704713B5002451B1036827
:101F900001948DF8034001AA9C680DF10303A0474A
:101FA00002B010BD0846FBE7408970478089704742
:101FB0008088704783798088184480B27047C079E0
:101FC00000F07F007047C079C0097047818070477A
:101FD000C1807047018170474181704770477047E9
:101FE00070477047704710B4C4880368121B848818
:101FF0005B6D091B12B25DF8044B09B21847806A89
:102000007047704710B50821044619F0A1FB20461F
:1020100010BD7047704700F596730868496803C3A0
:10202000704770477047416070477047064BC0F873
:1020300048310023C0F84C3100F5A073C0F84401CA
:10204000C0F83C31704700BF5922000801230372D9
:1020500070477047034610B49A6B8A42084608D00E
:102060000A68B3F95010546D002223465DF8044B02
:1020700018475DF8044B7047704770477047000081
:102080000B68084602495B6DB1F900100022184741
:102090002832012030B4C26844685510034604EB6E
:1020A0006200D20748BF62599B6830BC48BFD35812
:1020B000184743682BB183682BB9C06800F0010052
:1020C0007047184670470120704710B4C2684168D5
:1020D0005410034601EB6200D20748BF0A599B68BF
:1020E0005DF8044B48BFD358184743682BB1836849
:1020F0002BB9C06800F001007047184670470120F6
:10210000704710B50C21044619F022FB204610BD83
:1021100010B51021044619F01BFB204610BD10B568
:102120004FF4AC71044619F013FB204610BD10B5F6
:102130005421044619F00CFB204610BD10B51021A7
:10214000044619F005FB204610BD08B50AF01EFD37
:10215000BDE808400BF0FAB8054B1B7801462BB1DF
:10216000406818B103680C315B6E1847704700BFB8
:10217000333201201F4B1B7810B5044613B90123DD
:10218000037210BD90F84D0094F84C300130C0B28D
:10219000984284F84D0024D8B4F94E2000210CF068
:1021A0001BF910F0010283B221D04FF6FF71002815
:1021B000D8BF0A461344A4F85030B4F85010238A0C
:1021C000C91A09B2A4F8501004F10C0000220BF057
:1021D00031FD6068036804F13C01DB6FBDE810402D
:1021E000184701232372002384F84D30C9E7A4F86F
:1021F0005000E2E73332012010B50446D0F83C012C
:1022000058B10368DB68984738B1D4F83C010368DB
:102210009B6898470023C4F83C3110BD1FB50C4B98
:102220001B7804468BB10B4B1C22CDE900300123F7
:10223000CDE90223406803686946DB6F9847606810
:10224000036804F10C011B6E984704B010BD00BF79
:102250003332012064D701082DE9F14FD0E9545AF7
:102260000746A86803681B6A9847EF2805D8454BBE
:10227000454AA321454819F099FA686803681B6A22
:1022800098470F2803D8424B3F4AA421F2E7E86859
:1022900003681B6A98470B2803D83E4B3A4AA5218E
:1022A000E8E7DFF8F8900AF071FC0AF0B1FCD9F821
:1022B000000010B10368DB689847D9F8000010B13E
:1022C00003681B689847DFF8D880D8F8000010B181
:1022D00003685B699847D7F8380110B103685B68F9
:1022E0009847D8F8000010B103681B689847D7F8E2
:1022F000380110B103689B689847E86803680021BB
:102300005B6A98474FF0000B234B03600446C0F80C
:1023100004B080F808B0A868036859465B6A98471B
:10232000064601F0B1FB6868036859465B6A984746
:102330003146054601F08EFBC9F80040C7F8385118
:10234000C8F80060E5B12B1DCAF800303368C5F845
:1023500008A03046DB68F56398472B6828461B6861
:102360009847214630460CF031F8236820461B6917
:10237000984723685B69204601B0BDE8F04F1847D5
:102380002B46E1E774D1010802D201080CD3010801
:1023900053D30108F6D3010840D701087432012055
:1023A00070320120F8B5044617460E460AF04AFC82
:1023B000104B0025C4E954760F4E1C60C4E95255F9
:1023C0000E4B306823600E4BC4E950350368012181
:1023D0009B68C4E94E559847284600F063FF336870
:1023E00093F876200AB1D86C00B9986812F095FA83
:1023F0002046F8BD8032012034320120F4D6010895
:10240000DCD60108064BC0F848310023C0F84C3137
:1024100000F5A073C0F84401C0F83C31704700BF1C
:1024200059220008064BC0F848310023C0F84C314F
:1024300000F5A073C0F84401C0F83C31704700BFFC
:102440002D260008064BC0F848310023C0F84C3157
:1024500000F5A073C0F84401C0F83C31704700BFDC
:10246000ED2400082DE9F041054600261A4B466090
:10247000067245F80C3B044628460F4607F0A6FFB7
:10248000164BA563C4E90F3420220123C4E91123AC
:10249000134B84F84C701B7884F84D60A4F850609E
:1024A000B3B1104B104FB3F90080E368B7F90010D7
:1024B0009B6B266128469847E3684146DB6B2846BC
:1024C0009847284607F0FDFE3B885B42A4F84E3053
:1024D0002046BDE8F08100BF7CD7010864D7010821
:1024E000333201202A320120283201202DE9F04721
:1024F000D0E9544A0746A06803681B6A984740F62B
:102500008723984205D8424B424AA321424819F0FA
:102510004DF9606803681B6A98470F2803D83F4B42
:102520003C4AA421F2E7E06803681B6A98475328F5
:1025300003D83B4B374AA521E8E7DFF8E8900AF0DB
:1025400025FB0AF065FBD9F8000010B10368DB68D1
:102550009847D9F8000010B103681B689847DFF866
:10256000C880D8F8000010B103685B699847D7F8B5
:10257000380110B103685B689847D8F8000010B1C3
:1025800003681B689847D7F8380110B103689B6847
:102590009847E068036800215B6A98471421054664
:1025A000FFF760FFA068036800215B6A9847064652
:1025B00001F068F96068036800215B6A984731465A
:1025C000044600F0FDFEC9F80050C7F83841C8F8CD
:1025D0000060DCB1231DCAF800303368C4F808A0DD
:1025E0003046DB68F4639847236820461B689847A9
:1025F000294630460BF0EAFE2B6828461B699847AF
:102600002B6828465B69BDE8F04718472346E2E798
:1026100074D1010899D401080CD3010853D30108DF
:10262000F6D3010874320120703201202DE9F04701
:10263000D0E9544A0746A06803681B6A9847EF2808
:1026400005D8424B424AA321424819F0AFF86068CE
:1026500003681B6A98470F2803D83F4B3C4AA421C4
:10266000F2E7E06803681B6A9847532803D83B4B9E
:10267000374AA521E8E7DFF8E8900AF087FA0AF080
:10268000C7FAD9F8000010B10368DB689847D9F899
:10269000000010B103681B689847DFF8C880D8F8BD
:1026A000000010B103685B699847D7F8380110B192
:1026B00003685B689847D8F8000010B103681B688E
:1026C0009847D7F8380110B103689B689847E068CD
:1026D000036800215B6A984714210546FFF7C2FE94
:1026E000A068036800215B6A9847064601F0CCF9B0
:1026F0006068036800215B6A98473146044601F030
:10270000A9F9C9F80050C7F83841C8F80060DCB131
:10271000231DCAF800303368C4F808A03046DB68CF
:10272000F4639847236820461B689847294630463B
:102730000BF04CFE2B6828461B6998472B682846EF
:102740005B69BDE8F04718472346E2E774D101080A
:10275000B6D501080CD3010853D30108F6D30108FC
:102760007432012070320120002070474FF6FF7351
:1027700083814FF0FF3303621368C36110607047B9
:102780007047704770477047704790F825201AB11E
:1027900090F8242002B11860704730B503680181B9
:1027A00085B06D460146D3F88430044628469847E4
:1027B00095E807003C3484E8070005B030BD30B52B
:1027C0000368418185B06D460146D3F884300446E4
:1027D0002846984795E807003C3484E8070005B090
:1027E00030BD0022028042808280C280704780F823
:1027F0003610704770B5036804461B6B1546984742
:102800002368294620465B6EBDE8704018470020CB
:102810007047806C7047704770477047704730B49E
:10282000C26844685510034604EB6200D20748BFF3
:1028300062599B6830BC48BFD358184743682BB1D6
:1028400083682BB9C06800F00100704718467047D4
:102850000120704710B54C21044618F079FF20463E
:1028600010BD10B51021044618F072FF204610BDAF
:1028700010B54FF40F71044618F06AFF204610BDE2
:1028800090F8252012B103685B6918477047000073
:10289000036870B55E6B124B1B6804468DB22BB992
:1028A000104B114A6C21114818F080FF1049828D9D
:1028B0000988914203D80F4B0B4A6D21F3E713F8B7
:1028C00012200D4B1B6853F822000368DB6A9847FF
:1028D000281A01B233462046BDE87040184700BFB1
:1028E00084320120A0D70108E2D701081DD80108D1
:1028F0008832012064D801088C32012000F5E27092
:10290000884208B505D10AF041F9BDE80840FFF753
:1029100089BD08BD00224FF0FF31C0E9002182606F
:10292000704770B5036804461B6B154698472368CB
:10293000294620465B6BBDE87040184770B50446D9
:102940001D46BDF91060FFF7ECFF236829462046BD
:102950009B6B9847236831462046DB6BBDE870408F
:10296000184700000022C0E90122C0E90322C0E9A3
:102970000522C0E907224FF480728284014A026076
:10298000704700BFE8D8010838B5262204460D4636
:10299000002118F097FF2046FFF7E4FF064B236065
:1029A0002B88E384FF23204684F82830294608F04A
:1029B000A8FA204638BD00BF0CE7010810B5262252
:1029C0000446002118F07EFF2046FFF7CBFF0A4B9C
:1029D000A3624FF6FF73A3854FF47F020023C4E97F
:1029E0000C32064A22604FF0FF32C4E910232387DD
:1029F000E363A364204610BD6CD1010850D90108DF
:102A00001B4B73B51B88018F8B4206462BD9194B84
:102A10001B682BB9184B194A19486C2118F0C6FECF
:102A200013F81120174B1B6853F82250164B1868E7
:102A300000F074FC2B68019001469B6A2846984779
:102A40002B6801991B6C0446284698472B6801990E
:102A50005B6A14FB00F428469847E4B2044486F805
:102A6000454002B070BD002380F84530F9E700BF53
:102A70008832012084320120A0D70108E2D7010862
:102A80001DD801088C320120903201202DE9F04F31
:102A90002DED048B04468DB0274600250BF0EAFA95
:102AA000AA4BE56347F8403B26222946384618F0F2
:102AB00009FF3846FFF756FFA54B2364FF2384F830
:102AC000663004F16C034FF6FF760AA91846A56636
:102AD00008EE103AADF82860FFF756FF04F19803AE
:102AE0000AA9184608EE903AADF82860FFF74CFFA7
:102AF00004F1C40318460AA904F1F00A09EE103AD9
:102B0000ADF8286004F59E79FFF73EFF5046FFF7C9
:102B100055FF0AA94846ADF82860FFF735FF8D4BF1
:102B2000C4F83C3101264FF0FF3304F5BC78C4E90A
:102B30005B36C4F8685184F87451404604F5E27B72
:102B4000FFF73CFF584608F003FB834BC4E98B3486
:102B5000824BC4E98D354FF4A07300932A46F023CD
:102B600029463846FFF7EAFE4FF07F43324618EE1B
:102B7000100AA3668621FFF7D4FE0C2318EE100A74
:102B80000AA9ADF8283008F0BCF9324618EE900AD0
:102B9000CC21FFF7C6FE0C2318EE900A0AA9ADF867
:102BA000283008F0AEF9324619EE100AA921FFF7D5
:102BB000B8FE0C2319EE100A0AA9ADF8283008F067
:102BC000A0F91D2304220093082160235046FFF73B
:102BD000B5FE4FF0FF33C4F82031D4F8F030A4F83C
:102BE0002451D3F88430514604A8984704AA07CA50
:102BF00004F5967383E8070004F503730393584BB9
:102C00001B682BB9574B584A6021584818F0CEFD25
:102C1000574B1B88022B03D8564B534A6121F4E7CC
:102C2000554B0221186800F079FB544A03460521F0
:102C300003980CF0DBFE039BC4F83831504B0A9329
:102C40000AA903235046ADF82C3007F05BFF32464B
:102C50004846D021FFF765FE09224846082107F0C3
:102C60009EFC3146484607F0ADFC222384F86451AF
:102C7000009329464046F0237222FFF75FFED4F806
:102C80007831A4F8AC514FF0FF32C4F8A821414686
:102C900004A8D3F88430984704AA07CA04F5DA7365
:102CA00083E8070004F21623A4F81652C4F8C031D2
:102CB0000AA9334B0A934046ADF82C6007F022FF77
:102CC0005846A0222621FFF72CFE0AAA022309A9B2
:102CD0005846ADF82830ADF8246007F070FFA4F82E
:102CE000FC515846FFF78CFE4FF0FF33251DC4E919
:102CF000803304F50B73C4F8EC313946284606F0EE
:102D000053F918EE101A284606F04EF918EE901AEC
:102D1000284606F049F919EE101A284606F044F93B
:102D20005146284606F040F94946284606F03CF947
:102D30004146284606F038F92846594606F034F947
:102D400020460DB0BDEC048BBDE8F08FF8D901082A
:102D5000A4E6010828E60108E0D90108FD280008DA
:102D600084320120A0D70108A2D801081DD801088B
:102D70008832012064D8010890320120DAD8010895
:102D80006CD10108006A7047406A704770478B88B1
:102D900080690A68DB0A50F823001044704710B5B8
:102DA000C2B1137BB3B1547BD27A240204F4E06441
:102DB0001443C26998B202EB840213888B4202D199
:102DC00092F9020010BD05D8013880B20432002803
:102DD000F3D1F7E70020F5E710B52821044618F0F5
:102DE000B7FC204610BD000030B589B00446BDF8E0
:102DF00050500695BDF84C5005959DF840500495EF
:102E00009DF83C5003959DF8385002959DF834503C
:102E100001959DF8305000950AF038FF064B23606D
:102E2000119BA361129BE361159B2362169B636256
:102E3000204609B030BD00BF2CDA0108704770474A
:102E4000704730B4C26844685510034604EB620012
:102E5000D20748BF62599B6830BC48BFD358184757
:102E600043682BB183682BB9C06800F0010070473C
:102E7000184670470120704710B51021044618F01D
:102E800067FC204610BD10B5F021044618F060FC28
:102E9000204610BD9830884208B505D109F076FE6D
:102EA000BDE80840FFF7CEBA08BD00002DE9FF419C
:102EB000044626460BF0DEF80025434BE56346F852
:102EC000403B424B2566C4E910354FF48072FF2326
:102ED00004F16C08A4F8642084F86630A4F890200B
:102EE0004FF6FF733A4AE26604F19807A4F892306D
:102EF00084F8943003A94046C4E91255C4E9145536
:102F0000C4E91655C4E91C55C4E91E55C4E9205549
:102F1000C4E92255A566ADF80C3007F0F2FF38463B
:102F200008F016F92B4BC4E938342B4B2A46C4E978
:102F30003A3529463046FFF7F4FC3046F021FFF7DA
:102F400049F830464FF4A071FFF746F84FF07F4341
:102F5000A3661B2240461421FFF7E3FC102303A9BC
:102F60004046ADF80C3007F0CCFF3846A0222321B4
:102F7000FFF7D7FC012303AA02A9ADF808303846B1
:102F80000223ADF80C3007F01AFE0423A4F8D03069
:102F90003846FFF735FD4FF0FF33C4E9353304F110
:102FA000E003C4F8C030201D3146019005F0FCFF5D
:102FB0000198414605F0F8FF0198394605F0F4FF05
:102FC000204604B0BDE8F0819CDA0108A4E60108BF
:102FD0000CE7010884DA0108952E0008704700000C
:102FE00030B5164D2C78BFF35B8F14F001048DB013
:102FF00020D1284618F0AEFBE0B1114B1149124820
:103000000894CDE909433F230793104B0693104BD7
:103010000394CDE9044301220423CDE90132009455
:1030200018231722FFF7E0FE0A4818F0DDFB2846B8
:1030300018F09CFB04480DB030BD00BF081F0020F5
:10304000C8DA010858F601080C1F0020CCF7010867
:1030500028F80108DD2F00087047000030B5154D35
:103060002C78BFF35B8F14F001048DB01FD128467C
:1030700018F070FBD8B1104B104911480894CDE9F5
:1030800009433F2307930F4B06930F4B03940122F1
:10309000CDE904430423CDE9013200941423FFF762
:1030A000A3FE0A4818F0A0FB284618F05FFB04486E
:1030B0000DB030BD341F00201CE101089CF7010851
:1030C000381F00201CF801082CF8010859300008AE
:1030D0007047000030B5154D2C78BFF35B8F14F0AE
:1030E00001048DB01ED1284618F034FBD0B13F2327
:1030F00007930F4B06930F4B0F491048089401227A
:10310000CDE904430423CDE90132CDE909440A2382
:1031100003940094FFF768FE094818F065FB284601
:1031200018F024FB05480DB030BD00BF601F002023
:1031300020F8010830F80108ACF70108641F0020EE
:10314000D13000087047000030B5154D2C78BFF322
:103150005B8F14F001048DB01ED1284618F0FAFAE6
:10316000D0B13F2307930F4B06930F4B0F491048E5
:1031700008940122CDE904430423CDE90132CDE9CD
:103180000944282303940094FFF72EFE094818F001
:103190002BFB284618F0EAFA05480DB030BD00BFF9
:1031A0008C1F002024F8010834F80108BCF701083E
:1031B000901F002045310008002070470020704714
:1031C0000EB403B503AB002153F8042B01930AF0AE
:1031D0008FFB02B05DF804EB03B070470CB407B589
:1031E00004AB53F8042B01930AF082FB03B05DF8A3
:1031F00004EB02B070470000436C10B5044673B393
:10320000038F2BB9184B194AC021194818F0CEFA70
:10321000C38E00EB43035B8C0BB30BF038FE238FA4
:10322000012B03D8134B144AC521EEE7E28E531C41
:103230009BB2092B194688BFA3F10A0104EB410197
:1032400040F63F10498C814209D10A2B04EB42021F
:1032500028BF002304EB4303508C5884518420463C
:10326000BDE810400BF016BD3CE1010845E1010846
:10327000F0E101083AE2010848E201080BF0D1BC94
:1032800010B586B002AC84E806001A460AAB059376
:103290000193099B00932146089B08F0ACFF06B000
:1032A00010BD000038B518BB124B13481B681349FA
:1032B000B3B11A689C681A4402605A681A440A60DA
:1032C0001C440F4B00221A8000F038F8054600F02D
:1032D00033F80C4B1C600C4B1D600C4B188007E046
:1032E0000B4B03600B4B0B600B4B1C68002CE8D1A5
:1032F00038BD00BFB81F0020BC1F0020C01F002029
:10330000C41F0020843201208C3201208832012029
:103310004CF8010838F801088CF80108044B1B68C8
:1033200053F82100034B1B6803EB4000704700BFBC
:10333000C01F0020BC1F00200520704700487047B8
:10334000C81F002010B5FFF789FE064C2060FFF76C
:10335000FBFE6060FFF7BEFEA060FFF741FEE0608D
:1033600010BD00BFC81F0020704710B54FF4AC71EE
:10337000044618F0EDF9204610BD10B50446D0F80B
:10338000540100F08EFB2046BDE8104009F0ACBAB5
:1033900010B50446FFF706F8014B2360204610BD28
:1033A00024E30108704704387047704710B51021B6
:1033B000044618F0CDF9204610BDA0F10400F5E751
:1033C00010B500228260044AC16002F10804203274
:1033D0000460426010BD00BF68E30108F8B5134BFC
:1033E0000360044600F50D6640F65C2540F6A40730
:1033F000635960191B682C3D9847BD42F8D104F50C
:10340000E365AE4205D056F82C3D1B683046984720
:10341000F7E704F51A76B54205D055F83C3D1B6830
:1034200028469847F7E72046F8BD00BFA4E3010807
:10343000704710B50446FFF7D1FF204640F68821BB
:1034400018F086F9204610BD10B5114C8AB0FFF770
:10345000E3F9206803F00FFC2022002102A818F0F5
:1034600031FA0C4B01934FF480421823CDE9062327
:10347000002101AA084803F0B5FB084A2060002398
:103480001370074A1370074A13700AB010BD00BFCB
:10349000D81F002090E30108453F0008C024002009
:1034A000C1240020DC1F00202DE9F04FC04BDFF8C5
:1034B00028831B7885B00546061D2BB3BD4B1B78B2
:1034C00013B3BD4C2378FBB900F5E2794946304689
:1034D00005F06AFD05F5BC77B8F80430B74A0A2153
:1034E00005F216200CF082FA3946304605F05CFDF4
:1034F00048460AF01EFB38460AF01BFB01232370E6
:10350000AF4B186803F0B7FBAE4FDFF8D0923868C6
:103510004FF0000A8DF80BA003F011FD05F50F74B4
:10352000E0B14FF0FF33386852460DF10B0103F064
:10353000D7FC9DF80B30522B40F0F580B8F92810DD
:10354000A14800F037FC0F23204603A9ADF80C304A
:1035500007F0D7FCD9F8000003F0F3FCD9F800001D
:1035600003F0EDFCF0B14FF0FF33D9F8000000227A
:103570000DF10B0103F0B4FC9DF80B304C2B40F027
:10358000E180D8F828109048494209B200F012FCB6
:103590000D23204603A9ADF80C3007F0B2FC3868C3
:1035A00003F0CFFC894FDFF83892386803F0C7FC8E
:1035B000A8B14FF0FF33386800220DF10B0103F082
:1035C0008FFC9DF80B30552B40F0CB807E48B8F92E
:1035D000281000F0F1FBD9F8000003F0B2FCD9F894
:1035E000000003F0ACFCB8B14FF0FF33D9F8000095
:1035F00000220DF10B0103F073FC9DF80B30442BFE
:1036000040F0B780D8F828106F48494209B200F05E
:10361000D3FB386803F095FC2046B8F90E20B8F9C2
:103620000C10DFF8C091FEF7DEFC05F5E3642F46D1
:1036300005F50D6AB9F91030022B00F0A280042BB9
:1036400000F0B080012B07D12368B9F906209B6DEB
:10365000B9F90410204698472C34544509F11C0947
:10366000E8D1DFF8849105F6882AB9F91030022BE9
:1036700000F0BC80042B00F0CA80012B07D1236826
:10368000B9F906209B6DB9F90410204698472C34EF
:10369000544509F11C09E8D14D4C05F5966AB4F979
:1036A0001030022B00F0B980042B00F0D380012BE6
:1036B00009D1D7F86832B4F906209B6DB4F904102B
:1036C00007F51A7098473C37BA4504F12004E6D153
:1036D000404AB8F92C3011788B4216D0DBB2137007
:1036E000502285F8C02085F8EC2085F89420002B26
:1036F00000F0BE80FF22012B85F8C02005D0022BF0
:1037000085F8EC2018BF85F89420B8F804302B4ACF
:10371000052105F503700CF069F930460AF009FA45
:1037200005B0BDE8F08F4E2B7FF418AF5146264808
:1037300000F040FB0E2303A92046ADF80C3007F043
:10374000E0FB0BE74E2B7FF42DAF1F48002100F06C
:1037500031FB0E2303A92046ADF80C3007F0D1FB56
:1037600020E74E2B7FF43BAF1748002100F024FBED
:1037700035E74E2B7FF450AF1348002100F01CFBBF
:103780004AE72368B9F906209B6DB9F90410204671
:1037900098472146304605F007FC0121484600F0D5
:1037A0004DFA59E72146304605F049FC0321F5E77B
:1037B000C0240020C1240020DC1F002099E3010860
:1037C000D81F0020D41C002080230020DC1C0020F7
:1037D000E01F00201400002078230020D81C0020C7
:1037E000E01C0020A8230020602200202368B9F9F3
:1037F00006209B6DB9F904102046984721463046B3
:1038000005F0D2FB0121484600F018FA3FE72146B7
:10381000304605F014FC0321F5E7D7F86832B4F917
:1038200006209B6DB4F9041007F51A7948469847AD
:10383000D7F86832D3F864B001231A46002148460D
:10384000D8474946304605F0AFFB0121204600F03D
:10385000F5F938E7D7F8683207F51A7108469B6E14
:10386000019198470199304605F0E9FB0321EDE706
:10387000034B012230461A700AF05BF945E700BF9E
:10388000C12400202DE9F04F05468FB0FFF7FEF868
:1038900005F50F79654B2B604FF6FF7802A9484676
:1038A000ADF80880FFF770F805F51A77DFF884B1F6
:1038B00005F5E36A3C460026204602A9ADF80880DB
:1038C000FFF762F80123C4F800B0E662A4F8308084
:1038D000A4F8328084F8343084F8356084F8366097
:1038E00084F8376084F838603C345445E4D105F5F9
:1038F0000D6A26464FF6FF78304602A92C36ADF801
:103900000880FFF741F85645F6D1564605F6882857
:103910004FF6FF7B304602A92C36ADF808B0FFF712
:1039200033F84645F6D1424E02A800F0B1F9BDF891
:103930000C30B380BDF92430059AB3830A9BF26042
:103940003362069A0B9B32617362079A0C9B726119
:10395000B362089ABDF83430B261B38505F104084A
:1039600002A800F0A7F9404605F5E27105F067FBF3
:10397000404605F5BC7105F062FB0E2302A94846DE
:10398000ADF8083007F0BDFAB6F90E20B6F90C1004
:103990004846FEF7C6FF4046494605F005FB4FF096
:1039A000040804F5DC70212240F241110190FEF779
:1039B000B8FFD4F8B83101981B6EADF8088002A9A1
:1039C00098472046212240F24111FEF7AAFF2368C2
:1039D00000261B6EADF80860204602A92C349847DB
:1039E0005445DED134460326B4FBF6F303EB430320
:1039F000E31A012B13D0022B14D0072206213846DC
:103A000006F0CDFD01343846142106F0DBFD142C00
:103A100007F13C07E8D128460FB0BDE8F08F092236
:103A20000821ECE70B220A21E9E700BFA4E3010823
:103A30007823002028E60108704704387047704753
:103A400010B51021044617F083FE204610BDA0F1EA
:103A50000400F5E710B500228260044AC16002F15B
:103A6000080420320460426010BD00BFD0E30108AA
:103A700070477047FFF7E3B910B5F021044617F01F
:103A800067FE204610BD000010B50446FFF70EFA91
:103A9000014B2360204610BD00E4010800220260B3
:103AA0007047704710B5034B0360044600F0B1F84F
:103AB000204610BD34E4010810B50446FFF7F2FFBC
:103AC00020461C2117F044FE204610BD10B50446C8
:103AD00000F0AAF8064B23604FF4C873A3614FF0BF
:103AE00018110023C4E90213024B2361204610BDC4
:103AF00034E4010803009001B0F9083010B5B0F9C2
:103B000004405B429C420BDBF02C09DCB0F90A302C
:103B1000B0F906205B429A4202DBB2F5A07F05DDD8
:103B2000042303828369438200200EE0438A591AEA
:103B300009B200294182F7DC83891C44C38984804F
:103B40001A448369C2804382012010BD10B5034B23
:103B50000360044600F05DF8204610BD48E401080B
:103B600010B50446FFF7F2FF2046202117F0F0FDC4
:103B7000204610BD10B5044600F056F8084B2360EF
:103B80004FF4167246F2A813C4E906234FF0201131
:103B90000022C4E90212034A2261A382204610BD1A
:103BA00048E4010803005802B0F90830B0F90420D5
:103BB0005B429A4210B508DBF02A06DCB0F90A3005
:103BC000B0F906405B429C4207DA04230382C369D2
:103BD00083828369438200200EE0438A591A09B226
:103BE00000294182F7DC83891A44C38982801C44FE
:103BF0008369C4804382012010BD838A591A09B2A7
:103C00000029D8BFC3698182DABF838201200020E6
:103C1000704770470020704710B51821044617F010
:103C200097FD204610BD0000034A02600322028275
:103C30004FF02012826070475CE4010801827047F7
:103C40008180C28070478181C281704730B5B0F9F0
:103C50000820B0F90440B1F904502244AA4215DD0D
:103C6000B1F908302B449C4210DAB0F90630B0F9B3
:103C70000A20B1F906401A44A24207DDB1F90A0050
:103C800020448342ACBF0020012030BD0020FCE76F
:103C900010B5054B0360002304468380083000F014
:103CA00033F8204610BD00BF70E401088388194432
:103CB0008180704710B5044B044640F8083B00F083
:103CC0000FF8204610BD00BF70E4010810B504468F
:103CD000FFF7F0FF2046302117F03AFD204610BDD7
:103CE00010B5034B03600446FFF793FF204610BD59
:103CF00080E4010810B50446FFF7F2FF20462821B2
:103D000017F026FD204610BD10B50446FFF78CFFC6
:103D100003210A480A4B2162A1844FF01C11C4E917
:103D2000010142F21072236000214FF4C873C4E90C
:103D30000632E160A2826382204610BD6800DC008A
:103D400080E40108438A591A09B2002941821FDC24
:103D500082888389C1891A44C38812B20B441BB27A
:103D600081698280002AC380418207DA0022828032
:103D7000002B07DA0023C38001207047D02AF7DD2B
:103D8000D022F4E7B3F5907FF6DD4FF49073F2E7BD
:103D900000207047838A591A09B20029D8BFC36925
:103DA0008182DABF8382012000207047838C19440E
:103DB0008184704781817047C18170472DE9F04748
:103DC000214E224C3368DFF88880DFF888901B1A78
:103DD000054633601427B4F91030032B09D0294667
:103DE0002046FFF7E1FE013F04F12004F3D1BDE8D6
:103DF000F0873368002BF6DCD8F8003003F00102BE
:103E0000002A4FF6E0714FF6FF7A0CBFF0214FF019
:103E1000010A032B94BF19F803200022022BD4BF00
:103E2000013300232046C8F80030FFF709FF0022C5
:103E300051462046FFF707FF02212046FFF7FEFE0E
:103E400042F210733360CEE718000020E01F00201C
:103E5000C42400208CE401082DE9F84301460646FD
:103E60001448154CDFF85480DFF85490FFF792FFA8
:103E700004F58C770546B4F91030032B08D0314691
:103E80002046FFF739FE1C34BC42F4D1BDE8F8836C
:103E9000002DF8D0B8F80020B9F80010103A92B20E
:103EA0002046FFF7CDFE02212046FFF7C7FE002582
:103EB000E9E700BF80230020A8230020CA240020B7
:103EC000C8240020F7B51D4C054614261C27B4F95C
:103ED0001030012B10D129462046FFF78EFE58B135
:103EE000174A00231046B2F91010032918D00133E5
:103EF0000A2B02F11C02F6D1013E04F12004E6D1A6
:103F00000F4C0A26B4F91030012B03D12946204664
:103F1000FFF7F2FD013E04F11C04F3D103B0F0BD44
:103F2000E288A188103207FB030092B20190FFF7EC
:103F300087FE01980221FFF781FEDDE7E01F0020E8
:103F4000602200202DE9F74FDFF8DCA1DFF8DCB1BB
:103F5000002404EB0A064FF6CE7211463046FFF7F6
:103F60006FFE04EB0B054FF6CE7211462846FFF7A5
:103F700067FE4FF6FB7200213046FFF764FE052214
:103F800000212846FFF75FFE03213046FFF756FE6B
:103F90001C3403212846FFF751FEB4F58C7FD8D19D
:103FA000594F00253C464FF6CE7211462046FFF78A
:103FB00047FE013520460321FFF740FE142D04F192
:103FC0002004F0D10026514B514A1B78127801365B
:103FD00023B1002AFBD003B0BDE8F08F012E4D4C79
:103FE0004D4DA2890CBF18461E464C4B1A804C4BB7
:103FF000E2891A8018BF01202870FFF7DFFE2978B8
:1040000004F10800FFF79EFE2878FFF725FF2878C7
:10401000FFF758FF3D464FF0140804F10809B5F9C1
:104020001030012B5FD149462846FFF70FFE0028CC
:1040300059D03C484FF0FF31FFF7B8FE0421284625
:10404000FFF7FCFD37484FF482726821FFF7F8FD57
:104050003D464FF01408B5F91030012B19D1D14667
:104060000A22B9F91010012943D149462846019284
:10407000FFF7ECFD019A00283BD004212846FFF70A
:10408000DDFD04214846FFF7D9FD22480521FFF751
:104090000DFEB8F1010805F12005DCD121495D468E
:1040A0004FF00A08B5F91030012B27D12846FFF749
:1040B000CDFD1C4910B31B484FF0FF31FFF776FED2
:1040C00004212846FFF7BAFD16484FF48272682192
:1040D000FFF7B6FDB4F92C30002B3FF774AF0B4A55
:1040E000012313706FE7B8F1010805F1200596D19F
:1040F000AEE7013A09F11C09B3D1CAE7B8F10108EA
:1041000005F11C05CED1E5E7E01F0020C02400200A
:10411000C124002078230020DD1F0020C8240020B7
:10412000CA24002080230020A82300206022002031
:1041300038B50F480F4DFFF7ABFD002428191C348C
:10414000FFF7C4FCB4F58C7FF8D10B4D002428197F
:104150001C34FFF7BBFCB4F58C7FF8D1074D00246D
:1041600028192034FFF706FDB4F5207FF8D138BDBB
:1041700078230020A823002060220020E01F0020D8
:1041800038B5144C1425D4F8603204F518705B6807
:104190009847013DA4F12004F5D10F4C0A25D4F82D
:1041A000FC3004F1FC005B689847013DA4F11C045D
:1041B000F5D10A4C0A25D4F8FC3004F1FC005B6808
:1041C0009847013DA4F11C04F5D1BDE838400448EE
:1041D000FFF770BDE01F002060220020A823002010
:1041E00078230020F02070474FF4A07070472920FA
:1041F000FDF76ABB2820FDF767BB08B5FDF738FB64
:10420000CA20FDF761FBC320FDF742FB0820FDF744
:104210003FFB5020FDF73CFBCF20FDF755FB002076
:10422000FDF736FBC120FDF733FB3020FDF730FBF7
:10423000ED20FDF749FB6420FDF72AFB0320FDF785
:1042400027FB1220FDF724FB8120FDF721FBE8204E
:10425000FDF73AFB8520FDF71BFB0020FDF718FB5F
:104260007820FDF715FBCB20FDF72EFB3920FDF75D
:104270000FFB2C20FDF70CFB0020FDF709FB342081
:10428000FDF706FB0220FDF703FBF720FDF71CFB03
:104290002020FDF7FDFAEA20FDF716FB0020FDF7D0
:1042A000F7FA0020FDF7F4FAB120FDF70DFB00202E
:1042B000FDF7EEFA1B20FDF7EBFAB620FDF704FB45
:1042C0000A20FDF7E5FAA220FDF7E2FAC020FDF78B
:1042D000FBFA1020FDF7DCFAC120FDF7F5FA1020FB
:1042E000FDF7D6FAC520FDF7EFFA4520FDF7D0FA25
:1042F0001520FDF7CDFAC720FDF7E6FA9020FDF76F
:10430000C7FA3620FDF7E0FAC820FDF7C1FAF2201F
:10431000FDF7DAFA0020FDF7BBFAB020FDF7D4FA7A
:10432000C220FDF7B5FAB620FDF7CEFA0A20FDF758
:10433000AFFAA720FDF7ACFA2720FDF7A9FA042071
:10434000FDF7A6FA2A20FDF7BFFA0020FDF7A0FA34
:104350000020FDF79DFA0020FDF79AFAEF20FDF707
:1043600097FA2B20FDF7B0FA0020FDF791FA002014
:10437000FDF78EFA0120FDF78BFA3F20FDF788FA52
:10438000F620FDF7A1FA0120FDF782FA0020FDF7E3
:104390007FFA0620FDF77CFA2C20FDF795FAC8205D
:1043A000FDF7E0FA2620FDF78FFA0120FDF770FAFD
:1043B000E020FDF789FA0F20FDF76AFA2920FDF7C2
:1043C00067FA2420FDF764FA0C20FDF761FA0E204D
:1043D000FDF75EFA0920FDF75BFA4E20FDF758FA6B
:1043E0007820FDF755FA3C20FDF752FA0920FDF739
:1043F0004FFA1320FDF74CFA0520FDF749FA172074
:10440000FDF746FA1120FDF743FA0020FDF740FAC8
:10441000E120FDF759FA0020FDF73AFA1620FDF7E2
:1044200037FA1B20FDF734FA0420FDF731FA11208A
:10443000FDF72EFA0720FDF72BFA3120FDF728FAB9
:104440003320FDF725FA4220FDF722FA0520FDF77B
:104450001FFA0C20FDF71CFA0A20FDF719FA282094
:10446000FDF716FA2F20FDF713FA0F20FDF710FACB
:104470001120FDF729FAC820FDF774FA2920FDF76D
:1044800023FABDE808402C20FDF71EBA08B5FDF759
:10449000EFF90321D320FDF733FA80B208BD10B540
:1044A000C4B2022203212046FDF798F90A20FDF745
:1044B000DDF9204600220321FDF790F9BDE8104008
:1044C0000220FDF7D3B938B50446E4B2FDF784F90C
:1044D00000212046FDF79AF9012105462046FDF707
:1044E00095F940EA052080B238BD10B5C4B240212C
:1044F0002046FDF78BF9030607D54C212046FDF732
:1045000085F9003818BF012010BD01224B2120463B
:10451000FDF764F9204600224B21FDF75FF90020EA
:10452000F2E773B50423C4B20E461546D7210DEB4E
:1045300003022046FDF784F9019B1BBA1A0DC3F351
:104540000B23328020462B8001224B21FDF746F9B8
:1045500000224B212046FDF741F902B070BD00005A
:1045600010B50A4B1A78904204460DD0597888420B
:104570000AD00AB141B901229C54FDF72DF9204619
:10458000BDE81040FFF78BBF10BD00BFCC2400205A
:1045900010B5C4B209212046FDF738F940F00100FA
:1045A000C2B209212046BDE81040FDF717B910B589
:1045B000C4B209212046FDF729F9092100F0FE02C5
:1045C0002046BDE81040FDF709B938B5C4B20D4624
:1045D00020460A21FDF71AF92843C2B20A212046D3
:1045E000BDE83840FDF7FAB807B50190FDF7F5F8DA
:1045F00001981F21FFF7E9FF019803B05DF804EB74
:10460000FFF7C6BF38B5C4B20D4620460A21FDF7F4
:10461000FDF820EA0500C2B20A212046BDE8384074
:10462000FDF7DCB810B50446FFF7C1FF20461F2197
:10463000BDE81040FFF7E6BF10B5C0B20C460B2135
:10464000FDF7E4F8204010BD1F21FFF7F5BF0A4633
:10465000C0B20B21FDF7C2B81F21FFF7F8BF38B574
:10466000C4B20D4620461721FDF7D0F820EA050018
:10467000C2B217212046BDE83840FDF7AFB870B58B
:10468000C4B2064604212046FDF7C0F8042100F01C
:10469000FB0205462046FDF7A1F83046F021FFF762
:1046A000DEFF05F0F80220460421FDF797F84922C5
:1046B00020212046FDF792F80220FDF7D7F820468A
:1046C00001222121FDF78AF820469A224121FDF797
:1046D00085F8204601224A21FDF780F82046012274
:1046E0004B21FDF77BF8204600224B21FDF776F8A1
:1046F000204601225621FDF771F82046012258215B
:10470000FDF76CF8204601224021FDF767F82046AE
:10471000FF220B21FDF762F8BDE870400220FDF793
:10472000A5B80000054BD3F8882042F47002C3F806
:1047300088204FF000629A60704700BF00ED00E0F3
:1047400008B50B4B1A6842F400721A601A6842F4FA
:1047500080621A601A6842F480721A60032000F0C6
:104760002FF80020FDF740FBFDF70AF9002008BDF7
:10477000003C0240034A044B11681B780B44136051
:10478000704700BFD024002080000020014B186833
:10479000704700BFD024002038B50446FFF7F6FF6D
:1047A000631C1CBF054B1B78054618BFE418FFF7B8
:1047B000EDFF431BA342FAD338BD00BF80000020A9
:1047C0000749CA6822F4E0620302120403F4E063BA
:1047D000120C134343F0BF6343F40033CB607047C4
:1047E00000ED00E0164B30B5DC68C4F30224C4F1E0
:1047F0000705231D042D28BF0425062B4FF0FF338A
:104800008CBF033C002403FA05F521EA0501A3400F
:1048100022EA0302A140002841EA0203ACBF00F1F2
:104820006040084A4FEA0313B8BF00F00F00DBB244
:10483000AABF00F56140135480F8003330BD00BFBB
:1048400000ED00E014ED00E0002808DB4209012340
:1048500000F01F0003FA00F0014B43F822007047FC
:1048600000E100E010B5044650B1437903F0FF02C7
:1048700013B90271FDF7A4F801236371002010BD84
:104880000120FCE710B5044630B390F8393003F04E
:10489000FF021BB980F83820FDF7AAF8226861688A
:1048A000022384F83930136823F440330B43136038
:1048B000536BA16823F007030B435363136CE16848
:1048C00023F47F5323F03F030B43136400200123A1
:1048D000E06384F8393010BD0120FCE77047704771
:1048E000036870B55E681D68F207044614D5E905D3
:1048F00012D51A6822F480721A60C26B42F001026B
:10490000C26301229A60042380F83930002380F8C2
:104910003830436903B19847B20616D5AB0414D5B5
:1049200023681A6822F400521A6020229A60E36B0E
:1049300043F00203E363042384F83930002384F84E
:10494000383063690BB120469847300716D52905E2
:1049500014D523681A6822F400621A6008229A604B
:10496000E36B43F00403E363042384F8393000234A
:1049700084F8383063690BB12046984772070BD52D
:104980006B0509D523681A6822F480621A60042234
:104990009A602046FFF7A2FFB00714D5A90512D5EB
:1049A00023681A6822F400721A6002229A60E36B8C
:1049B000E363012384F83930002384F83830236915
:1049C0000BB120469847F20613D5EB0411D52368A6
:1049D0001A6822F480521A6010229A60E36BE36333
:1049E000012384F83930002384F838302046FFF75B
:1049F00076FF70BDF0B590F83830012B4FF0020310
:104A00002BD0012280F8393080F8382000EB0113D8
:104A1000D3E907425D6A184F44EA0242093C012C7F
:104A20009CBF05F07F431A434FEA0116036888BF15
:104A300042EA056299B9596A39400A435A62012C1F
:104A400082699A6103D8426A22F07F429A62012306
:104A500080F83930002380F838301846F0BDD96925
:104A600039400A43DA618219012C92691A619CBFAC
:104A700025F07F451D62EAE7F0FFFC002DE9F74FC6
:104A8000DFF8C0916D4A00230D6801249C4004EAC0
:104A9000050CAC4340F0B9804D6805F003044FEAC3
:104AA00043080326671E06FA08F6012F6FEA06067A
:104AB00034D8876807EA060ECF6807FA08F747EA8E
:104AC0000E078760476827EA0C0EC5F300179F4062
:104AD00047EA0E074760C76807EA060E8F6807FABD
:104AE00008F747EA0E07022CC76019D14FEAD30A2C
:104AF00000EB8A0A03F0070BDAF820704FEA8B0B01
:104B00004FF00F0E0EFA0BFE27EA0E0E0F6907FA92
:104B10000BF747EA0E07CAF8207001E0032CDAD140
:104B2000076804FA08F43E40264315F4403F066047
:104B30006BD04FF0000ACDF804A0D9F84460404C87
:104B400046F48046C9F84460D9F8446006F48046CB
:104B50000196019E23F0030606F1804606F59C3679
:104B600003F0030ED6F808804FEA8E0E0F2707FADF
:104B70000EF7A04228EA07074ED004F58064A04251
:104B80004CD004F58064A0424AD004F58064A04271
:104B900048D004F58064A04246D004F58064A04269
:104BA00044D004F58064A04242D004F58064A04261
:104BB00040D004F58064A0423ED004F58064A04259
:104BC0000CBF09240A2404FA0EF43C43B460946830
:104BD0006FEA0C06EF0254BF34404CEA04049460C0
:104BE000D468AF0254BF34404CEA0404D460546823
:104BF000AF0354BF34404CEA040454601468ED031E
:104C000054BF34404CEA040414600133102B7FF489
:104C10003BAF03B0BDE8F08F5446D4E70124D2E7A0
:104C20000224D0E70324CEE70424CCE70524CAE716
:104C30000624C8E70724C6E70824C4E7003C01406F
:104C400000000240003802400369194214BF0120ED
:104C5000002070470AB1816170470904FBE743698E
:104C600001EA030221EA030141EA0241816170473E
:104C700001684B6913F480634FF0000210D06FF4A9
:104C800080634B612023026380F83D3080F83E2032
:104C9000036C80F83C2043F0040303640120704758
:104CA000184670472DE9F84606460F4691461D46C0
:104CB0004FEA114A3368BAF1010F0CBF5C699C6975
:104CC00027EA0404A4B2B4FA84F46409A14501D02B
:104CD000002017E06A1CEED0FFF758FD089BC01AB1
:104CE000A84201D8002DE5D100232022336386F8A5
:104CF0003D2086F83E30326C86F83C3042F020028F
:104D000032640120BDE8F8862DE9F04104460F46E3
:104D1000164698462568686927EA000080B2B8B14F
:104D20006B695A0516D52B6843F400732B606FF43A
:104D300080636B6120220023236384F83D2084F884
:104D40003E30226C42F00402226484F83C300120A0
:104D5000BDE8F081731CDED0FFF718FDA0EB080062
:104D6000B04201D8002ED5D100232022236384F83D
:104D70003D2084F83E30226C42F02002E4E770B51A
:104D800004460D46164621684B6913F0400301D0D6
:104D9000002010E04A69D2060ED56FF010024A6179
:104DA0002022236384F83D2084F83E30226C226464
:104DB00084F83C30012070BDFFF7E8FC801BA8425E
:104DC00001D8002DDFD100232022236384F83D2069
:104DD00084F83E30226C42F02002E8E770B50446C9
:104DE0000D46164623685B695B0701D5002070BD40
:104DF0002046FFF73DFFA8B96A1CF3D0FFF7C6FCB9
:104E0000801BA84201D8002DECD10023202223636F
:104E100084F83D2084F83E30226C84F83C3042F027
:104E2000200222640120E2E770B504460D461646D2
:104E300023685B691B0601D5002070BD2046FFF783
:104E400017FFA8B96A1CF3D0FFF7A0FC801BA8428B
:104E500001D8002DECD100232022236384F83D20CB
:104E600084F83E30226C84F83C3042F02002226408
:104E70000120E2E72DE9F0431546026885B0DDE93F
:104E80000C789946136843F4807313600E463B46D2
:104E9000CDF8008000224FF001110446FFF702FF19
:104EA000236838B11B68DB0502D54FF40073236417
:104EB00003200AE006F0FE061E61194943463A4601
:104EC0002046FFF721FF18B1012005B0BDE8F083AF
:104ED000236803905A6903929B69039342463946BB
:104EE0002046039BFFF7A0FF40B1236C042B01BFBA
:104EF0002268136843F400731360E5E7B9F1010F0A
:104F0000236802D1EDB21D61DFE72A0A1A61394632
:104F100042462046FFF788FF0028E6D12368F1E7E4
:104F2000020001002DE9FF479A46036815461A68FA
:104F300042F480621A601A68DDE90C7842F48072EB
:104F40001A600E463B46CDF8008000224FF001115A
:104F50000446FFF7A7FE236848B11B68DB0502D5AE
:104F60004FF400732364032004B0BDE8F0875FFAB8
:104F700086F906F0FE061E612A4943463A46204657
:104F8000FFF7C2FE08B10120EEE7236803905A69DB
:104F900003929B690393424639462046039BFFF7E1
:104FA00043FF40B1236C042B01BF2268136843F414
:104FB00000731360E7E7BAF1010F23681AD1EDB26D
:104FC0001D61424639462046FFF72EFF0028E9D1F1
:104FD0002268136843F4807313604FF00111024696
:104FE000CDF800803B462046FFF75CFE226860B1AA
:104FF0001368B3E72A0A1A61394642462046FFF78A
:1050000013FF0028CED12368D9E749F001031361CB
:10501000044943463A462046FFF776FE003818BF5B
:105020000120A1E70200010070B5044608B9012083
:1050300070BD90F83D3003F0FF021BB980F83C20B2
:10504000FCF7F8FC242384F83D3023681A6822F02A
:1050500001021A601A6842F400421A601A6822F4C7
:1050600000421A6000F074FE3F4B65689D4294BF99
:105070003E4B3F4B98428CBF00230123002BD6D1DF
:105080002268394E53683B49B0FBF1F123F03F03EE
:105090000B43B542536088BF4FF49676136A88BFBE
:1050A000714323F03F0384BF4FF47A76B1FBF6F1EE
:1050B000013119431162D169431E2B4821F44F413C
:1050C000854221F0FF0132D86D0040F6FC70B3FB41
:1050D000F5F30133034242D0C3F30B030B43D36117
:1050E000D4E907301168034321F0C0010B4313607A
:1050F0009168D4E9030321F40341034321F0FF0144
:105100000B439360D4E90530D168034321F0FF01DC
:105110000B43D360136843F0010313600020202386
:10512000206484F83D30206384F83E0080E7A06866
:1051300050B905EB4505B3FBF5F30133C3F30B039E
:105140007BB143F40043C9E719204543B3FBF5F3B2
:105150000133C3F30B0323B143F44043BEE70423FD
:10516000BCE70123BAE700BFA08601007F841E00D0
:10517000FF083D0040420F002DE9F74304469946E1
:105180000C9E0F469046FFF701FB94F83D30202B14
:10519000054603D0022003B0BDE8F08300903C49EF
:1051A000192301222046FFF77DFD0028F2D194F853
:1051B0003C30012BEED02068012384F83C3003689A
:1051C000D9075EBF036843F001030360036823F45B
:1051D00000630360212384F83D30402384F83E308F
:1051E000002323640A9B6362BDF82C306385638DC2
:1051F0002385284BE362CDE900654B46424639469C
:105200002046FFF737FE00282AD00120C3E7FFF72A
:105210000BFE40B1236C042B01BF2268136843F4DA
:1052200000731360F1E7636A27681A4612F8011BDE
:1052300039616262628D218D013A92B262857A692A
:10524000481E80B2520720850AD548B15A783A6183
:1052500002336362638D013B02399BB22185638512
:10526000238D2A4631462046002BD0D1FFF7B6FDCC
:105270000028CFD12268136843F400731360202301
:1052800084F83D3084F83C0084F83E0083E700BF9A
:10529000020010000000FFFF2DE9F043044687B034
:1052A0009946109F0D469046FFF770FA94F83D30EE
:1052B000202B064604D00225284607B0BDE8F0831F
:1052C00000907649192301222046FFF7EBFC0028C5
:1052D000F1D194F83C30012BEDD02068012384F803
:1052E0003C300368DB075EBF036843F001030360E3
:1052F000036823F400630360222384F83D304023D5
:1053000084F83E30002323640E9B6362BDF83C307A
:105310006385638D2385624BE3622946CDE9007680
:105320004B4642462046FFF7FDFD054608B10125E4
:10533000C2E7228D2368B2B902905A6902929A6933
:105340000292029A1A6842F400721A60DFF85481DD
:10535000238D002B2CD1202284F83D2084F83C3072
:1053600084F83E30A8E7012A0AD11A6822F4806244
:105370001A6003905A6903929A690392039AE1E7CB
:10538000022A0ED11A6822F480621A601A6842F466
:1053900000621A6004905A6904929B690493049B0A
:1053A000D4E705905A6905929B690593059BCDE763
:1053B000032B56D8012B15D1324639462046FFF72C
:1053C000DEFC0028B3D123681A69636A1A70636A25
:1053D00001336362238D013B2385638D013B9BB2C7
:1053E0006385B5E7022B00963B464FF0000241462D
:1053F000204619D1FFF756FC002898D123681A6877
:1054000042F400721A601A69636A1A70626A531C65
:105410006362238D013B2385638D013B9BB26385D2
:1054200023681B695370D2E7FFF73CFC00287FF428
:105430007EAF23681A6822F480621A601A69636A70
:105440001A70636A009601336362238D013B2385E2
:10545000638D013B9BB2638502463B464146204635
:10546000C8E7324639462046FFF789FC00287FF41A
:105470005EAF23681A69636A1A70626A531C6362BA
:10548000238D013B2385638D013B9BB2638523689C
:10549000596949077FF55CAFC3E700BF0200100000
:1054A0000000FFFF0400010010B590F83D30202BF4
:1054B000DCB216D1242380F83D3003681A6822F04C
:1054C00001021A605A6A22F010025A625A6A1143A3
:1054D00059621A6842F001021A6080F83D400020CB
:1054E00010BD0220FCE730B590F83D30202BDCB237
:1054F00016D10268242380F83D30136823F001039D
:105500001360556A4FF6F0732B400B439BB2536206
:10551000136843F00103136080F83D40002030BD64
:105520000220FCE70068D1F800C0D2018432831861
:105530002DE9F043C6685D684C68D1F8189005F411
:1055400070455D60C5680CF10107C5F30B45C6F3F6
:105550000B463D44264445EA06455D60C568CE6875
:10556000C5F30A052E449D6805F470459D60C76823
:105570008D68C7F30A0701353D4445EA06459D603D
:105580001D690E6925F007051D614FF0000E1E61B3
:105590009D6991F8327091F83180C3F818E091F864
:1055A000305045EA096545EA082545EA07459D6109
:1055B0005D6925F0FF055D614D695D61DD6925F47B
:1055C000E06525F00705DD61D1E907573D43DD6161
:1055D0009D6A4D6AC3F828E09D621EB3012E23D058
:1055E000B51E022D22D9072E0CBF02250125DE6A29
:1055F00006F0E026DE62A4EB0C048E6AC96A6C43F6
:105600006E43033444EA0644DC621C6B24F4FF64FA
:1056100024F007041C631963835843F0010383508B
:10562000BDE8F0830425E2E70325E0E70225DEE795
:1056300038B50446002863D090F8A13003F0FF028B
:105640001BB980F8A020FCF751FA022384F8A1309E
:1056500023689A6922F070429A61D4E901200243DA
:10566000E06899690243206902430A439A619A6893
:10567000244960690A409A609A6842EA0042A06937
:1056800002439A60DA68E0690A40DA60DA6842EA5E
:105690000042206A0243DA601A69606A0A401A61AD
:1056A0001A6942EA0042A06A02431A615A6911402B
:1056B00059615A69E16A42EA0142216B0A435A611F
:1056C000D96A94F8360094F8355001F07F41D962D8
:1056D000D96A94F834200A4342EA052242EA004299
:1056E000DA625A6B42F006025A639A6942F001028A
:1056F0009A6100200123C4F8A40084F8A13038BDC9
:105700000120FCE700F800F070477047036870B5AF
:105710009E6B5D6B7207044614D5690712D55A6BF0
:1057200022F004025A630422DA63D0F8A43043F072
:105730000103C0F8A430002380F8A12080F8A03035
:10574000FFF7E2FFB20716D5AB0714D523685A6BF3
:1057500022F002025A630222DA63D4F8A43013431F
:10576000C4F8A430042384F8A130002384F8A030C6
:105770002046FFF7C9FFF00710D5E9070ED52368CB
:105780005A6B22F001025A630122DA63002384F883
:10579000A12084F8A0302046FBF708FD320711D580
:1057A0002B070FD523685A6B22F008025A63082290
:1057B000DA63012384F8A130002384F8A030204666
:1057C000FFF7A3FF70BD2DE9F04190F8A030012B49
:1057D00006460F4694464FF002001FD04FF00108D6
:1057E00086F8A08086F8A10034240D4604FB0264EC
:1057F0000FCD38340FC40FCD0FC40FCD0FC42B689D
:105800002360304662463946FFF78CFE336800203D
:10581000C3F8248086F8A18086F8A000BDE8F08156
:1058200090F8A030012B4FF0020312D080F8A13085
:1058300003685A6B22F001025A63074A11645A6BDB
:1058400042F001025A63012380F8A130002380F85E
:10585000A0301846704700BF006801402DE9F341B1
:10586000044640B30368DD0710D4236898075ED46C
:1058700023681A0700F1A08023685B0700F1C0804D
:10588000A069002840F0288100202BE08F4B9A6807
:1058900002F00C02042A07D09A6802F00C02082ACF
:1058A0000BD15A68510208D5884B1B689A03DCD586
:1058B0006368002BD9D1012014E06268B2F5803F03
:1058C00013D11A6842F480321A60FEF75FFF7F4EF0
:1058D000054633689B03C8D4FEF758FF401B642875
:1058E000F7D9032002B0BDE8F081784DB2F5A02FC2
:1058F0002B6807D143F480232B602B6843F480335B
:105900002B60E2E723F480332B602B6823F48023A1
:105910002B60002AD9D1FEF739FF06462B689F037A
:10592000A3D5FEF733FF801B6428F7D9D9E7674B6F
:105930009A6812F00C0F07D09A6802F00C02082A3D
:1059400011D15B685E020ED4604A13689D0702D5D0
:10595000E368012BAFD11368216923F0F80343EA10
:10596000C103136084E7E268594BB2B101221A60A7
:10597000FEF70CFF554D06462B68980707D52B6898
:10598000226923F0F80343EAC2032B6070E7FEF7B5
:10599000FDFE801B0228EFD9A3E71A60FEF7F6FE92
:1059A0004A4E0546336899077FF562AFFEF7EEFE73
:1059B000401B0228F6D994E76269454B82B1012267
:1059C000C3F8802EFEF7E2FE404E0546736F9F0738
:1059D0003FF552AFFEF7DAFE401B0228F6D980E70A
:1059E000C3F8802EFEF7D2FE384E0546736F980737
:1059F0007FF542AFFEF7CAFE401B0228F6D970E7DA
:105A0000324B1A6C12F0805228D101921A6C42F07B
:105A100080521A641B6C03F080530193019B012791
:105A20002C4D2B68D9051BD5A368284D012B27D1F8
:105A30002B6F43F001032B67FEF7A8FE234E0546AC
:105A400041F28838336F9B0739D5002F3FF418AFE8
:105A50001E4A136C23F08053136411E70027DFE71D
:105A60002B6843F480732B60FEF790FE06462B688C
:105A7000DA05D9D4FEF78AFE801B0228F7D930E771
:105A8000052B04D12B6F43F004032B67D0E72A6F5B
:105A900022F001022A672A6F22F004022A67002BF3
:105AA000CAD1FEF773FE41F2883806462B6F98077D
:105AB000CBD5FEF76BFE801B4045F7D911E7FEF70B
:105AC00065FE401B4045BDD90BE700BF00380240D2
:105AD0000000474200700040364DAB6803F00C03F5
